:020000040000FA
:1000000012288207033401349934633425341134BF
:10001000413461349F340934493485340D34C1345A
:100020001F34FF340030B200B300B400B500B60096
:10003000B700B800B900BA00BB00BC00BD00BE00EC
:10004000BF008B01FF3087008316031341308F0000
:10005000833081008501F130860087010317880114
:10006000890183120313FF30850086008700323038
:10007000D300283081008614811B5028061C3C28A0
:100080000608F039D100D10E5308840051088000D1
:10009000D30A531BD201811B5028061C3C284B2835
:1000A0008610B3190615B31D0611051037308400EC
:1000B000000801208700B220FF308700051485105A
:1000C00038308400000801208700B220FF3087000C
:1000D000851405113930840000080120FE3987009D
:1000E000B220FF308700051585113A3084000008E2
:1000F00001208700B220FF308700851505123B30B4
:100100008400000801208700B220FF308700051618
:1001100085123C30840000080120FE398700B2209F
:10012000FF308700851685133D30840000080120CC
:100130008700B220FF308700851705133E3084000A
:10014000000801208700B220FF30870005178611C4
:1001500036308400000801208700B220FF3087007D
:10016000861537285E30D000D00BB4280034122812
:1001700012281228122812281228122812281228AF
:10018000122812281228122812281228122812289F
:10019000122812281228122812281228122812288F
:1001A000122812281228122812281228122812287F
:1001B000122812281228122812281228122812286F
:1001C000122812281228122812281228122812285F
:1001D000122812281228122812281228122812284F
:1001E000122812281228122812281228122812283F
:1001F000122812281228122812281228122812282F
:10020000122812281228122812281228122812281E
:10021000122812281228122812281228122812280E
:1002200012281228122812281228122812281228FE
:1002300012281228122812281228122812281228EE
:1002400012281228122812281228122812281228DE
:1002500012281228122812281228122812281228CE
:1002600012281228122812281228122812281228BE
:1002700012281228122812281228122812281228AE
:10028000122812281228122812281228122812289E
:10029000122812281228122812281228122812288E
:1002A000122812281228122812281228122812287E
:1002B000122812281228122812281228122812286E
:1002C000122812281228122812281228122812285E
:1002D000122812281228122812281228122812284E
:1002E000122812281228122812281228122812283E
:1002F000122812281228122812281228122812282E
:10030000122812281228122812281228122812281D
:10031000122812281228122812281228122812280D
:1003200012281228122812281228122812281228FD
:1003300012281228122812281228122812281228ED
:1003400012281228122812281228122812281228DD
:1003500012281228122812281228122812281228CD
:0E0360001228122812281228122812281228F9
:02400E00E423A9
:02401000FF3F70
:00000001FF
