:1000000000308A00BF280000FF00030E8301A1001A
:100010007F08A0000A08A7008A01A00E0408A20019
:100020007708A3007808A4007908A5007A08A6003C
:10003000831383120B1E1E288B1833288B1E222835
:100040000B193528220884002308F7002408F8003B
:100050002508F9002608FA0027088A00210E8300E7
:10006000FF0E7F0E09008A1137288A113D280618D5
:10007000AD178B108B108A1122282D1F5F28AE1808
:1000800047282E1947288714AE142E115F28AE1C5E
:100090004F282E194F288710AE142E155F28AE1C3E
:1000A00057282E1D57288714AE102E155F28AE181E
:1000B0005F282E1D5F288710AE102E11A80A290870
:1000C0002802031D6828AA08031D68282D13A8010B
:1000D0000B11F63081000B118A11222883160711AB
:1000E000831207110C3097000030F8000638920098
:1000F0001D30831692000108C03901388100F630A6
:10010000831281001F100730831685000F30860090
:10011000003087008911011783120B120B168B1206
:100120008B16C0308B04AD01AE010A30AF002F300A
:100130008400831300080319AA280230F800F7018D
:10014000F70BA028F80B9F289730F700F70BA6288D
:10015000800B9D28AA010130A900AC01AB01AD17AD
:100160002D1005182D142D1185182D15AD102D18D5
:10017000AD14AD112D19AD1507148A11CF28030840
:100180001F398300723083168F000F081F08C03993
:100190000F389F0007309C00831383126E28AD1F19
:1001A000F228AB0A0319AC0A2C08033C031CE12813
:1001B000031DDE282B08E73C031CE12802309500D4
:1001C00087152C08023C0318F128FF3A031DEC2880
:1001D0002B08E73C0318F12895018711AC01AB010E
:1001E000AD13F228051CFF288518FF28051CFF28E1
:1001F000851CFC280714FF28AD1BFF28F6280518CE
:100200000C29851C0C29851C0C29051C09290710A3
:100210000C29AD1B0C2903292D1005182D142D11A7
:1002200085182D15F7012D18F7142D0877060239BA
:1002300003191D29AD102D18AD14F7012D19F7154F
:100240002D087706083903192A29051D2D17AD1128
:080250002D19AD15CF28630044
:04400E00F03EFF3F42
:00000001FF
;PIC16F737
;CRC=F2F9  CREATED="18-Jan-26 16:53"
