:1000000000308A0077280000FF00030E8301A10062
:100010007F08A0000A08A7008A01A00E0408A20019
:100020007708A3007808A4007908A5007A08A6003C
:10003000831383120B1E1E288B182F28220884007E
:100040002308F7002408F8002508F9002608FA001C
:1000500027088A00210E8300FF0E7F0E09008A11F7
:100060003128061C3628A81FA8178B108B108A1160
:100070001E2883160711831207110C3097000030D9
:10008000F800063892001F308316920083121F106A
:100090000730831685000F308600003087008911F5
:1000A000011781138312861C5B28061D5B28861DA1
:1000B0005B280130AA0086185F280230AA000619C2
:1000C00063280530AA00861967280A30AA0083161B
:1000D000811783120B120B16C0308B04A817A811BE
:1000E0008518A815A8100518A8148A1195280308C2
:1000F0001F398300723083168F000F088312AE0100
:10010000AD01AC01AB01B201B101B001AF01B6016B
:10011000B501B401B30183161F08C0390F389F0021
:1001200007309C00831383123928B308031D1D294F
:10013000B408031D1D29B508031D1D29B608031D9C
:100140001D29051DA5280519A328051CB2288518F9
:10015000B228051CB228851CAF280714B228A81B9A
:10016000B228A9280518BF28851CBF28851CBF28D0
:10017000051CBC280710BF28A81BBF28B6282810BC
:1001800005182814281185182815F7012818F714C0
:100190002808770602390319D028A8102818A814AF
:1001A000F7012819F7152808770608390319DC28FC
:1001B0002817A8112819A815281F1C29B7012A08D3
:1001C000370203181B29AE01AD01AC01AB01AE082B
:1001D000031DFE28AD08031DFE28AC08031DFE28E4
:1001E0002B08043C031CFE2887100130AB070318C2
:1001F000AC0A0319AD0A0319AE0AE728B201B1012E
:10020000B001AF01B208031D1929B108031D192956
:10021000B008031D19292F08043C031C1929871451
:100220000130AF070318B00A0319B10A0319B20A63
:100230000229B70ADF2828131D29A81F43290130E6
:10024000B3070318B40A0319B50A0319B60AB608A6
:10025000031D3B29B508031D3B2934080B3C031C37
:100260003B29031D37293308B73C031C3B290230C7
:1002700095008715422995018711B601B501B40192
:0A028000B301A81343299528630079
:04400E00F03EFF3F42
:00000001FF
;PIC16F737
;CRC=E05B  CREATED="03-Oct-25 08:03"
