:1000000000308A00C2280000831A0A28A400030EC8
:10001000A5000F288312A400030EA500A5140A084A
:10002000AB008A018313A40E0408A6002008A700D1
:100030002108A8002208A9002308AA0083120B1E89
:1000400023288B183A288B1E27280B1940282608AE
:1000500084002708A0002808A1002908A2002A0877
:10006000A3002B088A00250E83008312240EA518F6
:10007000831609000519B1178B108B108A112728D8
:10008000311F6228B2184A2832194A288714B2143C
:1000900032116228B21C5228321952288710B21429
:1000A00032156228B21C5A28321D5A288714B21001
:1000B00032156228B2186228321D62288710B210E9
:1000C0003211AC0A2D082C02031D6B28AE08031D4B
:1000D0006B283113AC010B11F63081000B118A1122
:1000E000272883168712831287120C3095009601F9
:1000F00097010030A100063892001D30831692004F
:100100000108C03901388100F630831281001F10C8
:100110003E30831685000030870001309500811342
:10012000011783120B120B168B128B16C0308B0427
:10013000B101B2010A30B300333084000008031962
:10014000AE280230A100A001A00BA428A10BA32877
:100150009730A000A00BAA28800BA128AE01013087
:10016000AD00B001AF01B1173110851A3114311152
:10017000051A3115B1103118B114B1113119B11579
:100180000714D32803081F398300713083168F00AA
:100190000F0883121F1300308316910083129A01F7
:1001A000073099007128B11FF628AF0A0319B00A69
:1001B0003008033C031CE528031DE2282F08E73C18
:1001C000031CE5280230930007163008023C031890
:1001D000F528FF3A031DF0282F08E73C0318F528FF
:1001E00093010712B001AF01B113F628851E032950
:1001F000051A0329851E0329051E00290714032952
:10020000B11B0329FA28851A1029051E1029051E7D
:100210001029851E0D2907101029B11B1029072947
:100220003110851A31143111051A3115A001311818
:10023000A01431082006023903192129B110311800
:10024000B114A0013119A01531082006083903198D
:100250002E29851C3117B1113119B115D32863002E
:02400E00E43F8D
:00000001FF
;PIC16F684
;CRC=6F55  CREATED="18-Jan-26 16:53"
