:0400000015EF31F0D7
:08000800046ED8CF05F0E0CF33
:1000100006F00001E9CF0CF0EACF07F0E1CF08F0DD
:10002000E2CF09F0D9CF0AF0DACF0BF0F3CF12F01C
:10003000F4CF13F0FACF14F000C00EF001C00FF0AF
:1000400002C010F003C011F09DA02AEF00F09EB096
:1000500004EF05F09DA230EF00F09EB24EEF04F0E9
:100060009DAA36EF00F09EBA91EF04F00EC000F0AA
:100070000FC001F010C002F011C003F00CC0E9FF86
:1000800007C0EAFF078E08C0E1FF09C0E2FF0AC00F
:10009000D9FF0BC0DAFF12C0F3FF13C0F4FF14C086
:1000A000FAFF045006C0E0FF05C0D8FF1000F2CFF1
:1000B0000DF0F29EF76AC80FF66E000EF7220900E7
:1000C000F5500DBEF28E120050C3000020BF02009A
:1000D0003057050060AE0A0050690F00C05C150083
:1000E00040771B00200B2000009F240080B92A00CD
:1000F000C0C62D00F2CF0DF0F29EF76A0E0FF66E1D
:10010000010EF7220900F5500DBEF28E120049448F
:10011000020141490302444E020355500204464184
:1001200002054642020646410D0746420D08464E6C
:1001300003094652030A4652020B4654030C465426
:10014000020D4946020E4945030F4C4B02104C4B21
:1001500003114D4305124D4403134D5206144D57E0
:1001600017155243021652440217525502185254A0
:1001700003195258021A5458021B5343031C53507C
:10018000031D5941021E3141031F314203203143F7
:1001900003213144072231450223324103253242F3
:1001A00004263243032732440328324503293330DF
:1001B000022B3331022C0000000000000000F2CFBF
:1001C0000DF0F29EF76AD80FF66E010EF7220900C5
:1001D000F5500DBEF28E120000710200400D0300BA
:1001E00060CC050080FC0A0060900F0078E51500E7
:1001F00060C51B00E8BA2000A0252600C0C62D005F
:10020000C0C62D00F2CF0DF0F29E1C0FF66E020E4E
:10021000F7220900F5500DBEF28E12000100000019
:10022000DC152700C4192700AC1D27007C252700FA
:10023000642927004C2D270034312700043927007A
:10024000EC3C2700D4402700BC4427008C4C2700FE
:10025000745027005C54270044582700146027007E
:10026000FC632700E4672700CC6B27009C73270002
:10027000847727006C7B2700547F27003C8327006E
:10028000248727000C8B2700F48E2700DC922700A0
:10029000C4962700AC9A2700949E27007CA22700D2
:1002A00064A627004CAA270034AE27001CB2270002
:1002B00004B62700ECB92700D4BD2700BCC1270035
:1002C00001000000A4C527008CC9270074CD2700B9
:1002D00044D527002CD9270014DD2700FCE0270097
:1002E000CCE82700B4EC27009CF0270084F427001A
:1002F00054FC27003C002800240428000C08280097
:10030000DC0F2800C4132800AC172800941B280019
:10031000642328004C272800342B28001C2F280099
:1003200004332800EC362800D43A2800BC3E2800CC
:10033000A44228008C462800744A28005C4E2800FD
:10034000445228002C562800145A2800FC5D28002E
:10035000E4612800CC652800B46928009C6D280061
:1003600084712800010000006C7528005479280071
:100370003C7D28000C852800F4882800DC8C2800AF
:10038000C4902800949828007C9C280064A0280031
:100390004CA428001CAC280004B02800ECB32800B2
:1003A000D4B72800A4BF28008CC3280074C7280035
:1003B0005CCB28002CD3280014D72800FCDA2800B6
:1003C000B4E62800E4DE2800CCE228009CEA2800FD
:1003D00084EE28006CF2280054F628003CFA28002D
:1003E00024FE28000C022900F4052900DC0929005C
:1003F000C40D2900AC112900941529007C1929008D
:10040000641D29004C212900010000003425290029
:100410001C292900042D2900D4342900BC382900C6
:10042000A43C29008C4029005C482900444C290048
:100430002C50290014542900E45B2900CC5F2900CA
:10044000B46329009C6729006C6F2900547329004C
:100450003C772900247B2900F4822900DC862900CE
:10046000C48A29007C962900AC8E29009492290028
:10047000649A29004C9E290034A229001CA6290058
:1004800004AA2900ECAD2900D4B12900BCB529008B
:10049000A4B929008CBD290074C129005CC52900BC
:1004A00044C929002CCD290014D1290001000000E5
:1004B000FCD42900E4D82900CCDC29009CE42900E4
:1004C00084E829006CEC290054F0290024F8290064
:1004D0000CFC2900F4FF2900DC032A00AC0B2A00E5
:1004E000940F2A007C132A0064172A00341F2A0064
:1004F0001C232A0004272A00EC2A2A00BC322A00E6
:10050000A4362A008C3A2A0044462A00743E2A0067
:100510005C422A002C4A2A00144E2A00FC512A0070
:10052000E4552A00CC592A00B45D2A009C612A00B7
:1005300084652A006C692A00546D2A003C712A00E7
:1005400024752A000C792A00F47C2A00DC802A0019
:1005500001000000C4842A00AC882A00948C2A0080
:1005600064942A004C982A00349C2A001CA02A007B
:10057000ECA72A00D4AB2A00BCAF2A00A4B32A00FF
:1005800074BB2A005CBF2A0044C32A002CC72A007F
:10059000FCCE2A00E4D22A00CCD62A00B4DA2A0003
:1005A00084E22A006CE62A0054EA2A000CF62A00AB
:1005B0003CEE2A0024F22A00F4F92A00DCFD2A008D
:1005C000C4012B00AC052B0094092B007C0D2B00E3
:1005D00064112B004C152B0034192B001C1D2B0013
:1005E00004212B00EC242B00D4282B00BC2C2B0046
:1005F000A4302B00010000008C342B0074382B0039
:100600005C3C2B002C442B0014482B00FC4B2B0093
:10061000E44F2B00B4572B009C5B2B00845F2B0016
:100620006C632B003C6B2B00246F2B000C732B0096
:10063000F4762B00C47E2B00AC822B0094862B001A
:100640007C8A2B004C922B0034962B001C9A2B009A
:10065000D4A52B00049E2B00ECA12B00BCA92B00E1
:10066000A4AD2B008CB12B0074B52B005CB92B0012
:1006700044BD2B002CC12B0014C52B00FCC82B0043
:10068000E4CC2B00CCD02B00B4D42B009CD82B0076
:1006900084DC2B006CE02B0001000000BD1D2A0053
:1006A000A5212A008D252A0075292A005D2D2A0002
:1006B00045312A002D352A0015392A00FD3C2A0033
:1006C000E5402A00CD442A00B5482A009D4C2A0066
:1006D00085502A006D542A0055582A003D5C2A0096
:1006E00025602A000D642A00F5672A00DD6B2A00C8
:1006F000C56F2A00AD732A0095772A007D7B2A00FA
:10070000657F2A004D832A0035872A001D8B2A0029
:10071000058F2A00ED922A00D5962A00BD9A2A005C
:10072000A59E2A008DA22A0075A62A005DAA2A008D
:1007300045AE2A002DB22A0015B62A00F2CF0DF0E0
:10074000F29EF76A560FF66E070EF7220900F55073
:100750000DBEF28E1200F0490200400D030030572A
:100760000500801A060060AE0A00B0710B0040421E
:100770000F0090051000C05C150010201600407797
:100780001B00903A1C00200B200070CE2000009F20
:100790002400F0E8260080B92A00C0C62D00000021
:1007A00000000000000082B403D001017681000146
:1007B00082A40DD001017553D8A402D0000107D046
:1007C00076B102D0000103D07691750700010101D6
:1007D00075535DE1036A7751680FE96E010E0320DE
:1007E000EA6EEF500F0BE8A08494E8B08484036AAB
:1007F0007751680FE96E010E0320EA6ED890EF3052
:100800000F0BE8A08492E8B08482036A7751680FE6
:10081000E96E010E0320EA6EEF30006E00323F0EEB
:10082000001600500F0BE8A08490E8B08480036AA3
:100830007751680FE96E010E0320EA6EEF30006E0B
:10084000003200321F0E001600500F0BE8A0809AF5
:10085000E8B0808A82A401D080880201DB6BDB5182
:10086000270807E3DB2B00D000D0000082A401D0D2
:10087000F6D7DB6B8098010177510C0802E3010E7B
:10088000772782B403D0776B010E756F04D0849400
:1008900084928490809A00014FEF04F084D79E9256
:1008A0009E9236EF00F09EAAFED7ABCF17F0AECFE8
:1008B00001F017A202D0AB98AB881200030E020120
:1008C000DF5F0AE3020EEA6EDF0EE96EEF5004E02E
:1008D00001D000D0EF2EFDD7000112009EA8FED758
:1008E0000201DD51AD6EACA2FED7020EDE6FCF0E5F
:1008F000DF6F0001E3DF0201DE2FF9D700011200F4
:100900000900F5520CE0F6CFDBF2F7CFDCF2F5CFC1
:10091000DDF2E4DFDBC2F6FFDCC2F7FFF1D7DAEF8E
:1009200004F019B231D09EAA2FD0BDDF01C029F248
:10093000036A020152512A0FE96E020E0320EA6E89
:1009400029C2EFFF1AB20DD029513B0803E1526BC7
:1009500019821A845251040803E1526B198201D0A2
:10096000522B1AA210D029513B0803E1526B198275
:1009700001D0522B5251050806E12951050803E127
:10098000526B19821A84000119A229D09EAA01D0A3
:100990008ADF02012A51310821E12B5146081EE16C
:1009A0002C513B081BE19D92E40EF66E090EF76E8A
:1009B0000001A6D70D0E0201DD6F00018FDF0A0EC8
:1009C0000201DD6F00018ADF1B8C0201526B19925C
:1009D0003D6A640E3C6E82B4FED79D8200019E9AF1
:1009E00036EF00F03146323B00000201DB51010AD4
:1009F000000104E0030A05E0806A05D00A0E806E5B
:100A000002D00E0E806E1200493C01D002D0492A5D
:100A100001D0496A49A402D0198801D019981AAEA8
:100A200007D018AC05D0020E0201DB6F0001DDDF3C
:100A30001AAE07D018BC05D0020E0201DB6F000110
:100A4000D4DF1ABE06D018BC04D00201DB6B000153
:100A5000CCDF1ABE07D018AC05D0010E0201DB6F47
:100A60000001C3DF9E909E9036EF00F0C290010E11
:100A7000926E000E936EFF0E946E956E9690969207
:100A80009694186A196A1A6A1B6AB50ECD6E000E22
:100A90000609CA6E770ECB6E9E909E929D809D82B7
:100AA0009D8AC00EF212806AC6EF31F0F2CFDAF200
:100AB000F29ED9C2A9FFA69CA69EA680A8500201BC
:100AC000DABFF28E016E00011200CFC2D9F2EEDF62
:100AD00001501200036A0201C851680FE96E000E4E
:100AE0000320EA6EC9C2EFFF00011200F250006E4F
:100AF000F29EC6C2A9FFC7C2A8FFA69CA69EA68456
:100B00000F01550EA76EAA0EA76EA682A6B2FED73B
:100B1000A6940050F212C6C2C8F2C7C2C9F20001C0
:100B2000D9DF1200F2CFB4F2F29EB1C2A9FFA69CA7
:100B3000A69EA680A8500201B4BFF28EB36FB25138
:100B4000B35DD8B407D0B1C2C6F2B2C2C7F20001D9
:100B5000CDDF0201000112000201C16BC06BBF6B4F
:100B6000BE6BB951040DF3CFC2F2C36BC35103087E
:100B70001CE3020EC56FBE0EC46FC351C425016EC7
:100B8000000EC521036E01C0C4F2C56FC351C2255A
:100B9000C66FD96F00018ADFC5C2EAFFC4C2E9FF90
:100BA00001C0EFFF0201C32BE1D7BE51BA5D0AE1DC
:100BB000BF51BB5D07E1C051BC5D04E1C151BD5DEA
:100BC000D8B41FD0C36BC35103081BE3C351C22564
:100BD000C46F020EC66FBA0EC56FC351C525016E34
:100BE000000EC621036E01C0E9FFEA6EEFCFC5F229
:100BF000C4C2C6F2C5C2C7F2000178DF0201C32B2E
:100C0000E2D7000112000201AC6BAC3D01D008D06C
:100C1000ACC2B1F2B26B000185DF0201AC2BF5D79B
:100C2000AC6BAC510E080EE3ACC2B9F2BD6B0A0E50
:100C3000BC6FAE0EBB6F600EBA6F00018DDF02019C
:100C4000AC2BEFD70F0EAC6FAC5119080BE3ACC255
:100C5000B9F2BD6BBC6BBB6BBA6B00017DDF0201EF
:100C6000AC2BF2D71A0EAC6FAC5124082DE31A0E40
:100C7000AC5D040DF350036AF2CFADF2F29E0001B9
:100C800057EC00F0006E0900F5CF01F00900F5CF38
:100C900002F00900F5CF03F00201ADBFF28E03C0F0
:100CA000B0F202C0AFF201C0AEF2AD6FACC2B9F2A9
:100CB00003C0BDF202C0BCF201C0BBF2BA6F0001BA
:100CC0004BDF0201AC2BD0D7250EAC6FAC512F08F7
:100CD0002DE3250EAC5D040DF350036AF2CFADF2A7
:100CE000F29E000157EC00F0006E0900F5CF01F014
:100CF0000900F5CF02F00900F5CF03F00201ADBF06
:100D0000F28E03C0B0F202C0AFF201C0AEF2AD6F1E
:100D1000ACC2B9F203C0BDF202C0BCF201C0BBF26A
:100D2000BA6F000119DF0201AC2BD0D7300EB96FBA
:100D3000BD6BBC6B050EBB6FDC0EBA6F00010CDF28
:100D4000310E0201B96FBD6BBC6BBB6B1E0EBA6F6F
:100D5000000102DF320E0201B96FBD6BBC6B270EC2
:100D6000BB6F100EBA6F0001F7DE330E0201B96FD0
:100D7000BD6B300EBC6FD40EBB6FBA6B0001ECDEE6
:100D8000D00E0201B16F010EB26F0001CBDED10EA9
:100D90000201B16F010EB26F0001C4DED20E02017A
:100DA000B16F020EB26F0001BDDED30E0201B16F52
:100DB000030EB26F0001B6DED40E0201B16F040E55
:100DC000B26F0001AFDED50E0201B16F050EB26F3A
:100DD0000001A8DED60E0201B16F060EB26F00014F
:100DE000A1DED70E0201B16F070EB26F00019ADECD
:100DF000D80E0201B16F080EB26F000193DED90E5A
:100E00000201B16F090EB26F00018CDEE10E02012A
:100E1000B16F030EB26F000185DEE20E0201B16F09
:100E2000030EB26F00017EDEE30E0201B16F030E0E
:100E3000B26F000177DEE00E0201B16F010EB26FFA
:100E4000000170DEE80E0201B16FB26B00016ADED4
:100E5000E90E0201B16FB26B000164DEEC0E02011B
:100E6000B16F030EB26F00015DDEEA0E0201B16FD9
:100E7000010EB26F000156DEED0E0201B16F010EE0
:100E8000B26F00014FDEEE0E0201B16F020EB26FC3
:100E9000000148DEEF0E0201B16F030EB26F0001D8
:100EA00041DEF00E0201B16F040EB26F00013ADEB6
:100EB000F10E0201B16F050EB26F000133DEF20ECA
:100EC0000201B16F060EB26F00012CDEF30E0201BB
:100ED000B16F070EB26F000125DEF40E0201B16F93
:100EE000080EB26F00011EDEF50E0201B16F090E91
:100EF000B26F000117DEF60E0201B16F0A0EB26F7B
:100F0000000110DEF70E0201B16F0B0EB26F00018F
:100F100009DEF80E0201B16FB26B000103DEE60ECE
:100F20000201B16F130EB26F0001FCDDE70E02018A
:100F3000B16F030EB26F0001F5DD0201B169010E60
:100F4000B26F0001EFDD01EF09F00201CF51040D96
:100F5000F3CFD0F2D56BD46BD36BD26BD16BD151B5
:100F600003081CE3020ED76FD20ED66FD151D625DF
:100F7000016E000ED721036E01C0D6F2D76FD1519A
:100F8000D025D86FD96F000191DDD7C2EAFFD6C254
:100F9000E9FF01C0EFFF0201D12BE1D7D2C200F07F
:100FA000D3C201F0D4C202F0D5C203F00001120096
:100FB0000201B651B803F3CF01F0F4CF00F0B9034A
:100FC000F3500026B751B803F3500020026E000121
:100FD00012000201AC6BAD6BAD51070837E3B76B84
:100FE000ADC2B6F2B96BA40EB86F0001E1DF02C06A
:100FF000AFF201C0AEF202C003F002010150F2CF25
:10100000B0F2F29E02C0F7FF000102EC01F0006EA8
:101010000900F5CF01F00900F5CF02F00900F5CF86
:1010200003F00201B0BFF28E03C0B3F202C0B2F20D
:1010300001C0B1F2B06FB05307E1B15305E1B25353
:1010400003E1B35301E1AC2BAD2BC6D7AC5108087B
:1010500002E11B8401D01B94000188EF09F002011A
:10106000B12D08D01A0EB225B36FCF6F00016DDF1E
:101070000DD00201B151020808E1250EB225B36F6F
:10108000CF6F000162DF02D0020100011200B2C284
:10109000CFF25BDF1200010E0201B16F44C0B2F269
:1010A0000001DDDF03C023F002C022F001C021F007
:1010B00000C020F0020E0201B16F45C0B2F2000183
:1010C000CEDF03C027F002C026F001C025F000C02B
:1010D00024F047C0B2F2DBDF03C02BF002C02AF0DD
:1010E00001C029F000C028F01BB47AD00201B76B10
:1010F0005BC0B6F2B96BA40EB86F000159DF02C035
:10110000B3F201C0B2F202C003F002010150F2CF0B
:10111000B4F2F29E02C0F7FF000102EC01F0006E93
:101120000900F5CF01F00900F5CF02F00900F5CF75
:1011300003F00201B4BFF28E03C0B7F202C0B6F2F0
:1011400001C0B5F2B46FB4530DE1B5530BE1B65322
:1011500009E1B75307E15B50060802E35B2A01D0BF
:101160005B6AC5D75A50010802E3010E5A6E5A5005
:10117000270802E2280E5A6EB76B5BC0B6F2B96B55
:10118000A40EB86F000114DF02C0B3F201C0B2F2C6
:101190000201B76B5AC0B6F2B96B040EB86F00010A
:1011A00007DF02C003F001500201B225016EB35106
:1011B00003220150F2CFB2F2F29E03C0F7FF00010A
:1011C00002EC01F0006E0900F5CF01F00900F5CF47
:1011D00002F00900F5CF03F00201B2BFF28E000168
:1011E00003C02FF002C02EF001C02DF000C02CF083
:1011F00012000201CF69000168DC012C01D001D08E
:1012000002D50F0E426EE00E0201CF6F00015DDCD1
:1012100001C043F04350030801E1189AE10E0201B6
:10122000CF6F000152DC01C044F0E20E0201CF6F2B
:1012300000014BDC01C045F0E30E0201CF6F00015D
:1012400044DC01C046F0E50E0201CF6F00013DDC39
:1012500001C047F0ED0E0201CF6F000136DC01C086
:101260004AF0EE0E0201CF6F00012FDC01C04BF0FF
:10127000EA0E0201CF6F000128DC1B9E01B01B8E1D
:10128000300E0201CF6F000160DE01C05DF000C0D2
:101290005CF0310E0201CF6F000157DE01C05FF03C
:1012A00000C05EF0320E0201CF6F00014EDE03C0BF
:1012B00063F002C062F001C061F000C060F0330E64
:1012C0000201CF6F000141DE03C067F002C066F08B
:1012D00001C065F000C064F0E80E0201CF6F0001AC
:1012E00065EC05F0199C01B0198CE90E0201CF6F75
:1012F000000165EC05F01A9801B01A88E40E0201AD
:10130000CF6F000165EC05F01A9C01B01A8C61D614
:10131000E60E0201CF6F000165EC05F001C05AF046
:10132000E70E0201CF6F000165EC05F001C05BF034
:10133000EF0E0201CF6F000165EC05F001C050F027
:10134000F00E0201CF6F000165EC05F001C051F015
:10135000F10E0201CF6F000165EC05F001C052F003
:10136000F20E0201CF6F000165EC05F001C053F0F1
:10137000F30E0201CF6F000165EC05F001C054F0DF
:10138000F40E0201CF6F000165EC05F001C055F0CD
:10139000F50E0201CF6F000165EC05F001C056F0BB
:1013A000F60E0201CF6F000165EC05F001C057F0A9
:1013B000F70E0201CF6F000165EC05F001C058F097
:1013C000F80E0201CF6F000165EC05F001C059F085
:1013D00062DE189C189E19901200806A00D00201EB
:1013E000D151F80F30E2080F000127EF0AF0806AB0
:1013F00000D0020128D0080E806E00D0020123D058
:10140000040E806E00D002011ED00C0E806E00D043
:10141000020119D0020E806E420E006E002EFED721
:101420000000020110D00A0E806E00D002010BD025
:10143000060E806E00D0020106D00E0E806E00D027
:10144000020101D00201806A00D000011200F2CF37
:101450000DF0F29EE824F76AF736730FF66E140E5D
:10146000F7220A00F550FA6E0800F5500DBEF28E14
:10147000F96EEE13F61300140A1414142614301423
:101480003A14CFC281FF010E0201D16F0001A5DF26
:101490001200CFC281FF818E00D0819E12005D506C
:1014A000036A600F0201AC6F000E0320AD6FACC287
:1014B000CFF20001E6DF5D300201AD6F5C30AC6F52
:1014C000AD33AC33AD33AC33AD33AC330F0EAD17FE
:1014D000AC510F0B006E036A0050500FAC6F000E42
:1014E0000320AD6FACC2CFF20001CBDF5C500F0B1D
:1014F000006E036A0050400F0201AC6F000E032023
:10150000AD6FACC2CFF20001BCDF5F50036A600F69
:101510000201AC6F000E0320AD6FACC2CFF2000130
:10152000B8DF5F300201AD6F5E30AC6FAD33AC330E
:10153000AD33AC33AD33AC330F0EAD17AC510F0B35
:10154000006E036A0050500FAC6F000E0320AD6FA9
:10155000ACC2CFF200019DDF5E500F0B006E036A3C
:101560000050400F0201AC6F000E0320AD6FACC203
:10157000CFF200018EDF1200020EEA6EB60EE96EA7
:10158000EF500DE0060E016E006A002EFED7012E10
:10159000FBD77B0E006E002EFED7EF2EF3D7120086
:1015A0000201AF6BAF51180822E3036AAF51530F2A
:1015B000E96E020E0320EA6EEFCFB0F2166AF2BEB9
:1015C000168EF29EB0C2DDF200016EEC04F016BE83
:1015D000F28E036A0201AF51530FE96E020E03202F
:1015E000EA6EEF503B08D8B402D0AF2BDBD7AF6B1D
:1015F000AF5118080BE3036AAF51530FE96E020EA7
:101600000320EA6E300EEF6EAF2BF2D7000112000E
:101610000201B15310E0E60ECF6F000165EC05F05A
:1016200001C05AF0E70E0201CF6F000165EC05F032
:1016300001C05BF002011BB478D0B76B5BC0B6F29F
:10164000B96BA40EB86F0001B3DC02C0B3F201C0E5
:10165000B2F202C003F002010150F2CFB4F2F29EE6
:1016600002C0F7FF000102EC01F0006E0900F5CFA7
:1016700001F00900F5CF02F00900F5CF03F00201F7
:10168000B4BFF28E03C0B7F202C0B6F201C0B5F229
:10169000B46FB4530DE1B5530BE1B65309E1B75341
:1016A00007E15B50060802E35B2A01D05B6AC5D7FD
:1016B0005A50010802E3010E5A6E5A50270802E2FE
:1016C000280E5A6EB76B5BC0B6F2B96BA40EB86F3A
:1016D00000016EDC02C0B3F201C0B2F20201B76BCE
:1016E0005AC0B6F2B96B040EB86F000161DC02C0DB
:1016F00003F001500201B225016EB35103220150E3
:10170000F2CFB2F2F29E03C0F7FF000102EC01F04B
:10171000006E0900F5CF01F00900F5CF02F00900D5
:10172000F5CF03F00201B2BFF28E03C02FF002C06A
:101730002EF001C02DF000C02CF00001120043502B
:10174000040813E15B50060802E35B2A01D05B6AE0
:10175000E70E0201B16F5BC0B2F2000192EC05F03E
:10176000010E0201B16F000153DF12004350040863
:1017700002E1E5DF09D04350040806E019B003D0C8
:10178000189E198001D019901200040E0201D16F29
:10179000000123DE12004350030806E1000E18BAD0
:1017A000010E010F436E02D0030E436E47C0B2F22A
:1017B0006EDC03C02BF002C02AF001C029F000C08B
:1017C00028F0E00E0201B16F43C0B2F2000192ECCA
:1017D00005F01200B4C2B9F2B8C2BDF2B7C2BCF291
:1017E000B6C2BBF2B5C2BAF2ACEC05F031EF0CF008
:1017F0000201B16BB051B15D16E2040ED16F000170
:10180000ECDD47C074F1640E0201B66F0001B4DE76
:101810000F0E0101746F640E0201B66F0001ACDEA1
:101820000201B12BE7D7000112004350040DF35021
:10183000036A1C0FE96E000E0320EA6EEFCFB0F2D0
:10184000ECCFB1F2ECCFB2F2ECCFB3F247C0B4F2CE
:10185000B3C2B8F2B2C2B7F2B1C2B6F2B0C2B5F218
:10186000B9D7020E0201B06F0001C2DF120018BC2E
:1018700002D0188C01D0189C1200432C03D0020E09
:10188000436E05D04350020802E1010E436EE00EA4
:101890000201B16F43C0B2F2000192EC05F0010EFB
:1018A000435C189AE8B0188A12004350040DF350B4
:1018B000036A1C0F016E000E032201C0B0F203C0C8
:1018C000B1F247C0B2F2000147EC08F0B1C2EAFF42
:1018D000B0C2E9FF00C0EFFF01C0ECFF02C0ECFFA7
:1018E00003C0ECFF020E0201B06F000181DF1200A5
:1018F0000201B12D10D01A0EB225B76FB96FB6C262
:10190000BDF2B5C2BCF2B4C2BBF2B3C2BAF20001BE
:10191000ACEC05F00201B151020810E1250EB22530
:10192000B76FB96FB6C2BDF2B5C2BCF2B4C2BBF2FA
:10193000B3C2BAF20001ACEC05F0020100011200E2
:101940000201B0530CE143C0B0F2432C01D003D0EC
:101950004350020804E182A602D0040EB027010E13
:10196000B05DFA0FD8B086D0060F00013CEF0DF045
:10197000010E0201B16F44C0B2F223C0B6F222C020
:10198000B5F221C0B4F220C0B3F20001B1DF44507F
:10199000080802E3442A01D0446A010E0201B16F33
:1019A00044C0B2F200012FEC08F003C023F002C0E3
:1019B00022F001C021F000C020F002015BD0020E35
:1019C0000201B16F45C0B2F227C0B6F226C0B5F22F
:1019D00025C0B4F224C0B3F200018ADF45500808E4
:1019E00002E3452A01D0456A020E0201B16F45C0EB
:1019F000B2F200012FEC08F003C027F002C026F07D
:101A000001C025F000C024F0020134D047500D0879
:101A100002E3472A01D0476A47C0B2F247EC08F018
:101A200003C02BF002C02AF001C029F000C028F04A
:101A3000020120D05A50270802E35A2A02D0010E90
:101A40005A6E0201B16B0001E3DD020113D0500EAA
:101A50002026C30E2122000E2222232202010AD0B8
:101A6000500E2426C30E2522000E26222722020114
:101A700001D0020100011200F2CF0DF0F29EE82425
:101A8000F76AF7369D0FF66E1A0EF7220A00F55028
:101A9000FA6E0800F5500DBEF28EF96E7019BE197F
:101AA0000C1A341A4E1A601A0201B0530CE143C0EA
:101AB000B0F2432C01D003D04350020804E182A6C7
:101AC00002D0040EB027B051010A00010DE0030A54
:101AD00031E0010A55E0070A66E0010AD8B46FD088
:101AE000030AD8B474D07AD0010E0201B16F44C099
:101AF000B2F223C0B6F222C0B5F221C0B4F220C0C7
:101B0000B3F20001F5DE445202E0440602D0090EB1
:101B1000446E010E0201B16F44C0B2F200012FEC1D
:101B200008F003C023F002C022F001C021F000C081
:101B300020F054D0020E0201B16F45C0B2F227C0AE
:101B4000B6F226C0B5F225C0B4F224C0B3F200014B
:101B5000CFDE455202E0450602D0090E456E020E68
:101B60000201B16F45C0B2F200012FEC08F003C0D2
:101B700027F002C026F001C025F000C024F02ED0CE
:101B8000475202E0470602D00E0E476E47C0B2F23F
:101B900047EC08F003C02BF002C02AF001C029F086
:101BA00000C028F01BD05A50010802E25A0602D0A9
:101BB000280E5A6E0201B16B00012ADD0FD0500EC3
:101BC000205EC30E215A000E225A235A07D0500E0F
:101BD000245EC30E255A000E265A275A120018BE3C
:101BE00014D01990188E4350040DF350036A1C0F43
:101BF000E96E000E0320EA6EEFCF38F0ECCF39F03B
:101C0000ECCF3AF0ECCF3BF005D0189E3B6A3A6A35
:101C1000396A386A12000201C96BCA6B010ECB6FB8
:101C2000DA6AD96A020ECE6FC10ECD6F020EEA6E6D
:101C3000C50EE96ECEC2E2FFCDC2E1FFCBC2CCF24F
:101C4000D890E550EE02F350C923F450CA23CC2FAC
:101C5000F7D7C9C2DEFFCAC2C9F2CA6BD8B0CA2B55
:101C6000CD2BD8B4CE2BCB2BCB510508DFE1000117
:101C700012000201C06BBF6BBE6BBD6BC06BBF6B54
:101C8000BE6BB6C2BDF2C0C2C4F2BFC2C3F2BEC216
:101C9000C2F2BDC2C1F2C86BC76BC66B0A0EC56F7C
:101CA0000001B9DF0201B7510024BD6F000E012011
:101CB000BE6F000E0220BF6F000E0320C06FC0C2B7
:101CC000C4F2BFC2C3F2BEC2C2F2BDC2C1F2C86B8F
:101CD000C76BC66B0A0EC56F00019DDF0201B851CC
:101CE0000024BD6F000E0120BE6F000E0220BF6FEA
:101CF000000E0320C06FC0C2C4F2BFC2C3F2BEC296
:101D0000C2F2BDC2C1F2C86BC76BC66B0A0EC56F0B
:101D1000000181DF0201B9510024BD6F000E0120D6
:101D2000BE6F000E0220BF6F000E0320C06FC0C246
:101D3000C4F2BFC2C3F2BEC2C2F2BDC2C1F2C86B1E
:101D4000C76BC66B0A0EC56F000165DF0201BA5191
:101D50000024BD6F000E0120BE6F000E0220BF6F79
:101D6000000E0320C06FC0C2C4F2BFC2C3F2BEC225
:101D7000C2F2BDC2C1F2C86BC76BC66B0A0EC56F9B
:101D8000000149DF0201BB510024BD6F000E01209C
:101D9000BE6F000E0220BF6F000E0320C06FC0C2D6
:101DA000C4F2BFC2C3F2BEC2C2F2BDC2C1F2C86BAE
:101DB000C76BC66B0A0EC56F00012DDF0201BC5157
:101DC0000024BD6F000E0120BE6F000E0220BF6F09
:101DD000000E0320C06FBDC200F0BEC201F0BFC242
:101DE00002F0C0C203F000011200E00E0201CF6F4A
:101DF000000165EC05F001C0B0F20201B05303E050
:101E0000B05104080AE2010EB06FE00EB16FB0C22B
:101E1000B2F2000192EC05F00201B02D01D0189A47
:101E2000B051020801E1188AB0C201F000011200AD
:101E3000000E18BA010E010F040DF350036A1C0FB7
:101E4000E96E000E0320EA6EEFCF30F0ECCF31F0F8
:101E5000ECCF32F0ECCF33F0000E18BA010E010FC8
:101E6000040DF350036A1C0FE96E000E0320EA6EA6
:101E700028C0EFFF29C0ECFF2AC0ECFF2BC0ECFF0D
:101E800033C02BF032C02AF031C029F030C028F026
:101E9000336A326A316A306A020E0201B06F0001A1
:101EA000A7DC12002EC2A7F202012D39006E0F0E20
:101EB000001600500F0BA86F2D510F0BA96F2C3976
:101EC000006E0F0E001600500F0BAA6F2C510F0B57
:101ED000AB6F2B39006E0F0E001600500F0BAC6F5E
:101EE0002B510F0BAD6F2A39006E0F0E00160050EC
:101EF0000F0BAE6F2A510F0BAF6FA751010A0001F4
:101F000020E0030A21E0010A21E0070A21E0010A9A
:101F100022E0030A22E0010A22E00F0A26E0010A79
:101F20002AE0030A2BE0010A57E0040A57E0F30A0B
:101F3000D8B482D0020AD8B487D0010AD8B48CD0E1
:101F40008CD014DC22DC89D026DC87D06EDC85D0F6
:101F50008EDC1BDC82D091DC80D0A7DC7ED002013D
:101F6000B06B0001EDDC11DC78D00201B06B000138
:101F70009BDD0BDC72D033DE08DC6FD0A9C2B6F279
:101F8000AAC2B7F2ABC2B8F2ACC2B9F2ADC2BAF2F1
:101F9000AEC2BBF2AFC2BCF26CDE03C01FF002C027
:101FA0001EF001C01DF000C01CF01FDF0150040D29
:101FB000F350036A1C0FE96E000E0320EA6E1CC08A
:101FC000EFFF1DC0ECFF1EC0ECFF1FC0ECFF1F6A3F
:101FD0001E6A1D6A1C6A41D02BDF3FD0AEC2B6F22A
:101FE000AFC2B7F2ACC2B8F2ADC2B9F2AAC2BAF28D
:101FF000ABC2BBF2A8C2BCF23CDE03C01FF002C001
:102000001EF001C01DF000C01CF0EFDE0150040DF9
:10201000F350036A1C0FE96E000E0320EA6E1CC029
:10202000EFFF1DC0ECFF1EC0ECFF1FC0ECFF1F6ADE
:102030001E6A1D6A1C6A11D0C5EC0BF019B602D0DD
:10204000198601D0199609D00201B169B26900015F
:1020500092EC05F0FF0001D0FF00010E016E26EFAB
:1020600020F00201B06BAF6BAE6BAD6BB16BB26BBE
:10207000B36BB46BB56BB66BB76B010EAC5DFC0F9D
:1020800038E2040F00015EEF11F023C0B0F222C06D
:10209000AFF221C0AEF220C0ADF202012AD002019F
:1020A000AB5309E023C0B0F222C0AFF221C0AEF2C0
:1020B00020C0ADF208D027C0B0F226C0AFF225C0D4
:1020C000AEF224C0ADF215D02BC0B0F22AC0AFF2F0
:1020D00029C0AEF228C0ADF202010BD02FC0B0F281
:1020E0002EC0AFF22DC0AEF22CC0ADF2020101D075
:1020F0000201AD5307E1AE5305E1AF5303E1B05325
:10210000D8B4ADD0B0C2C7F2AFC2C6F2AEC2C5F24B
:10211000ADC2C4F2C7C2CBF2C6C2CAF2C5C2C9F2CE
:10212000C4C2C8F2B16BCB530DE1CA510E0815E21F
:10213000FF0A08E1C951410810E2FF0A03E1C85152
:102140003F080BE2400EC85F420EC95B0F0ECA5B30
:10215000000ECB5B010EB127E6D7B26BCB530DE17E
:10216000CA51000815E2FF0A08E1C951850810E2CA
:10217000FF0A03E1C8519F080BE2A00EC85F860E5C
:10218000C95B010ECA5B000ECB5B010EB227E6D71E
:10219000B36BCB530AE1CA5308E1C95126080FE2D9
:1021A000FF0A03E1C8510F080AE2100EC85F270EAC
:1021B000C95B000ECA5BCB5B010EB327EAD7B46BD9
:1021C000CB530AE1CA5308E1C95102080FE2FF0AE2
:1021D00003E1C851E7080AE2E80EC85F030EC95BD5
:1021E000000ECA5BCB5B010EB427EAD7B56BCB53AD
:1021F00007E1CA5305E1C95303E1C851630809E285
:10220000640EC85F000EC95BCA5BCB5B010EB527CD
:10221000EED7B66BCB5307E1CA5305E1C95303E1CF
:10222000C851090809E20A0EC85F000EC95BCA5B03
:10223000CB5B010EB627EED7B76BCB5307E1CA5382
:1022400005E1C95303E1C851000809E2010EC85F66
:10225000000EC95BCA5BCB5B010EB727EED7AB5351
:1022600016E0300EB125706F300EB225716F300E52
:10227000B325726F300EB425736F300EB525746FB1
:10228000300EB625756F300EB725766F15D0300E2F
:10229000B125586F300EB225596F300EB3255A6FE5
:1022A000300EB4255B6F300EB5255C6F300EB62551
:1022B0005D6F300EB7255E6F00011200F2CF0DF09A
:1022C000F29EE824F76AF736E10FF66E220EF72247
:1022D0000A00F550FA6E0800F5500DBEF28EF96E48
:1022E0008A209E20C820DC20ABC253F2ACC254F23C
:1022F0000201AE3D01D003D0300EAE25556F036A0A
:10230000AD51530FE96E020E0320EA6E3B0EEF6EE5
:102310000001D0EC0AF0120068DD01C0AAF202014F
:10232000AB6B01C0ACF200019CDE460E0201AB6F4C
:10233000410EAC6F0D0EAD6FAE690001D5DF12001E
:102340000201AB6B020EAC6F00018BDE460E020188
:10235000AB6F420EAC6F0D0EAD6FAE690001C4DF06
:102360001200036A0201AA51530FE96E020E032004
:10237000EA6E2FC2EFFF010EAA25036A530FE96E22
:10238000020E0320EA6E30C2EFFF020EAA25036A96
:10239000530FE96E020E0320EA6E31C2EFFF030E07
:1023A000AA25036A530FE96E020E0320EA6E32C2B9
:1023B000EFFF040EAA25036A530FE96E020E0320F5
:1023C000EA6E33C2EFFF050EAA25036A530FE96ECA
:1023D000020E0320EA6E34C2EFFF060EAA25036A3E
:1023E000530FE96E020E0320EA6E35C2EFFF036A57
:1023F000AA51530FE96E020E0320EA6E300EEF5C15
:10240000AF6F010EAA25036A530FE96E020E032077
:10241000EA6E300EEF5CB06F020EAA25036A530F0E
:10242000E96E020E0320EA6E300EEF5CB16F030E10
:10243000AA25036A530FE96E020E0320EA6E300EDE
:10244000EF5CB26F040EAA25036A530FE96E020E09
:102450000320EA6E300EEF5CB36F050EAA25036A07
:10246000530FE96E020E0320EA6E300EEF5CB46F7C
:10247000060EAA25036A530FE96E020E0320EA6EC8
:10248000300EEF5CB56FAFC2B6F2B0C2B7F2B1C2F8
:10249000B8F2B2C2B9F2B3C2BAF2B4C2BBF2BC6F04
:1024A000000139EC0EF003C0AEF202C0ADF201C083
:1024B000ACF200C0ABF20201AE5309E1AD5307E14B
:1024C000AC51270804E312E1AB510F080FE2AE5301
:1024D0000DE1AD512F081EE2FF0A08E1AC51D3080F
:1024E00019E2FF0A03E1AB51000814E200017DDCB0
:1024F0000150040DF350036A1C0FE96E000E032017
:10250000EA6EEFCFABF2ECCFACF2ECCFADF2ECCFAA
:10251000AEF20201ABC200F0ACC201F0ADC202F0FB
:10252000AEC203F000011200050E0201AA6F000105
:1025300018DF03C023F002C022F001C021F000C068
:1025400020F0EADE52EF1FF0050E0201AA6F000133
:1025500008DF03C027F002C026F001C025F000C04C
:1025600024F0EEDE58EF1FF00201AB6BAA513008E9
:1025700002E1010EAB6FAA51310802E1020EAB6F0E
:10258000AA51320802E1030EAB6FE00EB16FABC28D
:10259000B2F2000192EC05F060EF1FF026DC015072
:1025A000010A03E0030A06E009D0300E0201556F6C
:1025B000000104D0310E0201556F0001460E0201E8
:1025C000AB6F520EAC6F030EAD6F55C2AEF2000191
:1025D0008BDE120002012C51300A000103E0010AD7
:1025E00004E005D0010E436E02D0020E436EE00EF1
:1025F0000201B16F43C0B2F2000192EC05F0CEDFF0
:1026000066EF1FF0F5EC0EF00150010A03E0030A3B
:1026100006E009D0300E0201556F000104D0310EE2
:102620000201556F0001460E0201AB6F540EAC6FF4
:10263000030EAD6F55C2AEF2000156DE120002016C
:102640002C51300A000103E0010A04E005D0010E1C
:10265000436E02D0020E436EE00E0201B16F43C022
:10266000B2F2000192EC05F0CDDF70EF1FF0F5EC57
:102670000EF001C0AAF2490E02016B6F460E6C6F9C
:10268000010EAB6FAAC2ACF20001EBDC47500908A7
:1026900009E2310E0201856F0A0E475C300F866F2A
:1026A00006D00001300E0201856F4724866F83A695
:1026B00003D0310E876F02D0300E876F4DC088F285
:1026C000AA2D03D0300E896F8B6FAA51020803E147
:1026D000310E896F8B6F300E8A6F00017AEF1FF019
:1026E0000201AA6BAA51250822E3036AAA516B0FC3
:1026F000E96E020E0320EA6EEFCFABF2166AF2BE6D
:10270000168EF29EABC2DDF200016EEC04F016BE36
:10271000F28E036A0201AA516B0FE96E020E0320CA
:10272000EA6EEF503B08D8B402D0AA2BDBD70001E9
:102730007CEF1FF002012C51300A000103E0010A76
:1027400003E003D01A9801D01A88000E1AB8010EBF
:102750000201AA6F310EAB6F410EAC6F030EAD6F6D
:10276000AAC2AEF20001C0DD000E1AB8010E0201CD
:10277000AA6FE90EB16FAAC2B2F2000192EC05F0A5
:102780008FEF1FF002012C51300A000103E0010A13
:1027900003E003D01B9E01D01B8E000E1BBE010E5A
:1027A0000201AA6F310EAB6F420EAC6F030EAD6F1C
:1027B000AAC2AEF2000198DD000E1BBE010E02019E
:1027C000AA6FEA0EB16FAAC2B2F2000192EC05F054
:1027D00093EF1FF002012C51300A000103E0010ABF
:1027E00003E003D0199C01D0198C000E19BC010E16
:1027F0000201AA6F310EAB6F430EAC6F030EAD6FCB
:10280000AAC2AEF2000170DD000E19BC010E020179
:10281000AA6FE80EB16FAAC2B2F2000192EC05F005
:1028200097EF1FF002012C51300A000103E0010A6A
:1028300003E003D01A9C01D01A8C000E1ABC010EC2
:102840000201AA6F310EAB6F440EAC6F030EAD6F79
:10285000AAC2AEF2000148DD000E1ABC010E020150
:10286000AA6FE40EB16FAAC2B2F2000192EC05F0B9
:102870009BEF1FF0300E02012A6F2B6F2A5DAE6FA7
:10288000300E2B5DAF6F300E2C5DB06F300E2D5DB6
:10289000B16F300E2E5DB26F300E2F5DB36F300E04
:1028A000305DB46FAEC2B6F2AFC2B7F2B0C2B8F22A
:1028B000B1C2B9F2B2C2BAF2B3C2BBF2BC6F00018C
:1028C00039EC0EF003C0ADF202C0ACF201C0ABF2C5
:1028D00000C0AAF2AAC200F0ABC201F0ACC202F082
:1028E000ADC203F069EF1DF00201B26BB151B25DF0
:1028F0000CE20001C5EC0BF0C80E0201B66F00013E
:10290000BCEC0AF00201B22BF1D7000112001AACA4
:102910000ED0100E48240201CE6FCF6F0001A5EC3F
:1029200007F001C002F000C001F00BD00AD00F0E7A
:102930000201CF6F0001A5EC07F001C002F000C05A
:1029400001F012001AAC0FD0100E48240201B56F2E
:10295000B96FBD6BBC6BB4C2BBF2B3C2BAF20001BB
:10296000ACEC05F00CD00F0E0201B96FBD6BBC6B67
:10297000B4C2BBF2B3C2BAF20001ACEC05F0120073
:102980000201B551010A000107E0030A0BE0010A48
:102990000FE0060A13E016D0010E01016C6F0F0E56
:1029A000746F14D00C0E01016C6F0F0E746F0ED08B
:1029B000020E01016C6FBBC274F108D0BBC274F18E
:1029C000010104D00F0E01016C6F746F0201B6514A
:1029D0000F0805E20F0E01016D6F04D00201B6C2AF
:1029E0006DF10101BAC2C7F2B9C2C6F2B8C2C5F2EE
:1029F000B7C2C4F2C7C2CBF2C6C2CAF2C5C2C9F2DC
:102A0000C4C2C8F20201BD6BCB530DE1CA510E081E
:102A100015E2FF0A08E1C951410810E2FF0A03E18B
:102A2000C8513F080BE2400EC85F420EC95B0F0E53
:102A3000CA5B000ECB5B010EBD27E6D7BE6BCB5346
:102A40000DE1CA51000815E2FF0A08E1C9518508E5
:102A500010E2FF0A03E1C8519F080BE2A00EC85F15
:102A6000860EC95B010ECA5B000ECB5B010EBE2752
:102A7000E6D7BF6BCB530AE1CA5308E1C951260818
:102A80000FE2FF0A03E1C8510F080AE2100EC85F07
:102A9000270EC95B000ECA5BCB5B010EBF27EAD7CE
:102AA000C06BCB530AE1CA5308E1C95102080FE2D7
:102AB000FF0A03E1C851E7080AE2E80EC85F030E07
:102AC000C95B000ECA5BCB5B010EC027EAD7C16BA6
:102AD000CB5307E1CA5305E1C95303E1C851630869
:102AE00009E2640EC85F000EC95BCA5BCB5B010ED6
:102AF000C127EED7C26BCB5307E1CA5305E1C953D7
:102B000003E1C851090809E20A0EC85F000EC95B5B
:102B1000CA5BCB5B010EC227EED7C36BCB5307E179
:102B2000CA5305E1C95303E1C851000809E2010E87
:102B3000C85F000EC95BCA5BCB5B010EC327EED733
:102B4000BC510208D8A057D0BA530DE1B9510F08B3
:102B50000AE307E1B851420806E303E1B7513F0831
:102B600002E30F0EBD6FBA530DE1B95101080AE33C
:102B700007E1B851860806E303E1B7519F0802E375
:102B80000F0EBE6FBA530BE1B95309E1B8512708D4
:102B900006E303E1B7510F0802E30F0EBF6FBA530C
:102BA0000BE1B95309E1B851030806E303E1B7515A
:102BB000E70802E30F0EC06FBA5309E1B95307E10A
:102BC000B85305E1B751630802E30F0EC16FBA5362
:102BD00009E1B95307E1B85305E1B751090802E328
:102BE0000F0EC26FB75307E1B85305E1B95303E1C4
:102BF000BA5301E1C36BBC51010A00012FE0030A83
:102C00003AE0010A47E0070A53E0010A5FE00C0AD4
:102C100067E0030AD8B471D0010AD8B47BD0070AA0
:102C2000D8B487D0010AD8B493D0030AD8B49FD0BF
:102C3000010AD8B4ABD01F0AD8B4B7D0010AD8B4AF
:102C4000C3D0BDC26EF1BEC26FF1BFC270F1C0C2CF
:102C500071F1C1C272F1C2C273F1C4D0BEC26EF1D1
:102C6000BFC26FF1C0C270F1C1C271F1C2C272F1D4
:102C7000C3C273F1B7D00F0E01016E6F010E5B245A
:102C80006F6F0F0E706FC2C271F1C3C272F1736FBA
:102C90000001A8D0C0C26EF1C1C26FF1C2C270F112
:102CA000C3C271F10F0E0101726F736F00019AD0F0
:102CB0000F0E01016E6F6F6FC0C270F1C1C271F172
:102CC000C2C272F1C3C273F100018CD00F0E0101B8
:102CD0006E6F6F6B706B716B726B736F000182D074
:102CE000BDC26EF1BEC26FF1BFC270F1C0C271F160
:102CF000C1C272F1C2C273F175D0BEC26EF1BFC261
:102D00006FF1C0C270F1C1C271F1C2C272F1C3C22F
:102D100073F168D00F0E01016E6FBEC26FF1BFC2BA
:102D200070F1C0C271F1C1C272F1C2C273F100018F
:102D300059D0BDC26EF10F0E01016F6FBFC270F1AD
:102D4000C0C271F1C1C272F1C2C273F100014AD0B6
:102D5000BDC26EF1BEC26FF10F0E0101706FC0C235
:102D600071F1C1C272F1C2C273F100013BD0BDC2A8
:102D70006EF1BEC26FF1BFC270F10F0E0101716F33
:102D8000C1C272F1C2C273F100012CD0BDC26EF19A
:102D9000BEC26FF1BFC270F1C0C271F10F0E01016E
:102DA000726FC2C273F100011DD0BDC26EF1BEC20E
:102DB0006FF1BFC270F1C0C271F1C1C272F10F0EEA
:102DC0000101736F00010ED0BEC26EF1BFC26FF180
:102DD000C0C270F1C1C271F1C2C272F10F0E010125
:102DE000736F00011200030E0201D16F0001EDECC0
:102DF00009F01200016A026A006A036A0201D151F5
:102E000002E1D05118E0100ED26FD890CE37CF37F4
:102E100000360336D151035C02E1D051005C07E378
:102E2000D051005ED8A00306D151035ED880013690
:102E30000236D22FEAD700011200020E0201D16F32
:102E40000001EDEC09F02DEF17F0700E0201D06FCC
:102E5000CF51D025816E0001F0D78AEF19F0700EA6
:102E60000201D06FCF51D025816E000194EF19F08F
:102E70000201CE6B83A802D0080ECE2783AA02D00F
:102E8000040ECE2783AC02D0020ECE2783AE02D032
:102E9000010ECE27CEC201F000011200B8C2F4F13B
:102EA000B7C2F3F1B6C2F2F1B5C2F1F10201BC6BE7
:102EB000BB6BBE6BBD6BB95308E00101F66BF56BE4
:102EC000F86BF76BF96BFA6B0201BA3D64D0C16B1A
:102ED000C151090852E3C151030DF350040DF350E1
:102EE000036A780FE96E010E0320EA6EEFCF00F05F
:102EF000ECCF01F0ECCF02F0ECCF03F00350B85D63
:102F00003AE30BE10250B75D36E307E10150B65DED
:102F100032E303E10050B55D2EE3C151030DF350E0
:102F2000010F040DF350036A780FE96E010E0320C0
:102F3000EA6EEFCF00F0ECCF01F0ECCF02F0ECCF77
:102F400003F0B851035C17E30BE1B751025C13E3E4
:102F500007E1B651015C0FE303E1B551005C0BE3FF
:102F6000D00EC125CE6FCF6F000165EC05F001C01A
:102F700048F0020102D0C12BABD70101F951485CE6
:102F800008E0FA6B48C081FF00012DDF48C0F9F16D
:102F900001010FD00201BAC248F00101F951485CA9
:102FA00008E0FA6B48C081FF00011DDF48C0F9F15D
:102FB00001011BB027D00001AADC02C04FF001C004
:102FC0004EF04F50260815E2FF0A03E14E500F085D
:102FD00010E2100E4E5C006E270E4F58036E00502C
:102FE0000201B5270350B623000EB723B82309D03A
:102FF00000014E500201B55F4F50B65B000EB75B4B
:10300000B85B0101B8C2C5F2B7C2C4F2B6C2C3F21E
:10301000B5C2C2F20201C5530DE1C451000817E266
:10302000FF0A08E1C351850812E2FF0A03E1C25119
:103030009F080DE2A00EC25F860EC35B010EC45B4B
:10304000000EC55B0A0EBB27000EBC23E4D7C55398
:103050000AE1C45308E1C351260815E2FF0A03E15F
:10306000C2510F0810E2100EC25F270EC35B000EA4
:10307000C45BC55B010EBB27000EBC23640EBD27DD
:10308000000EBE23E4D7C5530AE1C45308E1C3517F
:10309000020811E2FF0A03E1C251E7080CE2E80E60
:1030A000C25F030EC35B000EC45BC55B0A0EBD2787
:1030B000000EBE23E8D7C55307E1C45305E1C3534F
:1030C00003E1C25163080BE2640EC25F000EC35BF2
:1030D000C45BC55B010EBD27000EBE23ECD7BF6BE2
:1030E000C55307E1C45305E1C35303E1C2510908C5
:1030F00009E20A0EC25F000EC35BC45BC55B010E32
:10310000BF27EED7C06BC25306E1C35304E1C453DB
:1031100002E1C55309E0010EC25F000EC35BC45B50
:10312000C55B010EC027EFD7BE51000809E2FF0AB8
:1031300003E1BD51F30804E2F40EBD5F010EBE5B76
:10314000300EBD27020EBE23C66BC76BC86BC96BA2
:10315000CA6BCB6BCC6BCD6B0101F5510201BD5D30
:1031600005E10101F6510201BE5D34E0BEC2C7F2C5
:10317000BE31CF6FBD31CE6FCF33CE33CF33CE33F1
:10318000CF33CE330F0ECF17CE510F0BC86FBD51BB
:103190000F0BC96F300EC625CE6FCF6F000141EC0B
:1031A0000AF0200E0201C725CE6FCF6F000141EC5F
:1031B0000AF0100E0201C825CE6FCF6F000141EC5E
:1031C0000AF0C9C2CFF241EC0AF0BEC2F6F1BDC2AC
:1031D000F5F102010101F7510201BB5D06E10101B8
:1031E000F8510201BC5DD8B48AD04850050834E3D8
:1031F000BCC2CFF2BBC2CEF2D16B050ED06F0001C4
:10320000F9DD02C0CFF201C0CEF20C0E0201CE27D2
:10321000000ECF23CF31036ECE31026E0332023265
:10322000033202320332023202C0CCF2BCC2CFF20D
:10323000BBC2CEF2D16B050ED06F0001DBDD02C048
:10324000CFF201C0CEF20C0E0201CE27000ECF232A
:10325000CE510F0BCD6F33D0BCC2CFF2BBC2CEF27A
:10326000D16B050ED06F0001C5DD02C0CFF201C0E9
:10327000CEF2120E0201CE5F000ECF5BCF31036E95
:10328000CE31026E03320232033202320332023294
:1032900002C0CCF2BCC2CFF2BBC2CEF2D16B050EE3
:1032A000D06F0001A7DD02C0CFF201C0CEF2120E36
:1032B0000201CE5F000ECF5BCE510F0BCD6F300EF3
:1032C000CA25CE6FCF6F000149EC0AF0200E020133
:1032D000CB25CE6FCF6F000149EC0AF0100E020132
:1032E000CC25CE6FCF6F000149EC0AF0CDC2CFF2F2
:1032F00049EC0AF0BCC2F8F1BBC2F7F10201C051BF
:103300000101FA5D0AE0010E0201C025CE6FCF6F08
:1033100000019BD5C0C2FAF10101010E0201BF25D7
:10332000CE6FCF6F00019BD5A3DD01C040F040C040
:1033300041F012000201B66B84928494809A8480DA
:1033400000D000D0000082A402D0010EB66F82A28D
:1033500002D0020EB66F82A002D0030EB66F849028
:10336000848200D000D0000082A402D0040EB66F88
:1033700082A202D0050EB66F82A002D0060EB66FF2
:103380008492848400D000D0000082A402D0070E72
:10339000B66F82A202D0080EB66F82A002D0090ECC
:1033A000B66F8494808A00D000D0000082A202D040
:1033B0000A0EB66F849484928490809AB6C201F00B
:1033C000000112000201B66B83B204D082BA02D0AF
:1033D0000B0EB66F83B204D082BC02D00C0EB66F57
:1033E00083A206D082AA04D082AC02D00D0EB66FA2
:1033F00083A204D082BA02D00E0EB66F83A204D08C
:1034000082BC02D00F0EB66FB6C201F000011200EE
:103410000201B26BB36BB151020802E1B46B02D08E
:10342000040EB46F82A40AD182B4FED718B007D0BC
:10343000000180DF015201E018800201276B18A013
:103440008BD0000177DF015216E074DF01C025F256
:103450000201273D01D001D0272BB15102080CE019
:10346000166AF2BE168EF29EC80EDF6F00015EEC89
:1034700004F016BEF28E02012751B45D21E2B15371
:103480000AE12751630802E3010EB36F2751630875
:1034900002E2020EB36FB12D0AD02751630802E396
:1034A000010EB36F2751630802E2030EB36FB151EF
:1034B000020806E125C2B2F2256BB2C201F0D9D0F2
:1034C000B32D22D0000136DF01521FE10201B56B9E
:1034D000B55109080AE300012DDF015203E00201A2
:1034E00004D000010201B52BF3D7B55109080CE255
:1034F00018A403D0B26B189402D025C2B2F2256B87
:103500001890B2C201F0B5D000010201B351020817
:103510000DE1255303E01E0E2525B26F256B010E2C
:10352000276F18841890B2C201F0A3D0B3510308DA
:1035300013E1255303E01E0E2525B26F0001FADECC
:10354000015205E1010E0201276FB26B00011884E0
:103550000201B2C201F08DD018B607D0000132DFEF
:10356000015201E018860201286B18A667D00001FD
:1035700029DF015213E026DF01C026F20201283DB7
:1035800001D001D0282B166AF2BE168EF29E24C2FC
:10359000DFF200015EEC04F016BEF28E020128514B
:1035A000B45D1BE226510D0A00010CE00201285116
:1035B0001D0802E3010EB36F28511D0802E2020E3E
:1035C000B36F0BD0020128511D0802E3010EB36F47
:1035D0002851630802E2020EB36FB32D14D000012C
:1035E000F1DE015211E118A405D018940201B26B6A
:1035F00004D0000126C2B2F20201266B1896286B95
:10360000B2C201F036D000010201B351020816E146
:10361000050E2625B26F0001D5DE015205E002013C
:10362000B251120807E1000118960201B2511208C6
:1036300001E0B26B1884B2C201F01BD083A015D098
:103640001BBC12D00001C5EC0BF083B0FED7C80E36
:103650000201B66F0001BCEC0AF018A802D018985D
:1036600001D0188803D0020118980001000E016EE5
:103670000201000112001BAC07D0030E0201B16F62
:10368000000174EC14F022D21B800201AC51AD1188
:1036900009E1000187EC14F002C04FF001C04EF0C8
:1036A00006D00201ADC24FF0ACC24EF000014F5047
:1036B0004D080DE2FF0A03E14E501F0808E24F6A71
:1036C0004E6A0201B46BB36B0001A2EC14F04350DC
:1036D000040DF350036A1C0FE96E000E0320EA6E1E
:1036E000EFCF1CF0ECCF1DF0ECCF1EF0ECCF1FF0B5
:1036F0004F5026080BE2FF0A03E14E500F0806E286
:10370000100E4E5E270E4F5A1B9201D01B82010EE7
:103710000201AE6FB091B093AE2D9AD0B0A305D098
:10372000010E4E5E000E4F5AB093B0A105D0010EAF
:103730004E26000E4F22B0914E3C0AD04F3C08D08E
:103740004F6A010E4E6E1BB202D01B8201D01B923B
:103750004E504F1058E0000E1BB2010E010A00013E
:103760001FE04350040DF350036A1C0FE96E000E76
:103770000320EA6EEFCFB1F2ECCFB2F2ECCFB3F2AE
:10378000ECCFB4F24E500201B1251C6E4F50B22165
:103790001D6E000EB3211E6E000EB4211F6E1ED0D2
:1037A0004350040DF350036A1C0FE96E000E032012
:1037B000EA6EEFCFB1F2ECCFB2F2ECCFB3F2ECCFD6
:1037C000B4F24E500201B15D1C6E4F50B2591D6EE5
:1037D000000EB3591E6E000EB4591F6E000E1BB2C0
:1037E000010EFF0A050FB16FB569B669BA6BB96B07
:1037F0004FC0B8F24EC0B7F2BB69BC6F0001C0EC5D
:1038000014F016D00201B569B669BA6BB96BB86B22
:10381000010EB76FBB69050EBC6F0001C0EC14F060
:10382000C5EC0BF0C80E0201B66F0001BCEC0AF04B
:103830001FC0B8F21EC0B7F21DC0B6F21CC0B5F270
:103840000201B96BBA6900014EEC17F00201AE6BD0
:10385000AC51AD110BE0080EB16FFA0EB66F00015E
:10386000BCEC0AF00201B12FF8D7E9D0AE5337E132
:10387000000E1BB2010EB16FB1C2B2F2000138EC02
:1038800017F001C040F04150405C04E1000E016EB1
:1038900021D01ED00201B2530CE182A805D0010E46
:1038A0004E26000E4F2204D0010E4E5E000E4F5ADF
:1038B0000BD082A805D0010E4E5E000E4F5A04D0E8
:1038C000010E4E26000E4F22010E016E000102D0A5
:1038D000000E016E015204E0010E0201AE6F000104
:1038E0000201AE53D8A4AAD0B16B000191DD01C092
:1038F000AFF20201AF53D8B4A1D0010EAE6F1BB22C
:1039000031D0AF51020A00010DE0010A0FE0050AB3
:1039100011E00A0A14E0070A16E0060A18E0120A83
:103920001BE01ED00201B08300011AD00201B08159
:10393000000116D0030E0201AE6F000111D002018A
:10394000B08300010DD00201B081000109D0020E48
:103950000201AE6F000104D0020E0201AE6F000141
:1039600030D00201AF51020A00010DE0010A0FE060
:10397000050A11E00A0A14E0070A16E0060A18E030
:10398000120A1BE01ED00201B08100011AD0020110
:10399000B083000116D0030E0201AE6F000111D0FA
:1039A0000201B08100010DD00201B083000109D0F5
:1039B000020E0201AE6F000104D0020E0201AE6FD2
:1039C00000010201AF2D2FD00001C5EC0BF04350D8
:1039D000040DF350036A1C0FE96E000E0320EA6E1B
:1039E000EFCFB1F2ECCFB2F2ECCFB3F2ECCFB4F256
:1039F0000201B569B669B4C2BAF2B3C2B9F2B2C2D1
:103A0000B8F2B1C2B7F2BB69BC6B0001C0EC14F0F4
:103A1000040E0201B16FFA0EB66F0001BCEC0AF0A1
:103A20000201B12FF8D719A202D0030EAE6FAE512A
:103A3000020803E0AE510308D8B401D06DD6AE51F0
:103A4000020819E11BB20DD0100E4E24B16F270EE3
:103A50004F20B26FB46FB1C2B3F20001A2EC14F008
:103A600002011BA208D04FC0B4F24EC0B3F2000155
:103A7000A2EC14F00201AE51030826E1B46BB36B63
:103A80000001A2EC14F00201B569B669BA6BB96B1A
:103A9000B86B010EB76FBB69050EBC6F0001C0ECBF
:103AA00014F0C5EC0BF0030E0201B16F000174ECD1
:103AB00014F0040E0201B16FFA0EB66F0001BCECF7
:103AC0000AF00201B12FF8D71B90000112003AEF63
:103AD00014F001C0ABF200C0AAF201C0ADF200C008
:103AE000ACF2C9DD310E0201AB6F450EAC6F030EB7
:103AF000AD6F020EAE6F000174EC11F09EEF1FF07F
:103B00000201AA6B2C51310A00010DE0030A0FE0FB
:103B1000010A11E0070A13E0000E18BA010E010FA6
:103B20000201AA6F0FD0010E0201AA6F0BD0020E84
:103B30000201AA6F07D0030E0201AA6F03D0040E80
:103B40000201AA6F320EAB6F410EAC6F030EAD6F68
:103B5000AAC2AEF2000174EC11F0A3EF1FF0300E18
:103B600002012C5D0A0DF3CFAAF2300E2D5DAA27BB
:103B7000AA530DE0AA5128080AE3AAC25AF0E60E99
:103B8000B16F5AC0B2F2000192EC05F00201320EA0
:103B9000AB6F420EAC6F030EAD6F5AC0AEF20001B8
:103BA00074EC11F00201B16B000108EC0BF0A8EF0E
:103BB0001FF0300E02012C5D0FE0300E2C5D080866
:103BC0000BE3310E2C5D5B6EE70EB16F5BC0B2F2A2
:103BD000000192EC05F00201010E5B24AA6F320E87
:103BE000AB6F430EAC6F030EAD6FAAC2AEF2000115
:103BF00074EC11F00201B16B000108EC0BF0ADEFB9
:103C00001FF0300E02012C5D0FE0300E2C5D080815
:103C10000BE3300E2C5D4C6EEC0EB16F4CC0B2F26B
:103C2000000192EC05F00201320EAB6F440EAC6F56
:103C3000030EAD6F4CC0AEF2000174EC11F0B2EFA8
:103C40001FF002012C51300A000103E0010A03E0D9
:103C500003D01A9201D01A82000E1AB2010E02018C
:103C6000AA6F320EAB6F450EAC6F030EAD6FAAC2DA
:103C7000AEF2000174EC11F0000E1AB2010E020156
:103C8000AA6FEB0EB16FAAC2B2F2000192EC05F07E
:103C9000B5EF1FF0036A0201AD51680FE96E000E27
:103CA0000320EA6EEFCF01F0000112000201AA6BBF
:103CB000AA3D01D013D0AAC2ADF20001EBDF01C0D2
:103CC000ABF2166AF2BE168EF29E01C0DDF26EEC09
:103CD00004F016BEF28E0201AA2BEAD7166AF2BED3
:103CE000168EF29E3B0EDD6F00016EEC04F016BEE8
:103CF000F28EB8EF1FF09D9A0201AA6B9EAA14D013
:103D0000000153EC04F001C0ACF2AAC2C8F201C039
:103D1000C9F26AEC05F0AAC2ADF2BCDF01503B0863
:103D2000D8B404D00201AA2BE9D700019EAA09D079
:103D300053EC04F0200E006E002EFED700D00000E1
:103D4000F5D70201AB6BAA51AB5D29E2ABC2ADF274
:103D50000001A0DF01C0ACF2ABC2B1F201C0B2F20F
:103D600092EC05F0200E006E002EFED700D0000071
:103D7000ABC2CFF265EC05F001C0ACF2ABC2ADF264
:103D800089DF01500201AC5D02E1AB2B07D0030ECD
:103D9000B16F000174EC14F0020101D0D4D79D8AF8
:103DA0000001C5EC0BF0F9EC08F04BEC08F04FEC1F
:103DB0000AF0BDEF1FF00201A76BA86BA96BA95118
:103DC0002C084BE3A951040DF350036AF2CFAAF279
:103DD000F29E00017AEC00F00201AABFF28E016EA1
:103DE0002A5D39E1A951040DF350010F036AF2CFA6
:103DF000AAF2F29E00017AEC00F00201AABFF28E54
:103E0000016E2B5D28E1A951040DF350020F036AE6
:103E1000F2CFAAF2F29E00017AEC00F00201AABFF2
:103E2000F28E036A2A0FE96E020E0320EA6EEF504B
:103E30003B0811E1A951040DF350030F036AF2CFBF
:103E4000AAF2F29E00017AEC00F00201AABFF28E03
:103E5000016EA76F02D0A92BB2D7030EA75DD60FB4
:103E6000D8B090D02A0F0001C7EF1FF00201B06B4D
:103E7000000154EC0DF0010E0201A86F83D0020185
:103E8000B06B0001A0EC0CF0010E0201A86F7AD01B
:103E90008CEC11F0020176D0A0EC11F0020172D08E
:103EA00094EF12F0010E0201A86F6CD0A4EF12F093
:103EB000010E0201A86F66D02CC2AAF2B4EF12F074
:103EC000010E0201A86F5ED0EAEF12F0020E0201AD
:103ED000A86F58D0CEEC12F0020154D01FEF13F0AF
:103EE000020E0201A86F4ED002EC13F002014AD07C
:103EF00037EF13F070EF13F0020144D0020142D00B
:103F00002CC24DF002013ED01A9E02013BD01A8E07
:103F1000020138D01A84020135D09AEF13F0020161
:103F200031D0C2EF13F002012DD0EAEF13F00201FD
:103F300029D012EF14F0020125D0C9D5010E0201DB
:103F4000A86F20D0DDD5010E0201A86F1BD007D6C7
:103F5000010E0201A86F16D02CD6010E0201A86F27
:103F600011D04FD602010ED06CD602010BD09ED6D6
:103F7000030E0201A86F06D0BED6010E0201A86F83
:103F800001D00201A8C201F000012DEF20F0F2CF14
:103F90000DF0F29EE824F76AF736B30FF66E3F0E87
:103FA000F7220A00F550FA6E0800F5500DBEF28EA9
:103FB000F96E6C3E7E3E903E983EA03EAC3EB83ED2
:103FC000C83ED43EDC3EE83EF03E823F823F823F28
:103FD000FC3E003F823F823F823F823F823F823FE2
:103FE000083F0E3F823F823F143F1A3F223F2A3F45
:103FF000323F3A3F823F443F4E3F583F623F683F27
:10400000823F6E3F783F0201A66B19B204D0A6C270
:1040100001F029D028D01AA414D01AB202D01A82E2
:1040200003D01AA201D01A921A94000E1AB2010EED
:10403000A76FEB0EB16FA7C2B2F2000192EC05F0D0
:1040400002011AB206D0000152EF0FF001C0A6F231
:1040500002011AA205D00001AED601C0A6F20201EB
:104060001992A6C201F00001120002019B91400EBC
:10407000AF6EA20EAC6E900EAB6E9D9A640EB66FD4
:104080000001BCEC0AF0460E0201536F540E546F4F
:10409000430E556F460E566F470E576F3B0E586FC7
:1040A0000001D0EC0AF09D8A02019C6B9C51C7086C
:1040B00012E30001A8DF0150030804E102019B8123
:1040C0000AD0000102019C2B010EB66F0001BCEC6E
:1040D0000AF00201EBD7000E9BB1010E016E000148
:1040E000D5EF31F09D8202019C819D6BEC0ECF6F6C
:1040F000000165EC05F001C09EF202019B53D8A4BB
:10410000CBD01F6A1E6A1D6A1C6A000138EC17F0CA
:1041100001C040F002019CB137D09F6B090EA06F27
:10412000000138EC17F001C040F04150405C04E160
:10413000000E016E25D024D0010E0101FB2740C0E6
:1041400041F0FB510201A05D18E29F5308E182A8F3
:1041500003D0010E9E2702D0010E9E5F07D082A8D9
:1041600003D0010E9E5F02D0010E9E270101FB6B62
:10417000010E016E000104D00201000E016E00016B
:1041800002019C9101B09C819CB108D0010EB16FDD
:10419000000108EC1AF001C09DF202019D5309E0F4
:1041A0009D51030801E19E2B9D51020801E19E07EC
:1041B0009C819CA14ED0010E9E5DF80F4AE2080F33
:1041C0000001B8EF21F01F6A1E6A040E1D6EB00ECA
:1041D0001C6E02019C813DD01F6A1E6A090E1D6E75
:1041E000600E1C6E02019C8134D01F6A1E6A120E82
:1041F0001D6EC00E1C6E02019C812BD01F6A1E6AB0
:10420000250E1D6E800E1C6E02019C8122D01F6A3D
:104210001E6A4B0E1D6E1C6A02019C811AD01F6A19
:104220001E6A960E1D6E1C6A02019C8112D01F6AC6
:104230001E6AE10E1D6E1C6A02019C810AD01F6A73
:10424000010E1E6EC20E1D6E1C6A02019C8101D001
:1042500002019E5303E1010E9E6F05D09E51080896
:1042600002E2080E9E6F9CA112D0B569B6691FC00C
:10427000BAF21EC0B9F21DC0B8F21CC0B7F2010EEE
:10428000BB6FBC6F0001C0EC14F002019C919D510A
:104290000408D8B401D03FD79E51010A00010FE0B5
:1042A000030A14E0010A19E0070A1EE0010A23E0EC
:1042B000030A28E0010A2DE00F0A32E038D0FF0E91
:1042C000AF6EA20EAC6E900EAB6E37D0810EAF6E9D
:1042D000A20EAC6E900EAB6E30D0400EAF6EA20E42
:1042E000AC6E900EAB6E29D0810EAF6EA60EAC6E8A
:1042F000900EAB6E22D0400EAF6EA60EAC6E900E3E
:10430000AB6E1BD0200EAF6EA60EAC6E900EAB6ED9
:1043100014D0150EAF6EA60EAC6E900EAB6E0DD017
:104320000A0EAF6EA60EAC6E900EAB6E06D0400EAF
:10433000AF6EA20EAC6E900EAB6E9EC24CF0020140
:104340009B5314E1EC0EB16F9EC2B2F2000192ECED
:1043500005F0020E0201B16F000174EC14F0C80EFA
:104360000201B66F0001BCEC0AF00201000112006C
:10437000F2CF0DF0F29EE824F76AF736950FF66E4D
:10438000430EF7220A00F550FA6E0800F5500DBEF4
:10439000F28EF96EC641D841EA41FC410E421E42FE
:1043A0002E423E4238EC17F001C040F04150405CD4
:1043B00004E1000E016E0BD00AD040C041F082A88B
:1043C00004D0020E016E03D002D0010E016E120065
:1043D0001BAC08D0030E0201B16F000174EC14F0A5
:1043E0009EEF27F043C0AAF282A604D0040E020179
:1043F000AA2700010201AB6BAC6BAD6BAE91AE9323
:10440000AE95AE974350010A000103E0030A04E0B1
:1044100005D044C0A8F202D045C0A8F20201AA2DDE
:1044200001D003D0AA51020859E1A851040DF3505C
:10443000036AF2CFB0F2F29E000157EC00F00900DF
:10444000F5CF01F00900F5CF02F00900F5CF03F038
:104450000201B0BFF28E03C09EF202C09DF201C005
:104460009CF29B6FA851090807E1A26BA16BC30ED8
:10447000A06F500E9F6F1ED0010EA825040DF350A3
:10448000036AF2CFB0F2F29E000157EC00F009008F
:10449000F5CF01F00900F5CF02F00900F5CF03F0E8
:1044A0000201B0BFF28E03C0A2F202C0A1F201C0AD
:1044B000A0F29F6F4350040DF350036A1C0FE96E86
:1044C000000E0320EA6EEFCFA3F2ECCFA4F2ECCF04
:1044D000A5F2ECCFA6F2010EA76FAE85AA51030894
:1044E000D8A462D047C0B2F2000147EC08F003C084
:1044F0009EF202C09DF201C09CF200C09BF24750A8
:104500000E080EE10201B26B000147EC08F003C097
:10451000A2F202C0A1F201C0A0F200C09FF210D02E
:10452000010E47240201B06FB26F000147EC08F0A2
:1045300003C0A2F202C0A1F201C0A0F200C09FF22B
:1045400002019E51A25D14E30BE19D51A15D10E3B8
:1045500007E19C51A05D0CE303E19F519B5D08E2E4
:104560009EC2A6F29DC2A5F29CC2A4F29BC2A3F277
:10457000A2519E5D14E30BE1A1519D5D10E307E1A3
:10458000A0519C5D0CE303E19B519F5D08E2A2C238
:10459000A6F2A1C2A5F2A0C2A4F29FC2A3F247C094
:1045A000A9F2010EA76FAE85AA51040804E0AA5132
:1045B0000808D8A48ED05AC0A9F25AC0ADF25BC088
:1045C000ACF2020EA76F1BB47BD0B76B5BC0B6F228
:1045D000B96BA40EB86F0001D8EC07F002C0B3F2BB
:1045E00001C0B2F202C003F002010150F2CFB4F2F6
:1045F000F29E02C0F7FF000102EC01F0006E09001C
:10460000F5CF01F00900F5CF02F00900F5CF03F076
:104610000201B4BFF28E03C0B7F202C0B6F201C00D
:10462000B5F2B46FB4530DE1B5530BE1B65309E1E4
:10463000B75307E15B50060802E35B2A01D05B6ACF
:10464000C4D75A50010802E3010E5A6E5A50270887
:1046500002E2280E5A6EB76B5BC0B6F2B96BA40EBD
:10466000B86F0001D8EC07F002C0B3F201C0B2F29B
:104670000201B76B5AC0B6F2B96B040EB86F0001F5
:10468000D8EC07F002C003F001500201B225016E20
:10469000B35103220150F2CFB2F2F29E03C0F7FFF2
:1046A000000102EC01F0006E0900F5CF01F00900F5
:1046B000F5CF02F00900F5CF03F00201B2BFF28E90
:1046C00003C0A6F202C0A5F201C0A4F200C0A3F28A
:1046D000AE85AA51070815E147C0A9F247C0ADF25F
:1046E000010EA76F47C0B2F2000147EC08F003C00B
:1046F000A6F202C0A5F201C0A4F200C0A3F202011A
:10470000AE95AA51050803E0AA5106084EE1A8514A
:10471000040DF350036AF2CFB0F2F29E000157ECA1
:1047200000F00900F5CF01F00900F5CF02F0090013
:10473000F5CF03F00201B0BFF28E03C09EF202C0BB
:104740009DF201C09CF29B6FA851040DF350036AC7
:10475000F2CFB0F2F29E0001DFEC00F00900F5CFDD
:1047600001F00900F5CF02F00900F5CF03F00201D6
:10477000B0BFF28E03C0A2F202C0A1F201C0A0F24B
:104780009F6F4350040DF350036A1C0FE96E000E37
:104790000320EA6EEFCFA3F2ECCFA4F2ECCFA5F2A8
:1047A000ECCFA6F2010EA76FAE859F519B5D12E183
:1047B000A0519C5D0FE1A1519D5D0CE1A2519E5D58
:1047C00009E11898020EB16F000174EC14F09EEF2D
:1047D00027F002019E51A25D0DE30BE19D51A15D09
:1047E00009E307E19C51A05D05E303E19F519B5D57
:1047F00001E21B82A2519E5D0DE30BE1A1519D5D83
:1048000009E307E1A0519C5D05E303E19B519F5D36
:1048100001E21B92AE99B0696750A65D14E30BE10B
:104820006650A55D10E307E16550A45D0CE303E16C
:10483000A351645C08E267C0A6F266C0A5F265C039
:10484000A4F264C0A3F2A651635C14E30BE1A5518A
:10485000625C10E307E1A451615C0CE303E160508A
:10486000A35D08E263C0A6F262C0A5F261C0A4F233
:1048700060C0A3F2A6C2B8F2A5C2B7F2A4C2B6F253
:10488000A3C2B5F2B96BB0C2BAF200014EEC17F098
:104890000201AA51040A000108E0030A0DE00F0A10
:1048A00012E000D000D0000014D0320E0201B66F2A
:1048B0000001BCEC0AF00DD0C80E0201B66F000179
:1048C000BCEC0AF006D0320E0201B66F0001BCEC5F
:1048D0000AF083A401D01B8819A807D00201AEB941
:1048E00002D0AB2BAE8906D000010201AB3D01D056
:1048F000AB6BAE99AEA504D0AE9719B8AE8701D018
:10490000AE87A751010A000103E0030A30E05AD044
:10491000000E0201AEB7010E010A000103E0010A18
:1049200014E024D043C0B5F20201B669A6C2BAF2BF
:10493000A5C2B9F2A4C2B8F2A3C2B7F2A9C2BBF22F
:10494000BC6B0001C0EC14F011D00201B569B6696E
:10495000A6C2BAF2A5C2B9F2A4C2B8F2A3C2B7F213
:10496000A9C2BBF2BC6B0001C0EC14F02BD0000E4E
:104970000201AEB7010E010A000103E0010A12E0D4
:1049800020D0030E0201B56FB669BA6BB96BB86B74
:10499000A9C2B7F20F0EBB6F020EBC6F0001C0ECD4
:1049A00014F00FD00201B569B669BA6BB96BB86B78
:1049B000A9C2B7F20F0EBB6F020EBC6F0001C0ECB4
:1049C00014F000D0010E0201B16F000108EC1AF0E2
:1049D00001C0AFF21BB875D00201AA51040A000150
:1049E0004AE0030A53E00F0AD8B45AD01BA220D0E1
:1049F0000201A251A65D15E30BE1A151A55D11E3F2
:104A000007E1A051A45D0DE303E1A3519F5D09E21D
:104A10009EC2A6F29DC2A5F29CC2A4F29BC2A3F2C2
:104A200006D0020EA327000EA423A523A62300016F
:104A30001BB220D00201A651A25D15E30BE1A551E6
:104A4000A15D11E307E1A451A05D0DE303E19F51D6
:104A5000A35D09E29EC2A6F29DC2A5F29CC2A4F289
:104A60009BC2A3F206D0020EA35F000EA45BA55B5F
:104A7000A65B000126D00201A951270802E3A92B59
:104A800002D0010EA96FAE8100011BD00201A95115
:104A90000D0802E3A92B01D0A96BAE83000111D050
:104AA0000201A951270802E3A92B09D05B5006088F
:104AB00003E3010E5B2601D05B6A010EA96FAE8194
:104AC00000011BA896D00201AF510B080CE0AF51BA
:104AD000030809E0AF51210806E0000163DC015042
:104AE000020835E102014350040A00010CE0030A08
:104AF00014E00F0A1BE00A0E0201A327000EA423F4
:104B0000A523A62323D00201A951270802E3A92B3C
:104B100002D0010EA96FAE8119D00201A9510D0872
:104B200002E3A92B01D0A96BAE8310D00201A951D9
:104B3000270802E3A92B0AD05B50060803E3010E05
:104B40005B2601D05B6A010EA96FAE8100010201F4
:104B5000AF510C080BE0AF51020808E0AF5120083C
:104B600005E000011FDC012C35D002014350040A8E
:104B700000010CE0030A14E00F0A1BE00A0E020118
:104B8000A35F000EA45BA55BA65B23D00201A95125
:104B9000010802E2A90702D0280EA96FAE8119D040
:104BA0000201A95302E0A90702D00E0EA96FAE833D
:104BB00010D00201A951010802E2A9070AD05B52F4
:104BC00003E0010E5B5E02D0070E5B6E280EA96F3C
:104BD000AE8100010201AF5302E183A401D0AB6BAF
:104BE000AB51030805E283B401D01B98040EAB6FF0
:104BF00000010201AEA186D01BB47BD0B76B5BC0B5
:104C0000B6F2B96BA40EB86F0001D8EC07F002C081
:104C1000B3F201C0B2F202C003F002010150F2CFC0
:104C2000B4F2F29E02C0F7FF000102EC01F0006E48
:104C30000900F5CF01F00900F5CF02F00900F5CF2A
:104C400003F00201B4BFF28E03C0B7F202C0B6F2A5
:104C500001C0B5F2B46FB4530DE1B5530BE1B653D7
:104C600009E1B75307E15B50060802E35B2A01D074
:104C70005B6AC4D7A951010802E3010EA96FA951CB
:104C8000270802E2280EA96FB76B5BC0B6F2B96BBA
:104C9000A40EB86F0001D8EC07F002C0B3F201C057
:104CA000B2F20201B76BA9C2B6F2B96B040EB86FCB
:104CB0000001D8EC07F002C003F001500201B22558
:104CC000016EB35103220150F2CFB2F2F29E03C043
:104CD000F7FF000102EC01F0006E0900F5CF01F0D2
:104CE0000900F5CF02F00900F5CF03F00201B2BFD1
:104CF000F28E03C0A6F202C0A5F201C0A4F200C069
:104D0000A3F2AE91AEA30FD0A9C2B2F2000147EC5C
:104D100008F003C0A6F202C0A5F201C0A4F200C0D0
:104D2000A3F20201AE9318B80BD00001C5EC0BF052
:104D3000C80E0201B66F0001BCEC0AF003D00201FC
:104D40006AD5000183A41CD043500408D8B4A9C27A
:104D50005AF043500308D8B4A9C247F04350040D99
:104D6000F350036A1C0FE96E000E0320EA6EA3C223
:104D7000EFFFA4C2ECFFA5C2ECFFA6C2ECFFA0D0DF
:104D800043500408D8A48BD0ADC25AF0ACC25BF03B
:104D90001BB47DD00201B76B5BC0B6F2B96BA40E39
:104DA000B86F0001D8EC07F002C0B3F201C0B2F254
:104DB00002C003F002010150F2CFB4F2F29E02C031
:104DC000F7FF000102EC01F0006E0900F5CF01F0E1
:104DD0000900F5CF02F00900F5CF03F00201B4BFDE
:104DE000F28E03C0B7F202C0B6F201C0B5F2B46FE2
:104DF000B4530DE1B5530BE1B65309E1B75307E1E5
:104E00005B50060802E35B2A01D05B6AC4D75A50A4
:104E1000010802E3010E5A6E5A50270802E2280EDA
:104E20005A6EB76B5BC0B6F2B96BA40EB86F0001D7
:104E3000D8EC07F002C0B3F201C0B2F20201B76BC6
:104E40005AC0B6F2B96B040EB86F0001D8EC07F087
:104E500002C003F001500201B225016EB3510322DA
:104E60000150F2CFB2F2F29E03C0F7FF000102EC54
:104E700001F0006E0900F5CF01F00900F5CF02F056
:104E80000900F5CF03F00201B2BFF28E000103C0AA
:104E9000A6F202C0A5F201C0A4F200C0A3F24350E2
:104EA00003080EE1ADC247F047C0B2F247EC08F08C
:104EB00003C0A6F202C0A5F201C0A4F200C0A3F292
:104EC0000201B0696750A65D14E30BE16650A55D71
:104ED00010E307E16550A45D0CE303E1A351645CBA
:104EE00008E267C0A6F266C0A5F265C0A4F264C07D
:104EF000A3F2A651635C14E30BE1A551625C10E3DD
:104F000007E1A451615C0CE303E16050A35D08E29A
:104F100063C0A6F262C0A5F261C0A4F260C0A3F2B1
:104F2000A6C2B8F2A5C2B7F2A4C2B6F2A3C2B5F245
:104F3000B96BB0C2BAF200014EEC17F02FEF32F0AD
:104F40004350030A45E0070A56E019AC21D0199EE8
:104F50004350040DF350036A1C0FE96E000E03204A
:104F6000EA6E010EEF24006E000EEC20016E000EC2
:104F7000EC20026E000EEC20036EED52ED52ED526D
:104F800000C0EFFF01C0ECFF02C0ECFFEC6E1FD0D1
:104F90004350040DF350036A1C0FE96E000E03200A
:104FA000EA6E0A0EEF24006E000EEC20016E000E79
:104FB000EC20026E000EEC20036EED52ED52ED522D
:104FC00000C0EFFF01C0ECFF02C0ECFFEC6E1FD091
:104FD00047500D0802E3472A01D0476A47C0B2F2A2
:104FE00047EC08F003C02BF002C02AF001C029F002
:104FF00000C028F00CD05A50270802E35A2A02D0E9
:10500000010E5A6E0201B16B000108EC0BF048EF83
:1050100030F04350030A45E0070A56E019AC21D0AE
:10502000199E4350040DF350036A1C0FE96E000EE5
:105030000320EA6E010EEF5C006E000EEC58016E6C
:10504000000EEC58026E000EEC58036EED52ED525D
:10505000ED5200C0EFFF01C0ECFF02C0ECFFEC6EB0
:105060001FD04350040DF350036A1C0FE96E000E6D
:105070000320EA6E0A0EEF5C006E000EEC58016E23
:10508000000EEC58026E000EEC58036EED52ED521D
:10509000ED5200C0EFFF01C0ECFF02C0ECFFEC6E70
:1050A0001FD0475202E0470602D00E0E476E47C09F
:1050B000B2F247EC08F003C02BF002C02AF001C0A6
:1050C00029F000C028F00CD05A50010802E25A061C
:1050D00002D0280E5A6E0201B16B000108EC0BF0F1
:1050E0004CEF30F04350010A05E0030A0AE0060ADB
:1050F0000FE010D0010E0201B06F0001A0EC0CF027
:1051000009D0020E0201B06F0001A0EC0CF002D039
:105110009FEC0BF052EF30F0198E4350040DF3501A
:10512000036A1C0FE96E000E0320EA6E6F0EEF2477
:10513000006E000EEC20016E000EEC20026E000EE0
:10514000EC20ED52ED52ED5200C0EFFF01C0ECFF3C
:1051500002C0ECFFEC6E56EF30F0198E4350040D98
:10516000F350036A1C0FE96E000E0320EA6E6F0E07
:10517000EF5C006E000EEC58016E000EEC58026EF3
:10518000000EEC58ED52ED52ED5200C0EFFF01C0A1
:10519000ECFF02C0ECFFEC6E5AEF30F0198E43507A
:1051A000040DF350036A1C0FE96E000E0320EA6E33
:1051B0000A0EEF24006E000EEC20016E000EEC20B3
:1051C000026E000EEC20ED52ED52ED5200C0EFFFEA
:1051D00001C0ECFF02C0ECFFEC6E5EEF30F0198E08
:1051E0004350040DF350036A1C0FE96E000E0320B8
:1051F000EA6E0A0EEF5C006E000EEC58016E000EB7
:10520000EC58026E000EEC58ED52ED52ED5200C01B
:10521000EFFF01C0ECFF02C0ECFFEC6E62EF30F07C
:1052200019AC02D0199C01D0198C000E19BC010ECA
:1052300002019D6FE80EB16F9DC2B2F2000192ECC7
:1052400005F0020E0201B16F000174EC14F02AEFB8
:1052500029F0E6D7E2EF2EF00201B169B269000150
:1052600092EC05F0030E0201B16F000174EC14F032
:10527000040E02019D6FFA0EB66F0001BCEC0AF03D
:1052800002019D2FF8D70001EDD748EF29F0E4D7B0
:10529000E6EF2EF01BBCC1EF2CF0F5EC0EF0015048
:1052A000040DF350036A1C0FE96E000E0320EA6E32
:1052B000EFCF1CF0ECCF1DF0ECCF1EF0ECCF1FF0C9
:1052C000F5EC0EF001C0A6F201C0B5F20201B6691C
:1052D0001FC0BAF21EC0B9F21DC0B8F21CC0B7F2AE
:1052E000BB69BC6B0001C0EC14F0C5EC0BF01FC037
:1052F000C7F21EC0C6F21DC0C5F21CC0C4F2C7C2B0
:10530000CBF2C6C2CAF2C5C2C9F2C4C2C8F2020117
:105310009D6BCB530DE1CA510E0815E2FF0A08E15F
:10532000C951410810E2FF0A03E1C8513F080BE2EE
:10533000400EC85F420EC95B0F0ECA5B000ECB5B0E
:10534000010E9D27E6D79E6BCB530DE1CA51000895
:1053500015E2FF0A08E1C951850810E2FF0A03E1DE
:10536000C8519F080BE2A00EC85F860EC95B010EF4
:10537000CA5B000ECB5B010E9E27E6D79F6BCB531B
:105380000AE1CA5308E1C95126080FE2FF0A03E106
:10539000C8510F080AE2100EC85F270EC95B000E45
:1053A000CA5BCB5B010E9F27EAD7A06BCB530AE108
:1053B000CA5308E1C95102080FE2FF0A03E1C851CC
:1053C000E7080AE2E80EC85F030EC95B000ECA5B7D
:1053D000CB5B010EA027EAD7A16BCB5307E1CA53E1
:1053E00005E1C95303E1C851630809E2640EC85FCF
:1053F000000EC95BCA5BCB5B010EA127EED7A26B87
:10540000CB5307E1CA5305E1C95303E1C851090869
:1054100009E20A0EC85F000EC95BCA5BCB5B010ED6
:10542000A227EED7A36BCB5307E1CA5305E1C953BB
:1054300003E1C851000809E2010EC85F000EC95B14
:10544000CA5BCB5B010EA327EED7010EA46FA56B41
:1054500083B204D082AA02D082BC03D0010EA46F12
:10546000F7D7A451070832E1000E19B8010E010A5E
:10547000000103E0010A16E027D00A0E0201A4256C
:10548000A66F43C0B5F2B6691FC0BAF21EC0B9F22A
:105490001DC0B8F21CC0B7F2BB69BC6F0001C0EC04
:1054A00014F012D043C0B5F20201B6691FC0BAF2BF
:1054B0001EC0B9F21DC0B8F21CC0B7F2BB690A0E1B
:1054C000BC6F0001C0EC14F031D00201000E19B81D
:1054D000010E010A000103E0010A16E027D00A0EBE
:1054E0000201A425A66F43C0B5F2B6691FC0BAF287
:1054F0001EC0B9F21DC0B8F21CC0B7F2BB69BC6FC8
:105500000001C0EC14F012D043C0B5F20201B6693C
:105510001FC0BAF21EC0B9F21DC0B8F21CC0B7F26B
:10552000BB69090EBC6F0001C0EC14F0010E020152
:10553000B16F000108EC1AF001C0A5F20201A553F9
:1055400001E01998A551060803E0A5510D0807E1EF
:10555000A451060802E3A42B02D0010EA46FA551AA
:1055600003080AE0A5510B0807E0A551210804E053
:10557000A5511008D8A4A8D0010EA45DF90FD8B089
:10558000A3D0070F0001C3EF2CF002019D510308C7
:105590000AE29D6B400E1C26420E1D220F0E1E229B
:1055A000000E1F220AD0010E9D27400E1C26420E1F
:1055B0001D220F0E1E22000E1F2286D002019E51B8
:1055C00009080AE29E6BA00E1C26860E1D22010E03
:1055D0001E22000E1F220AD0010E9E27A00E1C269E
:1055E000860E1D22010E1E22000E1F226DD002010A
:1055F0009F51090809E29F6B100E1C26270E1D22E1
:10560000000E1E221F2209D0010E9F27100E1C26FD
:10561000270E1D22000E1E221F2256D00201A0516D
:10562000090809E2A06BE80E1C26030E1D22000EDD
:105630001E221F2209D0010EA027E80E1C26030EF1
:105640001D22000E1E221F223FD00201A151090877
:1056500008E2A16B640E1C26000E1D221E221F22D2
:1056600008D0010EA127640E1C26000E1D221E224A
:105670001F222AD00201A251090808E2A26B0A0ED9
:105680001C26000E1D221E221F2208D0010EA2275A
:105690000A0E1C26000E1D221E221F2215D00201FA
:1056A000A351090808E2A36B010E1C26000E1D225F
:1056B0001E221F2207D0010EA3271C26000E1D222A
:1056C0001E221F2201D00201A55102080AE0A551A5
:1056D0000C0807E0A551200804E0A5511108D8A442
:1056E000A8D0010EA45DF90FD8B0A3D0070F000118
:1056F000DCEF2CF002019D530BE1090E9D6F400E73
:105700001C5E420E1D5A0F0E1E5A000E1F5A0AD062
:10571000010E9D5F400E1C5E420E1D5A0F0E1E5A5A
:10572000000E1F5A86D002019E530BE1090E9E6F98
:10573000A00E1C5E860E1D5A010E1E5A000E1F5A28
:105740000AD0010E9E5FA00E1C5E860E1D5A010E31
:105750001E5A000E1F5A6DD002019F530AE1090E16
:105760009F6F100E1C5E270E1D5A000E1E5A1F5AE8
:1057700009D0010E9F5F100E1C5E270E1D5A000EF1
:105780001E5A1F5A56D00201A0530AE1090EA06FFB
:10579000E80E1C5E030E1D5A000E1E5A1F5A09D039
:1057A000010EA05FE80E1C5E030E1D5A000E1E5A6D
:1057B0001F5A3FD00201A15309E1090EA16F640EE7
:1057C0001C5E000E1D5A1E5A1F5A08D0010EA15F02
:1057D000640E1C5E000E1D5A1E5A1F5A2AD002016A
:1057E000A25309E1090EA26F0A0E1C5E000E1D5A9B
:1057F0001E5A1F5A08D0010EA25F0A0E1C5E000E30
:105800001D5A1E5A1F5A15D00201A35309E1090E51
:10581000A36F010E1C5E000E1D5A1E5A1F5A07D0A0
:10582000010EA35F1C5E000E1D5A1E5A1F5A01D0A6
:105830000201A551120803E0A551240801E17BD023
:105840001BBA1BD0000103EC20F0015215E04350BD
:10585000040DF350036A1C0FE96E000E0320EA6E7C
:10586000EFCF1CF0ECCF1DF0ECCF1EF0ECCF1FF013
:10587000290E0201A56F00010201A5535BE00001A2
:10588000F5EC0EF00150040DF350036A1C0FE96EA5
:10589000000E0320EA6E1CC0EFFF1DC0ECFF1EC00F
:1058A000ECFF1FC0ECFF0201B06967501F5C14E3FE
:1058B0000BE166501E5C10E307E165501D5C0CE3D4
:1058C00003E11C50645C08E267C01FF066C01EF074
:1058D00065C01DF064C01CF01F50635C14E30BE155
:1058E0001E50625C10E307E11D50615C0CE303E1B4
:1058F00060501C5C08E263C01FF062C01EF061C013
:105900001DF060C01CF01FC0B8F21EC0B7F21DC071
:10591000B6F21CC0B5F2B96BB0C2BAF200014EECDF
:1059200017F01FC003F21EC002F21DC001F21CC01E
:1059300000F2020196D5030EB16F000174EC14F071
:10594000FA0E0201B66F0001BCEC0AF083B203D07C
:1059500082AA01D082ACFAD718901896F5EC0EF016
:105960000150040DF350036A1C0FE96E000E032072
:10597000EA6E1CC0EFFF1DC0ECFF1EC0ECFF1FC095
:10598000ECFFF8EF2CF0F2CF0DF0F29EE824F76A6E
:10599000F736AB0FF66E590EF7220A00F550FA6E85
:1059A0000800F5500DBEF28EF96E8A55BC55EE55C5
:1059B0001C564A5674569E56F2CF0DF0F29EE824BD
:1059C000F76AF736DD0FF66E590EF7220A00F5502A
:1059D000FA6E0800F5500DBEF28EF96EF456265799
:1059E00058578657B457DE570858C5EC0BF052D4B9
:1059F0001200C5EC0BF00201AD6BAC6B00013BEC8F
:105A00001BF0ECEF2EF0432C01D003D043500208E2
:105A10000BE1475201E04706E50E0201B16F47C0B6
:105A2000B2F2000192EC05F04350030824E1465223
:105A300003E1090E466E01D046064650040DF350B0
:105A4000036AF2CF9DF2F29E57EC00F0006E09005F
:105A5000F5CF01F00900F5CF02F00900F5CF03F012
:105A600002019DBFF28E03C02BF002C02AF001C0DC
:105A700029F0286E0001020E0201B06F0001F8EC5F
:105A80000BF044EF2DF0BFD7EFEF2EF0432C01D0F9
:105A900003D0435002080CE147500D0801E3472AA8
:105AA000E50E0201B16F47C0B2F2000192EC05F0C1
:105AB0004350030824E14650090802E1466A01D038
:105AC000462A4650040DF350036AF2CF9DF2F29E2F
:105AD00057EC00F0006E0900F5CF01F00900F5CF9A
