:1000000018308A0060280000FF00030E8301A10061
:100010000A08A0008A010408A2007708A300780853
:10002000A4007908A5007A08A600831383128C30F7
:100030008400801E1D288C1A3A288C308400001CF5
:1000400023280C183D288C308400801C29288C180B
:100050004028220884002308F7002408F800250817
:10006000F9002608FA0020088A00210E8300FF0EFE
:100070007F0E09008A110A12B8298A110A12F7297B
:100080008A110A1246290A108A100A11820750346E
:10009000C334003400342034BF34023400343034EC
:1000A0005734053400346034AE340A3400345034EC
:1000B00069340F340034C0345C34153400344034B7
:1000C00077341B34003420340B34203400340034B3
:1000D0009F34243400348034B9342A340034C0349A
:1000E000C6342D3400340A108A100A1182070034F5
:1000F000003400340034EF34493402340034013425
:10010000003400340034F0344934023400348F3485
:10011000D0340334003401340034003400349034DB
:10012000D034033400347F341A34063400340234BB
:1001300000340034003480341A3406340034AF34D0
:1001400071340B3400340334003400340034B034E0
:1001500071340B3400348F340534103400340434DB
:1001600000340034003490340534103400340F343B
:100170002034163400340534003400340034103494
:100180002034163400348F343A341C3400340634AE
:1001900000340034003490343A341C3400346F346A
:1001A000CE3420340034073400340034003470344A
:1001B000CE34203400349F342534263400340834BF
:1001C000003400340034A0342534263400347F3425
:1001D00096349834003409340034003400340A1062
:1001E0008A100A11F63E03188A0A8200F034493454
:1001F0000234003440340D34033400343034573486
:100200000534003480341A34063400346034AE349B
:100210000A340034B03471340B3400344034423486
:100220000F3400349034053410340034C0345C345E
:10023000153400341034203416340034403477340C
:100240001B34003490343A341C34003420340B34E2
:10025000203400347034CE342034003400349F34E1
:1002600024340034F034E834263400348034B93493
:100270002A340034C034C6342D3400340034003401
:10028000003400340034003400340034071D6B1493
:10029000071D5129EA08031951296B1C51296B10BC
:1002A000EA03EA08031DAF295D306C07840083135D
:1002B00000080F39F800781C0911781809155D300D
:1002C0006C07840083130310000C0F39F800781CAE
:1002D0008910781889145D306C0784008313000C32
:1002E000F700F70C3F30F70577080F39F800781C56
:1002F0000910781809145D306C0784008313000C12
:10030000F700F70CF70C1F30F70577080F39F800E6
:10031000781C851278188516071905160317A90188
:100320002908273C031CA029A90A9629972900001F
:10033000031307199E290317A029031303179029F4
:10034000A901031305126C080C3C031CA9290130F8
:10035000EC070719AE29EC010130EA00B3290911B5
:100360008910091085128C108C108A110A12292804
:100370008C1ED5298C1EBA291808A7001A08F80067
:10038000A71CC4291812181678088316C200C33097
:100390005C0784008313420880005C08183C031C3F
:1003A000D329DC0AD429DC018312AA18DF29831699
:1003B0005C08053C031DE029DC018312A9148316A7
:1003C00083128C128C128A110A1229280317290809
:1003D000013A03130319F129033A0319F42985019A
:1003E000F6290A308500F6290E3085000800590FDD
:1003F000FA29FC29D90AFD29D901591D012A2916F2
:10040000022A2912281B082A0317A9010313E6212F
:10041000281F0F2A01300317A9000313E6210C102F
:100420000C108A110A1229281F100130831685002A
:1004300000308600FF308700DD0088000910891039
:1004400009118312A801A901AA01AB01B5309000DE
:100450000030F8000638920077308316920083123D
:100460000C108C1083160C148C148C16C030831254
:100470008B0485018A150A16C728031723088D00E7
:1004800083168C130C1483120C08F8000313080055
:1004900083166D0883120317A30003133D22780807
:1004A00008000B08F7008B13031722088D002308A0
:1004B0008C0083168C130C1555308D00AA308D00DE
:1004C0008C148C18612A0C117708831203138B0487
:1004D000080083166D08831203178D0083168C1392
:1004E0000C1483120C0883160313EF006E086F02BE
:1004F0000319872A6D0883120317A20083160313BA
:100500006E0883120317A30003135122831683126C
:10051000080003179D019C019B019A01150D9E0087
:100520009E0DFC309E059F011F08033C031CB72A4B
:100530000130A1001A30A0001F082007F800210890
:10054000FA000318FA0A7808A0007A08A1001F0828
:100550001E07A200A30003133D22031720088400F6
:10056000831321188317780880009F0A942A1A0899
:100570001602031DC72A1B081702031DC72A1C08E1
:100580001802031DC72A1D0819020319EA2A9F0130
:100590001F08033C031CEA2A1F081E07A0000130A5
:1005A000A2001630A1001F082107F8002208FA0057
:1005B0000318FA0A7808840083137A18831700084E
:1005C000A1002008A2002108A30003135122031751
:1005D0009F0AC82A031308000317100D9100910DFC
:1005E000FC30910596019501940193019201120846
:1005F000033C031C1A2B013098001330970012089B
:100600001707F8001808FA000318FA0A7808970084
:100610007A089800120811079900A30003133D22DD
:1006200003171708840083131818831778088000AD
:10063000920AF72A1308F7001408F8001508F900C1
:100640001608FA000313080083166D0B312B1A30BD
:100650006E07EF008312031790000313EC22402B68
:1006600083166D08023C031D3F2B25306E07EF00FB
:100670008312031790000313EC22402B831683127E
:10068000080083166E088312031790000313EC22F0
:100690000800FF308316ED0083124822780B512B9F
:1006A000702C8316E201620F562B5E2B6208ED0060
:1006B000EE01831269228316E20A532BE2016208DB
:1006C0000E3C031C732B62088312031795009901DB
:1006D0000A309800AE3097006030960003138922EC
:1006E0008316E20A5F2B0F30E2006208193C031CFC
:1006F000862B6208831203179500990198019701D0
:100700009601031389228316E20A752B1A30E20040
:100710006208243C031CD62B1A306202F700F70D46
:10072000F70DFC30F7057708E3000330E3076308B3
:1007300083124320FA008316E303630883124320E5
:10074000F9008316E303630883124320F80083163D
:10075000630383124320F7007A088316E6007908C2
:10076000E5007808E4007708E300620883120317C5
:1007700095008316031366088312031799008316E6
:100780000313650883120317980083160313640884
:10079000831203179700831603136308831203174A
:1007A0009600031389228316E20A882B2530E20083
:1007B00062082F3C031C262C25306202F700F70D3F
:1007C000F70DFC30F7057708E3000330E307630813
:1007D00083124320FA008316E30363088312432045
:1007E000F9008316E303630883124320F80083169D
:1007F000630383124320F7007A088316E600790822
:10080000E5007808E4007708E30062088312031724
:100810009500831603136608831203179900831645
:1008200003136508831203179800831603136408E3
:1008300083120317970083160313630883120317A9
:100840009600031389228316E20AD82BE130ED00CB
:100850000330EE0083126922E2308316ED0003308C
:10086000EE0083126922E3308316ED000330EE00C0
:1008700083126922E0308316ED000130EE0083120E
:100880006922E8308316ED00EE0183126922E93017
:100890008316ED00EE0183126922EC308316ED0021
:1008A0000330EE0083126922EA308316ED00013036
:1008B000EE0083126922ED308316ED000130EE0068
:1008C00083126922EE308316ED000230EE008312AF
:1008D0006922FF308316ED000130EE008312692299
:1008E0000F30D200E0308316ED00831248227808E2
:1008F000D3005308033C0319A812E1308316ED001E
:10090000831248227808D400E2308316ED00831267
:1009100048227808D500E3308316ED008312482280
:100920007808D600E5308316ED0083124822780857
:10093000D700ED308316ED00831248227808DA00E4
:10094000EE308316ED00831248227808DB00EA308F
:100950008316ED0083124822AB137818AB170130D1
:100960008316ED00831254088316EE0083122423AD
:100970007A08B3007908B2007808B1007708B000AF
:1009800002308316ED00831255088316EE008312A1
:1009900024237A08B7007908B6007808B5007708EC
:1009A000B40057088316EE00831241237A08BB0077
:1009B0007908BA007808B9007708B8002813A81396
:1009C00029108A150A16CC288501E62C031726085B
:1009D000F83E03181A2D083E03131E2D8501F02C36
:1009E00003171A2D08308500F52C03171A2D043033
:1009F0008500FA2C03171A2D0C308500FF2C0317E5
:100A00001A2D023085004230F700F70B052D00004B
:100A100003171A2D0A3085000D2D03171A2D0630E5
:100A20008500122D03171A2D0E308500172D031780
:100A30001A2D0317031385011D2D08000A148A10AF
:100A40000A158207EE2CF22CF72CFC2C012D0A2D16
:100A50000F2D142D031724080313860001300317EC
:100A6000A6000313E42408000317240803138600D8
:100A700086173A2D8613080065300317A400031368
:100A80002A255D300317A40003132A254C300317D1
:100A9000A40003132A2560300317A4000313342590
:100AA00051300317A400031334254E300317A4005C
:100AB000031334258A150A16D128EE3084008313D7
:100AC00000080319702D0630F800F701F70B662DAA
:100AD000F80B652D7B30F700F70B6C2D800B632D29
:100AE00008000317A3010313081E7A2D083003170B
:100AF000A3070313881E802D04300317A3070313D5
:100B0000081F862D02300317A3070313881F8C2D9F
:100B100001300317A307031303172308F800031377
:100B2000080004300317A6000313E424080083160A
:100B3000E601650866020318A72D83129125C830C7
:100B40008316EE0083125D258316E60A992D831223
:100B5000080083166608013A83120319B92D033A77
:100B60000319BE2D013A0319C32D063A0319CA2DE4
:100B7000CF2D0130E1000F30E900D22D0C30E10023
:100B80000F30E900D22D0230E10083166C08831289
:100B9000E900D22D83166C088312E900D22D0F30A4
:100BA000E100E900831667080F3C0318DC2D0F30C5
:100BB0008312E200DF2D831667088312E20083169A
:100BC0006B08831203179800831603136A088312B5
:100BD00003179700831603136908831203179600FF
:100BE00083160313680883120317950018089C00E6
:100BF00017089B0016089A0015089900831603131E
:100C0000EE01831203179C08031D182E1B080E3CCF
:100C100003182D2EFF3A031D182E1A08413C031805
:100C20002D2EFF3A031D182E19083F3C03182D2EB8
:100C3000403099024230031C43309A020F30031CAB
:100C400010309B020030031C01309C0201308316DF
:100C50000313EE07012E8312031783160313EF010C
:100C6000831203179C08031D472E1B08003C031822
:100C70005C2EFF3A031D472E1A08853C03185C2E94
:100C8000FF3A031D472E19089F3C03185C2EA03025
:100C900099028630031C87309A020130031C02300F
:100CA0009B020030031C01309C02013083160313A9
:100CB000EF07302E8312031790019C08031D6E2E40
:100CC0009B08031D6E2E1A08263C03187F2EFF3A40
:100CD000031D6E2E19080F3C03187F2E1030990249
:100CE0002730031C28309A020030031C01309B027D
:100CF0000030031C01309C02013090075D2E9101F1
:100D00009C08031D912E9B08031D912E1A08023C7E
:100D10000318A22EFF3A031D912E1908E73C031871
:100D2000A22EE83099020330031C04309A020030EE
:100D3000031C01309B020030031C01309C02013077
:100D40009107802E92019C08031DB02E9B08031D65
:100D5000B02E9A08031DB02E1908633C0318C12E4B
:100D6000643099020030031C01309A020030031CE9
:100D700001309B020030031C01309C0201309207BD
:100D8000A32E93019C08031DCF2E9B08031DCF2E7D
:100D90009A08031DCF2E1908093C0318E02E0A30CB
:100DA00099020030031C01309A020030031C01300C
:100DB0009B020030031C01309C0201309307C22EBD
:100DC00094019C08031DEE2E9B08031DEE2E9A082D
:100DD000031DEE2E1908003C0318FF2E0130990266
:100DE0000030031C01309A020030031C01309B02CA
:100DF0000030031C01309C0201309407E12E831661
:100E000003136D08023C031C922FEB08031D1A2FDD
:100E10006A080F3C031C1A2F031D182F6908423C57
:100E2000031C1A2F031D182F68083F3C031C1A2FA0
:100E30000F30EE00EB08031D2F2F6A08013C031C46
:100E40002F2F031D2D2F6908863C031C2F2F031DF8
:100E50002D2F68089F3C031C2F2F0F30EF00EB084D
:100E6000031D452FEA08031D452F6908273C031C75
:100E7000452F031D3F2F68080F3C031C452F0F30E3
:100E800083120317900083160313EB08031D5B2FD7
:100E9000EA08031D5B2F6908033C031C5B2F031D3D
:100EA000552F6808E73C031C5B2F0F308312031794
:100EB000910083160313EB08031D6E2FEA08031D30
:100EC0006E2FE908031D6E2F6808633C031C6E2F0C
:100ED0000F3083120317920083160313EB08031DD0
:100EE000812FEA08031D812FE908031D812F68085F
:100EF000093C031C812F0F308312031793008316C4
:100F00000313E808031D922FE908031D922FEA0836
:100F1000031D922FEB08031D922F831203179401D8
:100F2000831603136D08013A83120319B02F831639
:100F30006E088312E30083166F088312E400031720
:100F400010080313E500031711080313E600031745
:100F500012080313E700031713080313E800C82F50
:100F600083166F088312E300031710080313E400CD
:100F7000031711080313E500031712080313E60013
:100F8000031713080313E700031714080313E800FB
:100F90000800F701F8010317230803102418F707C6
:100FA000F70CF80CA418F707F70CF80C2419F7073E
:100FB000F70CF80CA419F707F70CF80C241AF7072C
:100FC000F70CF80CA41AF707F70CF80C241BF7071A
:100FD000F70CF80CA41BF707F70CF80C0313080028
:100FE00003300317A6000313E4240800281BFA2F7C
:080FF0002817FB2F281308004D
:10100000F801F901F701FA0103172608031D0B285F
:101010002508031925281030A7000310A30DA40DDF
:10102000F70DFA0D26087A02031D18282508770205
:10103000031C21282508F702031CFA032608FA02DC
:101040000314F80DF90DA70B0D28031308008316E0
:10105000EA01831289100911851209142F283028FA
:101060000000071D372801308316EA008312871C11
:101070003D2802308316EA008312071C4328033000
:101080008316EA00831209108914462847280000B5
:10109000071D4E2804308316EA008312871C54284B
:1010A00005308316EA008312071C5A28063083167F
:1010B000EA008312891009155D285E280000071DCB
:1010C000652807308316EA008312871C6B280830D6
:1010D0008316EA008312071C712809308316EA0080
:1010E000831209118516742875280000871C7C2836
:1010F0000A308316EA00831209118910091085123B
:1011000083166A08F8008312080003308316EA0287
:10111000031C9428EA3084008313000803199428E0
:1011200092289228800B9128831208008316EA01E6
:1011300083128818A128871AA1280B308316EA0089
:1011400083128818A928071BA9280C308316EA00E7
:101150008312881CB328871EB328071FB3280D30BD
:101160008316EA008312881CBB28871ABB280E301E
:101170008316EA008312881CC328071BC3280F307C
:101180008316EA00831283166A08F80083120800A7
:101190008316E601E7016508023C031DD128E8013A
:1011A000D3280430E8008312071DFB290719D6282D
:1011B0002818E1282720F808031D28148316C001E9
:1011C0008312281C81292720F8080319F7282720D3
:1011D0007808FD008316400FEE28EF28C00A650846
:1011E000023C0319F828C830EA00831285208316D0
:1011F0004008680203182329E508031D0B2940084D
:10120000633C031C05290130E7004008633C0318D8
:101210000B290230E700650B19294008633C031CC9
:1012200013290130E7004008633C031819290330F3
:10123000E7006508023C031D23297D08E600FD0147
:101240006608F800152A670B512983122720F80831
:10125000031D52298316E9016908093C031C3B2937
:1012600083122720F8080319382983163B29831293
:101270008316E90A2C296908093C031851298312AD
:10128000281D47298316E601831228114B297D0862
:101290008316E6008312FD01281083166608F80005
:1012A000152A831283166708023C031D6729FD086F
:1012B00003195D291E307D07E600FD010130C000E5
:1012C00083122815281083166608F800152A670867
:1012D000033C031D8029FD08031971291E307D0779
:1012E000E60083122720F808031D7B2901308316AE
:1012F000C000E6018312281583166608F800152A37
:101300008312A8198A299620F808031DA8158316A8
:10131000C1018312A81DFB299620F80803199C29F6
:1013200096207808FE008316410F97299829C10A54
:101330007C08EA008312852083164108680203189E
:10134000C1297E080D3A83120319B4298316410876
:101350001D3C031CAD290130E70041081D3C03186A
:10136000B3290230E700C129831641081D3C031C44
:10137000BB290130E7004108633C0318C129023052
:10138000E700670BDA2983129620F808031DDB2992
:10139000281DCF2928118316E601D22983127E0841
:1013A0008316E600FE018312A8118316C1016608A8
:1013B000F800152A831283166708023C031DFA29D8
:1013C00005307E07E60083129620F8080319EE29FF
:1013D00083166608123C031DF4298312A811831694
:1013E0006608123C031DE601831228158316660861
:1013F000F800152A8312081C122A2B1B112A8A11A5
:1014000091258A150818022AC8308316EE008A1121
:1014100083125D258A15281E0F2A2812102A2816E5
:10142000122A28120030F8008316831208002B1F9E
:10143000212A03308316E5008A11831297258A1525
:10144000C82E0030A81A0130013EF700F70DF70D45
:10145000FC30F70577082C3E840083130008AC00AD
:10146000840A0008AD00840A0008AE00840A00085F
:10147000AF0083166310E4018312291E6C2A8316C1
:10148000640F432A472A631CE40A6314482AE401D0
:1014900000308312A81A0130013E8316E500E600F1
:1014A0000F30E70083122F088316EB0083122E08FB
:1014B0008316EA0083122D088316E90083122C0894
:1014C0008316E800831257088316EC00ED018A1199
:1014D0008312A9258A158C2A0F308316E600E700AF
:1014E00083122F088316EB0083122E088316EA005E
:1014F00083122D088316E90083122C088316E80056
:10150000831257088316EC00ED018A118312A92576
:101510008A15831663108312FF308316E500831249
:10152000AF08031DA52A2E082F3C0318AB2AFF3A4B
:10153000031DA52A2D08D33C0318AB2AFF3A031D2F
:10154000A52A2C08003C0318AB2AAF013030AE00AE
:10155000D430AD00AC01AF08031DC12AAE08031D95
:10156000C12A2D08273C031CC12A031DBB2A2C08B5
:101570000F3C031CC12AAF01AE012730AD00103073
:10158000AC002F088316ED0083122E088316EC00A2
:1015900083122D088316EB0083122C088316EA00B1
:1015A000EE016508EF006D08F1006C08F0006B08B3
:1015B0008312EF0083166A088312EE00031791016D
:1015C00090019301920183160313EE080319EE2A8A
:1015D000F301F201F501F401F601FB016F0FD22BCB
:1015E0008312031796011608093C031CC32B160827
:1015F000A3000330A4008A110313C9278A15780DAC
:10160000F700F70DFC30F70577080317A300033048
:10161000A30723088A11031373208A15FA000317FE
:10162000A30323088A11031373208A15F9000317F3
:10163000A30323088A11031373208A15F8000317E4
:1016400023038A11031373208A15F7007A0883167F
:101650006D02031CBF2B031D3D2B79086C02031C7C
:10166000BF2B031D3D2B78086B02031CBF2B031DF2
:101670003D2B77086A02031CBF2B83120317160841
:10168000A3000330A4008A110313C9278A1501306F
:101690007807F700F70DF70DFC30F705770803170B
:1016A000A3000330A30723088A11031373208A15AC
:1016B000FA000317A30323088A11031373208A1562
:1016C000F9000317A30323088A11031373208A1553
:1016D000F800031723038A11031373208A15F700F8
:1016E00083166D087A02031CBF2B031D872B6C0821
:1016F0007902031CBF2B031D872B6B087802031C88
:10170000BF2B031D872B6A087702031CBF2B831294
:1017100003171608A3000330A4008A110313C92776
:101720008A1502307807F700F70DF70DFC30F70542
:1017300077080317A3000330A30723088A110313B4
:1017400073208A15FA000317A30323088A110313D1
:1017500073208A15F9000317A30323088A110313C2
:1017600073208A15F800031723038A1103137320CB
:101770008A15F700D8000317C32B831603138312AF
:101780000317960AF32A7608031358020319D02B7D
:10179000FB01580886008A11F0278A155808F600C0
:1017A000E12B83166F088312D800760858020319BC
:1017B000E12BFB01580886008A11F0278A1558088A
:1017C000F60083166D08831203179A00831603131D
:1017D0006C08831203179900831603136B08831296
:1017E00003179800831603136A08831203179700E0
:1017F0009A08031D0D2C1908003C0318202CFF3AF1
:10180000031D0D2C1808853C0318202CFF3A031DDE
:101810000D2C17089F3C0318202CA030970286300F
:10182000031C873098020130031C023099020030FB
:10183000031C01309A020A3090070318910AF82B12
:101840009A08031D312C9908031D312C1808263CD9
:101850000318482CFF3A031D312C17080F3C0318BE
:10186000482C103097022730031C28309802003093
:10187000031C013099020030031C01309A02013030
:1018800090070318910A643092070318930A202CDA
:101890009A08031D592C9908031D592C1808023C5D
:1018A00003186C2CFF3A031D592C1708E73C03184A
:1018B0006C2CE83097020330031C0430980200308F
:1018C000031C013099020030031C01309A020A30D7
:1018D00092070318930A482C9A08031D792C99083B
:1018E000031D792C9808031D792C1708633C0318F5
:1018F0008C2C643097020030031C013098020030B9
:10190000031C013099020030031C01309A0201309F
:1019100092070318930A6C2C94019A08031D9A2CC1
:101920009908031D9A2C9808031D9A2C1708093C46
:101930000318AB2C0A3097020030031C01309802C8
:101940000030031C013099020030031C01309A0260
:10195000013094078D2C95019708031DB82C980829
:10196000031DB82C9908031DB82C9A080319C92C1B
:10197000013097020030031C013098020030031C34
:10198000013099020030031C01309A0201309507A2
:10199000AC2C1308003C0318DA2CFF3A031DD42C9E
:1019A0001208F33C0318DA2CF43092020130031CC5
:1019B000023093023030920702300318033093074D
:1019C0009B019C019D019E019F01A001A101A2011B
:1019D00072081202031DF02C7308130203192A2D3A
:1019E00013089C00130CA400120CA300A40CA30C5D
:1019F000A40CA30CA40CA30C0F30A40523080F39CE
:101A00009D0012080F399E0030301B07A300A40070
:101A10008A1103132A258A15203003171C07A300F7
:101A2000A4008A1103132A258A15103003171D07F5
:101A3000A300A4008A1103132A258A1503171E0880
:101A4000A4008A1103132A258A1503171308F3002B
:101A50001208F20074081002031D322D75081102DD
:101A60000319CB2D03135808053C031C6D2D0317D8
:101A70001108A4001008A300A6010530A500031357
:101A8000002079080317A4007808A3000C30A307EE
:101A90000318A40A240CFA00230CF900FA0CF90C20
:101AA000FA0CF90CFA0CF90C7908A1001108A40041
:101AB0001008A300A6010530A50003130020790833
:101AC0000317A4007808A3000C30A3070318A40A86
:101AD00023080F39A200A52D031303171108A40032
:101AE0001008A300A6010530A50003130020790803
:101AF0000317A4007808A3001230A3020030031CCF
:101B00000130A402240CFA00230CF900FA0CF90CA1
:101B1000FA0CF90CFA0CF90C7908A1001108A400D0
:101B20001008A300A6010530A500031300207908C2
:101B30000317A4007808A3001230A3020030031C8E
:101B40000130A40223080F39A20030301F07A30080
:101B5000A4008A11031334258A15203003172007A7
:101B6000A300A4008A11031334258A15103003172B
:101B70002107A300A4008A11031334258A15031733
:101B80002208A4008A11031334258A1503171108AB
:101B9000F5001008F40015087B020319E42D01304C
:101BA0001507A3002308A4007030A500240825070A
:101BB0000313860002300317A6008A110313E424DE
:101BC0008A1503171508FB0001301407A30023082A
:101BD000A4007030A50024082507031386008A118D
:101BE00071258A157808D0005008D100F72DF82DFE
:101BF000000001308316E5008312C82078088316A0
:101C0000E2008312081D0A2E2B1A0A2E2B168316A9
:101C1000E40183122B1A1E2E0230AC070030031889
:101C20000130AD07003003180130AE070030031853
:101C30000130AF078316E4018B2E831283166208EE
:101C40000B3C0319272E6208033C031D372E0A3074
:101C50008312AC07003003180130AD0700300318C1
:101C60000130AE07003003180130AF078316620859
:101C70000C3C03193F2E6208023C031D4F2E0A3014
:101C80008312AC020030031C0130AD020030031C93
:101C90000130AE020030031C0130AF02831662082F
:101CA000213C031D632E0A308312AC070030031859
:101CB0000130AD07003003180130AE0700300318C3
:101CC0000130AF0783166208203C031D772E0A30CF
:101CD0008312AC020030031C0130AD020030031C43
:101CE0000130AE020030031C0130AF028316E2085F
:101CF000031D7E2E8312081D802E8316E40183129D
:101D000083166408033C03188B2E8312081D2B12C4
:101D100004308316E4008312AF08031D9A2E2E08A8
:101D20002F3C0318A02EFF3A031D9A2E2D08D33CFA
:101D30000318A02EAF01AE012730AD001030AC006B
:101D4000281AAD2E8A1191258A15C8308316EE0007
:101D50008A1183125D258A15AE2E3D2A081DC82ED4
:101D60000030A81A0130013EF700F70DF70DFC30E6
:101D7000F70577082C3E840083132C088000840A22
:101D80002D088000840A2E088000840A2F08800015
:101D90008A150A161129E0308316ED008A11831284
:101DA00048228A1578088316EC00EC080319DC2E0B
:101DB0006C08033C0318E72E0130EC00E030ED0026
:101DC0006C08EE008A11831269228A1583166C0B47
:101DD000EC2E8312A81283166C08023C031DF32E0E
:101DE0008312A81683166C08F800831208005308A3
:101DF000043C0319012F2918002FA8132914012FBF
:101E0000291008005308033C031D0C2F0030A81AAA
:101E10000130013ED3000E2F0330D3005708831644
:101E2000EE008A11831241238A157A08BB007908D3
:101E3000BA007808B9007708B800E0308316ED00E2
:101E4000831253088316EE008A11831269228A15C1
:101E500008008316ED016C086D0203184C2F043046
:101E600083120317A6008A110313E4248A15570866
:101E7000E90064308316EE008A1183125D258A150D
:101E80000F30E90064308316EE008A1183125D255D
:101E90008A158316ED0A2B2F83120800530DF700C5
:101EA000F70DFC30F70577082C3E840083130008FB
:101EB0008316EC00840A0008ED00840A0008EE0096
:101EC000840A0008EF00FD308407831257080317C7
:101ED0009000831603136F08831203179400831670
:101EE00003136E08831203179300831603136D0800
:101EF000831203179200831603136C0883120317CF
:101F00009100100895001408990013089800120811
:101F10009700110896008A11031389228A1502304E
:101F20008316EC00831229270800530B9A2F0230E6
:101F3000D300A02F5308023C031DA02F0130D30073
:101F4000E0308316ED00831253088316EE008A11E9
:101F5000831269228A1501305302F800A8127818FA
:101F6000A8160800530DF700F70DFC30F7057708A9
:101F70002C3EF800FA010318FA0A78088316EC00E0
:101F80007A08ED00831257088316EE008A11831237
:101F900041238A1583166C08840083136D188317F8
:101FA00077088000840A78088000840A7908800015
:101FB000840A7A0880000230EC0083122927080086
:101FC000A81BF92F2910A817530DF700F70DFC30A7
:101FD000F70577082C3E840083130008C800840AA4
:101FE0000008C900840A0008CA00840A0008CB005F
:0E1FF000FE2FA813CB01CA01C901C8010800C9
:1020000083166D0B16281A306E07EF008312031724
:1020100095001308990012089800110897001008FD
:1020200096000A12031389220A1683166D08023CD1
:10203000031D2D2825306E07EF008312031795002E
:1020400013089900120898001108970010089600CC
:102050000A12031389220A168316831208008316B4
:10206000EC08031D4428831253088316EC008312E6
:10207000530B3B283F285308023C031D4528871D6E
:10208000452804308316EC078312013083166C0256
:10209000FA3E0318F128063E8312F3280130831616
:1020A000ED00831254088316EE00831233080317E1
:1020B0009300031332080317920003133108031728
:1020C00091000313300803179000031300205408F5
:1020D000083C031C6D28D40A6E28D40101308316F5
:1020E000ED00831254088316EE000A128312242393
:1020F0000A167A08B3007908B2007808B1007708A8
:10210000B0008316F12802308316ED0083125508C3
:102110008316EE0083123708031793000313360863
:1021200003179200031335080317910003133408B3
:1021300003179000031300205508083C031CA22835
:10214000D50AA328D50102308316ED008312550865
:102150008316EE000A12831224230A167A08B700A7
:102160007908B6007808B5007708B4008316F1281E
:1021700057080D3C031CBE28D70ABF28D7015708B3
:102180008316EE000A12831241230A167A08BB0056
:102190007908BA007808B9007708B8008316F128E2
:1021A0005030B007C3300318C430B10700300318F3
:1021B0000130B207003003180130B3078316F1284D
:1021C0005030B407C3300318C430B50700300318CB
:1021D0000130B607003003180130B7078316F12825
:1021E0008316831208000A108A100A1182074E28EB
:1021F0008328B828F028D028E0288316EC08031D8F
:102200001229831253088316EC008312530B0929F9
:102210000D295308023C031D1329871D132904307F
:102220008316EC07831283166C08013A8312031994
:102230002629033A03195A29013A03198E29063A25
:102240000319A529033A0319B429C22901308316B9
:10225000ED00831254088316EE008312330803172F
:102260009300031332080317920003133108031776
:102270009100031330080317900003130020D408C3
:1022800003194429D40346290930D40001308316A8
:10229000ED00831254088316EE000A1283122423E1
:1022A0000A167A08B3007908B2007808B1007708F6
:1022B000B000C22902308316ED0083125508831640
:1022C000EE00831237080317930003133608031731
:1022D0009200031335080317910003133408031702
:1022E000900003130020D50803197829D5037A2913
:1022F0000930D50002308316ED008312550883168D
:10230000EE000A12831224230A167A08B70079080D
:10231000B6007808B5007708B400C229D7080319B9
:102320009329D70395290E30D70057088316EE005E
:102330000A12831241230A167A08BB007908BA00F0
:102340007808B9007708B800C2295030B002C3300D
:10235000031CC430B1020030031C0130B202003053
:10236000031C0130B302C2295030B402C330031C35
:10237000C430B5020030031C0130B6020030031C2B
:102380000130B702080020300317A3009F01A0010D
:10239000A101A2011A08FA001908F9001808F800AA
:1023A0001708F7000310771CE3291B089F071C0878
:1023B00003181C0FA0071D0803181D0FA1071E08F6
:1023C00003181E0FA207A20CA10CA00C9F0CFA0C64
:1023D000F90CF80CF70CA30BD22903130800031710
:1023E000960195019401930196019501940183163C
:1023F00003136C0883120317930016089A0015083C
:10240000990014089800130897009E019D019C01F3
:102410000A309B000313C3217A0803179A00790836
:1024200099007808980077089700831603136D08C1
:10243000831203171707930018089400003003183D
:1024400001309407190895000030031801309507F2
:102450001A089600003003180130960716089A00F3
:102460001508990014089800130897009E019D0113
:102470009C010A309B000313C3217A0803179A00BA
:102480007908990078089800770897008316031355
:102490006E08831203171707930018089400003082
:1024A0000318013094071908950000300318013013
:1024B00095071A0896000030031801309607160891
:1024C0009A001508990014089800130897009E01B7
:1024D0009D019C010A309B000313C3217A08031756
:1024E0009A00790899007808980077089700831671
:1024F00003136F088312031717079300180894003B
:1025000000300318013094071908950000300318B3
:10251000013095071A08960000300318013096071D
:1025200016089A00150899001408980013089700D7
:102530009E019D019C010A309B000313C3217A0870
:1025400003179A007908990078089800770897008F
:102550001008170793001808940000300318013082
:1025600094071908950000300318013095071A08E0
:102570009600003003180130960716089A001508D7
:10258000990014089800130897009E019D019C0172
:102590000A309B000313C3217A0803179A007908B5
:1025A000990078089800770897001108170793009A
:1025B000180894000030031801309407190895009A
:1025C00000300318013095071A08960000300318F0
:1025D0000130960716089A0015089900140898000B
:1025E000130897009E019D019C010A309B00031374
:1025F000C3217A0803179A0079089900780898008F
:102600007708970012081707930018089400003005
:1026100003180130940719089500003003180130A1
:1026200095071A0896000030031801309607130822
:10263000F7001408F8001508F9001608FA0003134B
:1026400008000030A81A0130013EF700F70DF70D21
:10265000FC30F70577082C3E840083130008C00087
:10266000840A0008C100840A0008C200840A000825
:10267000C3000030A81A0130013EF700F70DF70D36
:10268000FC30F70577082C3E84008313380880005F
:10269000840A39088000840A3A088000840A3B08CA
:1026A00080004308BB004208BA004108B900400856
:1026B000B800C301C201C101C00102308316EC00A1
:1026C0000A128A15831229270A168A11080083160E
:1026D000E2018312A918722B83166208F800CA2C33
:1026E000CA2C83122A1D882BAA18782BAA147A2B9D
:1026F000AA18AA102A110030AA1801308316E30084
:10270000EB30ED006308EE000A12831269220A160C
:10271000AA18C62C83164708E300460EF7000F30B0
:10272000F70577080F39E40046080F39E500450E34
:10273000F7000F30F70577080F39E60045080F3925
:10274000E700440EF7000F30F70577080F39E8006F
:1027500044080F39E900430EF7000F30F7057708FA
:102760000F39EA0043080F39EB006308013A83127E
:102770000319E52B033A0319EE2B013A0319F42B45
:10278000073A0319FA2B013A0319012C033A0319EA
:10279000072C013A03190D2C0F3A0319152C013A95
:1027A00003191D2C033A0319262C013A0319672C2F
:1027B000043A0319692CF33A0319AA2C023A0319B3
:1027C000B32C013A0319BE2CC02C0A128A15F72625
:1027D0000A168A110A1291250A16C02C0A128A15A5
:1027E00002270A168A11C02C0A128A154E270A16C9
:1027F0008A11C02C0A12F6270A160A1291250A1607
:10280000C02C0A128A1595270A168A11C02C0A12A2
:102810008A15B2270A168A11C02C8316EC0183127E
:102820002F200A1291250A16C02C8316EC01831260
:10283000FD200A1291250A16C02C0A128A15E027DB
:102840000A168A110A1291250A16C02C83166508E9
:10285000EC006608ED006708EE006808EF00690804
:10286000831203179000831603136A088312031759
:102870009100831603136B0883120317920003134E
:10288000EF217A08AF007908AE007808AD0077082C
:10289000AC000A128A15CB260A168A11780DF700A9
:1028A000F70DFC30F70577082C3E840083132C08C5
:1028B0008000840A2D088000840A2E088000840A83
:1028C0002F088000AF01AE01AD01AC01C02C212367
:1028D000C02C83166A08EC006B08ED006808EE0057
:1028E0006908EF006608831203179000831603132C
:1028F0006708831203179100831603136408831279
:10290000031792000313EF217A08AF007908AE0095
:102910007808AD007708AC000A128A15CB260A1693
:102920008A11780DF700F70DFC30F70577082C3E7B
:10293000840083132C088000840A2D088000840AF8
:102940002E088000840A2F088000AF01AE01AD017F
:10295000AC01C02C0A1291250A16A919B12CA9158F
:10296000B22CA911C02CFF308316ED00EE000A1224
:10297000831269220A168A010028C02C8A010028C5
:102980000130F80078088316E2008312A91083163C
:102990006208F80083128A150A164E298316630806
:1029A000013A83120319D82C033A0319D92CF62CB7
:1029B000F62CFF308316ED00EE000A128312692216
:1029C0000A1603308316E5000A12831297250A16A9
:1029D00004308316E400FA30EE000A1283125D25FB
:1029E0000A168316E40BEB2C8312E12C8316630882
:1029F000F80083120800281F072D83166208243C64
:102A00000319042D8312072D1E30E20083120130BA
:102A100083166202DC3E0318462F243E8312A32F46
:102A20000A1291250A160A128A15E0270A168A1137
:102A30008316462F0A1291250A168316EC0183127B
:102A4000FD208316462F0A1291250A168316EC01E3
:102A500083122F208316462F0A128A15B2270A16D0
:102A60008A118316462F0A1291250A160A128A1510
:102A700095270A168A118316462F0A1291250A16DF
:102A80000A12F6270A168316462F0A128A154E27AF
:102A90000A168A118316462F0A1291250A160A125F
:102AA0008A1502270A168A118316462F0A129125C3
:102AB0000A160A128A15F7260A168A118316462F55
:102AC00021238316462F5308033A0319962D530DDD
:102AD000F700F70DFC30F70577082C3E84008313D0
:102AE0000A300007F700840A0008F80000300318D5
:102AF0000130F807840A0008F9000030031801309B
:102B0000F907840A0008FA00003003180130FA07B8
:102B1000FD30840777088000840A78088000840AE2
:102B200079088000840A7A088000AC2D57080D3C93
:102B3000031C9C2DD70A9D2DD70157088316EE0044
:102B40000A12831241230A167A08BB007908BA00D8
:102B50007808B9007708B8008316462F5308033A5F
:102B60000319E12D530DF700F70DFC30F705770839
:102B70002C3E840083130A300002F700840A000808
:102B8000F8000030031C0130F802840A0008F90044
:102B90000030031C0130F902840A0008FA000030FA
:102BA000031C0130FA02FD30840777088000840A94
:102BB00078088000840A79088000840A7A088000F6
:102BC000F72DD7080319E62DD703E82D0E30D700CF
:102BD00057088316EE000A12831241230A167A0858
:102BE000BB007908BA007808B9007708B8008316E6
:102BF000462F0A1291250A165308013A0319042E8A
:102C0000033A03190A2E0F2E01308316EC008312AB
:102C10002F200F2E02308316EC0083122F208316F4
:102C2000462F530DF700F70DFC30F70577082C3EC3
:102C3000840083136F300007F700840A0008F8004F
:102C4000003003180130F807840A0008F90000304A
:102C500003180130F907840A0008FA00003003184D
:102C60000130FA07FD30840777088000840A78086D
:102C70008000840A79088000840A7A08800083161C
:102C8000462F530DF700F70DFC30F70577082C3E63
:102C9000840083136F300002F700840A0008F800F4
:102CA0000030031C0130F802840A0008F9000030EB
:102CB000031C0130F902840A0008FA000030031CEA
:102CC0000130FA02FD30840777088000840A780812
:102CD0008000840A79088000840A7A0880008316BC
:102CE000462F530DF700F70DFC30F70577082C3E03
:102CF000840083130A300007F700840A0008F800F4
:102D0000003003180130F807840A0008F900003089
:102D100003180130F907840A0008FA00003003188C
:102D20000130FA07FD30840777088000840A7808AC
:102D30008000840A79088000840A7A08800083165B
:102D4000462F530DF700F70DFC30F70577082C3EA2
:102D5000840083130A300002F700840A0008F80098
:102D60000030031C0130F802840A0008F90000302A
:102D7000031C0130F902840A0008FA000030031C29
:102D80000130FA02FD30840777088000840A780851
:102D90008000840A79088000840A7A0880008316FB
:102DA000462F8316E3018312CE248316462F530D3C
:102DB000F700F70DFC30F70577082C3E84008313ED
:102DC0006F300007F700840A0008F800003003188D
:102DD0000130F807840A0008F900003003180130B8
:102DE000F907840A0008FA00003003180130FA07D6
:102DF000FD30840777088000840A78088000840A00
:102E000079088000840A7A0880008316462F530DC3
:102E1000F700F70DFC30F70577082C3E840083138C
:102E20006F300002F700840A0008F8000030031C2D
:102E30000130F802840A0008F9000030031C013058
:102E4000F902840A0008FA000030031C0130FA027B
:102E5000FD30840777088000840A78088000840A9F
:102E600079088000840A7A0880008316462F023091
:102E70008316E3008312CE248316462F0130831677
:102E8000E3008312CE248316462F83160F30E3000F
:102E9000E4016408073C031C972F00308312281BB1
:102EA00001308316E500640DF700F70DFC30F705DF
:102EB0007708013EA03E8400831300086502031DCD
:102EC000952F00308312A81B01308316E500640D96
:102ED000F700F70DFC30F7057708023EA03E8400AE
:102EE000831300086502031D952F003083122918F3
:102EF00001308316E500640DF700F70DFC30F7058F
:102F00007708033EA03E8400831300086502031D7A
:102F1000952F640DF700F70DFC30F7057708A03EFC
:102F2000840083130008E300972FE40A492F630805
:102F3000F80078088312D20083166208F800831222
:102F40008A150A1696290A148A140A158207102D62
:102F50001A2D232D2C2D332D3D2D452D4C2D562D49
:102F6000602D632DAE2DF92D112E412E712EA12E27
:102F7000D12ED72E072F452F452F452F452F452FD3
:102F8000452F452F452F452F452F452F452F452FA1
:062F9000452F372F3E2FF4
:10300000E1308316ED00831254088316EE000A1295
:103010008A11831269220A168A15E2308316ED009E
:10302000831255088316EE000A128A118312692250
:103030000A168A15E5308316ED00831257088316A9
:10304000EE000A128A11831269220A168A150130CB
:103050008316ED00831254088316EE0083123308A2
:103060000317930003133208031792000313310868
:103070000317910003133008031790008A110313FC
:1030800000208A1502308316ED008312550883163E
:10309000EE00831237080317930003133608031753
:1030A0009200031335080317910003133408031724
:1030B00090008A11031300208A158A150A167F2FA3
:1030C00003081F398300A701403083169900A230FE
:1030D00098009030831298000130EA006B10EC01E8
:1030E000ED011430FC00FD01FE018316C001C10199
:1030F000DC01FF30DD001F149F141F159F110730E6
:103100009C0083130A308312DD00DE010F30DF00E4
:10311000E000E100E200E300E400E500E600E70093
:10312000E800E900F201F301F401F501F601FB0109
:103130008316A000A101A201A3010E30A400A501E5
:103140000130A600A7000C30A800A901AA01013097
:10315000AB000430AC000130AD00AE00AF00033076
:10316000B0000130B100B200B3010230B400B501CB
:103170000130B600B701B800B900BA01BB01BC010B
:10318000BD00BE01BF000A128A118312142A0A165A
:103190008A150A128A11492B0A168A150A128A11EF
:1031A0003C2D0A168A158516D528D6280000071C3E
:1031B000DB28A911DC28A915C8308316EE000A12F5
:1031C0008A1183125D250A168A1501308316DE00E6
:1031D000DF010F308312D2000A128A1171250A16FC
:1031E0008A157808D0005008D100530DF700F70D6C
:1031F000FC30F70577082C3E840083130008AC00F0
:10320000840A0008AD00840A0008AE00840A0008A1
:10321000AF00CD01CC01CF01CE01281E32290A1208
:10322000172A0A1601308316DE000A128312CB26F3
:103230000A167808D300530DF700F70DFC30F70598
:1032400077082C3E840083130008AC00840A000831
:10325000AD00840A0008AE00840A0008AF00CD016A
:103260006430CC00AB1A79298316DE0803193A2999
:10327000831279298312CD08031D4C294C08633C25
:10328000031C4C29CC08031D4829CD0803197929B2
:103290005C08033C031879298A11672B8A15780882
:1032A0008316DF00DF08031978298312CD0164300B
:1032B000CC008316DF010A128312CB260A16780887
:1032C000D300530DF700F70DFC30F70577082C3EBF
:1032D000840083130008AC00840A0008AD00840A4F
:1032E0000008AE00840A0008AF0001308316DE003B
:1032F00083128316DE08031DB8298312CD08031D2F
:1033000085294C08633C0318B7298316E5010A1286
:103310008312C8200A1678088316DE00DE08031917
:10332000B8295E08E2008A118312FB2C8A157808FE
:103330008316DE000A128312CB260A167808D30001
:10334000530DF700F70DFC30F70577082C3E84008D
:1033500083130008AC00840A0008AD00840A00084A
:10336000AE00840A0008AF00CD016430CC008316A3
:10337000DE08031D062A83125308043C0319FE29A4
:1033800002308316E2008312281BFA290A128A11DE
:1033900071250A168A157808D00051085002031DBD
:1033A000D5290030F800FA29FA29071EE8298316E2
:1033B00062088312AC07003003180130AD070030FB
:1033C00003180130AE07003003180130AF07F829A9
:1033D000831662088312AC020030031C0130AD0278
:1033E0000030031C0130AE020030031C0130AF027C
:1033F0000130F80078088316DE0083128316DE0899
:103400000319062A8312CD01CC018316DE080319A5
:10341000122A83125308043C031D112AAB11A81B66
:10342000AB158316DE08031D192A83122A1C0A2EE7
:103430008316831253080030A91A01308316E20064
:10344000831253088316E600831252088316E7009E
:1034500083122F088316EB0083122E088316EA00CE
:1034600083122D088316E90083122C088316E800C6
:10347000831257088316EC006208ED000A128A11C5
:103480008312A9250A168A15FF308316E5008312D8
:10349000AF08031D5D2A2E082F3C0318632AFF3A4C
:1034A000031D5D2A2D08D33C0318632AFF3A031D30
:1034B0005D2A2C08003C0318632AAF013030AE00AF
:1034C000D430AD00AC01AF08031D792AAE08031D4E
:1034D000792A2D08273C031C792A031D732A2C08FE
:1034E0000F3C031C792AAF01AE012730AD0010302C
:1034F000AC002F088316ED0083122E088316EC0013
:1035000083122D088316EB0083122C088316EA0021
:10351000EE016508EF006D08F1006C08F0006B0823
:103520008312EF0083166A088312EE0003179101DD
:1035300090019301920183160313EE080319A62A42
:10354000F301F201F501F401F601FB016F0FAA2B63
:103550008312031796011608093C031C992B1608C1
:10356000A3000330A4000A128A110313C9270A1604
:103570008A15780DF700F70DFC30F705770803176B
:10358000A3000330A30723080A128A110313732030
:103590000A168A15FA000317A30323080A128A11D0
:1035A000031373200A168A15F9000317A3032308CF
:1035B0000A128A11031373200A168A15F8000317DA
:1035C00023030A128A11031373200A168A15F700BF
:1035D0007A0883166D02031C952B031DFF2A7908B8
:1035E0006C02031C952B031DFF2A78086B02031C39
:1035F000952B031DFF2A77086A02031C952B831263
:1036000003171608A3000330A4000A128A1103133B
:10361000C9270A168A1501307807F700F70DF70D4C
:10362000FC30F70577080317A3000330A30723082E
:103630000A128A11031373200A168A15FA00031757
:10364000A30323080A128A11031373200A168A158A
:10365000F9000317A30323080A128A110313732026
:103660000A168A15F800031723030A128A11031396
:1036700073200A168A15F70083166D087A02031C58
:10368000952B031D532B6C087902031C952B031DEE
:10369000532B6B087802031C952B031D532B6A08D0
:1036A0007702031C952B831203171608A30003301F
:1036B000A4000A128A110313C9270A168A150230B8
:1036C0007807F700F70DF70DFC30F70577080317BB
:1036D000A3000330A30723080A128A1103137320DF
:1036E0000A168A15FA000317A30323080A128A117F
:1036F000031373200A168A15F9000317A30323087E
:103700000A128A11031373200A168A15F800031788
:1037100023030A128A11031373200A168A15F7006D
:10372000D8000317992B8316031383120317960AE5
:10373000AB2A7608031358020319A82BFB0158087B
:1037400086000A128A11F0270A168A155808F60010
:10375000BB2B83166F088312D80076085802031912
:10376000BB2BFB01580886000A128A11F0270A16A3
:103770008A155808F60083166D08831203179A00FD
:10378000831603136C08831203179900831603131F
:103790006B08831203179800831603136A088312B9
:1037A000031797009A08031DE72B1908003C03181C
:1037B000FA2BFF3A031DE72B1808853C0318FA2B58
:1037C000FF3A031DE72B17089F3C0318FA2BA03084
:1037D00097028630031C873098020130031C0230A8
:1037E00099020030031C01309A020A309007031836
:1037F000910AD22B9A08031D0B2C9908031D0B2C40
:103800001808263C0318222CFF3A031D0B2C17081E
:103810000F3C0318222C103097022730031C28304D
:1038200098020030031C013099020030031C013063
:103830009A02013090070318910A64309207031826
:10384000930AFA2B9A08031D332C9908031D332C75
:103850001808023C0318462CFF3A031D332C1708A6
:10386000E73C0318462CE83097020330031C043071
:1038700098020030031C013099020030031C013013
:103880009A020A3092070318930A222C9A08031D01
:10389000532C9908031D532C9808031D532C17080B
:1038A000633C0318662C643097020030031C01301F
:1038B00098020030031C013099020030031C0130D3
:1038C0009A02013092070318930A462C94019A0831
:1038D000031D742C9908031D742C9808031D742C67
:1038E0001708093C0318852C0A3097020030031C86
:1038F000013098020030031C013099020030031C93
:1039000001309A0201309407672C95019708031D36
:10391000922C9808031D922C9908031D922C9A084A
:103920000319A32C013097020030031C01309802C8
:103930000030031C013099020030031C01309A0250
:1039400001309507862C1308003C0318B42CFF3A6D
:10395000031DAE2C1208F33C0318B42CF430920271
:103960000130031C023093023030920702300318FA
:10397000033093079B019C019D019E019F01A001C3
:10398000A101A20172081202031DCA2C73081302BE
:1039900003190C2D13089C00130CA400120CA30097
:1039A000A40CA30CA40CA30CA40CA30C0F30A40512
:1039B00023080F399D0012080F399E0030301B0775
:1039C000A300A4000A128A1103132A250A168A15D5
:1039D000203003171C07A300A4000A128A11031346
:1039E0002A250A168A15103003171D07A300A40004
:1039F0000A128A1103132A250A168A1503171E08AC
:103A0000A4000A128A1103132A250A168A1503171D
:103A10001308F3001208F20074081002031D142D9D
:103A2000750811020319BD2D03135808053C031C2A
:103A3000532D03171108A4001008A300A601053098
:103A4000A5000A12031300200A1679080317A40020
:103A50007808A3000C30A3070318A40A240CFA006A
:103A6000230CF900FA0CF90CFA0CF90CFA0CF90C0D
:103A70007908A1001108A4001008A300A6010530D0
:103A8000A5000A12031300200A1679080317A400E0
:103A90007808A3000C30A3070318A40A23080F39E1
:103AA000A2008F2D031303171108A4001008A30010
:103AB000A6010530A5000A12031300200A16790892
:103AC0000317A4007808A3001230A3020030031CDF
:103AD0000130A402240CFA00230CF900FA0CF90CB2
:103AE000FA0CF90CFA0CF90C7908A1001108A400E1
:103AF0001008A300A6010530A5000A120313002038
:103B00000A1679080317A4007808A3001230A3024C
:103B10000030031C0130A40223080F39A20030300A
:103B20001F07A300A4000A128A11031334250A16E2
:103B30008A15203003172007A300A4000A128A1157
:103B4000031334250A168A15103003172107A30022
:103B5000A4000A128A11031334250A168A150317C2
:103B60002208A4000A128A11031334250A168A15A2
:103B700003171108F5001008F40015087B0203195B
:103B8000D82D01301507A3002308A4007030A5002C
:103B9000240825070313860002300317A6000A1223
:103BA0008A110313E4240A168A1503171508FB006B
:103BB00001301407A3002308A4007030A5002408D6
:103BC0002507031386000A128A1171250A168A1521
:103BD0007808D0005008D100530DF700F70DFC30E5
:103BE000F70577082C3E840083132C088000840A94
:103BF0002D088000840A2E088000840A2F08800087
:103C00008316DE0183122A10A814281F0A2ECD0164
:103C10006430CC00A919E02E881DE02E0508063C72
:103C20000319E02E8316E0016008093C031CD92E1D
:103C30008312530DF700F70DFC30F70577082C3E83
:103C40008400831300088316E200840A0008E3005E
:103C5000840A0008E400840A0008E5000310600DEF
:103C6000F700F70DF70DFC30F7057708E600033095
:103C7000E60766080A128A118312EF200A168A15CF
:103C8000FA008316E60366080A128A118312EF20EF
:103C90000A168A15F9008316E60366080A128A11C5
:103CA0008312EF200A168A15F800831666030A129B
:103CB0008A118312EF200A168A15F7007A088316F4
:103CC0006502031CD72E031D752E79086402031CA0
:103CD000D72E031D752E78086302031CD72E031DF3
:103CE000752E77086202031CD72E8312530DF7003E
:103CF000F70DFC30F70577082C3E8400831300088D
:103D00008316E200840A0008E300840A0008E40045
:103D1000840A0008E5000310600D013EF700F70D6E
:103D2000F70DFC30F7057708E6000330E607660874
:103D30000A128A118312EF200A168A15FA008316D6
:103D4000E60366080A128A118312EF200A168A1502
:103D5000F9008316E60366080A128A118312EF201F
:103D60000A168A15F800831666030A128A1183124E
:103D7000EF200A168A15F700831665087A02031CDD
:103D8000D72E031DD32E64087902031CD72E031DE2
:103D9000D32E63087802031CD72E031DD32E62088E
:103DA0007702031CD72E831285018316D92EE00AD1
:103DB000142E60080A3C031DE12E06308312850094
:103DC000831683125308043C0319132FA81F132FC3
:103DD000881D012F2919012F29152F08C7002E082A
:103DE000C6002D08C5002C08C4004B08AF004A08C7
:103DF000AE004908AD004808AC002A148316122A08
:103E000083128819132F291D132F29114708AF007A
:103E10004608AE004508AD004408AC0001308316EA
:103E2000DE00122A8312291C682F530B1B2F02302D
:103E30008316E10083125308023C031D232F013037
:103E40008316E1008312881D462F2919462F291554
:103E5000831661088312D3008316610DF700F70DF6
:103E6000FC30F70577082C3E84008313000883128A
:103E7000AC00840A0008AD00840A0008AE00840A81
:103E80000008AF002A148316122A83128819682F9B
:103E9000291D682F29110A12CB260A167808D3008B
:103EA000530DF700F70DFC30F70577082C3E840022
:103EB00083130008AC00840A0008AD00840A0008DF
:103EC000AE00840A0008AF002A148316122A831257
:103ED0004C08103C031D752F4D08273C031D752F02
:103EE0005308043C0319AB112A144C08C03C031DB1
:103EF0007F2F4D085D3C031D7F2FAB1B0028A81CA6
:103F00008B2F4C0F862F4D0F862F8A2FCC0A03192B
:0A3F1000CD0A8B2FA8100D296300C5
:02400E00723FFF
:00000001FF
;PIC16F877A
;CRC=D80B  CREATED="14-Feb-26 17:36"
