:020000040000FA
:10000000F9EF01F0FFFFFFFF84EF02F000000000B6
:1000100000000000000000008CEF02F01000030E52
:100020007E5E09E3EA6A7E0EE96EEF5004E001D0DD
:1000300000D0EF2EFDD728EF00F09EA8FED77C5011
:10004000AD6EACA2FED7020E7D6ECF0E7E6EE7D7F0
:100050007D2EFBD712009EAAFED7ABCF06F0AECF07
:1000600001F006A202D0AB98AB881200EA6A4A0EF1
:10007000E96EEF500DE0060E016E006A002EFED70D
:10008000012EFBD77B0E006E002EFED7EF2EF3D78E
:100090001200826B836B835101082BE381C003F054
:1000A00080C0E9FF81C0EAFFEF50400810E28251B2
:1000B000100DF3CF84F081C003F080C0E9FF81C050
:1000C000EAFFEF508425BF0F0A0F826F0CD08251D8
:1000D000100DF3CF84F080C0E9FF81C0EAFFEF503C
:1000E0008425D00F826F8351832B802BD8B4812B32
:1000F000D2D782C001F01200F250036EF29EA68E9B
:10010000A6840F01550EA76EAA0EA76EA682000048
:100110000350F21200011200D08CA69CF6501F0B67
:10012000006EE00EF6160A007CC001F0006608D0F2
:10013000F650010F3F0B04E1A6880900DDDF0A003D
:10014000006607D0EECFF5FF015204E00F00010674
:1001500003D000060B000C001F0EF6141F0AE6E188
:10016000CBDF0166E3D7F86AE8EF01F04A92506A04
:100170004F6A4AB236D1086A036A0850090FE96E1D
:10018000000E0320EA6EEACF7FF0E9CF7EF063DF56
:100190007FC0EAFF7EC0E9FF01C0EFFF0850082AD8
:1001A000036A090FE96E000E0320EA6EEF500D0896
:1001B00003E008504008E0E2130E7C6E3EDF4A8008
:1001C00009503A08D8A404D1816B0A0E806F61DF10
:1001D00001C05BF0816B0C0E806F5BDF01C07CF0B7
:1001E000816B0E0E806F55DF7CC04EF001C04DF06C
:1001F000816B100E806F4DDF01C04CF04FC053F08B
:1002000050C054F04DC051F04EC052F04B6A010E38
:100210005A6E030E085C5A5C14E2036A5A50090FC6
:10022000016E000E032201C07CF003C07DF003C00C
:1002300081F001C080F02DDF01504B26020E5A26BE
:10024000E8D7FF0ED8804B54010F4B6E030E085CAD
:10025000036A090F016E000E032201C07CF003C087
:100260007DF003C081F001C080F013DF01504B5CD2
:1002700002E04A90ADD04C2C02D04A82A9D04C501A
:10028000040811E1816B120E806F03DF01C07CF066
:10029000816B140E806FFDDE01C07DF07CC050F0DC
:1002A00001C04FF095D04C52D8A492D0545206E1E0
:1002B000535204E152500408D8B08AD05452D8A402
:1002C00087D05352D8A484D052507F08D8A080D071
:1002D000090E5A6E596A030E085C5A5C23E25950A3
:1002E000592A036A5C0F016E000E032201C07CF0E4
:1002F00003C07DF0036A5A50090F016E000E0322FD
:1003000001C07EF003C07FF003C081F001C080F027
:10031000C0DE7DC0EAFF7CC0E9FF01C0EFFF020E36
:100320005A26D9D75550515C09E15650525C06E126
:100330005750535C03E15850545C32E055503F0B2A
:10034000006E016A026A036A400ED8800056000EF1
:10035000015602560356555000265650012257505A
:100360000222585003220350545C1AE30BE102505E
:10037000535C16E307E10150525C12E303E1515074
:10038000005C0EE251503F0B7C6E7D6A7E6A7F6A94
:100390007C5206E17D5204E17E5202E17F5200E090
:1003A0005B505124556E000E5220566E000E5320A5
:1003B000576E000E5420586E53C0F8FF52C0F7FF1E
:1003C00051C0F6FFEA6A5C0EE96E5BC07CF0A4D611
:1003D0004AA003D0060E7C6E30DE110E7C6E2DDE40
:1003E000C8D6040E7C6E29DEF7EF01F0BFD666EFAB
:1003F00002F0F86AD09E066AB886110EAF6E040E3F
:10040000B06EA60EAC6E900EAB6E00000000C15038
:10041000C00B0F09C16E070EB46EC290010E926E32
:10042000000E936EFF0E946E956E96909692969433
:100430009696806A0790079283A045D007B043D074
:1004400007B041D082A60CD0B8862A0EAF6E000E3F
:10045000B06EA60EAC6E900EAB6E000000000BD01E
:10046000B886110EAF6E040EB06EA60EAC6E900E76
:10047000AB6E0000000007B204D0330E7C6EDDDDF1
:1004800003D0340E7C6ED9DD9EAA1CD0E4DD01C001
:1004900049F04950410801E10780495042080EE106
:1004A00007B202D0078201D00792020E806E140EAE
:1004B0004A6EDCDD806A0A0E4A6ED8DD9EAA02D042
:1004C000CADDFCD7BDD707A018D090D707A214D09B
:1004D000F250006EF29EA968A868A69CA69EA6840B
:1004E0000F01550EA76EAA0EA76EA682A6B2FED762
:1004F000A6940050F2120001FF0002D80300FFFF93
:1005000091EF33F0FFFFFFFF046ED8CF05F0E0CF8F
:1005100006F00001E9CF0CF0EACF07F0E1CF08F0D8
:10052000E2CF09F0D9CF0AF0DACF0BF0F3CF12F017
:10053000F4CF13F0FACF14F000C00EF001C00FF0AA
:1005400002C010F003C011F09DA0AAEF02F09EB00F
:1005500076EF07F09DA2B0EF02F09EB2CFEF06F06B
:100560009DAAB6EF02F09EBA12EF07F00EC000F09F
:100570000FC001F010C002F011C003F00CC0E9FF81
:1005800007C0EAFF078E08C0E1FF09C0E2FF0AC00A
:10059000D9FF0BC0DAFF12C0F3FF13C0F4FF14C081
:1005A000FAFF045006C0E0FF05C0D8FF1000F2CFEC
:1005B0000DF0F29EF76AC80FF66E050EF7220900DD
:1005C000F5500DBEF28E120050C3000020BF020095
:1005D0003057050060AE0A0050690F00C05C15007E
:1005E00040771B00200B2000009F240080B92A00C8
:1005F000C0C62D00F2CF0DF0F29EF76A0E0FF66E18
:10060000060EF7220900F5500DBEF28E1200494485
:10061000020141490302444E02035550020446417F
:1006200002054642020646410D0746420D08464E67
:1006300003094652030A4652020B4654030C465421
:10064000020D4946020E4945030F4C4B02104C4B1C
:1006500003114D4305124D4403134D5206144D57DB
:10066000171552430216524402175255021852549B
:1006700003195258021A5458021B5343031C535077
:10068000031D5941021E3141031F314203203143F2
:1006900003213144072231450223324103253242EE
:1006A00004263243032732440328324503293330DA
:1006B000022B3331022C0000000000000000F2CFBA
:1006C0000DF0F29EF76AD80FF66E060EF7220900BB
:1006D000F5500DBEF28E120000710200400D0300B5
:1006E00060CC050080FC0A0060900F0078E51500E2
:1006F00060C51B00E8BA2000A0252600C0C62D005A
:10070000C0C62D00F2CF0DF0F29E1C0FF66E070E44
:10071000F7220900F5500DBEF28E12000100000014
:10072000DC152700C4192700AC1D27007C252700F5
:10073000642927004C2D2700343127000439270075
:10074000EC3C2700D4402700BC4427008C4C2700F9
:10075000745027005C542700445827001460270079
:10076000FC632700E4672700CC6B27009C732700FD
:10077000847727006C7B2700547F27003C83270069
:10078000248727000C8B2700F48E2700DC9227009B
:10079000C4962700AC9A2700949E27007CA22700CD
:1007A00064A627004CAA270034AE27001CB22700FD
:1007B00004B62700ECB92700D4BD2700BCC1270030
:1007C00001000000A4C527008CC9270074CD2700B4
:1007D00044D527002CD9270014DD2700FCE0270092
:1007E000CCE82700B4EC27009CF0270084F4270015
:1007F00054FC27003C002800240428000C08280092
:10080000DC0F2800C4132800AC172800941B280014
:10081000642328004C272800342B28001C2F280094
:1008200004332800EC362800D43A2800BC3E2800C7
:10083000A44228008C462800744A28005C4E2800F8
:10084000445228002C562800145A2800FC5D280029
:10085000E4612800CC652800B46928009C6D28005C
:1008600084712800010000006C752800547928006C
:100870003C7D28000C852800F4882800DC8C2800AA
:10088000C4902800949828007C9C280064A028002C
:100890004CA428001CAC280004B02800ECB32800AD
:1008A000D4B72800A4BF28008CC3280074C7280030
:1008B0005CCB28002CD3280014D72800FCDA2800B1
:1008C000B4E62800E4DE2800CCE228009CEA2800F8
:1008D00084EE28006CF2280054F628003CFA280028
:1008E00024FE28000C022900F4052900DC09290057
:1008F000C40D2900AC112900941529007C19290088
:10090000641D29004C212900010000003425290024
:100910001C292900042D2900D4342900BC382900C1
:10092000A43C29008C4029005C482900444C290043
:100930002C50290014542900E45B2900CC5F2900C5
:10094000B46329009C6729006C6F29005473290047
:100950003C772900247B2900F4822900DC862900C9
:10096000C48A29007C962900AC8E29009492290023
:10097000649A29004C9E290034A229001CA6290053
:1009800004AA2900ECAD2900D4B12900BCB5290086
:10099000A4B929008CBD290074C129005CC52900B7
:1009A00044C929002CCD290014D1290001000000E0
:1009B000FCD42900E4D82900CCDC29009CE42900DF
:1009C00084E829006CEC290054F0290024F829005F
:1009D0000CFC2900F4FF2900DC032A00AC0B2A00E0
:1009E000940F2A007C132A0064172A00341F2A005F
:1009F0001C232A0004272A00EC2A2A00BC322A00E1
:100A0000A4362A008C3A2A0044462A00743E2A0062
:100A10005C422A002C4A2A00144E2A00FC512A006B
:100A2000E4552A00CC592A00B45D2A009C612A00B2
:100A300084652A006C692A00546D2A003C712A00E2
:100A400024752A000C792A00F47C2A00DC802A0014
:100A500001000000C4842A00AC882A00948C2A007B
:100A600064942A004C982A00349C2A001CA02A0076
:100A7000ECA72A00D4AB2A00BCAF2A00A4B32A00FA
:100A800074BB2A005CBF2A0044C32A002CC72A007A
:100A9000FCCE2A00E4D22A00CCD62A00B4DA2A00FE
:100AA00084E22A006CE62A0054EA2A000CF62A00A6
:100AB0003CEE2A0024F22A00F4F92A00DCFD2A0088
:100AC000C4012B00AC052B0094092B007C0D2B00DE
:100AD00064112B004C152B0034192B001C1D2B000E
:100AE00004212B00EC242B00D4282B00BC2C2B0041
:100AF000A4302B00010000008C342B0074382B0034
:100B00005C3C2B002C442B0014482B00FC4B2B008E
:100B1000E44F2B00B4572B009C5B2B00845F2B0011
:100B20006C632B003C6B2B00246F2B000C732B0091
:100B3000F4762B00C47E2B00AC822B0094862B0015
:100B40007C8A2B004C922B0034962B001C9A2B0095
:100B5000D4A52B00049E2B00ECA12B00BCA92B00DC
:100B6000A4AD2B008CB12B0074B52B005CB92B000D
:100B700044BD2B002CC12B0014C52B00FCC82B003E
:100B8000E4CC2B00CCD02B00B4D42B009CD82B0071
:100B900084DC2B006CE02B0001000000BD1D2A004E
:100BA000A5212A008D252A0075292A005D2D2A00FD
:100BB00045312A002D352A0015392A00FD3C2A002E
:100BC000E5402A00CD442A00B5482A009D4C2A0061
:100BD00085502A006D542A0055582A003D5C2A0091
:100BE00025602A000D642A00F5672A00DD6B2A00C3
:100BF000C56F2A00AD732A0095772A007D7B2A00F5
:100C0000657F2A004D832A0035872A001D8B2A0024
:100C1000058F2A00ED922A00D5962A00BD9A2A0057
:100C2000A59E2A008DA22A0075A62A005DAA2A0088
:100C300045AE2A002DB22A0015B62A00F2CF0DF0DB
:100C4000F29EF76A560FF66E0C0EF7220900F55069
:100C50000DBEF28E1200F0490200400D0300305725
:100C60000500801A060060AE0A00B0710B00404219
:100C70000F0090051000C05C150010201600407792
:100C80001B00903A1C00200B200070CE2000009F1B
:100C90002400F0E8260080B92A00C0C62D0000001C
:100CA00000000000000082B403D001017581000142
:100CB00082A40DD001017453D8A402D0000107D042
:100CC00075B102D0000103D07591740700010101D4
:100CD00074535EE1036A7651670FE96E010E0320DB
:100CE000EA6EEF500F0BE8A08494E8B08484036AA6
:100CF0007651670FE96E010E0320EA6ED890EF304F
:100D00000F0BE8A08492E8B08482036A7651670FE3
:100D1000E96E010E0320EA6EEF30006E00323F0EE6
:100D2000001600500F0BE8A08490E8B08480036A9E
:100D30007651670FE96E010E0320EA6EEF30006E08
:100D4000003200321F0E001600500F0BE8A0809AF0
:100D5000E8B0808A82A416D080880201DC6BDC5166
:100D60000F0808E3DC2B070E006E002EFED700D024
:100D70000000F5D7DC6B8098010176510C0802E386
:100D8000010E762782B403D0766B010E746F04D007
:100D9000849484928490809A0001D0EF06F083D7E7
:100DA0009E929E92B6EF02F09EAAFED7ABCF17F0AE
:100DB000AECF01F017A202D0AB98AB881200030EA1
:100DC0000201E05F0AE3020EEA6EE00EE96EEF5008
:100DD00004E001D000D0EF2EFDD7000112009EA844
:100DE000FED70201DE51AD6EACA2FED7020EDF6F60
:100DF000CF0EE06F0001E3DF0201DF2FF9D7000122
:100E000012000900F5520CE0F6CFDCF2F7CFDDF26C
:100E1000F5CFDEF2E4DFDCC2F6FFDDC2F7FFF1D78B
:100E20005BEF07F019B231D09EAA2FD0BDDF01C011
:100E30002AF2036A020153512B0FE96E020E0320BE
:100E4000EA6E2AC2EFFF1AB20DD02A513B0803E125
:100E5000536B19821A845351040803E1536B1982AE
:100E600001D0532B1AA210D02A513B0803E1536B37
:100E7000198201D0532B5351050806E12A51050868
:100E800003E1536B19821A84000119A229D09EAA8A
:100E900001D08ADF02012B51310821E12C51460893
:100EA0001EE12D513B081BE19D92E60EF66E0E0EE3
:100EB000F76E0001A6D70D0E0201DE6F00018FDF75
:100EC0000A0E0201DE6F00018ADF1B8C0201536BE8
:100ED00019923D6A640E3C6E82B4FED79D82000179
:100EE0009E9AB6EF02F03146323B0000493C01D0F9
:100EF00002D0492A01D0496A49A402D0198801D0F8
:100F000019989E909E90B6EF02F00201D251F80F10
:100F10002AE2080F0001BAEF07F0806A020123D02D
:100F2000080E806E02011FD0040E806E02011BD0DD
:100F30000C0E806E020117D0020E806E200E006E25
:100F4000002EFED700D0000002010DD00A0E806EE8
:100F5000020109D0060E806E020105D00E0E806ED1
:100F6000020101D00201D25301E000D0D2C2EFF160
:100F700000011200F2CF0DF0F29EE824F76AF73676
:100F8000990FF66E0F0EF7220A00F550FA6E080060
:100F9000F5500DBEF28EF96E1A0F200F280F300F8C
:100FA000380F4C0F540F5C0FC290010E926E000E62
:100FB000936EFF0E946E956E96909692969496967A
:100FC000186A196A1A6A1B6AB50ECD6E000E0609F8
:100FD000CA6E770ECB6E9E909E929D809D829D8A5A
:100FE000C00EF212806A0201D26B00018EDF4EEF5A
:100FF00034F0F2CFDBF2F29EDAC2A9FFA69CA69EE5
:10100000A680A8500201DBBFF28E016E0001120023
:10101000D0C2DAF2EEDF01501200036A0201C051C1
:10102000670FE96E000E0320EA6EC1C2EFFF0001F8
:101030001200F250006EF29EBEC2A9FFBFC2A8FF0E
:10104000A69CA69EA6840F01550EA76EAA0EA76E9B
:10105000A682A6B2FED7A6940050F212BEC2C0F27B
:10106000BFC2C1F20001D9DF1200F2CFACF2F29E92
:10107000A9C2A9FFA69CA69EA680A8500201ACBF4B
:10108000F28EAB6FAA51AB5DD8B407D0A9C2BEF245
:10109000AAC2BFF20001CDDF02010001120002016D
:1010A000B96BB86BB76BB66BB151040DF3CFBAF235
:1010B000BB6BBB5103081CE3020EBD6FB60EBC6FC9
:1010C000BB51BC25016E000EBD21036E01C0BCF2F8
:1010D000BD6FBB51BA25BE6FDA6F00018ADFBDC29A
:1010E000EAFFBCC2E9FF01C0EFFF0201BB2BE1D761
:1010F000B651B25D0AE1B751B35D07E1B851B45DD5
:1011000004E1B951B55DD8B41FD0BB6BBB51030826
:101110001BE3BB51BA25BC6F020EBE6FB20EBD6F92
:10112000BB51BD25016E000EBE21036E01C0E9FF5B
:10113000EA6EEFCFBDF2BCC2BEF2BDC2BFF200018B
:1011400078DF0201BB2BE2D7000112000201A46B81
:10115000A43D01D008D0A4C2A9F2AA6B000185DF8A
:101160000201A42BF5D7A46BA4510E080EE3A4C270
:10117000B1F2B56B0A0EB46FAE0EB36F600EB26F04
:1011800000018DDF0201A42BEFD70F0EA46FA45135
:1011900019080BE3A4C2B1F2B56BB46BB36BB26BBD
:1011A00000017DDF0201A42BF2D71A0EA46FA45117
:1011B00024082DE31A0EA45D040DF350036AF2CF48
:1011C000A5F2F29E0001D7EC02F0006E0900F5CF07
:1011D00001F00900F5CF02F00900F5CF03F002019C
:1011E000A5BFF28E03C0A8F202C0A7F201C0A6F20A
:1011F000A56FA4C2B1F203C0B5F202C0B4F201C03F
:10120000B3F2B26F00014BDF0201A42BD0D7250E41
:10121000A46FA4512F082DE3250EA45D040DF350F7
:10122000036AF2CFA5F2F29E0001D7EC02F0006E45
:101230000900F5CF01F00900F5CF02F00900F5CF64
:1012400003F00201A5BFF28E03C0A8F202C0A7F20C
:1012500001C0A6F2A56FA4C2B1F203C0B5F202C0EC
:10126000B4F201C0B3F2B26F000119DF0201A42B86
:10127000D0D7300EB16FB56BB46B050EB36FDC0E0B
:10128000B26F00010CDF310E0201B16FB56BB46BB0
:10129000B36B1E0EB26F000102DF320E0201B16F9E
:1012A000B56BB46B270EB36F100EB26F0001F7DE93
:1012B000330E0201B16FB56B300EB46FD40EB36F45
:1012C000B26B0001ECDED00E0201A96F010EAA6F15
:1012D0000001CBDED10E0201A96F010EAA6F000141
:1012E000C4DED20E0201A96F020EAA6F0001BDDE9C
:1012F000D30E0201A96F030EAA6F0001B6DED40E51
:101300000201A96F040EAA6F0001AFDED50E020123
:10131000A96F050EAA6F0001A8DED60E0201A96F03
:10132000060EAA6F0001A1DED70E0201A96F070EFB
:10133000AA6F00019ADED80E0201A96F080EAA6FEB
:10134000000193DED90E0201A96F090EAA6F0001F8
:101350008CDEE10E0201A96F030EAA6F000185DE8B
:10136000E20E0201A96F030EAA6F00017EDEE30EFA
:101370000201A96F030EAA6F000177DEE00E0201E1
:10138000A96F010EAA6F000170DEE80E0201A96FBD
:10139000AA6B00016ADEE90E0201A96FAA6B0001C7
:1013A00064DEEC0E0201A96F030EAA6F00015DDE80
:1013B000EA0E0201A96F010EAA6F000156DEED0EC2
:1013C0000201A96F010EAA6F00014FDEEE0E0201AD
:1013D000A96F020EAA6F000148DEEF0E0201A96F8D
:1013E000030EAA6F000141DEF00E0201A96F040E88
:1013F000AA6F00013ADEF10E0201A96F050EAA6F75
:10140000000133DEF20E0201A96F060EAA6F000181
:101410002CDEF30E0201A96F070EAA6F000125DE74
:10142000F40E0201A96F080EAA6F00011EDEF50E70
:101430000201A96F090EAA6F000117DEF60E020164
:10144000A96F0A0EAA6F000110DEF70E0201A96F44
:101450000B0EAA6F000109DEE60E0201A96F130E42
:10146000AA6F000102DEE70E0201A96F030EAA6F48
:101470000001FBDD0201A969010EAA6F0001F5DD83
:101480009EEF0BF00201D051040DF3CFD1F2D66BD9
:10149000D56BD46BD36BD26BD25103081CE3020E15
:1014A000D86FD30ED76FD251D725016E000ED82139
:1014B000036E01C0D7F2D86FD251D125D96FDA6F40
:1014C000000197DDD8C2EAFFD7C2E9FF01C0EFFFF4
:1014D0000201D22BE1D7D3C200F0D4C201F0D5C2B1
:1014E00002F0D6C203F0000112000201B551B703A9
:1014F000F3CF01F0F4CF00F0B803F3500026B6515B
:10150000B703F3500020026E000112000201A46B29
:10151000A56BA551070837E3B66BA5C2B5F2B86B4A
:10152000A40EB76F0001E1DF02C0A7F201C0A6F26E
:1015300002C003F002010150F2CFA8F2F29E02C0F5
:10154000F7FF000182EC03F0006E0900F5CF01F017
:101550000900F5CF02F00900F5CF03F00201A8BFA2
:10156000F28E03C0ABF202C0AAF201C0A9F2A86FCA
:10157000A85307E1A95305E1AA5303E1AB5301E1E5
:10158000A42BA52BC6D7A451080802E11B8401D0C7
:101590001B94000125EF0CF00201A92D08D01A0EB2
:1015A000AA25AB6FD06F00016DDF0DD00201A951EC
:1015B000020808E1250EAA25AB6FD06F000162DF9B
:1015C00002D0020100011200B2C2D0F25BDF1200B1
:1015D000010E0201A96F44C0AAF20001DDDF03C0C1
:1015E00023F002C022F001C021F000C020F0020E62
:1015F0000201A96F45C0AAF20001CEDF03C027F0A7
:1016000002C026F001C025F000C024F047C0B2F2AD
:10161000DBDF03C02BF002C02AF001C029F000C0BC
:1016200028F01BB47AD00201B66B5AC0B5F2B86B81
:10163000A40EB76F000159DF02C0B2F201C0B1F2CF
:1016400002C003F002010150F2CFB3F2F29E02C0D9
:10165000F7FF000182EC03F0006E0900F5CF01F006
:101660000900F5CF02F00900F5CF03F00201B3BF86
:10167000F28E03C0B6F202C0B5F201C0B4F2B36F8D
:10168000B3530DE1B4530BE1B55309E1B65307E190
:101690005A50060802E35A2A01D05A6AC5D759504F
:1016A000010802E3010E596E5950270802E2280E84
:1016B000596EB66B5AC0B5F2B86BA40EB76F000185
:1016C00014DF02C0B2F201C0B1F20201B66B59C020
:1016D000B5F2B86B040EB76F000107DF02C003F06C
:1016E00001500201B125016EB25103220150F2CF27
:1016F000B1F2F29E03C0F7FF000182EC03F0006E2E
:101700000900F5CF01F00900F5CF02F00900F5CF8F
:1017100003F00201B1BFF28E000103C02FF002C03E
:101720002EF001C02DF000C02CF012000201D06993
:1017300000016EDC012C01D001D008D50F0E426EE5
:10174000E00E0201D06F000163DC01C043F04350A2
:10175000030801E1189AE10E0201D06F000158DC84
:1017600001C044F0E20E0201D06F000151DC01C063
:1017700045F0E30E0201D06F00014ADC01C046F0E3
:10178000E50E0201D06F000143DC01C047F0ED0E11
:101790000201D06F00013CDC01C04AF0EE0E0201F4
:1017A000D06F000135DC01C04BF0EA0E0201D06FB2
:1017B00000012EDC1B9E01B01B8E300E0201D06F8B
:1017C000000160DE01C05CF000C05BF0310E020180
:1017D000D06F000157DE01C05EF000C05DF0320E38
:1017E0000201D06F00014EDE03C062F002C061F062
:1017F00001C060F000C05FF0330E0201D06F000145
:1018000041DE03C066F002C065F001C064F000C0B4
:1018100063F0E80E0201D06F000108EC08F0199C9B
:1018200001B0198CE90E0201D06F000108EC08F03C
:101830001A9801B01A88E40E0201D06F000108EC7A
:1018400008F01A9C01B01A8C61D6E60E0201D06F26
:10185000000108EC08F001C059F0E70E0201D06F5A
:10186000000108EC08F001C05AF0EF0E0201D06F41
:10187000000108EC08F001C050F0F00E0201D06F3A
:10188000000108EC08F001C051F0F10E0201D06F28
:10189000000108EC08F001C052F0F20E0201D06F16
:1018A000000108EC08F001C053F0F30E0201D06F04
:1018B000000108EC08F001C054F0F40E0201D06FF2
:1018C000000108EC08F001C055F0F50E0201D06FE0
:1018D000000108EC08F001C056F0F60E0201D06FCE
:1018E000000108EC08F001C057F0F70E0201D06FBC
:1018F000000108EC08F001C058F06ADE189C189E40
:1019000019901200D0C281FFEFC1F0F1010E020167
:10191000D26F000185EC07F0F0C1D2F285EC07F040
:101920001200D0C281FF818E00D0819E12005C50D7
:10193000036A600F0201A46F000E0320A56FA4C20A
:10194000D0F20001DFDF5C300201A56F5B30A46FD5
:10195000A533A433A533A433A533A4330F0EA517A1
:10196000A4510F0B006E036A0050500FA46F000EBD
:101970000320A56FA4C2D0F20001C4DF5B500F0B9F
:10198000006E036A0050400F0201A46F000E032096
:10199000A56FA4C2D0F20001B5DF5E50036A600FEC
:1019A0000201A46F000E0320A56FA4C2D0F20001B3
:1019B000B8DF5E300201A56F5D30A46FA533A4339C
:1019C000A533A433A533A4330F0EA517A4510F0BD1
:1019D000006E036A0050500FA46F000E0320A56F25
:1019E000A4C2D0F200019DDF5D500F0B006E036AB0
:1019F0000050400F0201A46F000E0320A56FA4C287
:101A0000D0F200018EDF1200020EEA6EB60EE96E11
:101A1000EF500DE0060E016E006A002EFED7012E7B
:101A2000FBD77B0E006E002EFED7EF2EF3D71200F1
:101A30000201A76BA751180822E3036AA751540FAC
:101A4000E96E020E0320EA6EEFCFA8F2166AF2BE2C
:101A5000168EF29EA8C2DEF20001EFEC06F016BE72
:101A6000F28E036A0201A751540FE96E020E0320A1
:101A7000EA6EEF503B08D8B402D0A72BDBD7A76B98
:101A8000A75118080BE3036AA751540FE96E020E21
:101A90000320EA6E300EEF6EA72BF2D70001120082
:101AA0000201A95310E0E60ED06F000108EC08F027
:101AB00001C059F0E70E0201D06F000108EC08F0F8
:101AC00001C05AF002011BB478D0B66B5AC0B5F20F
:101AD000B86BA40EB76F000108DD02C0B2F201C0FE
:101AE000B1F202C003F002010150F2CFB3F2F29E54
:101AF00002C0F7FF000182EC03F0006E0900F5CF91
:101B000001F00900F5CF02F00900F5CF03F0020162
:101B1000B3BFF28E03C0B6F202C0B5F201C0B4F298
:101B2000B36FB3530DE1B4530BE1B55309E1B653B1
:101B300007E15A50060802E35A2A01D05A6AC5D76B
:101B40005950010802E3010E596E5950270802E26C
:101B5000280E596EB66B5AC0B5F2B86BA40EB76FAB
:101B60000001C3DC02C0B2F201C0B1F20201B66BE7
:101B700059C0B5F2B86B040EB76F0001B6DC02C0F5
:101B800003F001500201B125016EB2510322015050
:101B9000F2CFB1F2F29E03C0F7FF000182EC03F036
:101BA000006E0900F5CF01F00900F5CF02F0090041
:101BB000F5CF03F00201B1BFF28E03C02FF002C0D7
:101BC0002EF001C02DF000C02CF000011200435097
:101BD000040813E15A50060802E35A2A01D05A6A4F
:101BE000E70E0201A96F5AC0AAF2000135EC08F015
:101BF000010E0201A96F000153DF0DEF0EF04350FB
:101C0000040802E1E4D709D04350040806E019B003
:101C100003D0189E198001D019901200EFC1F0F185
:101C2000040E0201D26F000185EC07F0F0C1D2F280
:101C300085EC07F012004350030806E1000E18BAC5
:101C4000010E010F436E02D0030E436E47C0B2F285
:101C5000BBDC03C02BF002C02AF001C029F000C099
:101C600028F0E00E0201A96F43C0AAF2000135EC92
:101C700008F01200ACC2B1F2B0C2B5F2AFC2B4F219
:101C8000AEC2B3F2ADC2B2F24FEC08F086EF0EF086
:101C90000201A96BA851A95D1BE2040ED26F0001DD
:101CA00085EC07F047C073F1640E0201B66F0001C6
:101CB000ABDEF0C1D2F285EC07F00F0E0101736FBD
:101CC000640E0201B66F00019FDE0201A92BE2D76C
:101CD000000112004350040DF350036A1C0FE96E1B
:101CE000000E0320EA6EEFCFA8F2ECCFA9F2ECCF02
:101CF000AAF2ECCFABF247C0ACF2ABC2B0F2AAC2D0
:101D0000AFF2A9C2AEF2A8C2ADF2B4D7020E020180
:101D1000A86F0001BDDF120018BC08D0050E02013B
:101D2000D26F000185EC07F0188C06D00201D26B4F
:101D3000000185EC07F0189C1200432C03D0020E22
:101D4000436E05D04350020802E1010E436EE00EDF
:101D50000201A96F43C0AAF2000135EC08F0010EA0
:101D6000435C189AE8B0188A12004350040DF350EF
:101D7000036A1C0F016E000E032201C0A8F203C00B
:101D8000A9F247C0B2F200011FDCA9C2EAFFA8C253
:101D9000E9FF00C0EFFF01C0ECFF02C0ECFF03C091
:101DA000ECFF020E0201A86F000172DF12000201B7
:101DB000A92D10D01A0EAA25AF6FB16FAEC2B5F221
:101DC000ADC2B4F2ACC2B3F2ABC2B2F200014FEC9E
:101DD00008F00201A951020810E1250EAA25AF6FF3
:101DE000B16FAEC2B5F2ADC2B4F2ACC2B3F2ABC227
:101DF000B2F200014FEC08F00201000112000201F2
:101E0000A8530CE143C0A8F2432C01D003D04350A7
:101E1000020804E182A602D0040EA827010EA85DE4
:101E2000FA0FD8B086D0060F00019BEF0FF0010E1D
:101E30000201A96F44C0AAF223C0AEF222C0ADF2E3
:101E400021C0ACF220C0ABF20001B1DF4450080861
:101E500002E3442A01D0446A010E0201A96F44C082
:101E6000AAF20001CCEC0AF003C023F002C022F079
:101E700001C021F000C020F002015BD0020E02017F
:101E8000A96F45C0AAF227C0AEF226C0ADF225C0A8
:101E9000ACF224C0ABF200018ADF4550080802E32F
:101EA000452A01D0456A020E0201A96F45C0AAF277
:101EB0000001CCEC0AF003C027F002C026F001C0FC
:101EC00025F000C024F0020134D047500D0802E391
:101ED000472A01D0476A47C0B2F2E4EC0AF003C0D7
:101EE0002BF002C02AF001C029F000C028F0020146
:101EF00020D05950270802E3592A02D0010E596E0A
:101F00000201A96B0001CCDD020113D0500E202686
:101F1000C30E2122000E2222232202010AD0500EDB
:101F20002426C30E2522000E26222722020101D0DC
:101F3000020100011200F2CF0DF0F29EE824F76AD0
:101F4000F7365B0FF66E1F0EF7220A00F550FA6E99
:101F50000800F5500DBEF28EF96E2E1E7C1ECA1EB4
:101F6000F21E0C1F1E1F0201A8530CE143C0A8F271
:101F7000432C01D003D04350020804E182A602D0D2
:101F8000040EA827A851010A00010DE0030A31E060
:101F9000010A55E0070A66E0010AD8B46FD0030AC7
:101FA000D8B474D07AD0010E0201A96F44C0AAF24D
:101FB00023C0AEF222C0ADF221C0ACF220C0ABF221
:101FC0000001F5DE445202E0440602D0090E446EE0
:101FD000010E0201A96F44C0AAF20001CCEC0AF084
:101FE00003C023F002C022F001C021F000C020F0A5
:101FF00054D0020E0201A96F45C0AAF227C0AEF26A
:1020000026C0ADF225C0ACF224C0ABF20001CFDE99
:10201000455202E0450602D0090E456E020E02014D
:10202000A96F45C0AAF20001CCEC0AF003C027F06A
:1020300002C026F001C025F000C024F02ED0475287
:1020400002E0470602D00E0E476E47C0B2F2E4EC43
:102050000AF003C02BF002C02AF001C029F000C032
:1020600028F01BD05950010802E2590602D0280E70
:10207000596E0201A96B000113DD0FD0500E205ED6
:10208000C30E215A000E225A235A07D0500E245E46
:10209000C30E255A000E265A275A120018BE14D015
:1020A0001990188E4350040DF350036A1C0FE96E0B
:1020B000000E0320EA6EEFCF38F0ECCF39F0ECCF12
:1020C0003AF0ECCF3BF005D0189E3B6A3A6A396A89
:1020D000386A12000201C16BC26B010EC36FDA6A6B
:1020E000D96A020EC66FB90EC56F020EEA6EBD0E3A
:1020F000E96EC6C2E2FFC5C2E1FFC3C2C4F2D89016
:10210000E550EE02F350C123F450C223C42FF7D799
:10211000C1C2DEFFC2C2C1F2C26BD8B0C22BC52B96
:10212000D8B4C62BC32BC3510508DFE10001120050
:102130000201B86BB76BB66BB56BB86BB76BB66BB0
:10214000AEC2B5F2B8C2BCF2B7C2BBF2B6C2BAF206
:10215000B5C2B9F2C06BBF6BBE6B0A0EBD6F00019A
:10216000B9DF0201AF510024B56F000E0120B66F38
:10217000000E0220B76F000E0320B86FB8C2BCF289
:10218000B7C2BBF2B6C2BAF2B5C2B9F2C06BBF6B8E
:10219000BE6B0A0EBD6F00019DDF0201B05100242D
:1021A000B56F000E0120B66F000E0220B76F000E53
:1021B0000320B86FB8C2BCF2B7C2BBF2B6C2BAF263
:1021C000B5C2B9F2C06BBF6BBE6B0A0EBD6F00012A
:1021D00081DF0201B1510024B56F000E0120B66FFE
:1021E000000E0220B76F000E0320B86FB8C2BCF219
:1021F000B7C2BBF2B6C2BAF2B5C2B9F2C06BBF6B1E
:10220000BE6B0A0EBD6F000165DF0201B2510024F2
:10221000B56F000E0120B66F000E0220B76F000EE2
:102220000320B86FB8C2BCF2B7C2BBF2B6C2BAF2F2
:10223000B5C2B9F2C06BBF6BBE6B0A0EBD6F0001B9
:1022400049DF0201B3510024B56F000E0120B66FC3
:10225000000E0220B76F000E0320B86FB8C2BCF2A8
:10226000B7C2BBF2B6C2BAF2B5C2B9F2C06BBF6BAD
:10227000BE6B0A0EBD6F00012DDF0201B4510024B8
:10228000B56F000E0120B66F000E0220B76F000E72
:102290000320B86FB5C200F0B6C201F0B7C202F0B9
:1022A000B8C203F000011200E00E0201D06F00017D
:1022B00008EC08F001C0A8F20201A85303E0A851FD
:1022C00004080AE2010EA86FE00EA96FA8C2AAF2E4
:1022D000000135EC08F00201A82D01D0189AA85190
:1022E000020801E1188AA8C201F000011200000EE4
:1022F00018BA010E010F040DF350036A1C0FE96EAA
:10230000000E0320EA6EEFCF30F0ECCF31F0ECCFCF
:1023100032F0ECCF33F0000E18BA010E010F040DAD
:10232000F350036A1C0FE96E000E0320EA6E28C00A
:10233000EFFF29C0ECFF2AC0ECFF2BC0ECFF33C03D
:102340002BF032C02AF031C029F030C028F0336AB7
:10235000326A316A306A020E0201A86F000198DC0D
:1023600012002FC29FF202012E39006E0F0E0016CE
:1023700000500F0BA06F2E510F0BA16F2D39006E67
:102380000F0E001600500F0BA26F2D510F0BA36FF5
:102390002C39006E0F0E001600500F0BA46F2C513D
:1023A0000F0BA56F2B39006E0F0E001600500F0B90
:1023B000A66F2B510F0BA76F9F51010A000120E060
:1023C000030A22E0010A22E0070A22E0010A23E0D0
:1023D000030A23E0010A23E00F0A28E0010A2DE0A6
:1023E000030A2FE0010A5BE0040A5BE0F30AD8B4B9
:1023F00086D0020AD8B48BD0010AD8B490D090D03D
:10240000FFEC0DF00BDC8CD016DC8AD063DC88D0BE
:1024100083DC04DC85D091DC83D0A7DC81D0020191
:10242000A86B0001ECDC0EEC0EF07AD00201A86B78
:10243000000199DD0EEC0EF073D030DE0EEC0EF0E4
:102440006FD0A1C2AEF2A2C2AFF2A3C2B0F2A4C2D8
:10245000B1F2A5C2B2F2A6C2B3F2A7C2B4F268DE6C
:1024600003C01FF002C01EF001C01DF000C01CF030
:102470001BDF0150040DF350036A1C0FE96E000EC0
:102480000320EA6E1CC0EFFF1DC0ECFF1EC0ECFF76
:102490001FC0ECFF1F6A1E6A1D6A1C6A41D027DF3D
:1024A0003FD0A6C2AEF2A7C2AFF2A4C2B0F2A5C29C
:1024B000B1F2A2C2B2F2A3C2B3F2A0C2B4F238DE49
:1024C00003C01FF002C01EF001C01DF000C01CF0D0
:1024D000EBDE0150040DF350036A1C0FE96E000E91
:1024E0000320EA6E1CC0EFFF1DC0ECFF1EC0ECFF16
:1024F0001FC0ECFF1F6A1E6A1D6A1C6A11D00EEC19
:102500000EF019B602D0198601D0199609D0020131
:10251000A969AA69000135EC08F0FF0001D0FF00AD
:10252000010E016EBDEF22F00201A86BA76BA66B36
:10253000A56BA96BAA6BAB6BAC6BAD6BAE6BAF6BEA
:10254000010EA45DFC0F38E2040F0001C1EF13F08F
:1025500023C0A8F222C0A7F221C0A6F220C0A5F293
:1025600002012AD00201A35309E023C0A8F222C02D
:10257000A7F221C0A6F220C0A5F208D027C0A8F279
:1025800026C0A7F225C0A6F224C0A5F215D02BC004
:10259000A8F22AC0A7F229C0A6F228C0A5F202011B
:1025A0000BD02FC0A8F22EC0A7F22DC0A6F22CC0CF
:1025B000A5F2020101D00201A55307E1A65305E1EE
:1025C000A75303E1A853D8B4ADD0A8C2C3F2A7C2A1
:1025D000C2F2A6C2C1F2A5C2C0F2C3C2C7F2C2C251
:1025E000C6F2C1C2C5F2C0C2C4F2A96BC7530DE1A5
:1025F000C6510E0815E2FF0A08E1C551410810E274
:10260000FF0A03E1C4513F080BE2400EC45F420ED3
:10261000C55B0F0EC65B000EC75B010EA927E6D790
:10262000AA6BC7530DE1C651000815E2FF0A08E185
:10263000C551850810E2FF0A03E1C4519F080BE26F
:10264000A00EC45F860EC55B010EC65B000EC75BA5
:10265000010EAA27E6D7AB6BC7530AE1C65308E1C0
:10266000C55126080FE2FF0A03E1C4510F080AE230
:10267000100EC45F270EC55B000EC65BC75B010E64
:10268000AB27EAD7AC6BC7530AE1C65308E1C55183
:1026900002080FE2FF0A03E1C451E7080AE2E80E6C
:1026A000C45F030EC55B000EC65BC75B010EAC27A3
:1026B000EAD7AD6BC75307E1C65305E1C55303E144
:1026C000C451630809E2640EC45F000EC55BC65BBB
:1026D000C75B010EAD27EED7AE6BC75307E1C653FC
:1026E00005E1C55303E1C451090809E20A0EC45FBC
:1026F000000EC55BC65BC75B010EAE27EED7AF6BA6
:10270000C75307E1C65305E1C55303E1C4510008AF
:1027100009E2010EC45F000EC55BC65BC75B010E1C
:10272000AF27EED7A35316E0300EA925716F300EF8
:10273000AA25726F300EAB25736F300EAC25746F07
:10274000300EAD25756F300EAE25766F300EAF258D
:10275000776F15D0300EA925596F300EAA255A6F04
:10276000300EAB255B6F300EAC255C6F300EAD25A7
:102770005D6F300EAE255E6F300EAF255F6F0001CE
:102780001200F2CF0DF0F29EE824F76AF736A70F99
:10279000F66E270EF7220A00F550FA6E0800F55083
:1027A0000DBEF28EF96E502564258E25A225A3C29A
:1027B00054F2A4C255F20201A63D01D003D0300E5E
:1027C000A625566F036AA551540FE96E020E032029
:1027D000EA6E3B0EEF6E000118EC0DF0120064DDA6
:1027E00001C0A2F20201A36B01C0A4F200019CDEB1
:1027F000460E0201A36F410EA46F0D0EA56FA669D0
:102800000001D5DF12000201A36B020EA46F0001CC
:102810008BDE460E0201A36F420EA46F0D0EA56F54
:10282000A6690001C4DF1200036A0201A251540F1D
:10283000E96E020E0320EA6E30C2EFFF010EA22500
:10284000036A540FE96E020E0320EA6E31C2EFFFF5
:10285000020EA225036A540FE96E020E0320EA6EEF
:1028600032C2EFFF030EA225036A540FE96E020E77
:102870000320EA6E33C2EFFF040EA225036A540F51
:10288000E96E020E0320EA6E34C2EFFF050EA225A8
:10289000036A540FE96E020E0320EA6E35C2EFFFA1
:1028A000060EA225036A540FE96E020E0320EA6E9B
:1028B00036C2EFFF036AA251540FE96E020E0320E5
:1028C000EA6E300EEF5CA76F010EA225036A540F6B
:1028D000E96E020E0320EA6E300EEF5CA86F020E66
:1028E000A225036A540FE96E020E0320EA6E300E31
:1028F000EF5CA96F030EA225036A540FE96E020E66
:102900000320EA6E300EEF5CAA6F040EA225036A64
:10291000540FE96E020E0320EA6E300EEF5CAB6FCF
:10292000050EA225036A540FE96E020E0320EA6E1B
:10293000300EEF5CAC6F060EA225036A540FE96EF1
:10294000020E0320EA6E300EEF5CAD6FA7C2AEF24E
:10295000A8C2AFF2A9C2B0F2AAC2B1F2ABC2B2F23F
:10296000ACC2B3F2B46F000198EC10F003C0A6F251
:1029700002C0A5F201C0A4F200C0A3F20201A65356
:1029800009E1A55307E1A451270804E312E1A3518B
:102990000F080FE2A6530DE1A5512F081EE2FF0A12
:1029A00008E1A451D30819E2FF0A03E1A35100088A
:1029B00014E2000179DC0150040DF350036A1C0F8E
:1029C000E96E000E0320EA6EEFCFA3F2ECCFA4F283
:1029D000ECCFA5F2ECCFA6F20201A3C200F0A4C294
:1029E00001F0A5C202F0A6C203F000011200050E1C
:1029F0000201A26F000118DF03C023F002C022F021
:102A000001C021F000C020F0EADED7EF21F0050E72
:102A10000201A26F000108DF03C027F002C026F008
:102A200001C025F000C024F0EEDEDDEF21F0020150
:102A3000A36BA251300802E1010EA36FA25131082D
:102A400002E1020EA36FA251320802E1030EA36F4E
:102A5000E00EA96FA3C2AAF2000135EC08F0E5EF81
:102A600021F022DC0150010A03E0030A06E009D04C
:102A7000300E0201566F000104D0310E0201566F74
:102A80000001460E0201A36F520EA46F030EA56F44
:102A900056C2A6F200018BDE120002012D51300A4F
:102AA000000103E0010A04E005D0010E436E02D0EC
:102AB000020E436EE00E0201A96F43C0AAF20001AC
:102AC00035EC08F0CEDFEBEF21F054EC11F00150C3
:102AD000010A03E0030A06E009D0300E0201566F36
:102AE000000104D0310E0201566F0001460E0201B2
:102AF000A36F540EA46F030EA56F56C2A6F2000179
:102B000056DE120002012D51300A000103E0010AD5
:102B100004E005D0010E436E02D0020E436EE00EBB
:102B20000201A96F43C0AAF2000135EC08F0CDDF25
:102B3000F5EF21F054EC11F001C0A2F2490E0201B0
:102B40006C6F460E6D6F010EA36FA2C2A4F200015E
:102B5000EBDC4750090809E2310E0201866F0A0ECC
:102B6000475C300F876F06D00001300E0201866F80
:102B70004724876F1AA603D0310E886F02D0300E1B
:102B8000886F4DC089F2A22D03D0300E8A6F8C6FF2
:102B9000A251020803E1310E8A6F8C6F300E8B6FE9
:102BA0000001FFEF21F00201A26BA251250822E3F0
:102BB000036AA2516C0FE96E020E0320EA6EEFCF9A
:102BC000A3F2166AF2BE168EF29EA3C2DEF20001D6
:102BD000EFEC06F016BEF28E036A0201A2516C0FF2
:102BE000E96E020E0320EA6EEF503B08D8B402D023
:102BF000A22BDBD7000101EF22F00201A32D08D0A8
:102C0000189C070ED26F000185EC07F00BD0020173
:102C1000D26B000185EC07F0189C010175B5188C8A
:102C200075950001120002012D51300A000103E0E8
:102C3000010A03E003D01A9801D01A88000E1AB8CE
:102C4000010E0201A26F310EA36F410EA46F030E9D
:102C5000A56FA2C2A6F20001AADD000E1AB8010EED
:102C60000201A26FE90EA96FA2C2AAF2000135EC1F
:102C700008F026EF22F002012D51300A000103E096
:102C8000010A03E003D01A9A01D01A8A000E1ABA78
:102C9000010E0201A26F310EA36F420EA46F030E4C
:102CA000A56FA2C2A6F2000182DD000E1ABA010EC3
:102CB0000201A26FEA0EA96FA2C2AAF2000135ECCE
:102CC00008F02AEF22F002012D51300A000103E042
:102CD000010A03E003D0199C01D0198C000E19BC25
:102CE000010E0201A26F310EA36F430EA46F030EFB
:102CF000A56FA2C2A6F200015ADD000E19BC010E9A
:102D00000201A26FE80EA96FA2C2AAF2000135EC7F
:102D100008F02EEF22F002012D51300A000103E0ED
:102D2000010A03E003D01A9C01D01A8C000E1ABCD1
:102D3000010E0201A26F310EA36F440EA46F030EA9
:102D4000A56FA2C2A6F2000132DD000E1ABC010E70
:102D50000201A26FE40EA96FA2C2AAF2000135EC33
:102D600008F032EF22F0300E02012B6F2C6F2B5D3A
:102D7000A66F300E2C5DA76F300E2D5DA86F300E44
:102D80002E5DA96F300E2F5DAA6F300E305DAB6FD8
:102D9000300E315DAC6FA6C2AEF2A7C2AFF2A8C2D0
:102DA000B0F2A9C2B1F2AAC2B2F2ABC2B3F2B46F2E
:102DB000000198EC10F003C0A5F202C0A4F201C01B
:102DC000A3F200C0A2F2A2C200F0A3C201F0A4C20A
:102DD00002F0A5C203F0EEEF1FF00201B26BB15199
:102DE000B25D0CE200010EEC0EF0C80E0201B66FEF
:102DF000000104EC0DF00201B22BF1D7000112002A
:102E00001AAC0ED0100E48240201CF6FD06F000113
:102E100042EC0AF001C002F000C001F00BD00AD071
:102E20000F0E0201D06F000142EC0AF001C002F067
:102E300000C001F012001AAC0FD0100E482402019D
:102E4000AD6FB16FB56BB46BACC2B3F2ABC2B2F2E3
:102E500000014FEC08F00CD00F0E0201B16FB56B02
:102E6000B46BACC2B3F2ABC2B2F200014FEC08F0EB
:102E700012000201B151010A000107E0030A0BE050
:102E8000010A0FE0060A13E016D0010E01016B6F74
:102E90000F0E736F14D00C0E01016B6F0F0E736F5A
:102EA0000ED0020E01016B6FB7C273F108D0B7C22A
:102EB00073F1010104D00F0E01016B6F736F0201FA
:102EC000B2510F0805E20F0E01016C6F04D0020130
:102ED000B2C26CF10101B6C2C3F2B5C2C2F2B4C251
:102EE000C1F2B3C2C0F2C3C2C7F2C2C2C6F2C1C20B
:102EF000C5F2C0C2C4F20201B96BC7530DE1C6519D
:102F00000E0815E2FF0A08E1C551410810E2FF0A68
:102F100003E1C4513F080BE2400EC45F420EC55BA3
:102F20000F0EC65B000EC75B010EB927E6D7BA6B62
:102F3000C7530DE1C651000815E2FF0A08E1C5516B
:102F4000850810E2FF0A03E1C4519F080BE2A00EBE
:102F5000C45F860EC55B010EC65B000EC75B010E2B
:102F6000BA27E6D7BB6BC7530AE1C65308E1C55180
:102F700026080FE2FF0A03E1C4510F080AE2100E0F
:102F8000C45F270EC55B000EC65BC75B010EBB2787
:102F9000EAD7BC6BC7530AE1C65308E1C551020822
:102FA0000FE2FF0A03E1C451E7080AE2E80EC45F3A
:102FB000030EC55B000EC65BC75B010EBC27EAD7DC
:102FC000BD6BC75307E1C65305E1C55303E1C451C7
:102FD000630809E2640EC45F000EC55BC65BC75B95
:102FE000010EBD27EED7BE6BC75307E1C65305E1FF
:102FF000C55303E1C451090809E20A0EC45F000E7B
:10300000C55BC65BC75B010EBE27EED7BF6BC75360
:1030100007E1C65305E1C55303E1C451000809E2C5
:10302000010EC45F000EC55BC65BC75B010EBF2708
:10303000EED7B8510208D8A057D0B6530DE1B5511C
:103040000F080AE307E1B451420806E303E1B35174
:103050003F0802E30F0EB96FB6530DE1B5510108F9
:103060000AE307E1B451860806E303E1B3519F0880
:1030700002E30F0EBA6FB6530BE1B55309E1B45139
:10308000270806E303E1B3510F0802E30F0EBB6FFD
:10309000B6530BE1B55309E1B451030806E303E16C
:1030A000B351E70802E30F0EBC6FB65309E1B55305
:1030B00007E1B45305E1B351630802E30F0EBD6F9E
:1030C000B65309E1B55307E1B45305E1B35109081B
:1030D00002E30F0EBE6FB35307E1B45305E1B553DE
:1030E00003E1B65301E1BF6BB851010A00012FE0C3
:1030F000030A3AE0010A47E0070A53E0010A5FE0E9
:103100000C0A67E0030AD8B471D0010AD8B47BD0A6
:10311000070AD8B487D0010AD8B493D0030AD8B428
:103120009FD0010AD8B4ABD01F0AD8B4B7D0010AD7
:10313000D8B4C3D0B9C26DF1BAC26EF1BBC26FF1DF
:10314000BCC270F1BDC271F1BEC272F1C4D0BAC2CC
:103150006DF1BBC26EF1BCC26FF1BDC270F1BEC2F7
:1031600071F1BFC272F1B7D00F0E01016D6F010E88
:103170005A246E6F0F0E6F6FBEC270F1BFC271F135
:10318000726F0001A8D0BCC26DF1BDC26EF1BEC2AB
:103190006FF1BFC270F10F0E0101716F726F00010C
:1031A0009AD00F0E01016D6F6E6FBCC26FF1BDC280
:1031B00070F1BEC271F1BFC272F100018CD00F0E6E
:1031C00001016D6F6E6B6F6B706B716B726F0001D5
:1031D00082D0B9C26DF1BAC26EF1BBC26FF1BCC28E
:1031E00070F1BDC271F1BEC272F175D0BAC26DF19B
:1031F000BBC26EF1BCC26FF1BDC270F1BEC271F153
:10320000BFC272F168D00F0E01016D6FBAC26EF1CC
:10321000BBC26FF1BCC270F1BDC271F1BEC272F12E
:10322000000159D0B9C26DF10F0E01016E6FBBC222
:103230006FF1BCC270F1BDC271F1BEC272F100018A
:103240004AD0B9C26DF1BAC26EF10F0E01016F6FB3
:10325000BCC270F1BDC271F1BEC272F100013BD0BF
:10326000B9C26DF1BAC26EF1BBC26FF10F0E0101AE
:10327000706FBDC271F1BEC272F100012CD0B9C233
:103280006DF1BAC26EF1BBC26FF1BCC270F10F0E2C
:103290000101716FBEC272F100011DD0B9C26DF1A2
:1032A000BAC26EF1BBC26FF1BCC270F1BDC271F1A6
:1032B0000F0E0101726F00010ED0BAC26DF1BBC2D8
:1032C0006EF1BCC26FF1BDC270F1BEC271F10F0EE2
:1032D0000101726F00011200EFC1F0F1030E020153
:1032E000D26F000185EC07F0F0C1D2F285EC07F057
:1032F0001200016A026A006A036A0201D25102E105
:10330000D15118E0100ED36FD890CF37D037003698
:103310000336D251035C02E1D151005C07E3D15185
:10332000005ED8A00306D251035ED8800136023673
:10333000D32FEAD70001120081CFF1F1B6EF19F0D7
:10334000EFC1F0F1020E0201D26F000185EC07F02F
:10335000F0C1D2F285EC07F0BEEF19F0F1C181FFA8
:103360000101F16B0001BFEF19F0E6D7700E020109
:10337000D16FD051D125816E0001E2D7EFD71CEF7C
:103380001CF0700E0201D16FD051D125816E000169
:1033900026EF1CF00201CF6B83A802D0080ECF27C6
:1033A00083AA02D0040ECF2783AC02D0020ECF270F
:1033B00083AE02D0010ECF27CFC201F00001120070
:1033C000B9C2F5F1B8C2F4F1B7C2F3F1B6C2F2F185
:1033D0000201BD6BBC6BBF6BBE6BBA5308E0010151
:1033E000F76BF66BF96BF86BFA6BFB6B0201BB3D8D
:1033F00064D0C26BC251090852E3C251030DF350AD
:10340000040DF350036A770FE96E010E0320EA6E94
:10341000EFCF00F0ECCF01F0ECCF02F0ECCF03F0F7
:103420000350B95D3AE30BE10250B85D36E307E1C2
:103430000150B75D32E303E10050B65D2EE3C251A7
:10344000030DF350010F040DF350036A770FE96E7B
:10345000010E0320EA6EEFCF00F0ECCF01F0ECCFCD
:1034600002F0ECCF03F0B951035C17E30BE1B85164
:10347000025C13E307E1B751015C0FE303E1B651CE
:10348000005C0BE3D00EC225CF6FD06F000108ECBB
:1034900008F001C048F0020102D0C22BABD70101F5
:1034A000FA51485C08E0FB6B48C081FF000114DF63
:1034B00048C0FAF101010FD00201BBC248F001017E
:1034C000FA51485C08E0FB6B48C081FF000104DF53
:1034D00048C0FAF101011BB027D0000191DC02C005
:1034E0004FF001C04EF04F50260815E2FF0A03E1ED
:1034F0004E500F0810E2100E4E5C006E270E4F5813
:10350000036E00500201B6270350B723000EB82304
:10351000B92309D000014E500201B65F4F50B75B8E
:10352000000EB85BB95B0101B9C2C6F2B8C2C5F200
:10353000B7C2C4F2B6C2C3F20201C6530DE1C5510F
:10354000000817E2FF0A08E1C451850812E2FF0AE9
:1035500003E1C3519F080DE2A00EC35F860EC45B5A
:10356000010EC55B000EC65B0A0EBC27000EBD2314
:10357000E4D7C6530AE1C55308E1C451260815E251
:10358000FF0A03E1C3510F0810E2100EC35F270EBC
:10359000C45B000EC55BC65B010EBC27000EBD23DD
:1035A000640EBE27000EBF23E4D7C6530AE1C553FD
:1035B00008E1C451020811E2FF0A03E1C351E70820
:1035C0000CE2E80EC35F030EC45B000EC55BC65B76
:1035D0000A0EBE27000EBF23E8D7C65307E1C55326
:1035E00005E1C45303E1C35163080BE2640EC35FFA
:1035F000000EC45BC55BC65B010EBE27000EBF2379
:10360000ECD7C06BC65307E1C55305E1C45303E1D2
:10361000C351090809E20A0EC35F000EC45BC55B13
:10362000C65B010EC027EED7C16BC35306E1C4537E
:1036300004E1C55302E1C65309E0010EC35F000E69
:10364000C45BC55BC65B010EC127EFD7BF51000845
:1036500009E2FF0A03E1BE51F30804E2F40EBE5F83
:10366000010EBF5B300EBE27020EBF23C76BC86BB7
:10367000C96BCA6BCB6BCC6BCD6BCE6B0101F651BA
:103680000201BE5D05E10101F7510201BF5D34E0B9
:10369000BFC2C8F2BF31D06FBE31CF6FD033CF338E
:1036A000D033CF33D033CF330F0ED017CF510F0BD2
:1036B000C96FBE510F0BCA6F300EC725CF6FD06FC9
:1036C000000182EC0CF0200E0201C825CF6FD06FF4
:1036D000000182EC0CF0100E0201C925CF6FD06FF3
:1036E000000182EC0CF0CAC2D0F282EC0CF0BFC236
:1036F000F7F1BEC2F6F102010101F8510201BC5D11
:1037000006E10101F9510201BD5DD8B48AD04850EB
:10371000050834E3BDC2D0F2BCC2CFF2D26B050EB5
:10372000D16F0001E6DD02C0D0F201C0CFF20C0E75
:103730000201CF27000ED023D031036ECF31026EAD
:1037400003320232033202320332023202C0CDF2BD
:10375000BDC2D0F2BCC2CFF2D26B050ED16F000158
:10376000C8DD02C0D0F201C0CFF20C0E0201CF279B
:10377000000ED023CF510F0BCE6F33D0BDC2D0F28D
:10378000BCC2CFF2D26B050ED16F0001B2DD02C018
:10379000D0F201C0CFF2120E0201CF5F000ED05B5B
:1037A000D031036ECF31026E033202320332023265
:1037B0000332023202C0CDF2BDC2D0F2BCC2CFF29F
:1037C000D26B050ED16F000194DD02C0D0F201C0B2
:1037D000CFF2120E0201CF5F000ED05BCF510F0B64
:1037E000CE6F300ECB25CF6FD06F000191EC0CF077
:1037F000200E0201CC25CF6FD06F000191EC0CF0B0
:10380000100E0201CD25CF6FD06F000191EC0CF0AE
:10381000CEC2D0F291EC0CF0BDC2F9F1BCC2F8F10D
:103820000201C1510101FB5D0AE0010E0201C12547
:10383000CF6FD06F000199D5C1C2FBF10101010E1C
:103840000201C025CF6FD06F00019BD5A3DD01C061
:1038500040F040C041F012000201B66B84928494A3
:10386000809A848000D000D0000082A402D0010E93
:10387000B66F82A202D0020EB66F82A002D0030EF3
:10388000B66F8490848200D000D0000082A402D061
:10389000040EB66F82A202D0050EB66F82A002D0CF
:1038A000060EB66F8492848400D000D0000082A4FB
:1038B00002D0070EB66F82A202D0080EB66F82A0A9
:1038C00002D0090EB66F8494808A00D000D0000028
:1038D00082A202D00A0EB66F849484928490809A59
:1038E000B6C201F0000112000201B66B83B204D02F
:1038F00082BA02D00B0EB66F83B204D082BC02D063
:103900000C0EB66F83A206D082AA04D082AC02D07D
:103910000D0EB66F83A204D082BA02D00E0EB66F1F
:1039200083A204D082BC02D00F0EB66FB6C201F0E3
:10393000000112000201B26BB36BB151020802E147
:10394000B46B02D0040EB46F82A4FDD082B4FED753
:1039500018B009D0000180DF01C026F20201265311
:1039600001E01880286B18A08ED0000175DF01528D
:1039700019E00201283D01D001D0282BB1510208E5
:1039800010E0020EB66F166AF2BE168EF29EF90EA7
:10399000E06F0001DFEC06F016BEF28E0201B62FDA
:1039A000F2D7000102012851B45D21E2B1530AE1CE
:1039B0002851630802E3010EB36F2851630802E245
:1039C000020EB36FB12D0AD02851630802E3010E35
:1039D000B36F2851630802E2030EB36FB1510208BE
:1039E00006E126C2B2F2266BB2C201F0C7D0B32DF7
:1039F00022D0000131DF01521FE10201B56BB55148
:103A000009080AE3000128DF015203E0020104D0A3
:103A100000010201B52BF3D7B55109080CE218A437
:103A200003D0B26B189402D026C2B2F2266B189063
:103A3000B2C201F0A3D000010201B35102080DE1AE
:103A4000265303E01E0E2625B26F266B010E286F4B
:103A500018841890B2C201F091D0B351030813E159
:103A6000265303E01E0E2625B26F0001F5DE01523B
:103A700005E1010E0201286FB26B000118840201FA
:103A8000B2C201F07BD018B609D000012DDF01C011
:103A900027F20201275301E01886296B18A653D09C
:103AA000293D01D001D0292B166AF2BE168EF29E56
:103AB00025C2E0F20001DFEC06F016BEF28E020134
:103AC00029530AE029511D0802E3010EB36F295161
:103AD0001D0802E2020EB36FB32D15D0000104DF02
:103AE000015212E118A407D01894000E016E0201D1
:103AF00045D004D0000127C2B2F20201276B18960C
:103B0000B2C201F03BD000010201B35102081BE137
:103B10000001EADE01C027F2050E02012725B26F7F
:103B20000001E2DE015205E00201B251120807E194
:103B3000000118960201B251120801E0B26B18841C
:103B4000B2C201F01BD083A015D01BBC12D0000163
:103B50000EEC0EF083B0FED7C80E0201B66F000166
:103B600004EC0DF018A802D0189801D0188803D0E2
:103B7000020118980001000E016E020100011200FE
:103B80001BAC07D0030E0201B16F0001EDEC16F083
:103B900022D21B800201A451A51109E1000100EC11
:103BA00017F002C04FF001C04EF006D00201A5C2CE
:103BB0004FF0A4C24EF000014F504D080DE2FF0A35
:103BC00003E14E501F0808E24F6A4E6A0201AC6BD7
:103BD000AB6B00011BEC17F04350040DF350036A6C
:103BE0001C0FE96E000E0320EA6EEFCF1CF0ECCF45
:103BF0001DF0ECCF1EF0ECCF1FF04F5026080BE26B
:103C0000FF0A03E14E500F0806E2100E4E5E270E2B
:103C10004F5A1B9201D01B82010E0201A66FA89180
:103C2000A893A62D9AD0A8A305D0010E4E5E000E33
:103C30004F5AA893A8A105D0010E4E26000E4F2280
:103C4000A8914E3C0AD04F3C08D04F6A010E4E6EF0
:103C50001BB202D01B8201D01B924E504F1058E075
:103C6000000E1BB2010E010A00011FE04350040DBB
:103C7000F350036A1C0FE96E000E0320EA6EEFCFCB
:103C8000A9F2ECCFAAF2ECCFABF2ECCFACF24E50F3
:103C90000201A9251C6E4F50AA211D6E000EAB21FA
:103CA0001E6E000EAC211F6E1ED04350040DF3504B
:103CB000036A1C0FE96E000E0320EA6EEFCFA9F233
:103CC000ECCFAAF2ECCFABF2ECCFACF24E5002014B
:103CD000A95D1C6E4F50AA591D6E000EAB591E6E89
:103CE000000EAC591F6E000E1BB2010EFF0A050F2D
:103CF000A96FB169B269B66BB56B4FC0B4F24EC073
:103D0000B3F2B769B86F000139EC17F016D00201B1
:103D1000B169B269B66BB56BB46B010EB36FB769BD
:103D2000050EB86F000139EC17F00EEC0EF0C80E5E
:103D30000201B66F000104EC0DF01FC0B9F21EC005
:103D4000B8F21DC0B7F21CC0B6F20201BA6BBB6973
:103D50000001E0EC19F00201A66BA451A5110BE0E3
:103D6000080EA96FFA0EB66F000104EC0DF0020107
:103D7000A92FF8D7E9D0A65337E1000E1BB2010EE8
:103D8000A96FA9C2AAF20001CAEC19F001C040F063
:103D90004150405C04E1000E016E21D01ED00201B2
:103DA000AA530CE182A805D0010E4E26000E4F2228
:103DB00004D0010E4E5E000E4F5A0BD082A805D0E3
:103DC000010E4E5E000E4F5A04D0010E4E26000E1C
:103DD0004F22010E016E000102D0000E016E015251
:103DE00004E0010E0201A66F00010201A653D8A44F
:103DF000AAD0B16B00019EDD01C0A7F20201A7535A
:103E0000D8B4A1D0010EA66F1BB231D0A751020ABF
:103E100000010DE0010A0FE0050A11E00A0A14E0B2
:103E2000070A16E0060A18E0120A1BE01ED002017B
:103E3000A88300011AD00201A881000116D0030E48
:103E40000201A66F000111D00201A88300010DD06C
:103E50000201A881000109D0020E0201A66F000133
:103E600004D0020E0201A66F000130D00201A7515A
:103E7000020A00010DE0010A0FE0050A11E00A0A3A
:103E800014E0070A16E0060A18E0120A1BE01ED02A
:103E90000201A88100011AD00201A883000116D0F6
:103EA000030E0201A66F000111D00201A8810001DA
:103EB0000DD00201A883000109D0020E0201A66FF5
:103EC000000104D0020E0201A66F00010201A72D1D
:103ED0002FD000010EEC0EF04350040DF350036A96
:103EE0001C0FE96E000E0320EA6EEFCFA9F2ECCFB3
:103EF000AAF2ECCFABF2ECCFACF20201B169B2693D
:103F0000ACC2B6F2ABC2B5F2AAC2B4F2A9C2B3F265
:103F1000B769B86B000139EC17F0040E0201A96F04
:103F2000FA0EB66F000104EC0DF00201A92FF8D7CC
:103F300019A202D0030EA66FA651020803E0A651F3
:103F40000308D8B401D06DD6A651020819E11BB2FE
:103F50000DD0100E4E24A96F270E4F20AA6FAC6F04
:103F6000A9C2ABF200011BEC17F002011BA208D0A2
:103F70004FC0ACF24EC0ABF200011BEC17F00201D7
:103F8000A651030826E1AC6BAB6B00011BEC17F0EC
:103F90000201B169B269B66BB56BB46B010EB36F58
:103FA000B769050EB86F000139EC17F00EEC0EF092
:103FB000030E0201B16F0001EDEC16F0040E0201D8
:103FC000A96FFA0EB66F000104EC0DF00201A92FE3
:103FD000F8D71B9000011200B3EF16F001C0A3F256
:103FE00000C0A2F201C0A5F200C0A4F2C9DD310EEA
:103FF0000201A36F450EA46F030EA56F020EA66FFC
:104000000001D7EC13F035EF22F00201A26B2D5125
:10401000310A00010DE0030A0FE0010A11E0070A6E
:1040200013E0000E18BA010E010F0201A26F0FD0AB
:10403000010E0201A26F0BD0020E0201A26F07D087
:10404000030E0201A26F03D0040E0201A26F320E12
:10405000A36F410EA46F030EA56FA2C2A6F20001CA
:10406000D7EC13F03AEF22F0300E02012D5D0A0D6D
:10407000F3CFA2F2300E2E5DA227A2530DE0A25183
:1040800028080AE3A2C259F0E60EA96F59C0AAF2A5
:10409000000135EC08F00201320EA36F420EA46F4E
:1040A000030EA56F59C0A6F20001D7EC13F0020170
:1040B000A96B000150EC0DF03FEF22F0300E020131
:1040C0002D5D0FE0300E2D5D08080BE3310E2D5DE8
:1040D0005A6EE70EA96F5AC0AAF2000135EC08F03B
:1040E0000201010E5A24A26F320EA36F430EA46F79
:1040F000030EA56FA2C2A6F20001D7EC13F00201D5
:10410000A96B000150EC0DF044EF22F0300E0201DB
:104110002D5D0FE0300E2D5D08080BE3300E2D5D98
:104120004C6EEC0EA96F4CC0AAF2000135EC08F001
:104130000201320EA36F440EA46F030EA56F4CC094
:10414000A6F20001D7EC13F049EF22F002012D5145
:10415000300A000103E0010A03E003D01A9201D003
:104160001A82000E1AB2010E0201A26F320EA36F64
:10417000450EA46F030EA56FA2C2A6F20001D7ECF4
:1041800013F0000E1AB2010E0201A26FEB0EA96F1E
:10419000A2C2AAF2000135EC08F04CEF22F0036A4B
:1041A0000201A551670FE96E000E0320EA6EEFCF02
:1041B00001F0000112000201A26BA23D01D013D058
:1041C000A2C2A5F20001EBDF01C0A3F2166AF2BEA3
:1041D000168EF29E01C0DEF2EFEC06F016BEF28EF5
:1041E0000201A22BEAD7166AF2BE168EF29E3B0E91
:1041F000DE6F0001EFEC06F016BEF28E4FEF22F0FC
:104200009D9A0201A26B9EAA14D00001D4EC06F084
:1042100001C0A4F2A2C2C0F201C0C1F20DEC08F0CC
:10422000A2C2A5F2BCDF01503B08D8B404D0020101
:10423000A22BE9D700019EAA09D0D4EC06F0200EEB
:10424000006E002EFED700D00000F5D70201A36B50
:10425000A251A35D29E2A3C2A5F20001A0DF01C023
:10426000A4F2A3C2A9F201C0AAF235EC08F0200E14
:10427000006E002EFED700D00000A3C2D0F208ECE2
:1042800008F001C0A4F2A3C2A5F289DF0150020127
:10429000A45D02E1A32B07D0030EB16F0001EDEC8A
:1042A00016F0020101D0D4D79D8A00010EEC0EF069
:1042B00096EC0BF0E8EC0AF097EC0CF054EF22F0DF
:1042C00002019F6BA06BA16BA1512C084BE3A15184
:1042D000040DF350036AF2CFA2F2F29E0001FAEC51
:1042E00002F00201A2BFF28E016E2B5D39E1A151F5
:1042F000040DF350010F036AF2CFA2F2F29E000107
:10430000FAEC02F00201A2BFF28E016E2C5D28E1F0
:10431000A151040DF350020F036AF2CFA2F2F29EF4
:104320000001FAEC02F00201A2BFF28E036A2B0F29
:10433000E96E020E0320EA6EEF503B0811E1A15135
:10434000040DF350030F036AF2CFA2F2F29E0001B4
:10435000FAEC02F00201A2BFF28E016E9F6F02D052
:10436000A12BB2D7030E9F5DD60FD8B0A2D02A0FD3
:1043700000015EEF22F00201A86B0001B3EC0FF028
:10438000010E0201A06F95D00201A86B0001FFECA5
:104390000EF0010E0201A06F8CD0EFEC13F00201C1
:1043A00088D003EC14F0020184D0F7EF14F0010E72
:1043B0000201A06F7ED007EF15F0010E0201A06F81
:1043C00078D02DC2A2F217EF15F0010E0201A06FF6
:1043D00070D04DEF15F0020E0201A06F6AD031ECE3
:1043E00015F0020166D082EF15F0020E0201A06FF7
:1043F00060D065EC15F002015CD09AEF15F0D3EFB8
:1044000015F0020156D0020154D02DC24DF0020128
:1044100050D01A9E000E1ABE010E0201A26FA36FA9
:104420000001FDEC15F0020144D01A8E000E1ABEF8
:10443000010E0201A26FA36F0001FDEC15F0020155
:1044400038D01A84020135D013EF16F0020131D0B2
:104450003BEF16F002012DD063EF16F0020129D0D8
:104460008BEF16F0020125D0B7D5010E0201A06F27
:1044700020D0CBD5010E0201A06F1BD0F5D5010EC7
:104480000201A06F16D01AD6010E0201A06F11D042
:104490003DD602010ED05AD602010BD08CD6030EA7
:1044A0000201A06F06D0ACD6010E0201A06F01D0B0
:1044B0000201A0C201F00001C4EF22F0F2CF0DF022
:1044C000F29EE824F76AF736E10FF66E440EF72203
:1044D0000A00F550FA6E0800F5500DBEF28EF96E26
:1044E000764388439A43A243AA43B643C243D24386
:1044F000DE43E643F243FA43B044B044B0440644DA
:104500000A44B044B044B044B044B044B04412444F
:104510002A44B044B044424448445044584460445F
:104520006844B04472447C44864490449644B04409
:104530009C44A64402019E6B19B204D09EC201F0B5
:1045400029D028D01AA414D01AB202D01A8203D0CB
:104550001AA201D01A921A94000E1AB2010E9F6F7D
:10456000EB0EA96F9FC2AAF2000135EC08F0020120
:104570001AB206D00001B1EF11F001C09EF20201A3
:104580001AA205D000019CD601C09EF20201199228
:104590009EC201F00001120002019C91B886110E2A
:1045A000AF6E040EB06EA60EAC6E900EAB6E000039
:1045B00000009D9A640EB66F000104EC0DF0460EEB
:1045C0000201546F540E556F430E566F460E576FCF
:1045D000470E586F3B0E596F000118EC0DF09D8A85
:1045E00002019D6B9D51C70812E30001A3DF01503A
:1045F000030804E102019C810AD0000102019D2B05
:10460000010EB66F000104EC0DF00201EBD7000EB5
:104610009CB1010E016E00015DEF34F09D8202013C
:104620009D819E6BEC0ED06F000108EC08F001C07C
:104630009FF202019C53D8A4CBD01F6A1E6A1D6A48
:104640001C6A0001CAEC19F001C040F002019DB1E2
:1046500037D0A06B090EA16F0001CAEC19F001C0A0
:1046600040F04150405C04E1000E016E25D024D0A2
:10467000010E0101FC2740C041F0FC510201A15D87
:1046800018E2A05308E182A803D0010E9F2702D0B0
:10469000010E9F5F07D082A803D0010E9F5F02D05A
:1046A000010E9F270101FC6B010E016E000104D079
:1046B0000201000E016E000102019D9101B09D8179
:1046C0009DB108D0010EB16F00019AEC1CF001C041
:1046D0009EF202019E5309E09E51030801E19F2BC7
:1046E0009E51020801E19F079D819DA14ED0010EC0
:1046F0009F5DF80F4AE2080F00017FEF24F01F6A68
:104700001E6A040E1D6EB00E1C6E02019D813DD00E
:104710001F6A1E6A090E1D6E600E1C6E02019D81CD
:1047200034D01F6A1E6A120E1D6EC00E1C6E02016E
:104730009D812BD01F6A1E6A250E1D6E800E1C6E79
:1047400002019D8122D01F6A1E6A4B0E1D6E1C6ADB
:1047500002019D811AD01F6A1E6A960E1D6E1C6A88
:1047600002019D8112D01F6A1E6AE10E1D6E1C6A35
:1047700002019D810AD01F6A010E1E6EC20E1D6EBF
:104780001C6A02019D8101D002019F5303E1010EC9
:104790009F6F05D09F51080802E2080E9F6F9DA1F0
:1047A00012D0B169B2691FC0B6F21EC0B5F21DC009
:1047B000B4F21CC0B3F2010EB76FB86F000139EC50
:1047C00017F002019D919E510408D8B401D03FD743
:1047D0009F51010A00010FE0030A19E0010A23E0DA
:1047E000070A2DE0010A37E0030A3FE0010A49E029
:1047F0000F0A53E05ED0B886460EAF6E100EB06E54
:10480000A60EAC6E900EAB6E000000005DD0B886B8
:10481000220EAF6E080EB06EA60EAC6E900EAB6E92
:104820000000000051D0B886110EAF6E040EB06EBD
:10483000A60EAC6E900EAB6E0000000045D0B886A0
:10484000080EAF6E020EB06EA60EAC6E900EAB6E82
:104850000000000039D0B896400EAF6EA60EAC6EC8
:10486000900EAB6E000000002FD0B886810EAF6EA8
:10487000000EB06EA60EAC6E900EAB6E0000000087
:1048800023D0B886560EAF6E000EB06EA60EAC6E7C
:10489000900EAB6E0000000017D0B8862A0EAF6EE7
:1048A000000EB06EA60EAC6E900EAB6E0000000057
:1048B0000BD0B886110EAF6E040EB06EA60EAC6EA5
:1048C000900EAB6E000000009FC24CF002019C53A2
:1048D00014E1EC0EA96F9FC2AAF2000135EC08F0BA
:1048E000020E0201B16F0001EDEC16F0C80E0201DC
:1048F000B66F000104EC0DF0020100011200F2CFCE
:104900000DF0F29EE824F76AF736230FF66E490E93
:10491000F7220A00F550FA6E0800F5500DBEF28E2F
:10492000F96EFE46104722473447464756476647CA
:1049300076471BAC08D0030E0201B16F0001EDEC0D
:1049400016F033EF2AF043C0ABF282A604D0040E77
:104950000201AB2700010201AC6BAD6BAE6BAF91F6
:10496000AF93AF95AF974350010A000103E0030AEC
:1049700004E005D044C0A9F202D045C0A9F202016A
:10498000AB2D01D003D0AB51020859E1A951040D60
:10499000F350036AF2CFB1F2F29E0001D7EC02F0BD
:1049A0000900F5CF01F00900F5CF02F00900F5CFBD
:1049B00003F00201B1BFF28E03C09FF202C09EF26B
:1049C00001C09DF29C6FA951090807E1A36BA26B7E
:1049D000C30EA16F500EA06F1ED0010EA925040DAD
:1049E000F350036AF2CFB1F2F29E0001D7EC02F06D
:1049F0000900F5CF01F00900F5CF02F00900F5CF6D
:104A000003F00201B1BFF28E03C0A3F202C0A2F212
:104A100001C0A1F2A06F4350040DF350036A1C0FB4
:104A2000E96E000E0320EA6EEFCFA4F2ECCFA5F200
:104A3000ECCFA6F2ECCFA7F2010EA86FAF85AB5179
:104A40000308D8A462D047C0B2F20001E4EC0AF037
:104A500003C09FF202C09EF201C09DF200C09CF212
:104A600047500E080EE10201B26B0001E4EC0AF0BF
:104A700003C0A3F202C0A2F201C0A1F200C0A0F2E2
:104A800010D0010E47240201B16FB26F0001E4ECB7
:104A90000AF003C0A3F202C0A2F201C0A1F200C05A
:104AA000A0F202019F51A35D14E30BE19E51A25DB0
:104AB00010E307E19D51A15D0CE303E1A0519C5D72
:104AC00008E29FC2A7F29EC2A6F29DC2A5F29CC2B6
:104AD000A4F2A3519F5D14E30BE1A2519E5D10E38C
:104AE00007E1A1519D5D0CE303E19C51A05D08E24B
:104AF000A3C2A7F2A2C2A6F2A1C2A5F2A0C2A4F2CA
:104B000047C0AAF2010EA86FAF85AB51040804E0BC
:104B1000AB510808D8A48ED059C0AAF259C0AEF241
:104B20005AC0ADF2020EA86F1BB47BD0B66B5AC050
:104B3000B5F2B86BA40EB76F000175EC0AF002C0B5
:104B4000B2F201C0B1F202C003F002010150F2CF93
:104B5000B3F2F29E02C0F7FF000182EC03F0006E98
:104B60000900F5CF01F00900F5CF02F00900F5CFFB
:104B700003F00201B3BFF28E03C0B6F202C0B5F279
:104B800001C0B4F2B36FB3530DE1B4530BE1B553AD
:104B900009E1B65307E15A50060802E35A2A01D048
:104BA0005A6AC4D75950010802E3010E596E595090
:104BB000270802E2280E596EB66B5AC0B5F2B86BE0
:104BC000A40EB76F000175EC0AF002C0B2F201C08A
:104BD000B1F20201B66B59C0B5F2B86B040EB76FF3
:104BE000000175EC0AF002C003F001500201B1258A
:104BF000016EB25103220150F2CFB1F2F29E03C016
:104C0000F7FF000182EC03F0006E0900F5CF01F020
:104C10000900F5CF02F00900F5CF03F00201B1BFA2
:104C2000F28E03C0A7F202C0A6F201C0A5F200C036
:104C3000A4F2AF85AB51070815E147C0AAF247C0FF
:104C4000AEF2010EA86F47C0B2F20001E4EC0AF028
:104C500003C0A7F202C0A6F201C0A5F200C0A4F2F0
:104C60000201AF95AB51050803E0AB5106084EE1D8
:104C7000A951040DF350036AF2CFB1F2F29E000184
:104C8000D7EC02F00900F5CF01F00900F5CF02F0F2
:104C90000900F5CF03F00201B1BFF28E03C09FF20D
:104CA00002C09EF201C09DF29C6FA951040DF35009
:104CB000036AF2CFB1F2F29E00015FEC03F009004B
:104CC000F5CF01F00900F5CF02F00900F5CF03F0B0
:104CD0000201B1BFF28E03C0A3F202C0A2F201C072
:104CE000A1F2A06F4350040DF350036A1C0FE96E4C
:104CF000000E0320EA6EEFCFA4F2ECCFA5F2ECCFCA
:104D0000A6F2ECCFA7F2010EA86FAF85A0519C5D73
:104D100012E1A1519D5D0FE1A2519E5D0CE1A351F5
:104D20009F5D09E11898020EB16F0001EDEC16F0DD
:104D300033EF2AF002019F51A35D0DE30BE19E5179
:104D4000A25D09E307E19D51A15D05E303E1A051E7
:104D50009C5D01E21B82A3519F5D0DE30BE1A2511B
:104D60009E5D09E307E1A1519D5D05E303E19C51CF
:104D7000A05D01E21B92AF9919A805D0AFB902D08E
:104D8000AC2BAF8904D0AC3D01D0AC6BAF99AFA5D3
:104D900004D0AF9719B8AF8701D0AF87A851010AE7
:104DA000000103E0030A30E05AD0000E0201AFB761
:104DB000010E010A000103E0010A14E024D043C0FF
:104DC000B1F20201B269A7C2B6F2A6C2B5F2A5C29B
:104DD000B4F2A4C2B3F2AAC2B7F2B86B000139ECC4
:104DE00017F011D00201B169B269A7C2B6F2A6C22A
:104DF000B5F2A5C2B4F2A4C2B3F2AAC2B7F2B86BBC
:104E0000000139EC17F02BD0000E0201AFB7010EF4
:104E1000010A000103E0010A12E020D0030E0201A2
:104E2000B16FB269B66BB56BB46BAAC2B3F20F0EB9
:104E3000B76F020EB86F000139EC17F00FD0020106
:104E4000B169B269B66BB56BB46BAAC2B3F20F0E9F
:104E5000B76F020EB86F000139EC17F000D00201F5
:104E6000B1696650A75D14E30BE16550A65D10E3E0
:104E700007E16450A55D0CE303E1A451635C08E223
:104E800066C0A7F265C0A6F264C0A5F263C0A4F232
:104E9000A751625C14E30BE1A651615C10E307E1EA
:104EA000A551605C0CE303E15F50A45D08E262C0C1
:104EB000A7F261C0A6F260C0A5F25FC0A4F2A7C2CB
:104EC000B9F2A6C2B8F2A5C2B7F2A4C2B6F2BA6BE2
:104ED000B1C2BBF20001E0EC19F083A401D01B8841
:104EE000010E0201B16F00019AEC1CF001C0B0F29A
:104EF0001BB88BD00201AB51040A00014EE0030A3B
:104F0000D8B45CD00F0AD8B469D000D000D000006B
:104F10001BA220D00201A351A75D15E30BE1A25112
:104F2000A65D11E307E1A151A55D0DE303E1A451E5
:104F3000A05D09E29FC2A7F29EC2A6F29DC2A5F2A1
:104F40009CC2A4F206D0020EA427000EA523A6231D
:104F5000A72300011BB220D00201A751A35D15E3D6
:104F60000BE1A651A25D11E307E1A551A15D0DE39F
:104F700003E1A051A45D09E29FC2A7F29EC2A6F27E
:104F80009DC2A5F29CC2A4F206D0020EA45F000E40
:104F9000A55BA65BA75B000138D0320E0201B66F9D
:104FA000000104EC0DF00201AA51270802E3AA2B2C
:104FB00002D0010EAA6FAF81000127D0C80E0201F6
:104FC000B66F000104EC0DF00201AA510D0802E3D6
:104FD000AA2B01D0AA6BAF83000117D0320E0201B9
:104FE000B66F000104EC0DF00201AA51270802E39C
:104FF000AA2B09D05A50060803E3010E5A2601D005
:105000005A6A010EAA6FAF8100011BA887D0020166
:10501000B0510B0806E0B051030803E0B05121087D
:1050200033E14350040A00010CE0030A14E00F0AC4
:105030001BE00A0E0201A427000EA523A623A72326
:1050400023D00201AA51270802E3AA2B02D0010EA5
:10505000AA6FAF8119D00201AA510D0802E3AA2B51
:1050600001D0AA6BAF8310D00201AA51270802E336
:10507000AA2B0AD05A50060803E3010E5A2601D083
:105080005A6A010EAA6FAF81B0510C0806E0B05108
:10509000020803E0B051200833E14350040A000144
:1050A0000CE0030A14E00F0A1BE00A0E0201A45FE1
:1050B000000EA55BA65BA75B23D00201AA510108E5
:1050C00002E2AA0702D0280EAA6FAF8119D002010E
:1050D000AA5302E0AA0702D00E0EAA6FAF8310D027
:1050E0000201AA51010802E2AA070AD05A5203E0BB
:1050F000010E5A5E02D0070E5A6E280EAA6FAF81BB
:10510000B05302E183A401D0AC6BAC51030805E2BB
:1051100083B401D01B98040EAC6F00010201AFA153
:1051200086D01BB47BD0B66B5AC0B5F2B86BA40E58
:10513000B76F000175EC0AF002C0B2F201C0B1F223
:1051400002C003F002010150F2CFB3F2F29E02C09E
:10515000F7FF000182EC03F0006E0900F5CF01F0CB
:105160000900F5CF02F00900F5CF03F00201B3BF4B
:10517000F28E03C0B6F202C0B5F201C0B4F2B36F52
:10518000B3530DE1B4530BE1B55309E1B65307E155
:105190005A50060802E35A2A01D05A6AC4D7AA51C3
:1051A000010802E3010EAA6FAA51270802E2280EA5
:1051B000AA6FB66B5AC0B5F2B86BA40EB76F0001F8
:1051C00075EC0AF002C0B2F201C0B1F20201B66B96
:1051D000AAC2B5F2B86B040EB76F000175EC0AF005
:1051E00002C003F001500201B125016EB251032249
:1051F0000150F2CFB1F2F29E03C0F7FF000182EC42
:1052000003F0006E0900F5CF01F00900F5CF02F0C0
:105210000900F5CF03F00201B1BFF28E03C0A7F27F
:1052200002C0A6F201C0A5F200C0A4F2AF91AFA3E4
:105230000FD0AAC2B2F20001E4EC0AF003C0A7F258
:1052400002C0A6F201C0A5F200C0A4F20201AF9311
:1052500018B80BD000010EEC0EF0C80E0201B66FAC
:10526000000104EC0DF003D0020186D5000183A4F7
:105270001CD043500408D8B4AAC259F043500308C4
:10528000D8B4AAC247F04350040DF350036A1C0F70
:10529000E96E000E0320EA6EA4C2EFFFA5C2ECFF88
:1052A000A6C2ECFFA7C2ECFFA0D043500408D8A4CC
:1052B0008BD0AEC259F0ADC25AF01BB47DD0020102
:1052C000B66B5AC0B5F2B86BA40EB76F000175EC9F
:1052D0000AF002C0B2F201C0B1F202C003F0020152
:1052E0000150F2CFB3F2F29E02C0F7FF000182EC50
:1052F00003F0006E0900F5CF01F00900F5CF02F0D0
:105300000900F5CF03F00201B3BFF28E03C0B6F27D
:1053100002C0B5F201C0B4F2B36FB3530DE1B453A0
:105320000BE1B55309E1B65307E15A50060802E311
:105330005A2A01D05A6AC4D75950010802E3010E13
:10534000596E5950270802E2280E596EB66B5AC0A2
:10535000B5F2B86BA40EB76F000175EC0AF002C08D
:10536000B2F201C0B1F20201B66B59C0B5F2B86B2E
:10537000040EB76F000175EC0AF002C003F0015093
:105380000201B125016EB25103220150F2CFB1F2F8
:10539000F29E03C0F7FF000182EC03F0006E0900EB
:1053A000F5CF01F00900F5CF02F00900F5CF03F0C9
:1053B0000201B1BFF28E000103C0A7F202C0A6F243
:1053C00001C0A5F200C0A4F2435003080EE1AEC232
:1053D00047F047C0B2F2E4EC0AF003C0A7F202C003
:1053E000A6F201C0A5F200C0A4F20201B1696650A4
:1053F000A75D14E30BE16550A65D10E307E164507F
:10540000A55D0CE303E1A451635C08E266C0A7F26A
:1054100065C0A6F264C0A5F263C0A4F2A751625CA5
:1054200014E30BE1A651615C10E307E1A551605C58
:105430000CE303E15F50A45D08E262C0A7F261C023
:10544000A6F260C0A5F25FC0A4F2A7C2B9F2A6C2DC
:10545000B8F2A5C2B7F2A4C2B6F2BA6BB1C2BBF23F
:105460000001E0EC19F0B7EF34F01A9683B61A8613
:105470001ABE02D01AA613D01AAE08D01AB606D099
:10548000010E0201A36F0001FDEC15F01ABE07D05A
:105490001AA605D00201A36B0001FDEC15F0FCEF8C
:1054A00034F04350030A43E019AC21D01A9E435014
:1054B000040DF350036A1C0FE96E000E0320EA6E20
:1054C000010EEF24006E000EEC20016E000EEC20A9
:1054D000026E000EEC20036EED52ED52ED5200C054
:1054E000EFFF01C0ECFF02C0ECFFEC6E1FD0435099
:1054F000040DF350036A1C0FE96E000E0320EA6EE0
:105500000A0EEF24006E000EEC20016E000EEC205F
:10551000026E000EEC20036EED52ED52ED5200C013
:10552000EFFF01C0ECFF02C0ECFFEC6E12D0475061
:105530000D0802E3472A01D0476A47C0B2F2E4EC03
:105540000AF003C02BF002C02AF001C029F000C00D
:1055500028F0C2EF32F04350030A43E019AC21D0E7
:105560001A9E4350040DF350036A1C0FE96E000E9F
:105570000320EA6E010EEF5C006E000EEC58016E27
:10558000000EEC58026E000EEC58036EED52ED5218
:10559000ED5200C0EFFF01C0ECFF02C0ECFFEC6E6B
:1055A0001FD04350040DF350036A1C0FE96E000E28
:1055B0000320EA6E0A0EEF5C006E000EEC58016EDE
:1055C000000EEC58026E000EEC58036EED52ED52D8
:1055D000ED5200C0EFFF01C0ECFF02C0ECFFEC6E2B
:1055E00012D0475202E0470602D00E0E476E47C067
:1055F000B2F2E4EC0AF003C02BF002C02AF001C0C2
:1056000029F000C028F0C6EF32F04350010A03E051
:10561000030A08E00DD0010E0201A86F0001FFECA3
:105620000EF006D0020E0201A86F0001FFEC0EF092
:10563000CCEF32F01A8E4350040DF350036A1C0F66
:10564000E96E000E0320EA6E6F0EEF24006E000E6E
:10565000EC20016E000EEC20026E000EEC20ED52EC
:10566000ED52ED5200C0EFFF01C0ECFF02C0ECFFB5
:10567000EC6ED0EF32F01A8E4350040DF350036AF3
:105680001C0FE96E000E0320EA6E6F0EEF5C006ED9
:10569000000EEC58016E000EEC58026E000EEC5835
:1056A000ED52ED52ED5200C0EFFF01C0ECFF02C021
:1056B000ECFFEC6ED4EF32F01A8E4350040DF35031
:1056C000036A1C0FE96E000E0320EA6E0A0EEF2437
:1056D000006E000EEC20016E000EEC20026E000E3B
:1056E000EC20ED52ED52ED5200C0EFFF01C0ECFF97
:1056F00002C0ECFFEC6ED8EF32F01A8E4350040D6E
:10570000F350036A1C0FE96E000E0320EA6E0A0EC6
:10571000EF5C006E000EEC58016E000EEC58026E4D
:10572000000EEC58ED52ED52ED5200C0EFFF01C0FB
:10573000ECFF02C0ECFFEC6EDCEF32F01BBC08EFBC
:105740002FF054EC11F00150040DF350036A1C0FBC
:10575000E96E000E0320EA6EEFCF1CF0ECCF1DF0D7
:10576000ECCF1EF0ECCF1FF054EC11F001C0A7F20B
:1057700001C0B1F20201B2691FC0B6F21EC0B5F29B
:105780001DC0B4F21CC0B3F2B769B86B000139ECAC
:1057900017F00EEC0EF01FC0C3F21EC0C2F21DC007
:1057A000C1F21CC0C0F2C3C2C7F2C2C2C6F2C1C2BB
:1057B000C5F2C0C2C4F202019E6BC7530DE1C651CF
:1057C0000E0815E2FF0A08E1C551410810E2FF0A80
:1057D00003E1C4513F080BE2400EC45F420EC55BBB
:1057E0000F0EC65B000EC75B010E9E27E6D79F6BB0
:1057F000C7530DE1C651000815E2FF0A08E1C55183
:10580000850810E2FF0A03E1C4519F080BE2A00ED5
:10581000C45F860EC55B010EC65B000EC75B010E42
:105820009F27E6D7A06BC7530AE1C65308E1C551CD
:1058300026080FE2FF0A03E1C4510F080AE2100E26
:10584000C45F270EC55B000EC65BC75B010EA027B9
:10585000EAD7A16BC7530AE1C65308E1C551020854
:105860000FE2FF0A03E1C451E7080AE2E80EC45F51
:10587000030EC55B000EC65BC75B010EA127EAD70E
:10588000A26BC75307E1C65305E1C55303E1C451F9
:10589000630809E2640EC45F000EC55BC65BC75BAC
:1058A000010EA227EED7A36BC75307E1C65305E14C
:1058B000C55303E1C451090809E20A0EC45F000E92
:1058C000C55BC65BC75B010EA327EED7A46BC753AE
:1058D00007E1C65305E1C55303E1C451000809E2DD
:1058E000010EC45F000EC55BC65BC75B010EA4273B
:1058F000EED7010EA56FA66B83B204D082AA02D0A8
:1059000082BC03D0010EA56FF7D7A551070832E17D
:10591000000E19B8010E010A000103E0010A16E0A9
:1059200027D00A0E0201A525A76F43C0B1F2B269C4
:105930001FC0B6F21EC0B5F21DC0B4F21CC0B3F257
:10594000B769B86F000139EC17F012D043C0B1F25B
:105950000201B2691FC0B6F21EC0B5F21DC0B4F29A
:105960001CC0B3F2B7690A0EB86F000139EC17F02A
:1059700031D00201000E19B8010E010A000103E046
:10598000010A16E027D00A0E0201A525A76F43C021
:10599000B1F2B2691FC0B6F21EC0B5F21DC0B4F2BA
:1059A0001CC0B3F2B769B86F000139EC17F012D020
:1059B00043C0B1F20201B2691FC0B6F21EC0B5F217
:1059C0001DC0B4F21CC0B3F2B769090EB86F000174
:1059D00039EC17F0010E0201B16F00019AEC1CF0D6
:1059E00001C0A6F20201A65301E01998A6510608CB
:1059F00003E0A6510D0807E1A551060802E3A52B17
:105A000002D0010EA56FA65103080AE0A6510B08AB
:105A100007E0A651210804E0A6511008D8A4A8D098
:105A2000010EA55DF90FD8B0A3D0070F000109EF53
:105A30002FF002019E5103080AE29E6B400E1C26C5
:105A4000420E1D220F0E1E22000E1F220AD0010E32
:105A50009E27400E1C26420E1D220F0E1E22000EF7
:105A60001F2286D002019F5109080AE29F6BA00EF7
:105A70001C26860E1D22010E1E22000E1F220AD099
:105A8000010E9F27A00E1C26860E1D22010E1E222F
:105A9000000E1F226DD00201A051090809E2A06B7F
:105AA000100E1C26270E1D22000E1E221F2209D0BA
:105AB000010EA027100E1C26270E1D22000E1E22EE
:105AC0001F2256D00201A151090809E2A16BE80E7C
:105AD0001C26030E1D22000E1E221F2209D0010EBD
