:020000040000FA
:10000000F9EF01F0FFFFFFFF84EF02F000000000B6
:1000100000000000000000008CEF02F01000030E52
:100020007E5E09E3EA6A7E0EE96EEF5004E001D0DD
:1000300000D0EF2EFDD728EF00F09EA8FED77C5011
:10004000AD6EACA2FED7020E7D6ECF0E7E6EE7D7F0
:100050007D2EFBD712009EAAFED7ABCF06F0AECF07
:1000600001F006A202D0AB98AB881200EA6A4A0EF1
:10007000E96EEF500DE0060E016E006A002EFED70D
:10008000012EFBD77B0E006E002EFED7EF2EF3D78E
:100090001200826B836B835101082BE381C003F054
:1000A00080C0E9FF81C0EAFFEF50400810E28251B2
:1000B000100DF3CF84F081C003F080C0E9FF81C050
:1000C000EAFFEF508425BF0F0A0F826F0CD08251D8
:1000D000100DF3CF84F080C0E9FF81C0EAFFEF503C
:1000E0008425D00F826F8351832B802BD8B4812B32
:1000F000D2D782C001F01200F250036EF29EA68E9B
:10010000A6840F01550EA76EAA0EA76EA682000048
:100110000350F21200011200D08CA69CF650070B7F
:10012000006EF80EF6160A007CC001F0006608D0DA
:10013000F650010F3F0B04E1A6880900DDDF0A003D
:10014000006607D0EECFF5FF015204E00F00010674
:1001500003D000060B000C00070EF614070AE6E1B8
:10016000CBDF0166E3D7F86AE8EF01F04A92506A04
:100170004F6A4AB236D1086A036A0850090FE96E1D
:10018000000E0320EA6EEACF7FF0E9CF7EF063DF56
:100190007FC0EAFF7EC0E9FF01C0EFFF0850082AD8
:1001A000036A090FE96E000E0320EA6EEF500D0896
:1001B00003E008504008E0E2130E7C6E3EDF4A8008
:1001C00009503A08D8A404D1816B0A0E806F61DF10
:1001D00001C05BF0816B0C0E806F5BDF01C07CF0B7
:1001E000816B0E0E806F55DF7CC04EF001C04DF06C
:1001F000816B100E806F4DDF01C04CF04FC053F08B
:1002000050C054F04DC051F04EC052F04B6A010E38
:100210005A6E030E085C5A5C14E2036A5A50090FC6
:10022000016E000E032201C07CF003C07DF003C00C
:1002300081F001C080F02DDF01504B26020E5A26BE
:10024000E8D7FF0ED8804B54010F4B6E030E085CAD
:10025000036A090F016E000E032201C07CF003C087
:100260007DF003C081F001C080F013DF01504B5CD2
:1002700002E04A90ADD04C2C02D04A82A9D04C501A
:10028000040811E1816B120E806F03DF01C07CF066
:10029000816B140E806FFDDE01C07DF07CC050F0DC
:1002A00001C04FF095D04C52D8A492D0545206E1E0
:1002B000535204E152500408D8B08AD05452D8A402
:1002C00087D05352D8A484D052507F08D8A080D071
:1002D000090E5A6E596A030E085C5A5C23E25950A3
:1002E000592A036A5C0F016E000E032201C07CF0E4
:1002F00003C07DF0036A5A50090F016E000E0322FD
:1003000001C07EF003C07FF003C081F001C080F027
:10031000C0DE7DC0EAFF7CC0E9FF01C0EFFF020E36
:100320005A26D9D75550515C09E15650525C06E126
:100330005750535C03E15850545C32E055503F0B2A
:10034000006E016A026A036A400ED8800056000EF1
:10035000015602560356555000265650012257505A
:100360000222585003220350545C1AE30BE102505E
:10037000535C16E307E10150525C12E303E1515074
:10038000005C0EE251503F0B7C6E7D6A7E6A7F6A94
:100390007C5206E17D5204E17E5202E17F5200E090
:1003A0005B505124556E000E5220566E000E5320A5
:1003B000576E000E5420586E53C0F8FF52C0F7FF1E
:1003C00051C0F6FFEA6A5C0EE96E5BC07CF0A4D611
:1003D0004AA003D0060E7C6E30DE110E7C6E2DDE40
:1003E000C8D6040E7C6E29DEF7EF01F0BFD654EFBD
:1003F00002F0F86AD09E066A400EAF6EA20EAC6E96
:10040000900EAB6EC180C182C184C196C290010EB4
:10041000926E000E936EFF0E946E956E969096926D
:100420009694806A0790079283A03BD007B039D09A
:1004300007B037D082A607D00A0EAF6EA60EAC6EFC
:10044000900EAB6E06D0400EAF6EA20EAC6E900E4C
:10045000AB6E07B204D0310E7C6EEFDD03D0320EEE
:100460007C6EEBDD9EAA1CD0F6DD01C049F0495040
:10047000410801E10780495042080EE107B202D06D
:10048000078201D00792020E806E140E4A6EEEDDD6
:10049000806A0A0E4A6EEADD9EAA02D0DCDDFCD735
:1004A000C7D707A018D0A2D707A214D0F250006E69
:1004B000F29EA968A868A69CA69EA6840F01550E68
:1004C000A76EAA0EA76EA682A6B2FED7A69400506B
:1004D000F2120001FF0014D80300FFFFFFFFFFFF2F
:1004E000FFFFFFFFFFFFFFFFFFFFFFFFFFFFFFFF1C
:1004F000FFFFFFFFFFFFFFFFFFFFFFFFFFFFFFFF0C
:1005000019EF33F0FFFFFFFF046ED8CF05F0E0CF07
:1005100006F00001E9CF0CF0EACF07F0E1CF08F0D8
:10052000E2CF09F0D9CF0AF0DACF0BF0F3CF12F017
:10053000F4CF13F0FACF14F000C00EF001C00FF0AA
:1005400002C010F003C011F09DA0AAEF02F09EB00F
:1005500085EF07F09DA2B0EF02F09EB2CFEF06F05C
:100560009DAAB6EF02F09EBA12EF07F00EC000F09F
:100570000FC001F010C002F011C003F00CC0E9FF81
:1005800007C0EAFF078E08C0E1FF09C0E2FF0AC00A
:10059000D9FF0BC0DAFF12C0F3FF13C0F4FF14C081
:1005A000FAFF045006C0E0FF05C0D8FF1000F2CFEC
:1005B0000DF0F29EF76AC80FF66E050EF7220900DD
:1005C000F5500DBEF28E120050C3000020BF020095
:1005D0003057050060AE0A0050690F00C05C15007E
:1005E00040771B00200B2000009F240080B92A00C8
:1005F000C0C62D00F2CF0DF0F29EF76A0E0FF66E18
:10060000060EF7220900F5500DBEF28E1200494485
:10061000020141490302444E02035550020446417F
:1006200002054642020646410D0746420D08464E67
:1006300003094652030A4652020B4654030C465421
:10064000020D4946020E4945030F4C4B02104C4B1C
:1006500003114D4305124D4403134D5206144D57DB
:10066000171552430216524402175255021852549B
:1006700003195258021A5458021B5343031C535077
:10068000031D5941021E3141031F314203203143F2
:1006900003213144072231450223324103253242EE
:1006A00004263243032732440328324503293330DA
:1006B000022B3331022C0000000000000000F2CFBA
:1006C0000DF0F29EF76AD80FF66E060EF7220900BB
:1006D000F5500DBEF28E120000710200400D0300B5
:1006E00060CC050080FC0A0060900F0078E51500E2
:1006F00060C51B00E8BA2000A0252600C0C62D005A
:10070000C0C62D00F2CF0DF0F29E1C0FF66E070E44
:10071000F7220900F5500DBEF28E12000100000014
:10072000DC152700C4192700AC1D27007C252700F5
:10073000642927004C2D2700343127000439270075
:10074000EC3C2700D4402700BC4427008C4C2700F9
:10075000745027005C542700445827001460270079
:10076000FC632700E4672700CC6B27009C732700FD
:10077000847727006C7B2700547F27003C83270069
:10078000248727000C8B2700F48E2700DC9227009B
:10079000C4962700AC9A2700949E27007CA22700CD
:1007A00064A627004CAA270034AE27001CB22700FD
:1007B00004B62700ECB92700D4BD2700BCC1270030
:1007C00001000000A4C527008CC9270074CD2700B4
:1007D00044D527002CD9270014DD2700FCE0270092
:1007E000CCE82700B4EC27009CF0270084F4270015
:1007F00054FC27003C002800240428000C08280092
:10080000DC0F2800C4132800AC172800941B280014
:10081000642328004C272800342B28001C2F280094
:1008200004332800EC362800D43A2800BC3E2800C7
:10083000A44228008C462800744A28005C4E2800F8
:10084000445228002C562800145A2800FC5D280029
:10085000E4612800CC652800B46928009C6D28005C
:1008600084712800010000006C752800547928006C
:100870003C7D28000C852800F4882800DC8C2800AA
:10088000C4902800949828007C9C280064A028002C
:100890004CA428001CAC280004B02800ECB32800AD
:1008A000D4B72800A4BF28008CC3280074C7280030
:1008B0005CCB28002CD3280014D72800FCDA2800B1
:1008C000B4E62800E4DE2800CCE228009CEA2800F8
:1008D00084EE28006CF2280054F628003CFA280028
:1008E00024FE28000C022900F4052900DC09290057
:1008F000C40D2900AC112900941529007C19290088
:10090000641D29004C212900010000003425290024
:100910001C292900042D2900D4342900BC382900C1
:10092000A43C29008C4029005C482900444C290043
:100930002C50290014542900E45B2900CC5F2900C5
:10094000B46329009C6729006C6F29005473290047
:100950003C772900247B2900F4822900DC862900C9
:10096000C48A29007C962900AC8E29009492290023
:10097000649A29004C9E290034A229001CA6290053
:1009800004AA2900ECAD2900D4B12900BCB5290086
:10099000A4B929008CBD290074C129005CC52900B7
:1009A00044C929002CCD290014D1290001000000E0
:1009B000FCD42900E4D82900CCDC29009CE42900DF
:1009C00084E829006CEC290054F0290024F829005F
:1009D0000CFC2900F4FF2900DC032A00AC0B2A00E0
:1009E000940F2A007C132A0064172A00341F2A005F
:1009F0001C232A0004272A00EC2A2A00BC322A00E1
:100A0000A4362A008C3A2A0044462A00743E2A0062
:100A10005C422A002C4A2A00144E2A00FC512A006B
:100A2000E4552A00CC592A00B45D2A009C612A00B2
:100A300084652A006C692A00546D2A003C712A00E2
:100A400024752A000C792A00F47C2A00DC802A0014
:100A500001000000C4842A00AC882A00948C2A007B
:100A600064942A004C982A00349C2A001CA02A0076
:100A7000ECA72A00D4AB2A00BCAF2A00A4B32A00FA
:100A800074BB2A005CBF2A0044C32A002CC72A007A
:100A9000FCCE2A00E4D22A00CCD62A00B4DA2A00FE
:100AA00084E22A006CE62A0054EA2A000CF62A00A6
:100AB0003CEE2A0024F22A00F4F92A00DCFD2A0088
:100AC000C4012B00AC052B0094092B007C0D2B00DE
:100AD00064112B004C152B0034192B001C1D2B000E
:100AE00004212B00EC242B00D4282B00BC2C2B0041
:100AF000A4302B00010000008C342B0074382B0034
:100B00005C3C2B002C442B0014482B00FC4B2B008E
:100B1000E44F2B00B4572B009C5B2B00845F2B0011
:100B20006C632B003C6B2B00246F2B000C732B0091
:100B3000F4762B00C47E2B00AC822B0094862B0015
:100B40007C8A2B004C922B0034962B001C9A2B0095
:100B5000D4A52B00049E2B00ECA12B00BCA92B00DC
:100B6000A4AD2B008CB12B0074B52B005CB92B000D
:100B700044BD2B002CC12B0014C52B00FCC82B003E
:100B8000E4CC2B00CCD02B00B4D42B009CD82B0071
:100B900084DC2B006CE02B0001000000BD1D2A004E
:100BA000A5212A008D252A0075292A005D2D2A00FD
:100BB00045312A002D352A0015392A00FD3C2A002E
:100BC000E5402A00CD442A00B5482A009D4C2A0061
:100BD00085502A006D542A0055582A003D5C2A0091
:100BE00025602A000D642A00F5672A00DD6B2A00C3
:100BF000C56F2A00AD732A0095772A007D7B2A00F5
:100C0000657F2A004D832A0035872A001D8B2A0024
:100C1000058F2A00ED922A00D5962A00BD9A2A0057
:100C2000A59E2A008DA22A0075A62A005DAA2A0088
:100C300045AE2A002DB22A0015B62A00F2CF0DF0DB
:100C4000F29EF76A560FF66E0C0EF7220900F55069
:100C50000DBEF28E1200F0490200400D0300305725
:100C60000500801A060060AE0A00B0710B00404219
:100C70000F0090051000C05C150010201600407792
:100C80001B00903A1C00200B200070CE2000009F1B
:100C90002400F0E8260080B92A00C0C62D0000001C
:100CA00000000000000082B403D001017581000142
:100CB00082A40DD001017453D8A402D0000107D042
:100CC00075B102D0000103D07591740700010101D4
:100CD00074535EE1036A7651670FE96E010E0320DB
:100CE000EA6EEF500F0BE8A08494E8B08484036AA6
:100CF0007651670FE96E010E0320EA6ED890EF304F
:100D00000F0BE8A08492E8B08482036A7651670FE3
:100D1000E96E010E0320EA6EEF30006E00323F0EE6
:100D2000001600500F0BE8A08490E8B08480036A9E
:100D30007651670FE96E010E0320EA6EEF30006E08
:100D4000003200321F0E001600500F0BE8A0809AF0
:100D5000E8B0808A82A416D080880201DA6BDA516A
:100D60000F0808E3DA2B070E006E002EFED700D026
:100D70000000F5D7DA6B8098010176510C0802E388
:100D8000010E762782B403D0766B010E746F04D007
:100D9000849484928490809A0001D0EF06F083D7E7
:100DA0009E929E92B6EF02F09EAAFED7ABCF17F0AE
:100DB000AECF01F017A202D0AB98AB881200030EA1
:100DC0000201DE5F0AE3020EEA6EDE0EE96EEF500C
:100DD00004E001D000D0EF2EFDD7000112009EA844
:100DE000FED70201DC51AD6EACA2FED7020EDD6F64
:100DF000CF0EDE6F0001E3DF0201DD2FF9D7000126
:100E000012000900F5520CE0F6CFDAF2F7CFDBF270
:100E1000F5CFDCF2E4DFDAC2F6FFDBC2F7FFF1D791
:100E20005BEF07F019B231D09EAA2FD0BDDF01C011
:100E300028F2036A02015151290FE96E020E0320C4
:100E4000EA6E28C2EFFF1AB20DD028513B0803E129
:100E5000516B19821A845151040803E1516B1982B4
:100E600001D0512B1AA210D028513B0803E1516B3D
:100E7000198201D0512B5151050806E1285105086E
:100E800003E1516B19821A84000119A229D09EAA8C
:100E900001D08ADF02012951310821E12A51460897
:100EA0001EE12B513B081BE19D92E60EF66E0E0EE5
:100EB000F76E0001A6D70D0E0201DC6F00018FDF77
:100EC0000A0E0201DC6F00018ADF1B8C0201516BEC
:100ED00019923D6A640E3C6E82B4FED79D82000179
:100EE0009E9AB6EF02F03146323B00000201DA5121
:100EF000010A000104E0030A05E0806A05D00A0E39
:100F0000806E02D00E0E806E1200493C01D002D0DD
:100F1000492A01D0496A49A402D0198801D01998F8
:100F20001AAE07D018AC05D0020E0201DA6F00012C
:100F3000DDDF1AAE07D018BC05D0020E0201DA6F51
:100F40000001D4DF1ABE06D018BC04D00201DA6B4F
:100F50000001CCDF1ABE07D018AC05D0010E02018B
:100F6000DA6F0001C3DF9E909E90B6EF02F0C29050
:100F7000010E926E000E936EFF0E946E956E96901B
:100F800096929694186A196A1A6A1B6AB50ECD6E03
:100F9000000E0609CA6E770ECB6E9E909E929D80C3
:100FA0009D829D8AC00EF212806ACAEF33F0F2CFA2
:100FB000D9F2F29ED8C2A9FFA69CA69EA680A850F0
:100FC0000201D9BFF28E016E00011200CEC2D8F22A
:100FD000EEDF01501200036A0201BE51670FE96E95
:100FE000000E0320EA6EBFC2EFFF00011200F250B4
:100FF000006EF29EBCC2A9FFBDC2A8FFA69CA69E21
:10100000A6840F01550EA76EAA0EA76EA682A6B2E1
:10101000FED7A6940050F212BCC2BEF2BDC2BFF20F
:101020000001D9DF1200F2CFAAF2F29EA7C2A9FFF7
:10103000A69CA69EA680A8500201AABFF28EA96F08
:10104000A851A95DD8B407D0A7C2BCF2A8C2BDF20E
:101050000001CDDF0201000112000201B76BB66B87
:10106000B56BB46BAF51040DF3CFB8F2B96BB95196
:1010700003081CE3020EBB6FB40EBA6FB951BA2558
:10108000016E000EBB21036E01C0BAF2BB6FB951F5
:10109000B825BC6FD86F00018ADFBBC2EAFFBAC2B5
:1010A000E9FF01C0EFFF0201B92BE1D7B451B05DF8
:1010B0000AE1B551B15D07E1B651B25D04E1B75146
:1010C000B35DD8B41FD0B96BB95103081BE3B95154
:1010D000B825BA6F020EBC6FB00EBB6FB951BB25FD
:1010E000016E000EBC21036E01C0E9FFEA6EEFCF76
:1010F000BBF2BAC2BCF2BBC2BDF2000178DF020192
:10110000B92BE2D7000112000201A26BA23D01D06F
:1011100008D0A2C2A7F2A86B000185DF0201A22BB2
:10112000F5D7A26BA2510E080EE3A2C2AFF2B36BC9
:101130000A0EB26FAE0EB16F600EB06F00018DDFA0
:101140000201A22BEFD70F0EA26FA25119080BE3D9
:10115000A2C2AFF2B36BB26BB16BB06B00017DDFBB
:101160000201A22BF2D71A0EA26FA25124082DE37E
:101170001A0EA25D040DF350036AF2CFA3F2F29EA1
:101180000001D7EC02F0006E0900F5CF01F0090074
:10119000F5CF02F00900F5CF03F00201A3BFF28EF4
:1011A00003C0A6F202C0A5F201C0A4F2A36FA2C2BE
:1011B000AFF203C0B3F202C0B2F201C0B1F2B06F3D
:1011C00000014BDF0201A22BD0D7250EA26FA25146
:1011D0002F082DE3250EA25D040DF350036AF2CF14
:1011E000A3F2F29E0001D7EC02F0006E0900F5CFE9
:1011F00001F00900F5CF02F00900F5CF03F002017C
:10120000A3BFF28E03C0A6F202C0A5F201C0A4F2F1
:10121000A36FA2C2AFF203C0B3F202C0B2F201C028
:10122000B1F2B06F000119DF0201A22BD0D7300E4E
:10123000AF6FB36BB26B050EB16FDC0EB06F000118
:101240000CDF310E0201AF6FB36BB26BB16B1E0ED0
:10125000B06F000102DF320E0201AF6FB36BB26BF1
:10126000270EB16F100EB06F0001F7DE330E0201D2
:10127000AF6FB36B300EB26FD40EB16FB06B0001B5
:10128000ECDED00E0201A76F010EA86F0001CBDECD
:10129000D10E0201A76F010EA86F0001C4DED20EAD
:1012A0000201A76F020EA86F0001BDDED30E02017E
:1012B000A76F030EA86F0001B6DED40E0201A76F60
:1012C000040EA86F0001AFDED50E0201A76F050E58
:1012D000A86F0001A8DED60E0201A76F060EA86F48
:1012E0000001A1DED70E0201A76F070EA86F000153
:1012F0009ADED80E0201A76F080EA86F000193DED8
:10130000D90E0201A76F090EA86F00018CDEE10E55
:101310000201A76F030EA86F000185DEE20E020135
:10132000A76F030EA86F00017EDEE30E0201A76F18
:10133000030EA86F000177DEE00E0201A76F010E19
:10134000A86F000170DEE80E0201A76FA86B000114
:101350006ADEE90E0201A76FA86B000164DEEC0EE5
:101360000201A76F030EA86F00015DDEEA0E020105
:10137000A76F010EA86F000156DEED0E0201A76FE8
:10138000010EA86F00014FDEEE0E0201A76F020EE4
:10139000A86F000148DEEF0E0201A76F030EA86FD1
:1013A000000141DEF00E0201A76F040EA86F0001DC
:1013B0003ADEF10E0201A76F050EA86F000133DEC1
:1013C000F20E0201A76F060EA86F00012CDEF30ECD
:1013D0000201A76F070EA86F000125DEF40E0201BF
:1013E000A76F080EA86F00011EDEF50E0201A76FA1
:1013F000090EA86F000117DEF60E0201A76F0A0E94
:10140000A86F000110DEF70E0201A76F0B0EA86F88
:10141000000109DEE60E0201A76F130EA86F00019E
:1014200002DEE70E0201A76F030EA86F0001FBDDCD
:101430000201A769010EA86F0001F5DD7CEF0BF03A
:101440000201CE51040DF3CFCFF2D46BD36BD26B2C
:10145000D16BD06BD05103081CE3020ED66FD10EB6
:10146000D56FD051D525016E000ED621036E01C077
:10147000D5F2D66FD051CF25D76FD86F000197DD49
:10148000D6C2EAFFD5C2E9FF01C0EFFF0201D02BAF
:10149000E1D7D1C200F0D2C201F0D3C202F0D4C26F
:1014A00003F0000112000201B351B503F3CF01F0C4
:1014B000F4CF00F0B603F3500026B451B503F35057
:1014C0000020026E000112000201A26BA36BA35167
:1014D000070837E3B46BA3C2B3F2B66BA40EB56FC3
:1014E0000001E1DF02C0A5F201C0A4F202C003F0D6
:1014F00002010150F2CFA6F2F29E02C0F7FF0001F6
:1015000082EC03F0006E0900F5CF01F00900F5CF81
:1015100002F00900F5CF03F00201A6BFF28E03C06E
:10152000A9F202C0A8F201C0A7F2A66FA65307E174
:10153000A75305E1A85303E1A95301E1A22BA32B73
:10154000C6D7A251080802E11B8401D01B940001F8
:1015500003EF0CF00201A72D08D01A0EA825A96FE1
:10156000CE6F00016DDF0DD00201A751020808E126
:10157000250EA825A96FCE6F000162DF02D00201FF
:1015800000011200B0C2CEF25BDF1200010E0201B8
:10159000A76F44C0A8F20001DDDF03C023F002C042
:1015A00022F001C021F000C020F0020E0201A76F5E
:1015B00045C0A8F20001CEDF03C027F002C026F02C
:1015C00001C025F000C024F047C0B0F2DBDF03C04B
:1015D0002BF002C02AF001C029F000C028F01BB493
:1015E0007AD00201B46B5AC0B3F2B66BA40EB56FD9
:1015F000000159DF02C0B0F201C0AFF202C003F037
:1016000002010150F2CFB1F2F29E02C0F7FF0001D9
:1016100082EC03F0006E0900F5CF01F00900F5CF70
:1016200002F00900F5CF03F00201B1BFF28E03C052
:10163000B4F202C0B3F201C0B2F2B16FB1530DE126
:10164000B2530BE1B35309E1B45307E15A50060812
:1016500002E35A2A01D05A6AC5D75950010802E359
:10166000010E596E5950270802E2280E596EB46BCC
:101670005AC0B3F2B66BA40EB56F000114DF02C0FE
:10168000B0F201C0AFF20201B46B59C0B3F2B66B55
:10169000040EB56F000107DF02C003F00150020124
:1016A000AF25016EB05103220150F2CFAFF2F29E8E
:1016B00003C0F7FF000182EC03F0006E0900F5CFD4
:1016C00001F00900F5CF02F00900F5CF03F00201A7
:1016D000AFBFF28E000103C02FF002C02EF001C098
:1016E0002DF000C02CF012000201CE6900016EDC6A
:1016F000012C01D001D008D50F0E426EE00E020180
:10170000CE6F000163DC01C043F04350030801E1E8
:10171000189AE10E0201CE6F000158DC01C044F0BE
:10172000E20E0201CE6F000151DC01C045F0E30E74
:101730000201CE6F00014ADC01C046F0E50E020155
:10174000CE6F000143DC01C047F0ED0E0201CE6F09
:1017500000013CDC01C04AF0EE0E0201CE6F000138
:1017600035DC01C04BF0EA0E0201CE6F00012EDC29
:101770001B9E01B01B8E300E0201CE6F000160DE99
:1017800001C05CF000C05BF0310E0201CE6F0001C1
:1017900057DE01C05EF000C05DF0320E0201CE6F78
:1017A00000014EDE03C062F002C061F001C060F0D3
:1017B00000C05FF0330E0201CE6F000141DE03C0B6
:1017C00066F002C065F001C064F000C063F0E80E8E
:1017D0000201CE6F0001E6EC07F0199C01B0198CF4
:1017E000E90E0201CE6F0001E6EC07F01A9801B095
:1017F0001A88E40E0201CE6F0001E6EC07F01A9C95
:1018000001B01A8C61D6E60E0201CE6F0001E6EC43
:1018100007F001C059F0E70E0201CE6F0001E6ECBF
:1018200007F001C05AF0EF0E0201CE6F0001E6ECA6
:1018300007F001C050F0F00E0201CE6F0001E6EC9F
:1018400007F001C051F0F10E0201CE6F0001E6EC8D
:1018500007F001C052F0F20E0201CE6F0001E6EC7B
:1018600007F001C053F0F30E0201CE6F0001E6EC69
:1018700007F001C054F0F40E0201CE6F0001E6EC57
:1018800007F001C055F0F50E0201CE6F0001E6EC45
:1018900007F001C056F0F60E0201CE6F0001E6EC33
:1018A00007F001C057F0F70E0201CE6F0001E6EC21
:1018B00007F001C058F06ADE189C189E19901200BB
:1018C000806A00D00201CF51F80F31E2080F000109
:1018D0009BEF0CF0806A00D0020129D0080E806EC8
:1018E00000D0020124D0040E806E00D002011FD06F
:1018F0000C0E806E00D002011AD0020E806E200EF7
:10190000006E002EFED700D00000020110D00A0E9B
:10191000806E00D002010BD0060E806E00D0020156
:1019200006D00E0E806E00D0020101D00201806A46
:1019300000D000011200F2CF0DF0F29EE824F76A09
:10194000F7365B0FF66E190EF7220A00F550FA6EA5
:101950000800F5500DBEF28EF96ED418DC18E618AA
:10196000F018FA180E1918192219CEC281FF010EAB
:101970000201CF6F0001A4DF1200CEC281FF818E71
:1019800000D0819E12005C50036A600F0201A26FBA
:10199000000E0320A36FA2C2CEF20001E6DF5C308E
:1019A0000201A36F5B30A26FA333A233A333A23330
:1019B000A333A2330F0EA317A2510F0B006E036ABD
:1019C0000050500FA26F000E0320A36FA2C2CEF2F0
:1019D0000001CBDF5B500F0B006E036A0050400F1D
:1019E0000201A26F000E0320A36FA2C2CEF200017B
:1019F000BCDF5E50036A600F0201A26F000E03207D
:101A0000A36FA2C2CEF20001B8DF5E300201A36F65
:101A10005D30A26FA333A233A333A233A333A23327
:101A20000F0EA317A2510F0B006E036A0050500F48
:101A3000A26F000E0320A36FA2C2CEF200019DDFB1
:101A40005D500F0B006E036A0050400F0201A26F41
:101A5000000E0320A36FA2C2CEF200018EDF12009F
:101A6000020EEA6EB40EE96EEF500DE0060E016E46
:101A7000006A002EFED7012EFBD77B0E006E002ED3
:101A8000FED7EF2EF3D712000201A56BA55118085F
:101A900022E3036AA551520FE96E020E0320EA6E9B
:101AA000EFCFA6F2166AF2BE168EF29EA6C2DCF246
:101AB0000001EFEC06F016BEF28E036A0201A5519A
:101AC000520FE96E020E0320EA6EEF503B08D8B4C5
:101AD00002D0A52BDBD7A56BA55118080BE3036A31
:101AE000A551520FE96E020E0320EA6E300EEF6E22
:101AF000A52BF2D7000112000201A75310E0E60E59
:101B0000CE6F0001E6EC07F001C059F0E70E0201CC
:101B1000CE6F0001E6EC07F001C05AF002011BB4E1
:101B200078D0B46B5AC0B3F2B66BA40EB56F000197
:101B3000BADC02C0B0F201C0AFF202C003F0020191
:101B40000150F2CFB1F2F29E02C0F7FF000182EC29
:101B500003F0006E0900F5CF01F00900F5CF02F0A7
:101B60000900F5CF03F00201B1BFF28E03C0B4F259
:101B700002C0B3F201C0B2F2B16FB1530DE1B25382
:101B80000BE1B35309E1B45307E15A50060802E3ED
:101B90005A2A01D05A6AC5D75950010802E3010EEA
:101BA000596E5950270802E2280E596EB46B5AC07C
:101BB000B3F2B66BA40EB56F000175DC02C0B0F2D3
:101BC00001C0AFF20201B46B59C0B3F2B66B040EA0
:101BD000B56F000168DC02C003F001500201AF25BF
:101BE000016EB05103220150F2CFAFF2F29E03C05A
:101BF000F7FF000182EC03F0006E0900F5CF01F061
:101C00000900F5CF02F00900F5CF03F00201AFBFE4
:101C1000F28E03C02FF002C02EF001C02DF000C0E4
:101C20002CF0000112004350040813E15A5006083A
:101C300002E35A2A01D05A6AE70E0201A76F5AC07E
:101C4000A8F2000113EC08F0010E0201A76F0001D9
:101C500053DF39EF0EF04350040802E1E4D709D016
:101C60004350040806E019B003D0189E198001D033
:101C700019901200040E0201CF6F000121DE120044
:101C80004350030806E1000E18BA010E010F436E1F
:101C900002D0030E436E47C0B0F274DC03C02BF0D9
:101CA00002C02AF001C029F000C028F0E00E0201B5
:101CB000A76F43C0A8F2000113EC08F01200AAC2FB
:101CC000AFF2AEC2B3F2ADC2B2F2ACC2B1F2ABC2CD
:101CD000B0F22DEC08F0A6EF0EF00201A76BA651B2
:101CE000A75D16E2040ECF6F0001EADD47C073F175
:101CF000640E0201B46F0001B3DE0F0E0101736FB9
:101D0000640E0201B46F0001ABDE0201A72BE7D71E
:101D1000000112004350040DF350036A1C0FE96EDA
:101D2000000E0320EA6EEFCFA6F2ECCFA7F2ECCFC5
:101D3000A8F2ECCFA9F247C0AAF2A9C2AEF2A8C29B
:101D4000ADF2A7C2ACF2A6C2ABF2B9D7020E020145
:101D5000A66F0001C2DF120018BC02D0188C01D09F
:101D6000189C1200432C03D0020E436E05D0435042
:101D7000020802E1010E436EE00E0201A76F43C0AC
:101D8000A8F2000113EC08F0010E435C189AE8B0C9
:101D9000188A12004350040DF350036A1C0F016EA1
:101DA000000E032201C0A6F203C0A7F247C0B0F2A2
:101DB0000001C2EC0AF0A7C2EAFFA6C2E9FF00C018
:101DC000EFFF01C0ECFF02C0ECFF03C0ECFF020E0E
:101DD0000201A66F000181DF12000201A72D10D0C1
:101DE0001A0EA825AD6FAF6FACC2B3F2ABC2B2F2A0
:101DF000AAC2B1F2A9C2B0F200012DEC08F00201B2
:101E0000A751020810E1250EA825AD6FAF6FACC237
:101E1000B3F2ABC2B2F2AAC2B1F2A9C2B0F20001EF
:101E20002DEC08F00201000112000201A6530CE1A2
:101E300043C0A6F2432C01D003D04350020804E172
:101E400082A602D0040EA627010EA65DFA0FD8B016
:101E500086D0060F0001B1EF0FF0010E0201A76F4F
:101E600044C0A8F223C0ACF222C0ABF221C0AAF257
:101E700020C0A9F20001B1DF4450080802E3442A5F
:101E800001D0446A010E0201A76F44C0A8F200010C
:101E9000AAEC0AF003C023F002C022F001C021F036
:101EA00000C020F002015BD0020E0201A76F45C006
:101EB000A8F227C0ACF226C0ABF225C0AAF224C01B
:101EC000A9F200018ADF4550080802E3452A01D043
:101ED000456A020E0201A76F45C0A8F20001AAECF4
:101EE0000AF003C027F002C026F001C025F000C0B0
:101EF00024F0020134D047500D0802E3472A01D0F4
:101F0000476A47C0B0F2C2EC0AF003C02BF002C02F
:101F10002AF001C029F000C028F0020120D0595059
:101F2000270802E3592A02D0010E596E0201A76B5D
:101F30000001E2DD020113D0500E2026C30E212243
:101F4000000E2222232202010AD0500E2426C30EA4
:101F50002522000E26222722020101D002010001C3
:101F60001200F2CF0DF0F29EE824F76AF736870FE1
:101F7000F66E1F0EF7220A00F550FA6E0800F550B3
:101F80000DBEF28EF96E5A1EA81EF61E1E1F381FB9
:101F90004A1F0201A6530CE143C0A6F2432C01D014
:101FA00003D04350020804E182A602D0040EA62703
:101FB000A651010A00010DE0030A31E0010A55E0D3
:101FC000070A66E0010AD8B46FD0030AD8B474D007
:101FD0007AD0010E0201A76F44C0A8F223C0ACF270
:101FE00022C0ABF221C0AAF220C0A9F20001F5DEA6
:101FF000445202E0440602D0090E446E010E020172
:10200000A76F44C0A8F20001AAEC0AF003C023F0B5
:1020100002C022F001C021F000C020F054D0020E16
:102020000201A76F45C0A8F227C0ACF226C0ABF2F0
:1020300025C0AAF224C0A9F20001CFDE455202E079
:10204000450602D0090E456E020E0201A76F45C07B
:10205000A8F20001AAEC0AF003C027F002C026F0A3
:1020600001C025F000C024F02ED0475202E0470600
:1020700002D00E0E476E47C0B0F2C2EC0AF003C0A9
:102080002BF002C02AF001C029F000C028F01BD0BC
:102090005950010802E2590602D0280E596E020179
:1020A000A76B000129DD0FD0500E205EC30E215A10
:1020B000000E225A235A07D0500E245EC30E255A12
:1020C000000E265A275A120018BE14D01990188EE6
:1020D0004350040DF350036A1C0FE96E000E0320F9
:1020E000EA6EEFCF38F0ECCF39F0ECCF3AF0ECCF2E
:1020F0003BF005D0189E3B6A3A6A396A386A12008A
:102100000201BF6BC06B010EC16FDA6AD96A020EA1
:10211000C46FB70EC36F020EEA6EBB0EE96EC4C287
:10212000E2FFC3C2E1FFC1C2C2F2D890E550EE02A5
:10213000F350BF23F450C023C22FF7D7BFC2DEFF36
:10214000C0C2BFF2C06BD8B0C02BC32BD8B4C42B55
:10215000C12BC1510508DFE1000112000201B66B7D
:10216000B56BB46BB36BB66BB56BB46BACC2B3F29F
:10217000B6C2BAF2B5C2B9F2B4C2B8F2B3C2B7F2DB
:10218000BE6BBD6BBC6B0A0EBB6F0001B9DF0201F9
:10219000AD510024B36F000E0120B46F000E022079
:1021A000B56F000E0320B66FB6C2BAF2B5C2B9F26F
:1021B000B4C2B8F2B3C2B7F2BE6BBD6BBC6B0A0E51
:1021C000BB6F00019DDF0201AE510024B36F000E12
:1021D0000120B46F000E0220B56F000E0320B66F11
:1021E000B6C2BAF2B5C2B9F2B4C2B8F2B3C2B7F26B
:1021F000BE6BBD6BBC6B0A0EBB6F000181DF0201C1
:10220000AF510024B36F000E0120B46F000E022006
:10221000B56F000E0320B66FB6C2BAF2B5C2B9F2FE
:10222000B4C2B8F2B3C2B7F2BE6BBD6BBC6B0A0EE0
:10223000BB6F000165DF0201B0510024B36F000ED7
:102240000120B46F000E0220B56F000E0320B66FA0
:10225000B6C2BAF2B5C2B9F2B4C2B8F2B3C2B7F2FA
:10226000BE6BBD6BBC6B0A0EBB6F000149DF020188
:10227000B1510024B36F000E0120B46F000E022094
:10228000B56F000E0320B66FB6C2BAF2B5C2B9F28E
:10229000B4C2B8F2B3C2B7F2BE6BBD6BBC6B0A0E70
:1022A000BB6F00012DDF0201B2510024B36F000E9D
:1022B0000120B46F000E0220B56F000E0320B66F30
:1022C000B3C200F0B4C201F0B5C202F0B6C203F06E
:1022D00000011200E00E0201CE6F0001E6EC07F0F3
:1022E00001C0A6F20201A65303E0A65104080AE2C7
:1022F000010EA66FE00EA76FA6C2A8F2000113ECB4
:1023000008F00201A62D01D0189AA651020801E199
:10231000188AA6C201F000011200000E18BA010EC0
:10232000010F040DF350036A1C0FE96E000E032029
:10233000EA6EEFCF30F0ECCF31F0ECCF32F0ECCFF3
:1023400033F0000E18BA010E010F040DF350036AAA
:102350001C0FE96E000E0320EA6E28C0EFFF29C0B3
:10236000ECFF2AC0ECFF2BC0ECFF33C02BF032C0D7
:102370002AF031C029F030C028F0336A326A316A5D
:10238000306A020E0201A66F0001A7DC12002DC206
:102390009DF202012C39006E0F0E001600500F0B3B
:1023A0009E6F2C510F0B9F6F2B39006E0F0E001676
:1023B00000500F0BA06F2B510F0BA16F2A39006E2D
:1023C0000F0E001600500F0BA26F2A510F0BA36FB8
:1023D0002939006E0F0E001600500F0BA46F295103
:1023E0000F0BA56F9D51010A000120E0030A21E0B7
:1023F000010A21E0070A21E0010A22E0030A22E0A3
:10240000010A22E00F0A26E0010A2AE0030A2BE073
:10241000010A57E0040A57E0F30AD8B482D0020A4E
:10242000D8B487D0010AD8B48CD08CD014DC22DC8C
:1024300089D026DC87D06EDC85D08EDC1BDC82D098
:1024400091DC80D0A7DC7ED00201A66B0001EDDC20
:1024500011DC78D00201A66B00019BDD0BDC72D091
:1024600033DE08DC6FD09FC2ACF2A0C2ADF2A1C2D5
:10247000AEF2A2C2AFF2A3C2B0F2A4C2B1F2A5C240
:10248000B2F26CDE03C01FF002C01EF001C01DF0EE
:1024900000C01CF01FDF0150040DF350036A1C0F35
:1024A000E96E000E0320EA6E1CC0EFFF1DC0ECFFBA
:1024B0001EC0ECFF1FC0ECFF1F6A1E6A1D6A1C6A6B
:1024C00041D02BDF3FD0A4C2ACF2A5C2ADF2A2C274
:1024D000AEF2A3C2AFF2A0C2B0F2A1C2B1F29EC2EC
:1024E000B2F23CDE03C01FF002C01EF001C01DF0BE
:1024F00000C01CF0EFDE0150040DF350036A1C0F06
:10250000E96E000E0320EA6E1CC0EFFF1DC0ECFF59
:102510001EC0ECFF1FC0ECFF1F6A1E6A1D6A1C6A0A
:1025200011D03AEC0EF019B602D0198601D01996E6
:1025300009D00201A769A869000113EC08F0FF00A7
:1025400001D0FF00010E016E88EF22F00201A66BA0
:10255000A56BA46BA36BA76BA86BA96BAA6BAB6BEA
:10256000AC6BAD6B010EA25DFC0F38E2040F0001F5
:10257000D3EF13F023C0A6F222C0A5F221C0A4F22B
:1025800020C0A3F202012AD00201A15309E023C016
:10259000A6F222C0A5F221C0A4F220C0A3F208D066
:1025A00027C0A6F226C0A5F225C0A4F224C0A3F23B
:1025B00015D02BC0A6F22AC0A5F229C0A4F228C0CB
:1025C000A3F202010BD02FC0A6F22EC0A5F22DC09F
:1025D000A4F22CC0A3F2020101D00201A35307E12F
:1025E000A45305E1A55303E1A653D8B4ADD0A6C2C8
:1025F000C1F2A5C2C0F2A4C2BFF2A3C2BEF2C1C260
:10260000C5F2C0C2C4F2BFC2C3F2BEC2C2F2A76B5F
:10261000C5530DE1C4510E0815E2FF0A08E1C3518C
:10262000410810E2FF0A03E1C2513F080BE2400EED
:10263000C25F420EC35B0F0EC45B000EC55B010E92
:10264000A727E6D7A86BC5530DE1C451000815E2D2
:10265000FF0A08E1C351850810E2FF0A03E1C251F5
:102660009F080BE2A00EC25F860EC35B010EC45B27
:10267000000EC55B010EA827E6D7A96BC5530AE17A
:10268000C45308E1C35126080FE2FF0A03E1C25117
:102690000F080AE2100EC25F270EC35B000EC45B78
:1026A000C55B010EA927EAD7AA6BC5530AE1C4533B
:1026B00008E1C35102080FE2FF0A03E1C251E70833
:1026C0000AE2E80EC25F030EC35B000EC45BC55B8B
:1026D000010EAA27EAD7AB6BC55307E1C45305E146
:1026E000C35303E1C251630809E2640EC25F000EE6
:1026F000C35BC45BC55B010EAB27EED7AC6BC553A8
:1027000007E1C45305E1C35303E1C251090809E2DB
:102710000A0EC25F000EC35BC45BC55B010EAC2733
:10272000EED7AD6BC55307E1C45305E1C35303E1D5
:10273000C251000809E2010EC25F000EC35BC45B18
:10274000C55B010EAD27EED7A15316E0300EA725CD
:102750006F6F300EA825706F300EA925716F300E87
:10276000AA25726F300EAB25736F300EAC25746FD7
:10277000300EAD25756F15D0300EA725576F300E72
:10278000A825586F300EA925596F300EAA255A6F0B
:10279000300EAB255B6F300EAC255C6F300EAD2577
:1027A0005D6F00011200F2CF0DF0F29EE824F76A8F
:1027B000F736CB0FF66E270EF7220A00F550FA6EA9
:1027C0000800F5500DBEF28EF96E74258825B225ED
:1027D000C625A1C252F2A2C253F20201A43D01D009
:1027E00003D0300EA425546F036AA351520FE96E33
:1027F000020E0320EA6E3B0EEF6E000144EC0DF07A
:10280000120068DD01C0A0F20201A16B01C0A2F2BA
:1028100000019CDE460E0201A16F410EA26F0D0E5B
:10282000A36FA4690001D5DF12000201A16B020EA3
:10283000A26F00018BDE460E0201A16F420EA26F55
:102840000D0EA36FA4690001C4DF1200036A020128
:10285000A051520FE96E020E0320EA6E2EC2EFFF66
:10286000010EA025036A520FE96E020E0320EA6EE4
:102870002FC2EFFF020EA025036A520FE96E020E6F
:102880000320EA6E30C2EFFF030EA025036A520F49
:10289000E96E020E0320EA6E31C2EFFF040EA0259E
:1028A000036A520FE96E020E0320EA6E32C2EFFF96
:1028B000050EA025036A520FE96E020E0320EA6E90
:1028C00033C2EFFF060EA025036A520FE96E020E17
:1028D0000320EA6E34C2EFFF036AA051520FE96E83
:1028E000020E0320EA6E300EEF5CA56F010EA025EC
:1028F000036A520FE96E020E0320EA6E300EEF5C9F
:10290000A66F020EA025036A520FE96E020E032085
:10291000EA6E300EEF5CA76F030EA025036A520F1C
:10292000E96E020E0320EA6E300EEF5CA86F040E13
:10293000A025036A520FE96E020E0320EA6E300EE4
:10294000EF5CA96F050EA025036A520FE96E020E17
:102950000320EA6E300EEF5CAA6F060EA025036A14
:10296000520FE96E020E0320EA6E300EEF5CAB6F81
:10297000A5C2ACF2A6C2ADF2A7C2AEF2A8C2AFF237
:10298000A9C2B0F2AAC2B1F2B26F0001AEEC10F06F
:1029900003C0A4F202C0A3F201C0A2F200C0A1F2DF
:1029A0000201A45309E1A35307E1A251270804E35C
:1029B00012E1A1510F080FE2A4530DE1A3512F081A
:1029C0001EE2FF0A08E1A251D30819E2FF0A03E15F
:1029D000A151000814E200017DDC0150040DF35008
:1029E000036A1C0FE96E000E0320EA6EEFCFA1F21E
:1029F000ECCFA2F2ECCFA3F2ECCFA4F20201A1C281
:102A000000F0A2C201F0A3C202F0A4C203F00001D0
:102A10001200050E0201A06F000118DF03C023F0B1
:102A200002C022F001C021F000C020F0EADEB4EFC5
:102A300021F0050E0201A06F000108DF03C027F09E
:102A400002C026F001C025F000C024F0EEDEBAEF8F
:102A500021F00201A16BA051300802E1010EA16F2B
:102A6000A051310802E1020EA16FA051320802E12B
:102A7000030EA16FE00EA76FA1C2A8F2000113EC34
:102A800008F0C2EF21F026DC0150010A03E0030A3E
:102A900006E009D0300E0201546F000104D0310E5F
:102AA0000201546F0001460E0201A16F520EA26F87
:102AB000030EA36F54C2A4F200018BDE12000201C8
:102AC0002B51300A000103E0010A04E005D0010E99
:102AD000436E02D0020E436EE00E0201A76F43C0A8
:102AE000A8F2000113EC08F0CEDFC8EF21F06AEC89
:102AF00011F00150010A03E0030A06E009D0300E8C
:102B00000201546F000104D0310E0201546F000124
:102B1000460E0201A16F540EA26F030EA36F54C2A2
:102B2000A4F2000156DE120002012B51300A00010E
:102B300003E0010A04E005D0010E436E02D0020E4C
:102B4000436EE00E0201A76F43C0A8F2000113EC30
:102B500008F0CDDFD2EF21F06AEC11F001C0A0F255
:102B6000490E02016A6F460E6B6F010EA16FA0C283
:102B7000A2F20001EBDC4750090809E2310E020124
:102B8000846F0A0E475C300F856F06D00001300E4F
:102B90000201846F4724856F83A603D0310E866FB0
:102BA00002D0300E866F4DC087F2A02D03D0300EBC
:102BB000886F8A6FA051020803E1310E886F8A6F17
:102BC000300E896F0001DCEF21F00201A06BA051F3
:102BD000250822E3036AA0516A0FE96E020E032062
:102BE000EA6EEFCFA1F2166AF2BE168EF29EA1C275
:102BF000DCF20001EFEC06F016BEF28E036A020171
:102C0000A0516A0FE96E020E0320EA6EEF503B08F6
:102C1000D8B402D0A02BDBD70001DEEF21F00201F7
:102C20002B51300A000103E0010A03E003D01A9897
:102C300001D01A88000E1AB8010E0201A06F310EE1
:102C4000A16F410EA26F030EA36FA0C2A4F20001F8
:102C5000C0DD000E1AB8010E0201A06FE90EA76FC9
:102C6000A0C2A8F2000113EC08F0F1EF21F002017C
:102C70002B51300A000103E0010A03E003D01A9A45
:102C800001D01A8A000E1ABA010E0201A06F310E8D
:102C9000A16F420EA26F030EA36FA0C2A4F20001A7
:102CA00098DD000E1ABA010E0201A06FEA0EA76F9E
:102CB000A0C2A8F2000113EC08F0F5EF21F0020128
:102CC0002B51300A000103E0010A03E003D0199CF4
:102CD00001D0198C000E19BC010E0201A06F310E3B
:102CE000A16F430EA26F030EA36FA0C2A4F2000156
:102CF00070DD000E19BC010E0201A06FE80EA76F77
:102D0000A0C2A8F2000113EC08F0F9EF21F00201D3
:102D10002B51300A000103E0010A03E003D01A9CA2
:102D200001D01A8C000E1ABC010E0201A06F310EE8
:102D3000A16F440EA26F030EA36FA0C2A4F2000104
:102D400048DD000E1ABC010E0201A06FE40EA76F51
:102D5000A0C2A8F2000113EC08F0FDEF21F0300E44
:102D60000201296F2A6F295DA46F300E2A5DA56FBD
:102D7000300E2B5DA66F300E2C5DA76F300E2D5DD3
:102D8000A86F300E2E5DA96F300E2F5DAA6FA4C202
:102D9000ACF2A5C2ADF2A6C2AEF2A7C2AFF2A8C213
:102DA000B0F2A9C2B1F2B26F0001AEEC10F003C0F4
:102DB000A3F202C0A2F201C0A1F200C0A0F2A0C220
:102DC00000F0A1C201F0A2C202F0A3C203F0CBEF57
:102DD0001FF00201B06BAF51B05D0CE200013AECA4
:102DE0000EF0C80E0201B46F000130EC0DF00201CC
:102DF000B02BF1D7000112001AAC0ED0100E4824EF
:102E00000201CD6FCE6F000120EC0AF001C002F08C
:102E100000C001F00BD00AD00F0E0201CE6F0001EE
:102E200020EC0AF001C002F000C001F012001AAC60
:102E30000FD0100E48240201AB6FAF6FB36BB26BB3
:102E4000AAC2B1F2A9C2B0F200012DEC08F00CD078
:102E50000F0E0201AF6FB36BB26BAAC2B1F2A9C27F
:102E6000B0F200012DEC08F012000201AF51010A8E
:102E7000000107E0030A0BE0010A0FE0060A13E075
:102E800016D0010E01016B6F0F0E736F14D00C0E74
:102E900001016B6F0F0E736F0ED0020E01016B6F8D
:102EA000B5C273F108D0B5C273F1010104D00F0EA1
:102EB00001016B6F736F0201B0510F0805E20F0E35
:102EC00001016C6F04D00201B0C26CF10101B4C207
:102ED000C1F2B3C2C0F2B2C2BFF2B1C2BEF2C1C24D
:102EE000C5F2C0C2C4F2BFC2C3F2BEC2C2F2020186
:102EF000B76BC5530DE1C4510E0815E2FF0A08E196
:102F0000C351410810E2FF0A03E1C2513F080BE23E
:102F1000400EC25F420EC35B0F0EC45B000EC55B6A
:102F2000010EB727E6D7B86BC5530DE1C4510008B1
:102F300015E2FF0A08E1C351850810E2FF0A03E128
:102F4000C2519F080BE2A00EC25F860EC35B010E4A
:102F5000C45B000EC55B010EB827E6D7B96BC5533D
:102F60000AE1C45308E1C35126080FE2FF0A03E156
:102F7000C2510F080AE2100EC25F270EC35B000E9B
:102F8000C45BC55B010EB927EAD7BA6BC5530AE12A
:102F9000C45308E1C35102080FE2FF0A03E1C25122
:102FA000E7080AE2E80EC25F030EC35B000EC45BD3
:102FB000C55B010EBA27EAD7BB6BC55307E1C45303
:102FC00005E1C35303E1C251630809E2640EC25F25
:102FD000000EC35BC45BC55B010EBB27EED7BC6BA9
:102FE000C55307E1C45305E1C35303E1C2510908C6
:102FF00009E20A0EC25F000EC35BC45BC55B010E33
:10300000BC27EED7BD6BC55307E1C45305E1C353DD
:1030100003E1C251000809E2010EC25F000EC35B6A
:10302000C45BC55B010EBD27EED7B6510208D8A020
:1030300057D0B4530DE1B3510F080AE307E1B25181
:10304000420806E303E1B1513F0802E30F0EB76FF8
:10305000B4530DE1B35101080AE307E1B251860808
:1030600006E303E1B1519F0802E30F0EB86FB453BA
:103070000BE1B35309E1B251270806E303E1B15173
:103080000F0802E30F0EB96FB4530BE1B35309E11C
:10309000B251030806E303E1B151E70802E30F0E62
:1030A000BA6FB45309E1B35307E1B25305E1B1512B
:1030B000630802E30F0EBB6FB45309E1B35307E19A
:1030C000B25305E1B151090802E30F0EBC6FB153D1
:1030D00007E1B25305E1B35303E1B45301E1BD6B22
:1030E000B651010A00012FE0030A3AE0010A47E065
:1030F000070A53E0010A5FE00C0A67E0030AD8B44C
:1031000071D0010AD8B47BD0070AD8B487D0010A9D
:10311000D8B493D0030AD8B49FD0010AD8B4ABD0A6
:103120001F0AD8B4B7D0010AD8B4C3D0B7C26DF162
:10313000B8C26EF1B9C26FF1BAC270F1BBC271F11F
:10314000BCC272F1C4D0B8C26DF1B9C26EF1BAC2DC
:103150006FF1BBC270F1BCC271F1BDC272F1B7D0E8
:103160000F0E01016D6F010E5A246E6F0F0E6F6FFF
:10317000BCC270F1BDC271F1726F0001A8D0BAC2B9
:103180006DF1BBC26EF1BCC26FF1BDC270F10F0E2A
:103190000101716F726F00019AD00F0E01016D6F06
:1031A0006E6FBAC26FF1BBC270F1BCC271F1BDC229
:1031B00072F100018CD00F0E01016D6F6E6B6F6BA1
:1031C000706B716B726F000182D0B7C26DF1B8C2C3
:1031D0006EF1B9C26FF1BAC270F1BBC271F1BCC27B
:1031E00072F175D0B8C26DF1B9C26EF1BAC26FF1A9
:1031F000BBC270F1BCC271F1BDC272F168D00F0EDA
:1032000001016D6FB8C26EF1B9C26FF1BAC270F14F
:10321000BBC271F1BCC272F1000159D0B7C26DF1ED
:103220000F0E01016E6FB9C26FF1BAC270F1BBC26D
:1032300071F1BCC272F100014AD0B7C26DF1B8C2DF
:103240006EF10F0E01016F6FBAC270F1BBC271F166
:10325000BCC272F100013BD0B7C26DF1B8C26EF1D1
:10326000B9C26FF10F0E0101706FBBC271F1BCC228
:1032700072F100012CD0B7C26DF1B8C26EF1B9C2C3
:103280006FF1BAC270F10F0E0101716FBCC272F121
:1032900000011DD0B7C26DF1B8C26EF1B9C26FF1B5
:1032A000BAC270F1BBC271F10F0E0101726F000161
:1032B0000ED0B8C26DF1B9C26EF1BAC26FF1BBC225
:1032C00070F1BCC271F10F0E0101726F00011200AA
:1032D000030E0201CF6F000160EC0CF01200016AD6
:1032E000026A006A036A0201D05102E1CF5118E07C
:1032F000100ED16FD890CD37CE3700360336D0516F
:10330000035C02E1CF51005C07E3CF51005ED8A01F
:103310000306D051035ED88001360236D12FEAD79A
:1033200000011200020E0201CF6F000160EC0CF0F0
:10333000A2EF19F0700E0201CE6FCD51CE25816E35
:103340000001F0D7FCEF1BF0700E0201CE6FCD51E3
:10335000CE25816E000103EF1CF00201CD6B83A826
:1033600002D0080ECD2783AA02D0040ECD2783AC4D
:1033700002D0020ECD2783AE02D0010ECD27CDC2E2
:1033800001F000011200B7C2F3F1B6C2F2F1B5C20A
:10339000F1F1B4C2F0F10201BB6BBA6BBD6BBC6B57
:1033A000B85308E00101F56BF46BF76BF66BF86B43
:1033B000F96B0201B93D64D0C06BC051090852E3FA
:1033C000C051030DF350040DF350036A770FE96EFB
:1033D000010E0320EA6EEFCF00F0ECCF01F0ECCF4E
:1033E00002F0ECCF03F00350B75D3AE30BE102507B
:1033F000B65D36E307E10150B55D32E303E100500D
:10340000B45D2EE3C051030DF350010F040DF350D2
:10341000036A770FE96E010E0320EA6EEFCF00F02A
:10342000ECCF01F0ECCF02F0ECCF03F0B751035C2E
:1034300017E30BE1B651025C13E307E1B551015C00
:103440000FE303E1B451005C0BE3D00EC025CD6F58
:10345000CE6F0001E6EC07F001C048F0020102D097
:10346000C02BABD70101F851485C08E0F96B48C0AC
:1034700081FF00012DDF48C0F8F101010FD00201EA
:10348000B9C248F00101F851485C08E0F96B48C046
:1034900081FF00011DDF48C0F8F101011BB027D0FA
:1034A0000001AADC02C04FF001C04EF04F502608C8
:1034B00015E2FF0A03E14E500F0810E2100E4E5CB9
:1034C000006E270E4F58036E00500201B4270350C0
:1034D000B523000EB623B72309D000014E500201D8
:1034E000B45F4F50B55B000EB65BB75B0101B7C26E
:1034F000C4F2B6C2C3F2B5C2C2F2B4C2C1F2020192
:10350000C4530DE1C351000817E2FF0A08E1C2519C
:10351000850812E2FF0A03E1C1519F080DE2A00EE7
:10352000C15F860EC25B010EC35B000EC45B0A0E58
:10353000BA27000EBB23E4D7C4530AE1C35308E102
:10354000C251260815E2FF0A03E1C1510F0810E23B
:10355000100EC15F270EC25B000EC35BC45B010E81
:10356000BA27000EBB23640EBC27000EBD23E4D790
:10357000C4530AE1C35308E1C251020811E2FF0A31
:1035800003E1C151E7080CE2E80EC15F030EC25B24
:10359000000EC35BC45B0A0EBC27000EBD23E8D738
:1035A000C45307E1C35305E1C25303E1C1516308AA
:1035B0000BE2640EC15F000EC25BC35BC45B010E15
:1035C000BC27000EBD23ECD7BE6BC45307E1C35329
:1035D00005E1C25303E1C151090809E20A0EC15FC6
:1035E000000EC25BC35BC45B010EBE27EED7BF6B90
:1035F000C15306E1C25304E1C35302E1C45309E0DD
:10360000010EC15F000EC25BC35BC45B010EBF272E
:10361000EFD7BD51000809E2FF0A03E1BC51F308EE
:1036200004E2F40EBC5F010EBD5B300EBC27020E3F
:10363000BD23C56BC66BC76BC86BC96BCA6BCB6B45
:10364000CC6B0101F4510201BC5D05E10101F551B2
:103650000201BD5D34E0BDC2C6F2BD31CE6FBC31EA
:10366000CD6FCE33CD33CE33CD33CE33CD330F0EFE
:10367000CE17CD510F0BC76FBC510F0BC86F300E5B
:10368000C525CD6FCE6F0001B5EC0CF0200E020108
:10369000C625CD6FCE6F0001B5EC0CF0100E020107
:1036A000C725CD6FCE6F0001B5EC0CF0C8C2CEF2CD
:1036B000B5EC0CF0BDC2F5F1BCC2F4F102010101A0
:1036C000F6510201BA5D06E10101F7510201BB5D4D
:1036D000D8B48AD04850050834E3BBC2CEF2BAC28F
:1036E000CDF2D06B050ECF6F0001F9DD02C0CEF236
:1036F00001C0CDF20C0E0201CD27000ECE23CE313B
:10370000036ECD31026E03320232033202320332D3
:10371000023202C0CBF2BBC2CEF2BAC2CDF2D06B43
:10372000050ECF6F0001DBDD02C0CEF201C0CDF28D
:103730000C0E0201CD27000ECE23CD510F0BCC6F06
:1037400033D0BBC2CEF2BAC2CDF2D06B050ECF6F72
:103750000001C5DD02C0CEF201C0CDF2120E0201A1
:10376000CD5F000ECE5BCE31036ECD31026E0332E3
:103770000232033202320332023202C0CBF2BBC247
:10378000CEF2BAC2CDF2D06B050ECF6F0001A7DD2D
:1037900002C0CEF201C0CDF2120E0201CD5F000ECA
:1037A000CE5BCD510F0BCC6F300EC925CD6FCE6FD8
:1037B0000001BDEC0CF0200E0201CA25CD6FCE6FCA
:1037C0000001BDEC0CF0100E0201CB25CD6FCE6FC9
:1037D0000001BDEC0CF0CCC2CEF2BDEC0CF0BBC2D3
:1037E000F7F1BAC2F6F10201BF510101F95D07E03C
:1037F000BFC2CDF200019ED5BFC2F9F10101BEC228
:10380000CDF20001A1D5A9DD01C040F040C041F0DA
:1038100012000201B46B84928494809A848000D058
:1038200000D0000082A402D0010EB46F82A202D0A8
:10383000020EB46F82A002D0030EB46F8490848213
:1038400000D000D0000082A402D0040EB46F82A287
:1038500002D0050EB46F82A002D0060EB46F84921F
:10386000848400D000D0000082A402D0070EB46F80
:1038700082A202D0080EB46F82A002D0090EB46FEB
:103880008494808A00D000D0000082A202D00A0E68
:10389000B46F849484928490809AB4C201F0000141
:1038A00012000201B46B83B204D082BA02D00B0EB4
:1038B000B46F83B204D082BC02D00C0EB46F83A26A
:1038C00006D082AA04D082AC02D00D0EB46F83A2BF
:1038D00004D082BA02D00E0EB46F83A204D082BC90
:1038E00002D00F0EB46FB4C201F000011200020149
:1038F000B06BB16BAF51020802E1B26B02D0040EA3
:10390000B26F82A4FDD082B4FED718B009D00001F6
:1039100080DF01C024F20201245301E01880266BED
:1039200018A08ED0000175DF015219E00201263D7A
:1039300001D001D0262BAF51020810E0020EB46F67
:10394000166AF2BE168EF29EF90EDE6F0001DFECF3
:1039500006F016BEF28E0201B42FF2D7000102016A
:103960002651B25D21E2AF530AE12651630802E31A
:10397000010EB16F2651630802E2020EB16FAF2D46
:103980000AD02651630802E3010EB16F2651630885
:1039900002E2030EB16FAF51020806E124C2B0F299
:1039A000246BB0C201F0C7D0B12D22D0000131DFAD
:1039B00001521FE10201B36BB35109080AE3000190
:1039C00028DF015203E0020104D000010201B32B01
:1039D000F3D7B35109080CE218A403D0B06B1894C4
:1039E00002D024C2B0F2246B1890B0C201F0A3D070
:1039F00000010201B15102080DE1245303E01E0E43
:103A00002425B06F246B010E266F18841890B0C265
:103A100001F091D0B151030813E1245303E01E0ECD
:103A20002425B06F0001F5DE015205E1010E02010F
:103A3000266FB06B000118840201B0C201F07BD088
:103A400018B609D000012DDF01C025F2020125536F
:103A500001E01886276B18A653D0273D01D001D06E
:103A6000272B166AF2BE168EF29E23C2DEF20001EA
:103A7000DFEC06F016BEF28E020127530AE0275152
:103A80001D0802E3010EB16F27511D0802E2020E6C
:103A9000B16FB12D15D0000104DF015212E118A45D
:103AA00007D01894000E016E020145D004D0000129
:103AB00025C2B0F20201256B1896B0C201F03BD0CE
:103AC00000010201B15102081BE10001EADE01C060
:103AD00025F2050E02012525B06F0001E2DE01523C
:103AE00005E00201B051120807E100011896020139
:103AF000B051120801E0B06B1884B0C201F01BD0C5
:103B000083A015D01BBC12D000013AEC0EF083B09C
:103B1000FED7C80E0201B46F000130EC0DF018A8FA
:103B200002D0189801D0188803D00201189800011B
:103B3000000E016E0201000112001BAC07D0030E43
:103B40000201AF6F0001E9EC16F022D21B800201E6
:103B5000A251A31109E10001FCEC16F002C04FF0E4
:103B600001C04EF006D00201A3C24FF0A2C24EF037
:103B700000014F504D080DE2FF0A03E14E501F08AF
:103B800008E24F6A4E6A0201AA6BA96B000117ECAA
:103B900017F04350040DF350036A1C0FE96E000E3A
:103BA0000320EA6EEFCF1CF0ECCF1DF0ECCF1EF03F
:103BB000ECCF1FF04F5026080BE2FF0A03E14E50F6
:103BC0000F0806E2100E4E5E270E4F5A1B9201D0D0
:103BD0001B82010E0201A46FA691A693A42D9AD078
:103BE000A6A305D0010E4E5E000E4F5AA693A6A1C5
:103BF00005D0010E4E26000E4F22A6914E3C0AD053
:103C00004F3C08D04F6A010E4E6E1BB202D01B8291
:103C100001D01B924E504F1058E0000E1BB2010E07
:103C2000010A00011FE04350040DF350036A1C0F0A
:103C3000E96E000E0320EA6EEFCFA7F2ECCFA8F2F8
:103C4000ECCFA9F2ECCFAAF24E500201A7251C6ED0
:103C50004F50A8211D6E000EA9211E6E000EAA2134
:103C60001F6E1ED04350040DF350036A1C0FE96E03
:103C7000000E0320EA6EEFCFA7F2ECCFA8F2ECCF54
:103C8000A9F2ECCFAAF24E500201A75D1C6E4F5074
:103C9000A8591D6E000EA9591E6E000EAA591F6E5E
:103CA000000E1BB2010EFF0A050FA76FAF69B069C6
:103CB000B46BB36B4FC0B2F24EC0B1F2B569B66F20
:103CC000000135EC17F016D00201AF69B069B46B92
:103CD000B36BB26B010EB16FB569050EB66F000123
:103CE00035EC17F03AEC0EF0C80E0201B46F00018B
:103CF00030EC0DF01FC0B7F21EC0B6F21DC0B5F219
:103D00001CC0B4F20201B86BB9690001C3EC19F030
:103D10000201A46BA251A3110BE0080EA76FFA0ECB
:103D2000B46F000130EC0DF00201A72FF8D7E9D0F5
:103D3000A45337E1000E1BB2010EA76FA7C2A8F271
:103D40000001ADEC19F001C040F04150405C04E1CD
:103D5000000E016E21D01ED00201A8530CE182A8F2
:103D600005D0010E4E26000E4F2204D0010E4E5EED
:103D7000000E4F5A0BD082A805D0010E4E5E000EE9
:103D80004F5A04D0010E4E26000E4F22010E016E36
:103D9000000102D0000E016E015204E0010E02018A
:103DA000A46F00010201A453D8A4AAD0AF6B0001F4
:103DB0009EDD01C0A5F20201A553D8B4A1D0010E29
:103DC000A46F1BB231D0A551020A00010DE0010A17
:103DD0000FE0050A11E00A0A14E0070A16E0060AD5
:103DE00018E0120A1BE01ED00201A68300011AD0BF
:103DF0000201A681000116D0030E0201A46F00018A
:103E000011D00201A68300010DD00201A68100019C
:103E100009D0020E0201A46F000104D0020E0201BB
:103E2000A46F000130D00201A551020A00010DE08B
:103E3000010A0FE0050A11E00A0A14E0070A16E079
:103E4000060A18E0120A1BE01ED00201A68100013A
:103E50001AD00201A683000116D0030E0201A46F3E
:103E6000000111D00201A68100010DD00201A6833C
:103E7000000109D0020E0201A46F000104D0020E5D
:103E80000201A46F00010201A52D2FD000013AEC20
:103E90000EF04350040DF350036A1C0FE96E000E40
:103EA0000320EA6EEFCFA7F2ECCFA8F2ECCFA9F295
:103EB000ECCFAAF20201AF69B069AAC2B4F2A9C2FA
:103EC000B3F2A8C2B2F2A7C2B1F2B569B66B0001F3
:103ED00035EC17F0040E0201A76FFA0EB46F000163
:103EE00030EC0DF00201A72FF8D719A202D0030E73
:103EF000A46FA451020803E0A4510308D8B401D070
:103F00006DD6A451020819E11BB20DD0100E4E243B
:103F1000A76F270E4F20A86FAA6FA7C2A9F20001B2
:103F200017EC17F002011BA208D04FC0AAF24EC036
:103F3000A9F2000117EC17F00201A451030826E1D1
:103F4000AA6BA96B000117EC17F00201AF69B06909
:103F5000B46BB36BB26B010EB16FB569050EB66F82
:103F6000000135EC17F03AEC0EF0030E0201AF6FD2
:103F70000001E9EC16F0040E0201A76FFA0EB46F0F
:103F8000000130EC0DF00201A72FF8D71B900001C3
:103F90001200AFEF16F001C0A1F200C0A0F201C004
:103FA000A3F200C0A2F2C9DD310E0201A16F450EDD
:103FB000A26F030EA36F020EA46F0001E9EC13F0D1
:103FC00000EF22F00201A06B2B51310A00010DE03D
:103FD000030A0FE0010A11E0070A13E0000E18BA05
:103FE000010E010F0201A06F0FD0010E0201A06FA0
:103FF0000BD0020E0201A06F07D0030E0201A06FCA
:1040000003D0040E0201A06F320EA16F410EA26F09
:10401000030EA36FA0C2A4F20001E9EC13F005EFB8
:1040200022F0300E02012B5D0A0DF3CFA0F2300E0C
:104030002C5DA027A0530DE0A05128080AE3A0C2E0
:1040400059F0E60EA76F59C0A8F2000113EC08F072
:104050000201320EA16F420EA26F030EA36F59C070
:10406000A4F20001E9EC13F00201A76B00017CEC63
:104070000DF00AEF22F0300E02012B5D0FE0300E42
:104080002B5D08080BE3310E2B5D5A6EE70EA76F10
:104090005AC0A8F2000113EC08F00201010E5A24E4
:1040A000A06F320EA16F430EA26F030EA36FA0C2CA
:1040B000A4F20001E9EC13F00201A76B00017CEC13
:1040C0000DF00FEF22F0300E02012B5D0FE0300EED
:1040D0002B5D08080BE3300E2B5D4C6EEC0EA76FCA
:1040E0004CC0A8F2000113EC08F00201320EA16FDF
:1040F000440EA26F030EA36F4CC0A4F20001E9ECC2
:1041000013F014EF22F002012B51300A000103E0FA
:10411000010A03E003D01A9201D01A82000E1AB2EB
:10412000010E0201A06F320EA16F450EA26F030EA9
:10413000A36FA0C2A4F20001E9EC13F0000E1AB2C2
:10414000010E0201A06FEB0EA76FA0C2A8F2000142
:1041500013EC08F017EF22F0036A0201A351670F76
:10416000E96E000E0320EA6EEFCF01F000011200AD
:104170000201A06BA03D01D013D0A0C2A3F20001A8
:10418000EBDF01C0A1F2166AF2BE168EF29E01C0EC
:10419000DCF2EFEC06F016BEF28E0201A02BEAD79D
:1041A000166AF2BE168EF29E3B0EDC6F0001EFEC3B
:1041B00006F016BEF28E1AEF22F09D9A0201A06B55
:1041C0009EAA14D00001D4EC06F001C0A2F2A0C255
:1041D000BEF201C0BFF2EBEC07F0A0C2A3F2BCDF5D
:1041E00001503B08D8B404D00201A02BE9D700014C
:1041F0009EAA09D0D4EC06F0200E006E002EFED749
:1042000000D00000F5D70201A16BA051A15D29E209
:10421000A1C2A3F20001A0DF01C0A2F2A1C2A7F2D5
:1042200001C0A8F213EC08F0200E006E002EFED79D
:1042300000D00000A1C2CEF2E6EC07F001C0A2F26D
:10424000A1C2A3F289DF01500201A25D02E1A12B0C
:1042500007D0030EAF6F0001E9EC16F0020101D0A8
:10426000D4D79D8A00013AEC0EF074EC0BF0C6EC4A
:104270000AF0C3EC0CF01FEF22F002019D6B9E6B65
:104280009F6B9F512C084BE39F51040DF350036A21
:10429000F2CFA0F2F29E0001FAEC02F00201A0BF00
:1042A000F28E016E295D39E19F51040DF350010F2B
:1042B000036AF2CFA0F2F29E0001FAEC02F00201D2
:1042C000A0BFF28E016E2A5D28E19F51040DF350CC
:1042D000020F036AF2CFA0F2F29E0001FAEC02F0A4
:1042E0000201A0BFF28E036A290FE96E020E0320BD
:1042F000EA6EEF503B0811E19F51040DF350030F9C
:10430000036AF2CFA0F2F29E0001FAEC02F0020181
:10431000A0BFF28E016E9D6F02D09F2BB2D7030E0D
:104320009D5DD60FD8B090D02A0F000129EF22F062
:104330000201A66B0001C9EC0FF0010E02019E6F95
:1043400083D00201A66B000115EC0FF0010E0201F3
:104350009E6F7AD001EC14F0020176D015EC14F0C7
:10436000020172D009EF15F0010E02019E6F6CD0B0
:1043700019EF15F0010E02019E6F66D02BC2A0F25C
:1043800029EF15F0010E02019E6F5ED05FEF15F070
:10439000020E02019E6F58D043EC15F0020154D07A
:1043A00094EF15F0020E02019E6F4ED077EC15F0DF
:1043B00002014AD0ACEF15F0E5EF15F0020144D050
:1043C000020142D02BC24DF002013ED01A9E0201E2
:1043D0003BD01A8E020138D01A84020135D00FEF7B
:1043E00016F0020131D037EF16F002012DD05FEF49
:1043F00016F0020129D087EF16F0020125D0C9D5A9
:10440000010E02019E6F20D0DDD5010E02019E6FCC
:104410001BD007D6010E02019E6F16D02CD6010EBE
:1044200002019E6F11D04FD602010ED06CD6020150
:104430000BD09ED6030E02019E6F06D0BED6010E93
:1044400002019E6F01D002019EC201F000018FEFB8
:1044500022F0F2CF0DF0F29EE824F76AF736770FDC
:10446000F66E440EF7220A00F550FA6E0800F55079
:104470000DBEF28EF96E3043424354435C436443B5
:1044800070437C438C439843A043AC43B4434644BD
:1044900046444644C043C4434644464446444644D6
:1044A00046444644CC43D24346444644D843DE4384
:1044B000E643EE43F643FE434644084412441C449C
:1044C00026442C44464432443C4402019C6B19B2BD
:1044D00004D09CC201F029D028D01AA414D01AB25A
:1044E00002D01A8203D01AA201D01A921A94000E96
:1044F0001AB2010E9D6FEB0EA76F9DC2A8F20001CC
:1045000013EC08F002011AB206D00001C7EF11F057
:1045100001C09CF202011AA205D00001AED601C072
:104520009CF2020119929CC201F0000112000201EA
:104530009A91400EAF6EA20EAC6E900EAB6E9D9A2D
:10454000640EB46F000130EC0DF0460E0201526FA4
:10455000540E536F430E546F460E556F470E566FF1
:104560003B0E576F000144EC0DF09D8A02019B6BDE
:104570009B51C70812E30001A8DF0150030804E1C2
:1045800002019A810AD0000102019B2B010EB46F37
:10459000000130EC0DF00201EBD7000E9AB1010ED4
:1045A000016E0001D9EF33F09D8202019B819C6B6B
:1045B000EC0ECE6F0001E6EC07F001C09DF20201A7
:1045C0009A53D8A4CBD01F6A1E6A1D6A1C6A0001C8
:1045D000ADEC19F001C040F002019BB137D09E6BE9
:1045E000090E9F6F0001ADEC19F001C040F0415081
:1045F000405C04E1000E016E25D024D0010E0101C3
:10460000FA2740C041F0FA5102019F5D18E29E5323
:1046100008E182A803D0010E9D2702D0010E9D5F04
:1046200007D082A803D0010E9D5F02D0010E9D2706
:104630000101FA6B010E016E000104D00201000EAF
:10464000016E000102019B9101B09B819BB108D0DA
:10465000010EAF6F000177EC1CF001C09CF202016B
:104660009C5309E09C51030801E19D2B9C510208D9
:1046700001E19D079B819BA14ED0010E9D5DF80F2E
:104680004AE2080F00011AEF24F01F6A1E6A040EA6
:104690001D6EB00E1C6E02019B813DD01F6A1E6A0A
:1046A000090E1D6E600E1C6E02019B8134D01F6AC4
:1046B0001E6A120E1D6EC00E1C6E02019B812BD055
:1046C0001F6A1E6A250E1D6E800E1C6E02019B81E4
:1046D00022D01F6A1E6A4B0E1D6E1C6A02019B814E
:1046E0001AD01F6A1E6A960E1D6E1C6A02019B81FB
:1046F00012D01F6A1E6AE10E1D6E1C6A02019B81A8
:104700000AD01F6A010E1E6EC20E1D6E1C6A0201C7
:104710009B8101D002019D5303E1010E9D6F05D0E5
:104720009D51080802E2080E9D6F9BA112D0AF694F
:10473000B0691FC0B4F21EC0B3F21DC0B2F21CC0FB
:10474000B1F2010EB56FB66F000135EC17F0020142
:104750009B919C510408D8B401D03FD79D51010AC8
:1047600000010FE0030A14E0010A19E0070A1EE045
:10477000010A23E0030A28E0010A2DE00F0A32E0D3
:1047800038D0FF0EAF6EA20EAC6E900EAB6E37D06F
:10479000810EAF6EA20EAC6E900EAB6E30D0400E9E
:1047A000AF6EA20EAC6E900EAB6E29D0810EAF6EC6
:1047B000A60EAC6E900EAB6E22D0400EAF6EA60E63
:1047C000AC6E900EAB6E1BD0200EAF6EA60EAC6E14
:1047D000900EAB6E14D0150EAF6EA60EAC6E900E92
:1047E000AB6E0DD00A0EAF6EA60EAC6E900EAB6E19
:1047F00006D0400EAF6EA20EAC6E900EAB6E9DC298
:104800004CF002019A5314E1EC0EA76F9DC2A8F27E
:10481000000113EC08F0020E0201AF6F0001E9EC99
:1048200016F0C80E0201B46F000130EC0DF0020169
:1048300000011200F2CF0DF0F29EE824F76AF7367D
:10484000590FF66E480EF7220A00F550FA6E08006E
:10485000F5500DBEF28EF96E8A469C46AE46C046B5
:10486000D246E246F24602471BAC08D0030E0201D4
:10487000AF6F0001E9EC16F0CEEF29F043C0A9F2CA
:1048800082A604D0040E0201A92700010201AA6B2E
:10489000AB6BAC6BAD91AD93AD95AD974350010A49
:1048A000000103E0030A04E005D044C0A7F202D0EF
:1048B00045C0A7F20201A92D01D003D0A9510208D9
:1048C00059E1A751040DF350036AF2CFAFF2F29E03
:1048D0000001D7EC02F00900F5CF01F00900F5CF97
:1048E00002F00900F5CF03F00201AFBFF28E03C062
:1048F0009DF202C09CF201C09BF29A6FA751090879
:1049000007E1A16BA06BC30E9F6F500E9E6F1ED070
:10491000010EA725040DF350036AF2CFAFF2F29E09
:104920000001D7EC02F00900F5CF01F00900F5CF46
:1049300002F00900F5CF03F00201AFBFF28E03C011
:10494000A1F202C0A0F201C09FF29E6F4350040D7D
:10495000F350036A1C0FE96E000E0320EA6EEFCFDE
:10496000A2F2ECCFA3F2ECCFA4F2ECCFA5F2010EB1
:10497000A66FAD85A9510308D8A462D047C0B0F294
:104980000001C2EC0AF003C09DF202C09CF201C01B
:104990009BF200C09AF247500E080EE10201B06B84
:1049A0000001C2EC0AF003C0A1F202C0A0F201C0F3
:1049B0009FF200C09EF210D0010E47240201AF6F9B
:1049C000B06F0001C2EC0AF003C0A1F202C0A0F275
:1049D00001C09FF200C09EF202019D51A15D14E34F
:1049E0000BE19C51A05D10E307E19B519F5D0CE33F
:1049F00003E19E519A5D08E29DC2A5F29CC2A4F219
:104A00009BC2A3F29AC2A2F2A1519D5D14E30BE1F5
:104A1000A0519C5D10E307E19F519B5D0CE303E116
:104A20009A519E5D08E2A1C2A5F2A0C2A4F29FC263
:104A3000A3F29EC2A2F247C0A8F2010EA66FAD85F6
:104A4000A951040804E0A9510808D8A48ED059C07F
:104A5000A8F259C0ACF25AC0ABF2020EA66F1BB45A
:104A60007BD0B46B5AC0B3F2B66BA40EB56F000125
:104A700053EC0AF002C0B0F201C0AFF202C003F082
:104A800002010150F2CFB1F2F29E02C0F7FF000125
:104A900082EC03F0006E0900F5CF01F00900F5CFBC
:104AA00002F00900F5CF03F00201B1BFF28E03C09E
:104AB000B4F202C0B3F201C0B2F2B16FB1530DE172
:104AC000B2530BE1B35309E1B45307E15A5006085E
:104AD00002E35A2A01D05A6AC4D75950010802E3A6
:104AE000010E596E5950270802E2280E596EB46B18
:104AF0005AC0B3F2B66BA40EB56F000153EC0AF0C6
:104B000002C0B0F201C0AFF20201B46B59C0B3F2FF
:104B1000B66B040EB56F000153EC0AF002C003F04F
:104B200001500201AF25016EB05103220150F2CFB6
:104B3000AFF2F29E03C0F7FF000182EC03F0006EBB
:104B40000900F5CF01F00900F5CF02F00900F5CF1B
:104B500003F00201AFBFF28E03C0A5F202C0A4F2BF
:104B600001C0A3F200C0A2F2AD85A951070815E16A
:104B700047C0A8F247C0ACF2010EA66F47C0B0F222
:104B80000001C2EC0AF003C0A5F202C0A4F201C009
:104B9000A3F200C0A2F20201AD95A951050803E0FD
:104BA000A95106084EE1A751040DF350036AF2CF54
:104BB000AFF2F29E0001D7EC02F00900F5CF01F050
:104BC0000900F5CF02F00900F5CF03F00201AFBFF5
:104BD000F28E03C09DF202C09CF201C09BF29A6F5C
:104BE000A751040DF350036AF2CFAFF2F29E000119
:104BF0005FEC03F00900F5CF01F00900F5CF02F0FA
:104C00000900F5CF03F00201AFBFF28E03C0A1F29D
:104C100002C0A0F201C09FF29E6F4350040DF350FA
:104C2000036A1C0FE96E000E0320EA6EEFCFA2F2BA
:104C3000ECCFA3F2ECCFA4F2ECCFA5F2010EA66F5D
:104C4000AD859E519A5D12E19F519B5D0FE1A05190
:104C50009C5D0CE1A1519D5D09E11898020EAF6FBA
:104C60000001E9EC16F0CEEF29F002019D51A15DA3
:104C70000DE30BE19C51A05D09E307E19B519F5DB2
:104C800005E303E19E519A5D01E21B82A1519D5D06
:104C90000DE30BE1A0519C5D09E307E19F519B5D92
:104CA00005E303E19A519E5D01E21B92AD9919A8BB
:104CB00005D0ADB902D0AA2BAD8904D0AA3D01D050
:104CC000AA6BAD99ADA504D0AD9719B8AD8701D049
:104CD000AD87A651010A000103E0030A30E05AD073
:104CE000000E0201ADB7010E010A000103E0010A46
:104CF00014E024D043C0AFF20201B069A5C2B4F2FF
:104D0000A4C2B3F2A3C2B2F2A2C2B1F2A8C2B5F277
:104D1000B66B000135EC17F011D00201AF69B06934
:104D2000A5C2B4F2A4C2B3F2A3C2B2F2A2C2B1F25B
:104D3000A8C2B5F2B66B000135EC17F02BD0000E0F
:104D40000201ADB7010E010A000103E0010A12E001
:104D500020D0030E0201AF6FB069B46BB36BB26BBE
:104D6000A8C2B1F20F0EB56F020EB66F000135EC9E
:104D700017F00FD00201AF69B069B46BB36BB26BBF
:104D8000A8C2B1F20F0EB56F020EB66F000135EC7E
:104D900017F000D00201AF696650A55D14E30BE186
:104DA0006550A45D10E307E16450A35D0CE303E1EB
:104DB000A251635C08E266C0A5F265C0A4F264C0BB
:104DC000A3F263C0A2F2A551625C14E30BE1A4510B
:104DD000615C10E307E1A351605C0CE303E15F5009
:104DE000A25D08E262C0A5F261C0A4F260C0A3F2B5
:104DF0005FC0A2F2A5C2B7F2A4C2B6F2A3C2B5F2D6
:104E0000A2C2B4F2B86BAFC2B9F20001C3EC19F0A0
:104E100083A401D01B88010E0201AF6F000177EC63
:104E20001CF001C0AEF21BB88BD00201A951040ADC
:104E300000014EE0030AD8B45CD00F0AD8B469D0A0
:104E400000D000D000001BA220D00201A151A55D1E
:104E500015E30BE1A051A45D11E307E19F51A35DB0
:104E60000DE303E1A2519E5D09E29DC2A5F29CC241
:104E7000A4F29BC2A3F29AC2A2F206D0020EA2270B
:104E8000000EA323A423A52300011BB220D00201FE
:104E9000A551A15D15E30BE1A451A05D11E307E16C
:104EA000A3519F5D0DE303E19E51A25D09E29DC206
:104EB000A5F29CC2A4F29BC2A3F29AC2A2F206D0AF
:104EC000020EA25F000EA35BA45BA55B000138D0BD
:104ED000320E0201B46F000130EC0DF00201A85156
:104EE000270802E3A82B02D0010EA86FAD810001B4
:104EF00027D0C80E0201B46F000130EC0DF00201A2
:104F0000A8510D0802E3A82B01D0A86BAD830001C6
:104F100017D0320E0201B46F000130EC0DF0020127
:104F2000A851270802E3A82B09D05A50060803E32A
:104F3000010E5A2601D05A6A010EA86FAD810001F8
:104F40001BA887D00201AE510B0806E0AE51030842
:104F500003E0AE51210833E14350040A00010CE0A4
:104F6000030A14E00F0A1BE00A0E0201A227000E3A
:104F7000A323A423A52323D00201A851270802E3D9
:104F8000A82B02D0010EA86FAD8119D00201A85143
:104F90000D0802E3A82B01D0A86BAD8310D002014D
:104FA000A851270802E3A82B0AD05A50060803E3A9
:104FB000010E5A2601D05A6A010EA86FAD81AE517A
:104FC0000C0806E0AE51020803E0AE51200833E1C0
:104FD0004350040A00010CE0030A14E00F0A1BE02E
:104FE0000A0E0201A25F000EA35BA45BA55B23D0A7
:104FF0000201A851010802E2A80702D0280EA86FFA
:10500000AD8119D00201A85302E0A80702D00E0E0C
:10501000A86FAD8310D00201A851010802E2A807D1
:105020000AD05A5203E0010E5A5E02D0070E5A6EA1
:10503000280EA86FAD81AE5302E183A401D0AA6B04
:10504000AA51030805E283B401D01B98040EAA6F8D
:1050500000010201ADA186D01BB47BD0B46B5AC055
:10506000B3F2B66BA40EB56F000153EC0AF002C0A8
:10507000B0F201C0AFF202C003F002010150F2CF62
:10508000B1F2F29E02C0F7FF000182EC03F0006E65
:105090000900F5CF01F00900F5CF02F00900F5CFC6
:1050A00003F00201B1BFF28E03C0B4F202C0B3F24A
:1050B00001C0B2F2B16FB1530DE1B2530BE1B35382
:1050C00009E1B45307E15A50060802E35A2A01D015
:1050D0005A6AC4D7A851010802E3010EA86FA8516B
:1050E000270802E2280EA86FB46B5AC0B3F2B66B61
:1050F000A40EB56F000153EC0AF002C0B0F201C07B
:10510000AFF20201B46BA8C2B3F2B66B040EB56F76
:10511000000153EC0AF002C003F001500201AF2578
:10512000016EB05103220150F2CFAFF2F29E03C0E4
:10513000F7FF000182EC03F0006E0900F5CF01F0EB
:105140000900F5CF02F00900F5CF03F00201AFBF6F
:10515000F28E03C0A5F202C0A4F201C0A3F200C007
:10516000A2F2AD91ADA30FD0A8C2B0F20001C2EC83
:105170000AF003C0A5F202C0A4F201C0A3F200C06D
:10518000A2F20201AD9318B80BD000013AEC0EF078
:10519000C80E0201B46F000130EC0DF003D0020123
:1051A00086D5000183A41CD043500408D8B4A8C2FB
:1051B00059F043500308D8B4A8C247F04350040D37
:1051C000F350036A1C0FE96E000E0320EA6EA2C2C0
:1051D000EFFFA3C2ECFFA4C2ECFFA5C2ECFFA0D07E
:1051E00043500408D8A48BD0ACC259F0ABC25AF0DB
:1051F0001BB47DD00201B46B5AC0B3F2B66BA40EDF
:10520000B56F000153EC0AF002C0B0F201C0AFF27A
:1052100002C003F002010150F2CFB1F2F29E02C0CF
:10522000F7FF000182EC03F0006E0900F5CF01F0FA
:105230000900F5CF02F00900F5CF03F00201B1BF7C
:10524000F28E03C0B4F202C0B3F201C0B2F2B16F89
:10525000B1530DE1B2530BE1B35309E1B45307E18C
:105260005A50060802E35A2A01D05A6AC4D7595044
:10527000010802E3010E596E5950270802E2280E78
:10528000596EB46B5AC0B3F2B66BA40EB56F000181
:1052900053EC0AF002C0B0F201C0AFF20201B46BED
:1052A00059C0B3F2B66B040EB56F000153EC0AF0AF
:1052B00002C003F001500201AF25016EB05103227C
:1052C0000150F2CFAFF2F29E03C0F7FF000182EC73
:1052D00003F0006E0900F5CF01F00900F5CF02F0F0
:1052E0000900F5CF03F00201AFBFF28E000103C049
:1052F000A5F202C0A4F201C0A3F200C0A2F2435082
:1053000003080EE1ACC247F047C0B0F2C2EC0AF0AD
:1053100003C0A5F202C0A4F201C0A3F200C0A2F231
:105320000201AF696650A55D14E30BE16550A45D11
:1053300010E307E16450A35D0CE303E1A251635C59
:1053400008E266C0A5F265C0A4F264C0A3F263C01F
:10535000A2F2A551625C14E30BE1A451615C10E37D
:1053600007E1A351605C0CE303E15F50A25D08E23A
:1053700062C0A5F261C0A4F260C0A3F25FC0A2F255
:10538000A5C2B7F2A4C2B6F2A3C2B5F2A2C2B4F2E9
:10539000B86BAFC2B9F20001C3EC19F033EF34F0CF
:1053A0004350030A43E019AC21D0199E4350040D29
:1053B000F350036A1C0FE96E000E0320EA6E010E23
:1053C000EF24006E000EEC20016E000EEC20026E49
:1053D000000EEC20036EED52ED52ED5200C0EFFFD7
:1053E00001C0ECFF02C0ECFFEC6E1FD04350040D77
:1053F000F350036A1C0FE96E000E0320EA6E0A0EDA
:10540000EF24006E000EEC20016E000EEC20026E08
:10541000000EEC20036EED52ED52ED5200C0EFFF96
:1054200001C0ECFF02C0ECFFEC6E12D047500D083B
:1054300002E3472A01D0476A47C0B0F2C2EC0AF043
:1054400003C02BF002C02AF001C029F000C028F0F0
:105450004AEF32F04350030A43E019AC21D0199EC1
:105460004350040DF350036A1C0FE96E000E032035
:10547000EA6E010EEF5C006E000EEC58016E000E3D
:10548000EC58026E000EEC58036EED52ED52ED52E8
:1054900000C0EFFF01C0ECFF02C0ECFFEC6E1FD0BC
:1054A0004350040DF350036A1C0FE96E000E0320F5
:1054B000EA6E0A0EEF5C006E000EEC58016E000EF4
:1054C000EC58026E000EEC58036EED52ED52ED52A8
:1054D00000C0EFFF01C0ECFF02C0ECFFEC6E12D089
:1054E000475202E0470602D00E0E476E47C0B0F2A8
:1054F000C2EC0AF003C02BF002C02AF001C029F070
:1055000000C028F04EEF32F04350010A03E0030AD6
:1055100008E00DD0010E0201A66F000115EC0FF09E
:1055200006D0020E0201A66F000115EC0FF054EF39
:1055300032F0198E4350040DF350036A1C0FE96ECC
:10554000000E0320EA6E6F0EEF24006E000EEC20BA
:10555000016E000EEC20026E000EEC20ED52ED52BA
:10556000ED5200C0EFFF01C0ECFF02C0ECFFEC6E9B
:1055700058EF32F0198E4350040DF350036A1C0F9C
:10558000E96E000E0320EA6E6F0EEF5C006E000EF7
:10559000EC58016E000EEC58026E000EEC58ED5205
:1055A000ED52ED5200C0EFFF01C0ECFF02C0ECFF76
:1055B000EC6E5CEF32F0198E4350040DF350036A29
:1055C0001C0FE96E000E0320EA6E0A0EEF24006E37
:1055D000000EEC20016E000EEC20026E000EEC209E
:1055E000ED52ED52ED5200C0EFFF01C0ECFF02C0E2
:1055F000ECFFEC6E60EF32F0198E4350040DF35067
:10560000036A1C0FE96E000E0320EA6E0A0EEF5CBF
:10561000006E000EEC58016E000EEC58026E000E8B
:10562000EC58ED52ED52ED5200C0EFFF01C0ECFF1F
:1056300002C0ECFFEC6E64EF32F01BBC90EF2EF07A
:105640006AEC11F00150040DF350036A1C0FE96E6F
:10565000000E0320EA6EEFCF1CF0ECCF1DF0ECCF74
:105660001EF0ECCF1FF06AEC11F001C0A5F201C0F2
:10567000AFF20201B0691FC0B4F21EC0B3F21DC088
:10568000B2F21CC0B1F2B569B66B000135EC17F08F
:105690003AEC0EF01FC0C1F21EC0C0F21DC0BFF236
:1056A0001CC0BEF2C1C2C5F2C0C2C4F2BFC2C3F2C6
:1056B000BEC2C2F202019C6BC5530DE1C4510E087B
:1056C00015E2FF0A08E1C351410810E2FF0A03E1B5
:1056D000C2513F080BE2400EC25F420EC35B0F0E89
:1056E000C45B000EC55B010E9C27E6D79D6BC553BE
:1056F0000DE1C451000815E2FF0A08E1C351850815
:1057000010E2FF0A03E1C2519F080BE2A00EC25F44
:10571000860EC35B010EC45B000EC55B010E9D27A8
:10572000E6D79E6BC5530AE1C45308E1C35126086E
:105730000FE2FF0A03E1C2510F080AE2100EC25F36
:10574000270EC35B000EC45BC55B010E9E27EAD724
:105750009F6BC5530AE1C45308E1C35102080FE22D
:10576000FF0A03E1C251E7080AE2E80EC25F030E36
:10577000C35B000EC45BC55B010E9F27EAD7A06B1D
:10578000C55307E1C45305E1C35303E1C2516308A4
:1057900009E2640EC25F000EC35BC45BC55B010E11
:1057A000A027EED7A16BC55307E1C45305E1C3534E
:1057B00003E1C251090809E20A0EC25F000EC35B91
:1057C000C45BC55B010EA127EED7A26BC55307E1F1
:1057D000C45305E1C35303E1C251000809E2010EBD
:1057E000C25F000EC35BC45BC55B010EA227EED790
:1057F000010EA36FA46B83B204D082AA02D082BC34
:1058000003D0010EA36FF7D7A351070832E1000EB2
:1058100019B8010E010A000103E0010A16E027D0C1
:105820000A0E0201A325A56F43C0AFF2B0691FC0E5
:10583000B4F21EC0B3F21DC0B2F21CC0B1F2B56921
:10584000B66F000135EC17F012D043C0AFF2020181
:10585000B0691FC0B4F21EC0B3F21DC0B2F21CC0CA
:10586000B1F2B5690A0EB66F000135EC17F031D010
:105870000201000E19B8010E010A000103E0010A3D
:1058800016E027D00A0E0201A325A56F43C0AFF290
:10589000B0691FC0B4F21EC0B3F21DC0B2F21CC08A
:1058A000B1F2B569B66F000135EC17F012D043C004
:1058B000AFF20201B0691FC0B4F21EC0B3F21DC046
:1058C000B2F21CC0B1F2B569090EB66F000135EC39
:1058D00017F0010E0201AF6F000177EC1CF001C060
:1058E000A4F20201A45301E01998A451060803E0B0
:1058F000A4510D0807E1A351060802E3A32B02D02F
:10590000010EA36FA45103080AE0A4510B0807E09D
:10591000A451210804E0A4511008D8A4A8D0010E75
:10592000A35DF90FD8B0A3D0070F000191EF2EF0BF
:1059300002019C5103080AE29C6B400E1C26420E99
:105940001D220F0E1E22000E1F220AD0010E9C27C0
:10595000400E1C26420E1D220F0E1E22000E1F227C
:1059600086D002019D5109080AE29D6BA00E1C26FB
:10597000860E1D22010E1E22000E1F220AD0010ECD
:105980009D27A00E1C26860E1D22010E1E22000E33
:105990001F226DD002019E51090809E29E6B100E74
:1059A0001C26270E1D22000E1E221F2209D0010ECA
:1059B0009E27100E1C26270E1D22000E1E221F22BF
:1059C00056D002019F51090809E29F6BE80E1C2680
:1059D000030E1D22000E1E221F2209D0010E9F273A
:1059E000E80E1C26030E1D22000E1E221F223FD091
:1059F0000201A051090808E2A06B640E1C26000EEB
:105A00001D221E221F2208D0010EA027640E1C2674
:105A1000000E1D221E221F222AD00201A1510908B8
:105A200008E2A16B0A0E1C26000E1D221E221F2258
:105A300008D0010EA1270A0E1C26000E1D221E22D0
:105A40001F2215D00201A251090808E2A26B010E23
:105A50001C26000E1D221E221F2207D0010EA22787
:105A60001C26000E1D221E221F2201D00201A4515D
:105A700002080AE0A4510C0807E0A451200804E041
:105A8000A4511108D8A4A8D0010EA35DF90FD8B075
:105A9000A3D0070F0001AAEF2EF002019C530BE1E7
:105AA000090E9C6F400E1C5E420E1D5A0F0E1E5AB0
:105AB000000E1F5A0AD0010E9C5F400E1C5E420E63
:105AC0001D5A0F0E1E5A000E1F5A86D002019D53FA
:105AD0000BE1090E9D6FA00E1C5E860E1D5A010E75
