:020000040000FA
:10000000F9EF01F0FFFFFFFF84EF02F000000000B6
:1000100000000000000000008CEF02F01000030E52
:100020007E5E09E3EA6A7E0EE96EEF5004E001D0DD
:1000300000D0EF2EFDD728EF00F09EA8FED77C5011
:10004000AD6EACA2FED7020E7D6ECF0E7E6EE7D7F0
:100050007D2EFBD712009EAAFED7ABCF06F0AECF07
:1000600001F006A202D0AB98AB881200EA6A4A0EF1
:10007000E96EEF500DE0060E016E006A002EFED70D
:10008000012EFBD77B0E006E002EFED7EF2EF3D78E
:100090001200826B836B835101082BE381C003F054
:1000A00080C0E9FF81C0EAFFEF50400810E28251B2
:1000B000100DF3CF84F081C003F080C0E9FF81C050
:1000C000EAFFEF508425BF0F0A0F826F0CD08251D8
:1000D000100DF3CF84F080C0E9FF81C0EAFFEF503C
:1000E0008425D00F826F8351832B802BD8B4812B32
:1000F000D2D782C001F01200F250036EF29EA68E9B
:10010000A6840F01550EA76EAA0EA76EA682000048
:100110000350F21200011200D08CA69CF6501F0B67
:10012000006EE00EF6160A007CC001F0006608D0F2
:10013000F650010F3F0B04E1A6880900DDDF0A003D
:10014000006607D0EECFF5FF015204E00F00010674
:1001500003D000060B000C001F0EF6141F0AE6E188
:10016000CBDF0166E3D7F86AE8EF01F04A92506A04
:100170004F6A4AB236D1086A036A0850090FE96E1D
:10018000000E0320EA6EEACF7FF0E9CF7EF063DF56
:100190007FC0EAFF7EC0E9FF01C0EFFF0850082AD8
:1001A000036A090FE96E000E0320EA6EEF500D0896
:1001B00003E008504008E0E2130E7C6E3EDF4A8008
:1001C00009503A08D8A404D1816B0A0E806F61DF10
:1001D00001C05BF0816B0C0E806F5BDF01C07CF0B7
:1001E000816B0E0E806F55DF7CC04EF001C04DF06C
:1001F000816B100E806F4DDF01C04CF04FC053F08B
:1002000050C054F04DC051F04EC052F04B6A010E38
:100210005A6E030E085C5A5C14E2036A5A50090FC6
:10022000016E000E032201C07CF003C07DF003C00C
:1002300081F001C080F02DDF01504B26020E5A26BE
:10024000E8D7FF0ED8804B54010F4B6E030E085CAD
:10025000036A090F016E000E032201C07CF003C087
:100260007DF003C081F001C080F013DF01504B5CD2
:1002700002E04A90ADD04C2C02D04A82A9D04C501A
:10028000040811E1816B120E806F03DF01C07CF066
:10029000816B140E806FFDDE01C07DF07CC050F0DC
:1002A00001C04FF095D04C52D8A492D0545206E1E0
:1002B000535204E152500408D8B08AD05452D8A402
:1002C00087D05352D8A484D052507F08D8A080D071
:1002D000090E5A6E596A030E085C5A5C23E25950A3
:1002E000592A036A5C0F016E000E032201C07CF0E4
:1002F00003C07DF0036A5A50090F016E000E0322FD
:1003000001C07EF003C07FF003C081F001C080F027
:10031000C0DE7DC0EAFF7CC0E9FF01C0EFFF020E36
:100320005A26D9D75550515C09E15650525C06E126
:100330005750535C03E15850545C32E055503F0B2A
:10034000006E016A026A036A400ED8800056000EF1
:10035000015602560356555000265650012257505A
:100360000222585003220350545C1AE30BE102505E
:10037000535C16E307E10150525C12E303E1515074
:10038000005C0EE251503F0B7C6E7D6A7E6A7F6A94
:100390007C5206E17D5204E17E5202E17F5200E090
:1003A0005B505124556E000E5220566E000E5320A5
:1003B000576E000E5420586E53C0F8FF52C0F7FF1E
:1003C00051C0F6FFEA6A5C0EE96E5BC07CF0A4D611
:1003D0004AA003D0060E7C6E30DE110E7C6E2DDE40
:1003E000C8D6040E7C6E29DEF7EF01F0BFD666EFAB
:1003F00002F0F86AD09E066AB886110EAF6E040E3F
:10040000B06EA60EAC6E900EAB6E00000000C15038
:10041000C00B0F09C16E070EB46EC290010E926E32
:10042000000E936EFF0E946E956E96909692969433
:100430009696806A0790079283A045D007B043D074
:1004400007B041D082A60CD0B8862A0EAF6E000E3F
:10045000B06EA60EAC6E900EAB6E000000000BD01E
:10046000B886110EAF6E040EB06EA60EAC6E900E76
:10047000AB6E0000000007B204D0330E7C6EDDDDF1
:1004800003D0340E7C6ED9DD9EAA1CD0E4DD01C001
:1004900049F04950410801E10780495042080EE106
:1004A00007B202D0078201D00792020E806E140EAE
:1004B0004A6EDCDD806A0A0E4A6ED8DD9EAA02D042
:1004C000CADDFCD7BDD707A018D090D707A214D09B
:1004D000F250006EF29EA968A868A69CA69EA6840B
:1004E0000F01550EA76EAA0EA76EA682A6B2FED762
:1004F000A6940050F2120001FF0002D80300FFFF93
:1005000071EF18F0FFFFFFFF046ED8CF05F0E0CFCA
:1005100006F00001E9CF0CF0EACF07F0E1CF08F0D8
:10052000E2CF09F0D9CF0AF0DACF0BF0F3CF12F017
:10053000F4CF13F0FACF14F000C00EF001C00FF0AA
:1005400002C010F003C011F09DA0AAEF02F09EB00F
:1005500053EF04F09DA2B0EF02F09EB2A6EF03F0BD
:100560009DAAB6EF02F09EBA6EEF04F00EC000F046
:100570000FC001F010C002F011C003F00CC0E9FF81
:1005800007C0EAFF078E08C0E1FF09C0E2FF0AC00A
:10059000D9FF0BC0DAFF12C0F3FF13C0F4FF14C081
:1005A000FAFF045006C0E0FF05C0D8FF1000F2CFEC
:1005B0000DF0F29EF76AC80FF66E050EF7220900DD
:1005C000F5500DBEF28E120050C3000020BF020095
:1005D0003057050060AE0A0050690F00C05C15007E
:1005E00040771B00200B2000009F240080B92A00C8
:1005F000C0C62D00F2CF0DF0F29EF76A0E0FF66E18
:10060000060EF7220900F5500DBEF28E1200F049D9
:100610000200400D030030570500801A060060AE4E
:100620000A00B0710B0040420F0090051000C05C42
:1006300015001020160040771B00903A1C00200B7C
:10064000200070CE2000009F2400F0E8260080B932
:100650002A00C0C62D00000000000000000082B487
:1006600001D08C8182A406D08B5304E08CA102D0EF
:100670008C918B078B5364E1036A8D517E0FE96E79
:10068000000E0320EA6EEF500F0B016EE8A0849479
:10069000E8B08484036A8D517E0FE96E000E03205A
:1006A000EA6ED890EF300F0B016EE8A08492E8B0AC
:1006B0008482036A8D517E0FE96E000E0320EA6E7C
:1006C000EF30006E00323F0E001600500F0BE8A016
:1006D0008490E8B08480036A8D517E0FE96E000E2D
:1006E0000320EA6EEF30006E003200321F0E00165B
:1006F00000500F0BE8A0809AE8B0808A82A401D055
:1007000080880101326B3251270808E3322B00D078
:1007100000D0000082B401D001D0F5D78494849237
:100720008490809A326B809800018D510C0802E30E
:10073000010E8D2782B403D08D6B010E8B6F04D018
:10074000849484928490809AB3EF03F037B00AD0F7
:100750000F0E826F836F846F856F866F876F886FD0
:10076000896F8A6F7CD79E929E92B6EF02F001014C
:100770003251010A000106E0030A07E0010A08E01D
:10078000806A08D00A0E806E05D00E0E806E02D0F0
:10079000060E806E12004FA606D03ABA03D03A8AEF
:1007A000010E50260CD03AAA01D03A9A50500408B3
:1007B00006E239AE02D0399E01D0398E506A4FA47C
:1007C0000CD037BC04D082A602D0378C378E37AC21
:1007D00004D082B602D0379C379E4F50030B30E0D6
:1007E00083A601D0388C3BA801D0388C38AC28D0F7
:1007F0003AA01AD03BA806D0020E0101326F0001C8
:10080000B6DF12D0000E37B4010E000A03E0010A71
:1008100006E00AD00101326B0001A9DF05D0010E0C
:100820000101326F0001A3DF3AB005D0030E0101D0
:10083000326F00019CDF3BB803D083B601D0389CF7
:1008400039A40ED04FA60BD039B609D05C3C01D0EC
:1008500003D0010E5C2601D03994398601D0399637
:1008600039A00ED04FA60BD039B209D05B3C01D0D5
:1008700003D0010E5B2601D03990398201D0399224
:1008800083A00AD03ABE08D03A8E3AA603D03A984E
:100890003A9602D03A883A8683B003D03AAE01D075
:1008A0003A9E5AEF04F04F3C01D002D04F2A01D0BB
:1008B0004F6A71D7F00ECF6E600ECE6E9E909E90F6
:1008C000B6EF02F09EAAFED7ABCF16F0AECF01F086
:1008D00016A202D0AB98AB886FEF04F0F3D701C03B
:1008E00062F0036A5D50630FE96E000E0320EA6E4A
:1008F00062C0EFFF5D2A5D50180801E25D6A5D503D
:10090000050802E15D6A3A829E9AB6EF02F00101A3
:100910001F51F70F45E2090F0001D3EF04F0806A81
:100920000000806A00D001013BD0806A0000080E00
:10093000806E00D0010134D0806A0000040E806E09
:1009400000D001012DD0806A00000C0E806E00D016
:10095000010126D0806A0000020E806E420E006EF9
:10096000002EFED7000001011BD0806A00000A0E95
:10097000806E00D0010114D0806A0000060E806EE7
:1009800000D001010DD0806A00000E0E806E00D0F4
:10099000010106D0818E00D0819E010101D00101AC
:1009A000806A00011200F2CF0DF0F29EE824F76A8F
:1009B000F736CB0FF66E090EF7220A00F550FA6EE5
:1009C0000800F5500DBEF28EF96E1E092A0938098D
:1009D000460954096A097809860994091DC181FFED
:1009E000010E01011F6F000192DF12001DC181FF86
:1009F000080E01011F6F00018ADF1200010106517C
:100A0000036A600F086F000E0320096F08C11DF113
:100A10000001E4DF01010631096F0531086F093378
:100A2000083309330833093308330F0E0917085107
:100A30000F0B006E036A0050500F086F000E03206A
:100A4000096F08C11DF10001C9DF010105510F0B3C
:100A5000006E036A0050400F086F000E0320096FFC
:100A600008C11DF10001BADF000E600F0101086F1F
:100A70001D6F0001BBDF01010739006E0F0E00166C
:100A800000500F0B500F086F1D6F0001AFDF010109
:100A900007510F0B400F086F1D6F0001A7DF1200F9
:100AA000010EEA6E120EE96EEF500DE0060E016EB9
:100AB000006A002EFED7012EFBD77B0E006E002EA3
:100AC000FED7EF2EF3D71200C290010E926E000EE9
:100AD000936EFF0E946E956E96909692969496965F
:100AE000B50ECD6E000E0609CA6E770ECB6EF00EF7
:100AF000CF6E600ECE6E9D809D829D8A9E909E924E
:100B0000C00EF212376A386A396A3A6A3B6A3C6A3E
:100B1000806A816A826A836A846A809A84908492F5
:100B200084940101066B056B076B000167DFC80E3B
:100B30000101126F0001B4DFCDEF18F0F2CF23F105
:100B4000F29E22C1A9FFA69CA69EA680A8500101E4
:100B500023BFF28E016E0001120005C122F1EEDF0B
:100B600001501200F250006EF29E21C1A9FF22C175
:100B7000A8FFA69CA69EA6840F01550EA76EAA0EDE
:100B8000A76EA682A6B2FED7A6940050F21200016C
:100B90001200F2CF0EF1F29E0BC1A9FFA69CA69EF9
:100BA000A680A85001010EBFF28E0D6F0C510D5D95
:100BB000D8B407D00BC121F10CC122F10001D2DF62
:100BC00001010001120001011C6B1B6B1A6B196BF8
:100BD0001451040DF3CF1DF11E6B1E5103081CE3CD
:100BE000010E206F190E1F6F1E511F25016E000E82
:100BF0002021036E01C01FF1206F1E511D25216FA2
:100C0000226F00019BDF20C1EAFF1FC1E9FF01C085
:100C1000EFFF01011E2BE1D71951155D0AE11A51B1
:100C2000165D07E11B51175D04E11C51185DD8B436
:100C30001FD01E6B1E5103081BE31E511D251F6F85
:100C4000010E216F150E206F1E512025016E000E22
:100C50002121036E01C0E9FFEA6EEFCF20F11FC131
:100C600021F120C122F100017DDF01011E2BE2D71D
:100C7000000112000101056B053D01D008D005C13E
:100C80000BF10C6B000185DF0101052BF5D7056B1E
:100C900005510E080EE305C114F1186B0A0E176F0B
:100CA000AE0E166F600E156F00018DDF0101052B72
:100CB000EFD70F0E056F055119080BE305C114F1AD
:100CC000186B176B166B156B00017DDF0101052B8F
:100CD000F2D71A0E056F055124082CE31A0E055D94
:100CE000040DF350036AF2CF06F1F29E00015FDCBF
:100CF000006E0900F5CF01F00900F5CF02F0090000
:100D0000F5CF03F0010106BFF28E03C009F102C066
:100D100008F101C007F1066F05C114F103C018F115
:100D200002C017F101C016F1156F00014CDF01017F
:100D3000052BD1D7250E056F05512F082CE3250E65
:100D4000055D040DF350036AF2CF06F1F29E000137
:100D50002EDC006E0900F5CF01F00900F5CF02F09E
:100D60000900F5CF03F0010106BFF28E03C009F1BF
:100D700002C008F101C007F1066F05C114F103C0FC
:100D800018F102C017F101C016F1156F00011BDF49
:100D90000101052BD1D7E10E0B6F030E0C6F000183
:100DA000F8DEE20E01010B6F030E0C6F0001F1DEA5
:100DB000E30E01010B6F030E0C6F0001EADEE00E83
:100DC00001010B6F010E0C6F0001E3DEFE0E01014D
:100DD0000B6F0C6B0001DDDEE50E01010B6F0C6B80
:100DE0000001D7DEEA0E01010B6F010E0C6F00014E
:100DF000D0DEFA0E01010B6F010E0C6F0001C9DE8F
:100E0000FC0E01010B6F0C6B0001C3DE01010B69CD
:100E1000010E0C6F0001BDDEEC0E01010B6F010E27
:100E20000C6F0001B6DEE3EF07F001011451040D71
:100E3000F3CF15F11A6B196B186B176B166B1651F4
:100E400003081CE3010E1C6F170E1B6F16511B25A8
:100E5000016E000E1C21036E01C01BF11C6F1651A8
:100E600015251D6F226F000169DE1CC1EAFF1BC141
:100E7000E9FF01C0EFFF0101162BE1D717C100F018
:100E800018C101F019C102F01AC103F000011200EB
:100E90000101112D08D01A0E1225136F146F0001D5
:100EA000C4DF0DD001011151020808E1250E122501
:100EB000136F146F0001B9DF02D0010100011200AD
:100EC0000DC114F1B2DF1200010E0101116F44C017
:100ED00012F10001DDDF03C01EF002C01DF001C0F1
:100EE0001CF000C01BF0020E0101116F45C012F191
:100EF0000001CEDF03C022F002C021F001C020F0CB
:100F000000C01FF04AC00DF1DBDF03C026F002C0B5
:100F100025F001C024F000C023F06AEF08F00F0EA6
:100F200001010B6F0C6B0C51070841E3000E37B445
:100F3000010E0D6F0C51040DF350010F036A8E0F5B
:100F4000E96E000E0320EA6EEF500D5D2EE1000EFB
:100F500037B6010E0D6F0C51040DF350020F036AEA
:100F60008E0FE96E000E0320EA6EEF500D5D1DE15D
:100F7000000E37B8010E0D6F0C51040DF350030F26
:100F8000036A8E0FE96E000E0320EA6EEF500D5DCE
:100F90000CE10C51040DF350036A8E0FE96E000E44
:100FA0000320EA6EEFCF0BF102D00C2BBCD70BC1A4
:100FB00001F000011200010105690001CEDD012CE4
:100FC00001D001D057D6E10E0101056F0001C5DD4A
:100FD00001C044F0E20E0101056F0001BEDD01C059
:100FE00045F0E30E0101056F0001B7DD01C046F0D9
:100FF000E00E0101056F0001B0DD01C047F0FE0EFB
:101000000101056F0001A9DD01C049F0E50E0101F4
:10101000056F0001A2DD01C04AF0EA0E0101056F73
:1010200000019BDD01C04CF0FA0E0101056F0001CB
:1010300094DD379001B03780FC0E0101056F00018F
:101040008CDD01C05EF0EC0E0101056F000185DD55
:1010500001C061F0010E615CFC0F30E2040F85EF0E
:1010600008F0B886110EAF6E040EB06EA60EAC6E10
:10107000900EAB6E0000000021D0B896400EAF6E0F
:10108000A60EAC6E900EAB6E0000000017D0B886B6
:10109000560EAF6E000EB06EA60EAC6E900EAB6E1E
:1010A000000000000BD0B8862A0EAF6E000EB06EA6
:1010B000A60EAC6E900EAB6E00000000808A00D0D1
:1010C00000D0000082A002D0379A01D0378A809ADF
:1010D0003B82FAD624DF01C04DF0010E4E6E4F6AFE
:1010E000506A516A526A020E536E546A010E576E6C
:1010F000586A5A6A399C5B6A5C6A5D6A626A7C6A91
:101100003A9C5F6A606ACFEF18F0F2CF0DF0F29E62
:10111000E824F76AF7362F0FF66E110EF7220A0051
:10112000F550FA6E0800F5500DBEF28EF96E6210A1
:101130007A108E10A61001010A6B83A802D0080E47
:101140000A2783AA02D0040E0A2783AC02D0020E1B
:101150000A2783AE02D0010E0A270AC101F000015E
:101160001200E9DF01C055F055C056F01200040E20
:1011700001011F6F000187EC04F012000101105102
:10118000010A000105E0030A0BE0010A11E018D092
:101190004DC011F1010E0101126F0F0E136F15D02A
:1011A0004DC011F10C0E0101126F0F0E136F0DD017
:1011B0004DC011F1020E0101126F4AC013F105D0AA
:1011C0000F0E0101116F126F136F12C182F011C166
:1011D00083F013C18AF00001ACEF0AF001012E5335
:1011E000D8A4A4D021C103F020C1E9FF21C1EAFFA6
:1011F000EF6A1F5311E11E510F080EE307E11D5165
:1012000042080AE303E11C513F0806E320C1E9FF5D
:1012100021C1EAFF0F0EEF6E23C103F022C1E9FFE7
:1012200003C0EAFFEF6A1F5311E11E5101080EE3EC
:1012300007E11D5186080AE303E11C519F0806E3FC
:1012400022C1E9FF23C1EAFF0F0EEF6E25C103F0B3
:1012500024C1E9FF03C0EAFFEF6A1F530FE11E53E9
:101260000DE11D5127080AE303E11C510F0806E3B5
:1012700024C1E9FF25C1EAFF0F0EEF6E27C103F07D
:1012800026C1E9FF03C0EAFFEF6A1F530FE11E53B7
:101290000DE11D5103080AE303E11C51E70806E3D1
:1012A00026C1E9FF27C1EAFF0F0EEF6E29C103F047
:1012B00028C1E9FF03C0EAFFEF6A1F530DE11E5387
:1012C0000BE11D5309E11C51630806E328C1E9FF46
:1012D00029C1EAFF0F0EEF6E2BC103F02AC1E9FF0F
:1012E00003C0EAFFEF6A1F530DE11E530BE11D53CC
:1012F00009E11C51090806E32AC1E9FF2BC1EAFFF5
:101300000F0EEF6E2DC103F02CC1E9FF03C0EAFF01
:10131000EF6A1C530BE11D5309E11E5307E11F53F4
:1013200005E12CC1E9FF2DC1EAFFEF6A1F530DE172
:101330001E510E081CE2FF0A08E11D51410817E288
:10134000FF0A03E11C513F0812E2400E1C5F420EEF
:101350001D5B0F0E1E5B000E1F5B21C103F020C141
:10136000E9FF21C1EAFF010EEF24EF6EDFD71F5323
:101370000DE11E5100081CE2FF0A08E11D5185081D
:1013800017E2FF0A03E11C519F0812E2A00E1C5F46
:10139000860E1D5B010E1E5B000E1F5B23C103F05A
:1013A00022C1E9FF23C1EAFF010EEF24EF6EDFD770
:1013B0001F530AE11E5308E11D51260816E2FF0AD9
:1013C00003E11C510F0811E2100E1C5F270E1D5B7C
:1013D000000E1E5B1F5B25C103F024C1E9FF25C180
:1013E000EAFF010EEF24EF6EE3D71F530AE11E530D
:1013F00008E11D51020816E2FF0A03E11C51E7084B
:1014000011E2E80E1C5F030E1D5B000E1E5B1F5BEE
:1014100027C103F026C1E9FF27C1EAFF010EEF242F
:10142000EF6EE3D71F5307E11E5305E11D5303E1A0
:101430001C51630810E2640E1C5F000E1D5B1E5BF6
:101440001F5B29C103F028C1E9FF29C1EAFF010E92
:10145000EF24EF6EE7D71F5307E11E5305E11D533D
:1014600003E11C51090810E20A0E1C5F000E1D5B0F
:101470001E5B1F5B2BC103F02AC1E9FF2BC1EAFFF2
:10148000010EEF24EF6EE7D71F5307E11E5305E16E
:101490001D5303E11C51000810E2010E1C5F000EF9
:1014A0001D5B1E5B1F5B2DC103F02CC1E9FF2DC12D
:1014B000EAFF010EEF24EF6EE7D72E5300E10001A3
:1014C000120013C11FF112C11EF111C11DF110C193
:1014D0001CF1010E0101216F150E206F010E236F0B
:1014E000160E226F010E256F170E246F010E276F47
:1014F000180E266F010E296F190E286F010E2B6F23
:101500001A0E2A6F010E2D6F1B0E2C6F2E6B000111
:1015100065DE01011451010A00010DE015C184F0DE
:1015200016C185F017C186F018C187F019C188F07F
:101530001AC189F00CD016C184F017C185F018C10A
:1015400086F019C187F01AC188F01BC189F0B7EF86
:101550000AF00AC110F112D60EC113F10DC112F139
:101560000CC111F10BC110F10FC114F1AAD7120077
:10157000030E01011F6F000187EC04F01200016AE5
:10158000026A006A036A01011F5102E11E5118E05C
:10159000100E206FD8901C371D37003603361F51B0
:1015A000035C02E11E51005C07E31E51005ED8A0FF
:1015B00003061F51035ED88001360236202FEAD77A
:1015C00000011200020E01011F6F000187EC04F000
:1015D000F2EF0AF0700E01011E6F1D511E25816E83
:1015E0000001F0D797EF0DF0700E01011E6F1D5135
:1015F0001E25816E0001A0EF0DF02E520DE12D5041
:101600002F0810E2FF0A08E12C50D3080BE2FF0A72
:1016100003E12B50000806E22E6A2D6A270E2C6E7D
:10162000100E2B6E2E520FE12D520DE12C5027087B
:101630000AE303E12B500F0806E32E6A300E2D6EED
:10164000D40E2C6E2B6A2EC00FF12DC00EF12CC0C3
:101650000DF12BC00CF10101116B106B136B126BB0
:101660000A5308E00001B36BB26BB56BB46BB66B99
:10167000B76B01010B3DA3D00F530DE10E5198083C
:101680000AE307E10D51960806E303E10C517E08D9
:1016900002E3090E4B6E0F530DE10E5126080AE3CB
:1016A00007E10D51250806E303E10C519F0802E311
:1016B000080E4B6E0F530DE10E5120080AE307E1AF
:1016C0000D51CE0806E303E10C516F0802E3070E4B
:1016D0004B6E0F530DE10E511C080AE307E10D514B
:1016E0003A0806E303E10C518F0802E3060E4B6E45
:1016F0000F530DE10E5116080AE307E10D512008C2
:1017000006E303E10C510F0802E3050E4B6E0F5385
:101710000DE10E5110080AE307E10D51050806E33B
:1017200003E10C518F0802E3040E4B6E0F530DE1E1
:101730000E510B080AE307E10D51710806E303E1BE
:101740000C51AF0802E3030E4B6E0F530DE10E5127
:1017500006080AE307E10D511A0806E303E10C51FC
:101760007F0802E3020E4B6E0F530DE10E5103088A
:101770000AE307E10D51D00806E303E10C518F089D
:1017800002E3010E4B6E0F530DE10E5102080AE306
:1017900007E10D51490806E303E10C51EF0802E3AC
:1017A000010E4B6E0001B6514B5C07E03890B76BF1
:1017B0004BC081FFDDDE4BC0B6F00ED001010BC186
:1017C0004BF00001B6514B5C07E03890B76B4BC053
:1017D00081FFCEDE4BC0B6F03D6A3E6A3F6A406A8A
:1017E000416A426A436A01010F530DE10E510E082E
:1017F00019E2FF0A08E10D51410814E2FF0A03E172
:101800000C513F080FE2400E0C5F420E0D5B0F0EB5
:101810000E5B000E0F5B640E1027000E1123010EED
:101820003D26E2D70F530DE10E51000819E2FF0AE1
:1018300008E10D51850814E2FF0A03E10C519F08ED
:101840000FE2A00E0C5F860E0D5B010E0E5B000E0C
:101850000F5B0A0E1027000E1123010E3E26E2D761
:101860000F530AE10E5308E10D51260817E2FF0A53
:1018700003E10C510F0812E2100E0C5F270E0D5BF6
:10188000000E0E5B0F5B010E1027000E1123640E7D
:101890001227000E1323010E3F26E2D70F530AE151
:1018A0000E5308E10D51020813E2FF0A03E10C5147
:1018B000E7080EE2E80E0C5F030E0D5B000E0E5BF8
:1018C0000F5B0A0E1227000E1323010E4026E6D7E7
:1018D0000F5307E10E5305E10D5303E10C5163086B
:1018E0000DE2640E0C5F000E0D5B0E5B0F5B010ED4
:1018F0001227000E1323010E4126EAD70F5307E1EA
:101900000E5305E10D5303E10C51090809E20A0EDB
:101910000C5F000E0D5B0E5B0F5B010E4226EED7D7
:101920000C5306E10D5304E10E5302E10F5309E09D
:10193000010E0C5F000E0D5B0E5B0F5B010E43266C
:10194000EFD71351000809E2FF0A03E11251F3082F
:1019500004E2F40E125F010E135B300E1227020E2A
:101960001323146B156B166B176B186B196B1A6BB3
:101970001B6B0001B2510101125D05E10001B35181
:101980000101135D34E013C115F113311D6F1231E4
:101990001C6F1D331C331D331C331D331C330F0EC2
:1019A0001D171C510F0B166F12510F0B176F300EB6
:1019B00014251C6F1D6F0001EEEC04F0200E0101D8
:1019C00015251C6F1D6F0001EEEC04F0100E0101D7
:1019D00016251C6F1D6F0001EEEC04F017C11DF100
:1019E000EEEC04F013C1B3F012C1B2F0010100013A
:1019F000B4510101105D06E10001B5510101115D15
:101A0000D8B48AD04B50050834E311C11DF110C180
:101A10001CF11F6B050E1E6F0001B1DD02C01DF130
:101A200001C01CF10C0E01011C27000E1D231D31ED
:101A3000036E1C31026E0332023203320232033271
:101A4000023202C01AF111C11DF110C11CF11F6B4D
:101A5000050E1E6F000193DD02C01DF101C01CF1D7
:101A60000C0E01011C27000E1D231C510F0B1B6FB8
:101A700033D011C11DF110C11CF11F6B050E1E6F7B
:101A800000017DDD02C01DF101C01CF1120E01013B
:101A90001C5F000E1D5B1D31036E1C31026E033294
:101AA0000232033202320332023202C01AF111C191
:101AB0001DF110C11CF11F6B050E1E6F00015FDDD3
:101AC00002C01DF101C01CF1120E01011C5F000ECD
:101AD0001D5B1C510F0B1B6F300E18251C6F1D6FEB
:101AE0000001F6EC04F0200E010119251C6F1D6F9A
:101AF0000001F6EC04F0100E01011A251C6F1D6F99
:101B00000001F6EC04F01BC11DF1F6EC04F011C16C
:101B1000B5F010C1B4F0010143500001B75D09E018
:101B2000010E432401011C6F1D6F000153D543C0FA
:101B3000B7F0010E422401011C6F1D6F000154D546
:101B4000120001010A6B84B448D084B246D084B03C
:101B500044D080BA42D084928494809A848000D009
:101B600000D0000082A402D0010E0A6F82A202D02F
:101B7000020E0A6F82A002D0030E0A6F8490848244
:101B800000D000D0000082A402D0040E0A6F82A20E
:101B900002D0050E0A6F82A002D0060E0A6F849250
:101BA000848400D000D0000082A402D0070E0A6F07
:101BB00082A202D0080E0A6F82A002D0090E0A6F1C
:101BC0008494808A00D000D0000082A202D00A0E45
:101BD0000A6F849484928490809A0AC101F0000173
:101BE00012000FC114F113C118F112C117F111C184
:101BF00016F110C115F1E3EC05F0120001010F2DF3
:101C000010D01A0E1025116F146F1EC018F11DC0D0
:101C100017F11CC016F11BC015F10001E3EC05F033
:101C200001010F51020810E1250E1025116F146FEC
:101C300022C018F121C017F120C016F11FC015F104
:101C40000001E3EC05F001010001120001010E6B3F
:101C50000C51010A000103E0030A04E005D044C06E
:101C60000EF102D045C00EF10CC10FF10EC110F102
:101C7000C5DF01010D5307E10E5302E00E0702D04C
:101C8000090E0E6F06D00E51080802E30E2B01D08C
:101C90000E6B0C51040DF350036A170F016E000E0A
:101CA000032201C00FF103C010F10CC111F10EC1EC
:101CB00012F1000148EC07F010C1EAFF0FC1E9FF83
:101CC00000C0EFFF01C0ECFF02C0ECFF03C0ECFF5F
:101CD00001010C51010A000103E0030A04E005D0F0
:101CE0000EC144F002D00EC145F012004A500D085A
:101CF00002E34A2A01D04A6A4AC00DF160EC07F0BB
:101D000003C026F002C025F001C024F000C023F07B
:101D1000120001010B530EE147C00BF1472C01D01B
:101D200003D04750020806E137BC02D037AE02D0DC
:101D3000040E0B270B530AE00B51020807E347C0C0
:101D40000CF1010E0D6F000181DF01010B5306E064
:101D50000B51030803E10001C9DF01010B5321E02E
:101D60000B5104081EE24750040DF350036A170F8D
:101D7000E96E000E0320EA6E500EEF24006EC30ED3
:101D8000EC20016E000EEC20026E000EEC20ED52F5
:101D9000ED52ED5200C0EFFF01C0ECFF02C0ECFFBE
:101DA000EC6E000112004A5202E04A0602D00E0E0A
:101DB0004A6E4AC00DF160EC07F003C026F002C085
:101DC00025F001C024F000C023F0120001010B53E4
:101DD0000EE147C00BF1472C01D003D04750020859
:101DE00006E137BC02D037AE02D0040E0B270B53EE
:101DF00009E00B51020806E347C00CF10D6B00012E
:101E000025DF01010B5306E00B51030803E100013C
:101E1000CADF01010B5321E00B5104081EE24750B9
:101E2000040DF350036A170FE96E000E0320EA6EEB
:101E3000500EEF5C006EC30EEC58016E000EEC58B5
:101E4000026E000EEC58ED52ED52ED5200C0EFFF65
:101E500001C0ECFF02C0ECFFEC6E0001120037B6CF
:101E600014D0379837864750040DF350036A170F84
:101E7000E96E000E0320EA6EEFCF2FF0ECCF30F0CA
:101E8000ECCF31F0ECCF32F005D03796326A316AC0
:101E9000306A2F6A12000101206B1F6B1E6B1D6BD5
:101EA0001C5309E0010E1D27000E1E231F232023B3
:101EB000010E1C5FF5D71B5309E00A0E1D27000E0B
:101EC0001E231F232023010E1B5FF5D71A5309E0A1
:101ED000640E1D27000E1E231F232023010E1A5FF0
:101EE000F5D719530AE0E80E1D27030E1E23000E36
:101EF0001F232023010E195FF4D718530AE0100E98
:101F00001D27270E1E23000E1F232023010E185FFE
:101F1000F4D717530BE0A00E1D27860E1E23010ECB
:101F20001F23000E2023010E175FF3D716530BE07B
:101F3000400E1D27420E1E230F0E1F23000E2023CE
:101F4000010E165FF3D71DC100F01EC101F01FC1C5
:101F500002F020C103F00001DFEF0FF001010E518C
:101F60000F0B0F6F0D39006E0F0E001600500F0B88
:101F7000106F0D510F0B116F0C39006E0F0E001604
:101F800000500F0B126F0C510F0B136F0B39006EBB
:101F90000F0E001600500F0B146F0B510F0B156F27
:101FA0000FC116F110C117F111C118F112C119F1C9
:101FB00013C11AF114C11BF11C6F00016CD7C2EFE1
:101FC00011F00101116B0F51115D2FE2040E1F6F13
:101FD000000187EC04F001011051010A000105E045
:101FE000030A08E0010A0BE00ED0010E826F0F0E0B
:101FF0008A6F09D00C0E826F0F0E8A6F04D0020E0A
:10200000826F4AC08AF0640E0101126F000150EC29
:1020100005F00F0E8A6F826F640E0101126F0001CE
:1020200050EC05F00101112BCED700011200010187
:102030000B5306E1010E49240C6F030E0D6F04D003
:10204000010E0C6F020E0D6F0C51040DF350036A5C
:10205000170FE96E000E0320EA6EEFCF17F0ECCFFA
:1020600018F0ECCF19F0ECCF1AF00C51040DF3502E
:10207000036A170F016E000E032201C00EF103C0A8
:102080000FF10D51040DF350036A170FE96E000EA6
:102090000320EA6EEFCF00F0ECCF01F0ECCF02F0BE
:1020A000ECCF03F00FC1EAFF0EC1E9FF00C0EFFF64
:1020B00001C0ECFF02C0ECFF03C0ECFF0D51040DAA
:1020C000F350036A170FE96E000E0320EA6E17C083
:1020D000EFFF18C0ECFF19C0ECFF1AC0ECFF1A6A42
:1020E000196A186A176A0B530DE14AC00FF126C02E
:1020F00013F125C012F124C011F123C010F1000129
:1021000070DD0101010E49240E6F010E0F6F0EC12B
:1021100010F1000156DF010E01010F6F030E106F69
:1021200000014FDF1200030E0101105F0AE3010EF0
:10213000EA6E100EE96EEF5004E001D000D0EF2EF1
:10214000FDD7000112009EA8FED701010E51AD6E11
:10215000ACA2FED7020E0F6FCF0E106F0001E3DFAF
:1021600001010F2FF9D70001CCEF10F003C112F1DC
:1021700050EC05F001010C6B0B510C5D10E2036A91
:102180000C51B80FE96E000E0320EA6EEFCF0DF18F
:102190000DC10EF10001D7D701010C2BEDD70001C5
:1021A000120001010A6B67C05FF05F50010A000175
:1021B00038E0030A41E0010A62E0070AD8B482D09D
:1021C000010AD8B48AD0030AD8B494D0010AD8B48A
:1021D000B4D00F0AD8B4B9D0010AD8B4BED0030A1B
:1021E000D8B4C7D0010AD8B4EFD0060AD8B4F5D015
:1021F000010AD8B4FAD0020AD8B402D1010AD8B47C
:102200000AD11E0AD8B40ED1010AD8B411D1ED0AF0
:10221000D8B424D1030AD8B43FD1010AD8B444D1E8
:1022200044D16650010A02E0379801D03788030E86
:1022300001010A6F000139D1030E476E040DF350FE
:10224000036A170F016E000E032201C00BF103C0D9
:102250000CF166C00DF1000160EC07F00CC1EAFF63
:102260000BC1E9FF00C0EFFF01C0ECFF02C0ECFFB3
:1022700003C0ECFF020E01010A6F000116D1010E2E
:102280004924476E040DF350036A170FE96E000EE0
:102290000320EA6EEFCF0BF1ECCF0CF1ECCF0DF198
:1022A000ECCF0EF166C00FF10EC113F10DC112F1AA
:1022B0000CC111F10BC110F194DC020E01010A6F87
:1022C0000001F3D06650010A02E0379401D0378450
:1022D000030E01010A6F0001E8D06650010A03E015
:1022E000010E476E02D0020E476E020E01010A6F08
:1022F0000001DBD0010E4924040DF350036A170FCF
:10230000016E000E032201C00BF103C00CF166C088
:102310000DF1000160EC07F00CC1EAFF0BC1E9FF11
:1023200000C0EFFF01C0ECFF02C0ECFF03C0ECFFF8
:10233000020E01010A6F0001B8D060C00BF1E9DCA8
:10234000020E01010A6F0001B0D060C00BF13EDD4A
:10235000020E01010A6F0001A8D081DD6650010A5A
:1023600002E0379601D03786030E01010A6F0001A3
:102370009CD063C00BF164C00CF165C00DF166C068
:102380000EF1ECD503C02EF002C02DF001C02CF0F0
:1023900000C02BF04750040DF350036A170FE96E8D
:1023A000000E0320EA6E2BC0EFFF2CC0ECFF2DC007
:1023B000ECFF2EC0ECFF2E6A2D6A2C6A2B6A010EF0
:1023C00001010A6F000171D001010B6B00012FDECA
:1023D000020E01010A6F000168D06650010A03E095
:1023E000050E606E01D0606A60D066C05EF0FC0EC3
:1023F00001010B6F5EC00CF10001C9EC05F055D076
:10240000266A256A246A03C123F04B0E01010B6F73
:102410000001ACDE4AD06650010A02E03B9801D0D0
:102420003B8843D03BB802D03B8801D03B983DD09D
:102430006650010A06E04B0E01010B6F000196DEAB
:102440000CD083A403D0030EB86F02D00F0EB86F68
:10245000010E01010B6F000189DE27D06650020AD0
:1024600007E0010A08E0070A09E0010E616E08D0E2
:10247000020E616E05D0030E616E02D0040E616E15
:10248000EC0E01010B6F61C00CF10001C9EC05F00D
:10249000B7EC08F0FF0009D001010B690C690001DD
:1024A000C9EC05F0FF0001D0FF0001010A5103084B
:1024B00008E100018FEC07F001C04DF0020E0101B0
:1024C0000A6F3A920AC101F0000112004750040D50
:1024D000F350036A170FE96E000E0320EA6EEFCF88
:1024E0002BF0ECCF2CF0ECCF2DF0ECCF2EF0010147
:1024F0000591066B076B086B4AC009F10001B7EC48
:1025000008F039AE0ED00101063D01D005D005B16D
:1025100002D0062B058101D0066B47C008F10CD014
:1025200000014750020804E30101086B04D00001D8
:1025300047C008F10101059108C10AF12EC00EF152
:102540002DC00DF12CC00CF12BC00BF10F6B000155
:10255000A9EC0AF001010A6B0B690001FDEC0AF01D
:102560004750020804E300D000D0000006D0640EFB
:102570000101126F000150EC05F082B4FED783A474
:102580000AD03AB408D0A1EC0DF0015204E13A842B
:102590000101066B00013AB421D04750030814E151
:1025A0004A500D0803E3010E4A2601D04A6A4AC088
:1025B0000DF160EC07F003C02EF002C02DF001C059
:1025C0002CF000C02BF006D0020E2B26000E2C2281
:1025D0002D222E220101066B16D0000183A403D008
:1025E0000101066B0001A1EC0DF0015205E0030EA4
:1025F0000101066F3A94000101010651020803E24D
:1026000083B401D03A943AA218D00001CADD01C0C7
:1026100007F10101075311E04750040DF350036A1D
:10262000170FE96E000E0320EA6EEFCF2BF0ECCF10
:102630002CF0ECCF2DF0ECCF2EF03AB60AD0000102
:10264000B7EC08F0C80E0101126F000150EC05F064
:1026500002D0000156D783A412D04750040DF35086
:10266000036A170FE96E000E0320EA6E2BC0EFFF1E
:102670002CC0ECFF2DC0ECFF2EC0ECFF02D009C136
:102680004AF00AEF19F00101116B126B136B146B16
:10269000156B166B176B186B08C11FF107C11EF184
:1026A00006C11DF105C11CF1010E216F120E206F34
:1026B000010E236F130E226F010E256F140E246F6F
:1026C000010E276F150E266F010E296F160E286F4B
:1026D000010E2B6F170E2A6F010E2D6F180E2C6F27
:1026E000010E2E6F0001EEEC08F0010109C1E9FFB7
:1026F0000AC1EAFF1739006EF00E001600501825C7
:10270000EF6E0BC1E9FF0CC1EAFF1539006EF00E48
:10271000001600501625EF6E0DC1E9FF0EC1EAFF4D
:102720001339006EF00E001600501425EF6E0FC125
:10273000E9FF10C1EAFF1139006EF00E00160050DB
:102740001225EF6E0001120037A402D03C8001D0A8
:102750003C9037A802D03C8201D03C9237A602D0F0
:102760003C8401D03C944750010A05E0030A06E08E
:10277000010A07E00AD03C963C9807D03C863C987A
:1027800004D03C9649B03C863C8838AC02D03C8AA8
:1027900001D03C9A37BA02D03C8C01D03C9C3C9E84
:1027A0003CC001F003EF14F01EC008F11DC007F19A
:1027B0001CC006F11BC005F101010A6BC20E096FB6
:1027C0000C6BC30E0B6F0E6BC40E0D6F106BC50E32
:1027D0000F6F000158DF22C008F121C007F120C0AF
:1027E00006F11FC005F101010A6BC70E096F0C6BE2
:1027F000C80E0B6F0E6BC90E0D6F106BCA0E0F6FEC
:10280000000141DFA1D701C0B8F0B96B3AB6B92BCE
:102810004BC0BBF04AC0BCF04238006EF00E001650
:1028200000504324BD6F4038006EF00E001600507B
:102830004124BE6F3E38006EF00E001600503F245B
:10284000BF6F3DC0C0F05EC0C1F05EC0C6F05EC0EC
:10285000CBF023EF19F001010A6B83B204D082BAE6
:1028600002D00B0E0A6F83B204D082BC02D00C0ED1
:102870000A6F83A206D082AA04D082AC02D00D0EC9
:102880000A6F83A204D082BA02D00E0E0A6F83A20E
:1028900004D082BC02D00F0E0A6F0AC101F0000101
:1028A00012000101066B076B086B82A4E7D082B4AB
:1028B000FED739BC08D00001A1EC0DF0015201E0B7
:1028C000398C596A010139AC64D00001A1EC0DF0DA
:1028D000015212E0A1EC0DF001C0AFF0593C01D063
:1028E00001D0592A01010551020805E0A60E006E2B
:1028F000002EFED70000000159500101085D0CE2D6
:1029000005530AE15950310802E3010E076F59508F
:10291000310802E2020E076F072D26D00001A1EC5C
:102920000DF0015222E10101096B095109080BE385
:102930000001A1EC0DF0015203E0010104D00001FF
:102940000101092BF2D7095109080EE239A803D079
:10295000066B399802D0AFC006F10001AF6B399C0D
:10296000010106C101F08CD00001010107510208EC
:1029700010E10001AF5305E01E0EAF250101066F07
:102980000001AF6B596A3988399C010106C101F019
:1029900077D039BA07D000015EDF015201E0398AF1
:1029A000B16B010139AA6AD0000155DF01520BE079
:1029B00052DF01C0B0F0B13D01D001D0B12BAEC0AB
:1029C00010F193EC10F0B1510101085D22E2000119
:1029D000B0510D0A0FE0B1511D0804E3010E0101D1
:1029E000076F0001B1511D0804E2020E0101076FDB
:1029F00000010ED0B1511D0804E3010E0101076F63
:102A00000001B151630804E2020E0101076F0001E9
:102A10000101072D16D000011EDF015213E139A874
:102A200005D039980101066B04D00001B0C006F151
:102A300001010001B06B399AB16B010106C101F0CF
:102A40001FD0000101010751020818E1050E000125
:102A5000B0250101066F0001FEDE015205E0010113
:102A60000651120807E10001399A010106511208C6
:102A700001E0066B398806C101F002D0000E016E3C
:102A800000014CEF19F04750040813E1010E4924EE
:102A9000040DF350036A170FE96E000E0320EA6E6F
:102AA00027C0EFFF28C0ECFF29C0ECFF2AC0ECFFD5
:102AB0001ED0010E4924040DF350036A170F016E56
:102AC000000E032201C007F103C008F14AC00DF156
:102AD000000160EC07F008C1EAFF07C1E9FF00C090
:102AE000EFFF01C0ECFF02C0ECFF03C0ECFF010EE2
:102AF00049240101076F020E0F6F07C110F1000199
:102B0000E1EC0FF0C3EF17F0E10E01010B6F44C0D1
:102B10000CF10001C9EC05F0E20E01010B6F45C09C
:102B20000CF10001C9EC05F0E50E01010B6F4AC084
:102B30000CF10001C9EC05F0010E01010F6F44C05A
:102B400010F10001FEEC0DF0020E01010F6F45C007
:102B500010F10001FEEC0DF03B861200D5DF472C92
:102B600003D0020E476E05D04750020802E1010E65
:102B7000476EE00E01010B6F47C00CF10001C9EC7C
:102B800005F0CAEF17F037B402D0378401D037947C
:102B9000D1EF17F04750040DF350036A170FE96E99
:102BA000000E0320EA6EEFCF07F1ECCF08F1ECCF77
:102BB00009F1ECCF0AF14AC00FF10AC113F109C1C2
:102BC00012F108C111F107C110F1F1EC0DF0020E84
:102BD00001010F6F030E106F0001E1EC0FF0D6EF53
:102BE00017F04750030804E1010E4924476E02D054
:102BF000030E476E4AC00DF160EC07F003C026F0EB
:102C000002C025F001C024F000C023F0E00E010155
:102C10000B6F47C00CF10001C9EC05F0DDEF17F0B8
:102C20004750040806E037B803D03796378801D0FC
:102C30003798E4EF17F04750020828E33AAC04D085
:102C4000010E0101076F03D00A0E0101076F475003
:102C5000040DF350036A170FE96E000E0320EA6EAD
:102C60000751EF24006E000EEC20016E000EEC20E8
:102C7000026E000EEC20ED52ED52ED5200C0EFFF5F
:102C800001C0ECFF02C0ECFFEC6E000147500308EE
:102C900002E176EC0EF0F2EF17F04750020828E35D
:102CA0003AAC04D0010E0101076F03D00A0E0101F6
:102CB000076F4750040DF350036A170FE96E000EBB
:102CC0000320EA6E0751EF5C006E000EEC58016EB7
:102CD000000EEC58026E000EEC58ED52ED52ED5223
:102CE00000C0EFFF01C0ECFF02C0ECFFEC6E000182
:102CF0004750030802E1D3EC0EF0F7EF17F047500E
:102D0000010A03E0030A08E00DD0010E01010B6F78
:102D1000000189EC0EF006D0020E01010B6F0001DC
:102D200089EC0EF0FEEF17F04750040DF350036AE4
:102D3000170FE96E000E0320EA6E0A0EEF24006EF4
:102D4000000EEC20016E000EEC20026E000EEC2056
:102D5000ED52ED52ED5200C0EFFF01C0ECFF02C09A
:102D6000ECFFEC6E03EF18F04750040DF350036ACC
:102D7000170FE96E000E0320EA6E0A0EEF5C006E7C
:102D8000000EEC58016E000EEC58026E000EEC586E
:102D9000ED52ED52ED5200C0EFFF01C0ECFF02C05A
:102DA000ECFFEC6E08EF18F04750040DF350036A87
:102DB000170FE96E000E0320EA6E020EEF24006E7C
:102DC000000EEC20016E000EEC20026E000EEC20D6
:102DD000ED52ED52ED5200C0EFFF01C0ECFF02C01A
:102DE000ECFFEC6E0DEF18F04750040DF350036A42
:102DF000170FE96E000E0320EA6E020EEF5C006E04
:102E0000000EEC58016E000EEC58026E000EEC58ED
:102E1000ED52ED52ED5200C0EFFF01C0ECFF02C0D9
:102E2000ECFFEC6E12EF18F04750040DF350036AFC
:102E3000170FE96E000E0320EA6E0A0EEF24006EF3
:102E4000000EEC20016E000EEC20026E000EEC2055
:102E5000ED52ED52ED5200C0EFFF01C0ECFF02C099
:102E6000ECFFEC6E17EF18F04750040DF350036AB7
:102E7000170FE96E000E0320EA6E0A0EEF5C006E7B
:102E8000000EEC58016E000EEC58026E000EEC586D
:102E9000ED52ED52ED5200C0EFFF01C0ECFF02C059
:102EA000ECFFEC6E1CEF18F00101086B0751085D98
:102EB0000CE20001B7EC08F0C80E0101126F00012E
:102EC00050EC05F00101082BF1D7000112000101BF
:102ED0000B690C690001C9EC05F0030E0101076FD5
:102EE0000001E2DF040E0101076FFA0E126F00010C
:102EF00050EC05F00101072FF8D70001EED782EF63
:102F000017F0E5D721EF18F03AAC06D0020E536E59
:102F10003A9C010E546E05D0010E536E3A8C020E8F
:102F2000546E54C007F1C0DF97EF17F0EDD726EFCE
:102F300018F00101066B010E055DDC0FD8B08BD0D7
:102F4000240F00013BEF18F0B7EC08F02FEC0FF066
:102F5000030E0101066F7FD0B7EC08F001010B6B87
:102F60000001E6EC0EF0020E0101066F74D0B7EC22
:102F700008F001010B6B000189EC0EF0020E01015B
:102F8000066F69D080D5020E0101066F64D0B7ECE0
:102F900008F0E4D5020E0101066F5DD0B7EC08F031
:102FA000F2D5030E0101066F56D0F4D5020E0101D1
:102FB000066F51D0B7EC08F014D6020E0101066F6F
:102FC0004AD0B7EC08F02CD6030E0101066F43D0AF
:102FD00001010B6B000117EC10F0020E0101066FEE
:102FE0003AD029D6010E0101066F35D056D6010E12
:102FF0000101066F30D0B7EC08F081D6020E010156
:10300000066F29D091D6020E0101066F24D0ACD6EE
:10301000020E0101066F1FD0C7D6020E0101066F16
:103020001AD0E2D6020E0101066F15D0FDD6020EAF
:103030000101066F10D018D7020E0101066F0BD0E8
:1030400060D7020E0101066F06D070D7020E010193
:10305000066F01D001010651030808E100018FEC61
:1030600007F001C04DF0020E0101066F06C101F02C
:10307000000153EF19F0F2CF0DF0F29EE824F76A49
:10308000F7369B0FF66E300EF7220A00F550FA6EF7
:103090000800F5500DBEF28EF96E482F582F6E2F96
:1030A000842F8E2F9C2FAA2FB42FC22FD02FE22F28
:1030B000EC2FF62F04300E301830223054302C30E4
:1030C00036305430543054305430543054305430FE
:1030D00054305430543054305430543054304030E4
:1030E0004A30F86AD09E078E166AB886110EAF6E07
:1030F000040EB06EA60EAC6E900EAB6E000000001B
:103100007D6A010E8B6F8C918D6B140EAE6FAF6B61
:10311000B06BB16B0101036BC150C00B0F09C16EE5
:10312000070EB46E18D002007E0A000BC00F2000FC
:103130008E0F0000000E0001010C000001040101CF
:103140000103010100020001000101000000010073
:10315000015140B20000000EF86E310EF76E260EDF
:10316000F66E0900F550006E000A13E00900F550F4
:10317000016EE8BE05D00F0BEA6E0900F5CFE9FF3E
:1031800001BC090001AC0900F5CFEEFF004EE9D704
:10319000F9D7F86A000164EF05F0DBEF07F0050EE0
:1031A0000101066FDC0E056F1E0E076F0001FEECBD
:1031B00004F0808A00D000D00000809AB1EC08F0C2
:1031C0004750040DF350036A170FE96E000E0320F9
:1031D000EA6EEFCF2BF0ECCF2CF0ECCF2DF0ECCF54
:1031E0002EF04E5211E14750040DF350036A170FB1
:1031F000E96E000E0320EA6EEFCF2BF0ECCF2CF03F
:10320000ECCF2DF0ECCF2EF04E5219E13AA617D0AC
:1032100066EF12F04750040DF350036A170FE96E82
:10322000000E0320EA6EEFCF2BF0ECCF2CF0ECCFAA
:103230002DF0ECCF2EF0050E5B6E020E4E6E4E5250
:1032400022E1D4EF13F05C521EE15B5004081BE254
:103250003AA219D0D1EC10F001C04EF04E5213E05A
:103260004750040DF350036A170FE96E000E032058
:10327000EA6EEFCF2BF0ECCF2CF0ECCF2DF0ECCFB3
:103280002EF0050E5B6E4E5225E15B5223E00101EC
:10329000056B000151EF14F001C058F0585205E0E1
:1032A00058C005F146D601C04EF04E5213E04750CB
:1032B000040DF350036A170FE96E000E0320EA6E47
:1032C000EFCF2BF0ECCF2CF0ECCF2DF0ECCF2EF09D
:1032D000010E5B6E4E522BE153C005F19BEC08F0E2
:1032E00001C055F037A403D0000E016E1BD056501C
:1032F000555C04E1000E016E15D014D082A808D0F0
:10330000010105512B26000E2C222D222E2207D042
:10331000010105512B5E000E2C5A2D5A2E5A010E1A
:10332000016E000101C04EF04E5201E05B6A4E2C6E
:1033300006D03AAC03D0010E526E01D0526A4E5202
:1033400002E138AA91D037BA61D080CF7DF0010177
:10335000046B0451090856E33A90060E806ED8902B
:103360000435040DF350036AF2CF05F1F29E00011B
:10337000FAEC02F0006E0900F5CF01F00900F5CF7C
:1033800002F00900F5CF03F0010105BFF28E0350F2
:103390002E5C36E30BE102502D5C32E307E1015075
:1033A0002C5C2EE303E100502B5C2AE3D89004351B
:1033B000010F040DF350036AF2CF05F1F29E0001F4
:1033C000FAEC02F0006E0900F5CF01F00900F5CF2C
:1033D00002F00900F5CF03F0010105BFF28E2E5077
:1033E000035C0EE30BE12D50025C0AE307E12C5075
:1033F000015C06E303E12B50005C02E33A8002D05B
:10340000042BA7D77DC080FF03D000013A800101C3
:1034100047C00AF12EC00EF12DC00DF12CC00CF1E9
:103420002BC00BF152C00FF10001A9EC0AF0010111
:103430000A6B0B690001FDEC0AF04750040DF350D4
:10344000036A170FE96E000E0320EA6E2BC0EFFF30
:103450002CC0ECFF2DC0ECFF2EC0ECFF4E6A389A5A
:10346000B1EC08F039803B96475002086CE337A670
:1034700024D038AC14D038BE12D0388E2EC036F0DE
:103480002DC035F02CC034F02BC033F032C02EF0FC
:1034900031C02DF030C02CF02FC02BF0388A38BC52
:1034A0000CD038AE0AD0389E36C02EF035C02DF084
:1034B00034C02CF033C02BF0388A37A844D0515296
:1034C0000BE147C051F0472C02D0020E486E475026
:1034D000020802E1010E486E38AC17D038BE15D094
:1034E000388E48C047F04750040DF350036A170F59
:1034F000E96E000E0320EA6EEFCF2BF0ECCF2CF03C
:10350000ECCF2DF0ECCF2EF0388A38BC17D038AE87
:1035100015D0389E51C047F04750040DF350036A50
:10352000170FE96E000E0320EA6EEFCF2BF0ECCF01
:103530002CF0ECCF2DF0ECCF2EF0388A38BC03D035
:1035400038BE01D0516A39A007D05B50140804E29C
:10355000522C02D0526A388A39A006D05B50320809
:1035600003E23BA684EC15F038BAE9D63AD603005C
:10357000FFFFFFFFFFFFFFFFFFFFFFFFFFFFFFFF5B
:10358000FFFFFFFFFFFFFFFFFFFFFFFFFFFFFFFF4B
:10359000FFFFFFFFFFFFFFFFFFFFFFFFFFFFFFFF3B
:1035A000FFFFFFFFFFFFFFFFFFFFFFFFFFFFFFFF2B
:0200000400F00A
:1000300060AE0A0060AE0A0060AE0A000000000078
:1000400000000000000000000000000000000000B0
:1000500000000000000000000000000000000000A0
:10006000000000000000000050C3000020BF02009C
:100070003057050060AE0A0050690F00C05C1500E3
:1000800040771B00200B2000009F240080B92A002D
:10009000C0C62D0050C3000020BF0200305705002D
:1000A00060AE0A0050690F00C05C150040771B006D
:1000B000200B2000009F240080B92A00C0C62D001C
:1000C0000000000000000000000000000000000030
:1000D0000000000000000000000000000000000020
:1000E0000103030300000000000001000100000004
:1000F000000000000000000000000100000000FF00
:020000040030CA
:0E00000000C2161E008781000FC00FE00F40E7
:020000040020DA
:08000000FFFFFFFFFFFFFFFF00
:00000001FF
