:020000040000FA
:10000000F9EF01F0FFFFFFFF84EF02F000000000B6
:1000100000000000000000008CEF02F01000030E52
:100020007E5E09E3EA6A7E0EE96EEF5004E001D0DD
:1000300000D0EF2EFDD728EF00F09EA8FED77C5011
:10004000AD6EACA2FED7020E7D6ECF0E7E6EE7D7F0
:100050007D2EFBD712009EAAFED7ABCF06F0AECF07
:1000600001F006A202D0AB98AB881200EA6A4A0EF1
:10007000E96EEF500DE0060E016E006A002EFED70D
:10008000012EFBD77B0E006E002EFED7EF2EF3D78E
:100090001200826B836B835101082BE381C003F054
:1000A00080C0E9FF81C0EAFFEF50400810E28251B2
:1000B000100DF3CF84F081C003F080C0E9FF81C050
:1000C000EAFFEF508425BF0F0A0F826F0CD08251D8
:1000D000100DF3CF84F080C0E9FF81C0EAFFEF503C
:1000E0008425D00F826F8351832B802BD8B4812B32
:1000F000D2D782C001F01200F250036EF29EA68E9B
:10010000A6840F01550EA76EAA0EA76EA682000048
:100110000350F21200011200D08CA69CF6501F0B67
:10012000006EE00EF6160A007CC001F0006608D0F2
:10013000F650010F3F0B04E1A6880900DDDF0A003D
:10014000006607D0EECFF5FF015204E00F00010674
:1001500003D000060B000C001F0EF6141F0AE6E188
:10016000CBDF0166E3D7F86AE8EF01F04A92506A04
:100170004F6A4AB236D1086A036A0850090FE96E1D
:10018000000E0320EA6EEACF7FF0E9CF7EF063DF56
:100190007FC0EAFF7EC0E9FF01C0EFFF0850082AD8
:1001A000036A090FE96E000E0320EA6EEF500D0896
:1001B00003E008504008E0E2130E7C6E3EDF4A8008
:1001C00009503A08D8A404D1816B0A0E806F61DF10
:1001D00001C05BF0816B0C0E806F5BDF01C07CF0B7
:1001E000816B0E0E806F55DF7CC04EF001C04DF06C
:1001F000816B100E806F4DDF01C04CF04FC053F08B
:1002000050C054F04DC051F04EC052F04B6A010E38
:100210005A6E030E085C5A5C14E2036A5A50090FC6
:10022000016E000E032201C07CF003C07DF003C00C
:1002300081F001C080F02DDF01504B26020E5A26BE
:10024000E8D7FF0ED8804B54010F4B6E030E085CAD
:10025000036A090F016E000E032201C07CF003C087
:100260007DF003C081F001C080F013DF01504B5CD2
:1002700002E04A90ADD04C2C02D04A82A9D04C501A
:10028000040811E1816B120E806F03DF01C07CF066
:10029000816B140E806FFDDE01C07DF07CC050F0DC
:1002A00001C04FF095D04C52D8A492D0545206E1E0
:1002B000535204E152500408D8B08AD05452D8A402
:1002C00087D05352D8A484D052507F08D8A080D071
:1002D000090E5A6E596A030E085C5A5C23E25950A3
:1002E000592A036A5C0F016E000E032201C07CF0E4
:1002F00003C07DF0036A5A50090F016E000E0322FD
:1003000001C07EF003C07FF003C081F001C080F027
:10031000C0DE7DC0EAFF7CC0E9FF01C0EFFF020E36
:100320005A26D9D75550515C09E15650525C06E126
:100330005750535C03E15850545C32E055503F0B2A
:10034000006E016A026A036A400ED8800056000EF1
:10035000015602560356555000265650012257505A
:100360000222585003220350545C1AE30BE102505E
:10037000535C16E307E10150525C12E303E1515074
:10038000005C0EE251503F0B7C6E7D6A7E6A7F6A94
:100390007C5206E17D5204E17E5202E17F5200E090
:1003A0005B505124556E000E5220566E000E5320A5
:1003B000576E000E5420586E53C0F8FF52C0F7FF1E
:1003C00051C0F6FFEA6A5C0EE96E5BC07CF0A4D611
:1003D0004AA003D0060E7C6E30DE110E7C6E2DDE40
:1003E000C8D6040E7C6E29DEF7EF01F0BFD666EFAB
:1003F00002F0F86AD09E066AB886110EAF6E040E3F
:10040000B06EA60EAC6E900EAB6E00000000C15038
:10041000C00B0F09C16E070EB46EC290010E926E32
:10042000000E936EFF0E946E956E96909692969433
:100430009696806A0790079283A045D007B043D074
:1004400007B041D082A60CD0B8862A0EAF6E000E3F
:10045000B06EA60EAC6E900EAB6E000000000BD01E
:10046000B886110EAF6E040EB06EA60EAC6E900E76
:10047000AB6E0000000007B204D0330E7C6EDDDDF1
:1004800003D0340E7C6ED9DD9EAA1CD0E4DD01C001
:1004900049F04950410801E10780495042080EE106
:1004A00007B202D0078201D00792020E806E140EAE
:1004B0004A6EDCDD806A0A0E4A6ED8DD9EAA02D042
:1004C000CADDFCD7BDD707A018D090D707A214D09B
:1004D000F250006EF29EA968A868A69CA69EA6840B
:1004E0000F01550EA76EAA0EA76EA682A6B2FED762
:1004F000A6940050F2120001FF0002D80300FFFF93
:10050000B5EF33F0FFFFFFFF046ED8CF05F0E0CF6B
:1005100006F00001E9CF0CF0EACF07F0E1CF08F0D8
:10052000E2CF09F0D9CF0AF0DACF0BF0F3CF12F017
:10053000F4CF13F0FACF14F000C00EF001C00FF0AA
:1005400002C010F003C011F09DA0AAEF02F09EB00F
:1005500085EF07F09DA2B0EF02F09EB2CFEF06F05C
:100560009DAAB6EF02F09EBA12EF07F00EC000F09F
:100570000FC001F010C002F011C003F00CC0E9FF81
:1005800007C0EAFF078E08C0E1FF09C0E2FF0AC00A
:10059000D9FF0BC0DAFF12C0F3FF13C0F4FF14C081
:1005A000FAFF045006C0E0FF05C0D8FF1000F2CFEC
:1005B0000DF0F29EF76AC80FF66E050EF7220900DD
:1005C000F5500DBEF28E120050C3000020BF020095
:1005D0003057050060AE0A0050690F00C05C15007E
:1005E00040771B00200B2000009F240080B92A00C8
:1005F000C0C62D00F2CF0DF0F29EF76A0E0FF66E18
:10060000060EF7220900F5500DBEF28E1200494485
:10061000020141490302444E02035550020446417F
:1006200002054642020646410D0746420D08464E67
:1006300003094652030A4652020B4654030C465421
:10064000020D4946020E4945030F4C4B02104C4B1C
:1006500003114D4305124D4403134D5206144D57DB
:10066000171552430216524402175255021852549B
:1006700003195258021A5458021B5343031C535077
:10068000031D5941021E3141031F314203203143F2
:1006900003213144072231450223324103253242EE
:1006A00004263243032732440328324503293330DA
:1006B000022B3331022C0000000000000000F2CFBA
:1006C0000DF0F29EF76AD80FF66E060EF7220900BB
:1006D000F5500DBEF28E120000710200400D0300B5
:1006E00060CC050080FC0A0060900F0078E51500E2
:1006F00060C51B00E8BA2000A0252600C0C62D005A
:10070000C0C62D00F2CF0DF0F29E1C0FF66E070E44
:10071000F7220900F5500DBEF28E12000100000014
:10072000DC152700C4192700AC1D27007C252700F5
:10073000642927004C2D2700343127000439270075
:10074000EC3C2700D4402700BC4427008C4C2700F9
:10075000745027005C542700445827001460270079
:10076000FC632700E4672700CC6B27009C732700FD
:10077000847727006C7B2700547F27003C83270069
:10078000248727000C8B2700F48E2700DC9227009B
:10079000C4962700AC9A2700949E27007CA22700CD
:1007A00064A627004CAA270034AE27001CB22700FD
:1007B00004B62700ECB92700D4BD2700BCC1270030
:1007C00001000000A4C527008CC9270074CD2700B4
:1007D00044D527002CD9270014DD2700FCE0270092
:1007E000CCE82700B4EC27009CF0270084F4270015
:1007F00054FC27003C002800240428000C08280092
:10080000DC0F2800C4132800AC172800941B280014
:10081000642328004C272800342B28001C2F280094
:1008200004332800EC362800D43A2800BC3E2800C7
:10083000A44228008C462800744A28005C4E2800F8
:10084000445228002C562800145A2800FC5D280029
:10085000E4612800CC652800B46928009C6D28005C
:1008600084712800010000006C752800547928006C
:100870003C7D28000C852800F4882800DC8C2800AA
:10088000C4902800949828007C9C280064A028002C
:100890004CA428001CAC280004B02800ECB32800AD
:1008A000D4B72800A4BF28008CC3280074C7280030
:1008B0005CCB28002CD3280014D72800FCDA2800B1
:1008C000B4E62800E4DE2800CCE228009CEA2800F8
:1008D00084EE28006CF2280054F628003CFA280028
:1008E00024FE28000C022900F4052900DC09290057
:1008F000C40D2900AC112900941529007C19290088
:10090000641D29004C212900010000003425290024
:100910001C292900042D2900D4342900BC382900C1
:10092000A43C29008C4029005C482900444C290043
:100930002C50290014542900E45B2900CC5F2900C5
:10094000B46329009C6729006C6F29005473290047
:100950003C772900247B2900F4822900DC862900C9
:10096000C48A29007C962900AC8E29009492290023
:10097000649A29004C9E290034A229001CA6290053
:1009800004AA2900ECAD2900D4B12900BCB5290086
:10099000A4B929008CBD290074C129005CC52900B7
:1009A00044C929002CCD290014D1290001000000E0
:1009B000FCD42900E4D82900CCDC29009CE42900DF
:1009C00084E829006CEC290054F0290024F829005F
:1009D0000CFC2900F4FF2900DC032A00AC0B2A00E0
:1009E000940F2A007C132A0064172A00341F2A005F
:1009F0001C232A0004272A00EC2A2A00BC322A00E1
:100A0000A4362A008C3A2A0044462A00743E2A0062
:100A10005C422A002C4A2A00144E2A00FC512A006B
:100A2000E4552A00CC592A00B45D2A009C612A00B2
:100A300084652A006C692A00546D2A003C712A00E2
:100A400024752A000C792A00F47C2A00DC802A0014
:100A500001000000C4842A00AC882A00948C2A007B
:100A600064942A004C982A00349C2A001CA02A0076
:100A7000ECA72A00D4AB2A00BCAF2A00A4B32A00FA
:100A800074BB2A005CBF2A0044C32A002CC72A007A
:100A9000FCCE2A00E4D22A00CCD62A00B4DA2A00FE
:100AA00084E22A006CE62A0054EA2A000CF62A00A6
:100AB0003CEE2A0024F22A00F4F92A00DCFD2A0088
:100AC000C4012B00AC052B0094092B007C0D2B00DE
:100AD00064112B004C152B0034192B001C1D2B000E
:100AE00004212B00EC242B00D4282B00BC2C2B0041
:100AF000A4302B00010000008C342B0074382B0034
:100B00005C3C2B002C442B0014482B00FC4B2B008E
:100B1000E44F2B00B4572B009C5B2B00845F2B0011
:100B20006C632B003C6B2B00246F2B000C732B0091
:100B3000F4762B00C47E2B00AC822B0094862B0015
:100B40007C8A2B004C922B0034962B001C9A2B0095
:100B5000D4A52B00049E2B00ECA12B00BCA92B00DC
:100B6000A4AD2B008CB12B0074B52B005CB92B000D
:100B700044BD2B002CC12B0014C52B00FCC82B003E
:100B8000E4CC2B00CCD02B00B4D42B009CD82B0071
:100B900084DC2B006CE02B0001000000BD1D2A004E
:100BA000A5212A008D252A0075292A005D2D2A00FD
:100BB00045312A002D352A0015392A00FD3C2A002E
:100BC000E5402A00CD442A00B5482A009D4C2A0061
:100BD00085502A006D542A0055582A003D5C2A0091
:100BE00025602A000D642A00F5672A00DD6B2A00C3
:100BF000C56F2A00AD732A0095772A007D7B2A00F5
:100C0000657F2A004D832A0035872A001D8B2A0024
:100C1000058F2A00ED922A00D5962A00BD9A2A0057
:100C2000A59E2A008DA22A0075A62A005DAA2A0088
:100C300045AE2A002DB22A0015B62A00F2CF0DF0DB
:100C4000F29EF76A560FF66E0C0EF7220900F55069
:100C50000DBEF28E1200F0490200400D0300305725
:100C60000500801A060060AE0A00B0710B00404219
:100C70000F0090051000C05C150010201600407792
:100C80001B00903A1C00200B200070CE2000009F1B
:100C90002400F0E8260080B92A00C0C62D0000001C
:100CA00000000000000082B403D001017681000141
:100CB00082A40DD001017553D8A402D0000107D041
:100CC00076B102D0000103D07691750700010101D1
:100CD00075535EE1036A7751680FE96E010E0320D8
:100CE000EA6EEF500F0BE8A08494E8B08484036AA6
:100CF0007751680FE96E010E0320EA6ED890EF304D
:100D00000F0BE8A08492E8B08482036A7751680FE1
:100D1000E96E010E0320EA6EEF30006E00323F0EE6
:100D2000001600500F0BE8A08490E8B08480036A9E
:100D30007751680FE96E010E0320EA6EEF30006E06
:100D4000003200321F0E001600500F0BE8A0809AF0
:100D5000E8B0808A82A416D080880201DB6BDB5168
:100D60000F0808E3DB2B070E006E002EFED700D025
:100D70000000F5D7DB6B8098010177510C0802E386
:100D8000010E772782B403D0776B010E756F04D004
:100D9000849484928490809A0001D0EF06F083D7E7
:100DA0009E929E92B6EF02F09EAAFED7ABCF17F0AE
:100DB000AECF01F017A202D0AB98AB881200030EA1
:100DC0000201DF5F0AE3020EEA6EDF0EE96EEF500A
:100DD00004E001D000D0EF2EFDD7000112009EA844
:100DE000FED70201DD51AD6EACA2FED7020EDE6F62
:100DF000CF0EDF6F0001E3DF0201DE2FF9D7000124
:100E000012000900F5520CE0F6CFDBF2F7CFDCF26E
:100E1000F5CFDDF2E4DFDBC2F6FFDCC2F7FFF1D78E
:100E20005BEF07F019B231D09EAA2FD0BDDF01C011
:100E300029F2036A020152512A0FE96E020E0320C1
:100E4000EA6E29C2EFFF1AB20DD029513B0803E127
:100E5000526B19821A845251040803E1526B1982B1
:100E600001D0522B1AA210D029513B0803E1526B3A
:100E7000198201D0522B5251050806E1295105086B
:100E800003E1526B19821A84000119A229D09EAA8B
:100E900001D08ADF02012A51310821E12B51460895
:100EA0001EE12C513B081BE19D92E60EF66E0E0EE4
:100EB000F76E0001A6D70D0E0201DD6F00018FDF76
:100EC0000A0E0201DD6F00018ADF1B8C0201526BEA
:100ED00019923D6A640E3C6E82B4FED79D82000179
:100EE0009E9AB6EF02F03146323B00000201DB5120
:100EF000010A000104E0030A05E0806A05D00A0E39
:100F0000806E02D00E0E806E1200493C01D002D0DD
:100F1000492A01D0496A49A402D0198801D01998F8
:100F20001AAE07D018AC05D0020E0201DB6F00012B
:100F3000DDDF1AAE07D018BC05D0020E0201DB6F50
:100F40000001D4DF1ABE06D018BC04D00201DB6B4E
:100F50000001CCDF1ABE07D018AC05D0010E02018B
:100F6000DB6F0001C3DF9E909E90B6EF02F0C2904F
:100F7000010E926E000E936EFF0E946E956E96901B
:100F8000969296949696186A196A1A6A1B6AB50E12
:100F9000CD6E000E0609CA6E770ECB6E9E909E92A5
:100FA0009D809D829D8AC00EF212806A6DEF34F0A2
:100FB000F2CFDAF2F29ED9C2A9FFA69CA69EA68025
:100FC000A8500201DABFF28E016E00011200CFC2FA
:100FD000D9F2EEDF01501200036A0201BF51680F1F
:100FE000E96E000E0320EA6EC0C2EFFF000112009E
:100FF000F250006EF29EBDC2A9FFBEC2A8FFA69C21
:10100000A69EA6840F01550EA76EAA0EA76EA682F5
:10101000A6B2FED7A6940050F212BDC2BFF2BEC265
:10102000C0F20001D9DF1200F2CFABF2F29EA8C2EB
:10103000A9FFA69CA69EA680A8500201ABBFF28E77
:10104000AA6FA951AA5DD8B407D0A8C2BDF2A9C29F
:10105000BEF20001CDDF0201000112000201B86BF7
:10106000B76BB66BB56BB051040DF3CFB9F2BA6B79
:10107000BA5103081CE3020EBC6FB50EBB6FBA5128
:10108000BB25016E000EBC21036E01C0BBF2BC6F1C
:10109000BA51B925BD6FD96F00018ADFBCC2EAFF22
:1010A000BBC2E9FF01C0EFFF0201BA2BE1D7B55186
:1010B000B15D0AE1B651B25D07E1B751B35D04E13C
:1010C000B851B45DD8B41FD0BA6BBA5103081BE352
:1010D000BA51B925BB6F020EBD6FB10EBC6FBA51CC
:1010E000BC25016E000EBD21036E01C0E9FFEA6E52
:1010F000EFCFBCF2BBC2BDF2BCC2BEF2000178DFD2
:101100000201BA2BE2D7000112000201A36BA33D3A
:1011100001D008D0A3C2A8F2A96B000185DF0201AB
:10112000A32BF5D7A36BA3510E080EE3A3C2B0F215
:10113000B46B0A0EB36FAE0EB26F600EB16F0001EA
:101140008DDF0201A32BEFD70F0EA36FA351190858
:101150000BE3A3C2B0F2B46BB36BB26BB16B000123
:101160007DDF0201A32BF2D71A0EA36FA35124082F
:101170002DE31A0EA35D040DF350036AF2CFA4F21F
:10118000F29E0001D7EC02F0006E0900F5CF01F0ED
:101190000900F5CF02F00900F5CF03F00201A4BF6A
:1011A000F28E03C0A7F202C0A6F201C0A5F2A46F9E
:1011B000A3C2B0F203C0B4F202C0B3F201C0B2F2F3
:1011C000B16F00014BDF0201A32BD0D7250EA36F17
:1011D000A3512F082DE3250EA35D040DF350036AE0
:1011E000F2CFA4F2F29E0001D7EC02F0006E0900EB
:1011F000F5CF01F00900F5CF02F00900F5CF03F0BB
:101200000201A4BFF28E03C0A7F202C0A6F201C081
:10121000A5F2A46FA3C2B0F203C0B4F202C0B3F24D
:1012200001C0B2F2B16F000119DF0201A32BD0D7C8
:10123000300EB06FB46BB36B050EB26FDC0EB16FD6
:1012400000010CDF310E0201B06FB46BB36BB26BF7
:101250001E0EB16F000102DF320E0201B06FB46BDF
:10126000B36B270EB26F100EB16F0001F7DE330EB5
:101270000201B06FB46B300EB36FD40EB26FB16BAE
:101280000001ECDED00E0201A86F010EA96F000173
:10129000CBDED10E0201A86F010EA96F0001C4DEE2
:1012A000D20E0201A86F020EA96F0001BDDED30E9F
:1012B0000201A86F030EA96F0001B6DED40E020171
:1012C000A86F040EA96F0001AFDED50E0201A86F52
:1012D000050EA96F0001A8DED60E0201A86F060E4A
:1012E000A96F0001A1DED70E0201A86F070EA96F3A
:1012F00000019ADED80E0201A86F080EA96F000146
:1013000093DED90E0201A86F090EA96F00018CDED1
:10131000E10E0201A86F030EA96F000185DEE20E47
:101320000201A86F030EA96F00017EDEE30E020129
:10133000A86F030EA96F000177DEE00E0201A86F0F
:10134000010EA96F000170DEE80E0201A86FA96B03
:1013500000016ADEE90E0201A86FA96B000164DEDC
:10136000EC0E0201A86F030EA96F00015DDEEA0E0C
:101370000201A86F010EA96F000156DEED0E0201F9
:10138000A86F010EA96F00014FDEEE0E0201A86FDB
:10139000020EA96F000148DEEF0E0201A86F030ED6
:1013A000A96F000141DEF00E0201A86F040EA96FC3
:1013B00000013ADEF10E0201A86F050EA96F0001CF
:1013C00033DEF20E0201A86F060EA96F00012CDEBB
:1013D000F30E0201A86F070EA96F000125DEF40EBF
:1013E0000201A86F080EA96F00011EDEF50E0201B2
:1013F000A86F090EA96F000117DEF60E0201A86F93
:101400000A0EA96F000110DEF70E0201A86F0B0E85
:10141000A96F000109DEF80E0201A86FA96B000197
:1014200003DEE60E0201A86F130EA96F0001FCDDBA
:10143000E70E0201A86F030EA96F0001F5DD02019E
:10144000A869010EA96F0001EFDD83EF0BF0020127
:10145000CF51040DF3CFD0F2D56BD46BD36BD26BDD
:10146000D16BD15103081CE3020ED76FD20ED66F99
:10147000D151D625016E000ED721036E01C0D6F2E0
:10148000D76FD151D025D86FD96F000191DDD7C268
:10149000EAFFD6C2E9FF01C0EFFF0201D12BE1D77D
:1014A000D2C200F0D3C201F0D4C202F0D5C203F020
:1014B000000112000201B451B603F3CF01F0F4CFE2
:1014C00000F0B703F3500026B551B603F3500020E7
:1014D000026E000112000201A36BA46BA451070865
:1014E00037E3B56BA4C2B4F2B76BA40EB66F0001BC
:1014F000E1DF02C0A6F201C0A5F202C003F00201C2
:101500000150F2CFA7F2F29E02C0F7FF000182EC79
:1015100003F0006E0900F5CF01F00900F5CF02F0ED
:101520000900F5CF03F00201A7BFF28E03C0AAF2B3
:1015300002C0A9F201C0A8F2A76FA75307E1A85300
:1015400005E1A95303E1AA5301E1A32BA42BC6D7BC
:10155000A351080802E11B8401D01B9400010AEF8B
:101560000CF00201A82D08D01A0EA925AA6FCF6F82
:1015700000016DDF0DD00201A851020808E1250E1F
:10158000A925AA6FCF6F000162DF02D0020100011E
:101590001200B1C2CFF25BDF1200010E0201A86F90
:1015A00044C0A9F20001DDDF03C023F002C022F035
:1015B00001C021F000C020F0020E0201A86F45C05A
:1015C000A9F20001CEDF03C027F002C026F001C05F
:1015D00025F000C024F047C0B1F2DBDF03C02BF0E0
:1015E00002C02AF001C029F000C028F01BB47AD054
:1015F0000201B56B5BC0B4F2B76BA40EB66F00010D
:1016000059DF02C0B1F201C0B0F202C003F0020122
:101610000150F2CFB2F2F29E02C0F7FF000182EC5D
:1016200003F0006E0900F5CF01F00900F5CF02F0DC
:101630000900F5CF03F00201B2BFF28E03C0B5F28C
:1016400002C0B4F201C0B3F2B26FB2530DE1B353B2
:101650000BE1B45309E1B55307E15B50060802E31F
:101660005B2A01D05B6AC5D75A50010802E3010E1C
:101670005A6E5A50270802E2280E5A6EB56B5BC0AC
:10168000B4F2B76BA40EB66F000114DF02C0B1F262
:1016900001C0B0F20201B56B5AC0B4F2B76B040ED0
:1016A000B66F000107DF02C003F001500201B02550
:1016B000016EB15103220150F2CFB0F2F29E03C08D
:1016C000F7FF000182EC03F0006E0900F5CF01F096
:1016D0000900F5CF02F00900F5CF03F00201B0BF19
:1016E000F28E000103C02FF002C02EF001C02DF0D9
:1016F00000C02CF012000201CF69000168DC012C4F
:1017000001D001D002D50F0E426EE00E0201CF6F64
:1017100000015DDC01C043F04350030801E1189A69
:10172000E10E0201CF6F000152DC01C044F0E20E75
:101730000201CF6F00014BDC01C045F0E30E020156
:10174000CF6F000144DC01C046F0E50E0201CF6F0F
:1017500000013DDC01C047F0ED0E0201CF6F00013A
:1017600036DC01C04AF0EE0E0201CF6F00012FDC23
:1017700001C04BF0EA0E0201CF6F000128DC1B9E76
:1017800001B01B8E300E0201CF6F000160DE01C080
:101790005DF000C05CF0310E0201CF6F000157DE3A
:1017A00001C05FF000C05EF0320E0201CF6F000199
:1017B0004EDE03C063F002C062F001C061F000C001
:1017C00060F0330E0201CF6F000141DE03C067F00D
:1017D00002C066F001C065F000C064F0E80E0201CE
:1017E000CF6F0001E7EC07F0199C01B0198CE90EEE
:1017F0000201CF6F0001E7EC07F01A9801B01A88D8
:10180000E40E0201CF6F0001E7EC07F01A9C01B073
:101810001A8C61D6E60E0201CF6F0001E7EC07F0EB
:1018200001C05AF0E70E0201CF6F0001E7EC07F0AC
:1018300001C05BF0EF0E0201CF6F0001E7EC07F093
:1018400001C050F0F00E0201CF6F0001E7EC07F08D
:1018500001C051F0F10E0201CF6F0001E7EC07F07B
:1018600001C052F0F20E0201CF6F0001E7EC07F069
:1018700001C053F0F30E0201CF6F0001E7EC07F057
:1018800001C054F0F40E0201CF6F0001E7EC07F045
:1018900001C055F0F50E0201CF6F0001E7EC07F033
:1018A00001C056F0F60E0201CF6F0001E7EC07F021
:1018B00001C057F0F70E0201CF6F0001E7EC07F00F
:1018C00001C058F0F80E0201CF6F0001E7EC07F0FD
:1018D00001C059F062DE189C189E19901200806AAF
:1018E00000D00201D151F80F31E2080F0001AAEF38
:1018F0000CF0806A00D0020129D0080E806E00D062
:10190000020124D0040E806E00D002011FD00C0E04
:10191000806E00D002011AD0020E806E200E006E82
:10192000002EFED700D00000020110D00A0E806EFB
:1019300000D002010BD0060E806E00D0020106D04E
:101940000E0E806E00D0020101D00201806A00D02C
:1019500000011200F2CF0DF0F29EE824F76AF7368C
:10196000790FF66E190EF7220A00F550FA6E08008C
:10197000F5500DBEF28EF96EF218FA1804190E1910
:1019800018192C1936194019CFC281FF010E020116
:10199000D16F0001A4DF1200CFC281FF818E00D081
:1019A000819E12005D50036A600F0201A36F000E5A
:1019B0000320A46FA3C2CFF20001E6DF5D30020175
:1019C000A46F5C30A36FA433A333A433A333A43335
:1019D000A3330F0EA417A3510F0B006E036A005020
:1019E000500FA36F000E0320A46FA3C2CFF200011B
:1019F000CBDF5C500F0B006E036A0050400F0201FA
:101A0000A36F000E0320A46FA3C2CFF20001BCDFBE
:101A10005F50036A600F0201A36F000E0320A46FE2
:101A2000A3C2CFF20001B8DF5F300201A46F5E30C5
:101A3000A36FA433A333A433A333A433A3330F0E70
:101A4000A417A3510F0B006E036A0050500FA36F31
:101A5000000E0320A46FA3C2CFF200019DDF5E50F1
:101A60000F0B006E036A0050400F0201A36F000EBF
:101A70000320A46FA3C2CFF200018EDF1200020E7A
:101A8000EA6EB50EE96EEF500DE0060E016E006ACB
:101A9000002EFED7012EFBD77B0E006E002EFED748
:101AA000EF2EF3D712000201A66BA651180822E30D
:101AB000036AA651530FE96E020E0320EA6EEFCFC0
:101AC000A7F2166AF2BE168EF29EA7C2DDF20001E0
:101AD000EFEC06F016BEF28E036A0201A651530F18
:101AE000E96E020E0320EA6EEF503B08D8B402D034
:101AF000A62BDBD7A66BA65118080BE3036AA651E9
:101B0000530FE96E020E0320EA6E300EEF6EA62B25
:101B1000F2D7000112000201A85310E0E60ECF6FC9
:101B20000001E7EC07F001C05AF0E70E0201CF6FA9
:101B30000001E7EC07F001C05BF002011BB478D0B4
:101B4000B56B5BC0B4F2B76BA40EB66F0001B2DC2C
:101B500002C0B1F201C0B0F202C003F002010150B4
:101B6000F2CFB2F2F29E02C0F7FF000182EC03F066
:101B7000006E0900F5CF01F00900F5CF02F0090071
:101B8000F5CF03F00201B2BFF28E03C0B5F202C07E
:101B9000B4F201C0B3F2B26FB2530DE1B3530BE133
:101BA000B45309E1B55307E15B50060802E35B2A31
:101BB00001D05B6AC5D75A50010802E3010E5A6E84
:101BC0005A50270802E2280E5A6EB56B5BC0B4F279
:101BD000B76BA40EB66F00016DDC02C0B1F201C09C
:101BE000B0F20201B56B5AC0B4F2B76B040EB66F17
:101BF000000160DC02C003F001500201B025016E5B
:101C0000B15103220150F2CFB0F2F29E03C0F7FFB0
:101C1000000182EC03F0006E0900F5CF01F009002D
:101C2000F5CF02F00900F5CF03F00201B0BFF28E4C
:101C300003C02FF002C02EF001C02DF000C02CF028
:101C4000000112004350040813E15B50060802E350
:101C50005B2A01D05B6AE70E0201A86F5BC0A9F2A4
:101C6000000114EC08F0010E0201A86F000153DF1F
:101C700012004350040802E1E5DF09D04350040894
:101C800006E019B003D0189E198001D019901200F7
:101C9000040E0201D16F000122DE1200435003083E
:101CA00006E1000E18BA010E010F436E02D0030EBA
:101CB000436E47C0B1F26DDC03C02BF002C02AF0C6
:101CC00001C029F000C028F0E00E0201A86F43C057
:101CD000A9F2000114EC08F01200ABC2B0F2AFC2DE
:101CE000B4F2AEC2B3F2ADC2B2F2ACC2B1F22EECFB
:101CF00008F0B4EF0EF00201A86BA751A85D16E240
:101D0000040ED16F0001EBDD47C074F1640E0201D7
:101D1000B56F0001B4DE0F0E0101746F640E020195
:101D2000B56F0001ACDE0201A82BE7D7000112005D
:101D30004350040DF350036A1C0FE96E000E03209C
:101D4000EA6EEFCFA7F2ECCFA8F2ECCFA9F2ECCF7E
:101D5000AAF247C0ABF2AAC2AFF2A9C2AEF2A8C2C1
:101D6000ADF2A7C2ACF2B9D7020E0201A76F000113
:101D7000C2DF120018BC02D0188C01D0189C1200CF
:101D8000432C03D0020E436E05D04350020802E1FB
:101D9000010E436EE00E0201A86F43C0A9F20001DC
:101DA00014EC08F0010E435C189AE8B0188A12008F
:101DB0004350040DF350036A1C0F016E000E032202
:101DC00001C0A7F203C0A8F247C0B1F20001C9ECFC
:101DD0000AF0A8C2EAFFA7C2E9FF00C0EFFF01C0F6
:101DE000ECFF02C0ECFF03C0ECFF020E0201A76F84
:101DF000000181DF12000201A82D10D01A0EA925C2
:101E0000AE6FB06FADC2B4F2ACC2B3F2ABC2B2F25D
:101E1000AAC2B1F200012EEC08F00201A85102089A
:101E200010E1250EA925AE6FB06FADC2B4F2ACC201
:101E3000B3F2ABC2B2F2AAC2B1F200012EEC08F0CA
:101E40000201000112000201A7530CE143C0A7F2F6
:101E5000432C01D003D04350020804E182A602D0F3
:101E6000040EA727010EA75DFA0FD8B086D0060F83
:101E70000001BFEF0FF0010E0201A86F44C0A9F2EC
:101E800023C0ADF222C0ACF221C0ABF220C0AAF256
:101E90000001B1DF4450080802E3442A01D0446A3B
:101EA000010E0201A86F44C0A9F20001B1EC0AF0D2
:101EB00003C023F002C022F001C021F000C020F0D6
:101EC00002015BD0020E0201A86F45C0A9F227C033
:101ED000ADF226C0ACF225C0ABF224C0AAF20001DC
:101EE0008ADF4550080802E3452A01D0456A020E00
:101EF0000201A86F45C0A9F20001B1EC0AF003C0CD
:101F000027F002C026F001C025F000C024F0020135
:101F100034D047500D0802E3472A01D0476A47C032
:101F2000B1F2C9EC0AF003C02BF002C02AF001C0E4
:101F300029F000C028F0020120D05A50270802E3FF
:101F40005A2A02D0010E5A6E0201A86B0001E3DD8D
:101F5000020113D0500E2026C30E2122000E222291
:101F6000232202010AD0500E2426C30E2522000E81
:101F700026222722020101D0020100011200F2CF25
:101F80000DF0F29EE824F76AF736A30FF66E1F0EE7
:101F9000F7220A00F550FA6E0800F5500DBEF28ED9
:101FA000F96E761EC41E121F3A1F541F661F0201CF
:101FB000A7530CE143C0A7F2432C01D003D04350F8
:101FC000020804E182A602D0040EA727A751010A45
:101FD00000010DE0030A31E0010A55E0070A66E05E
:101FE000010AD8B46FD0030AD8B474D07AD0010EE5
:101FF0000201A86F44C0A9F223C0ADF222C0ACF226
:1020000021C0ABF220C0AAF20001F5DE445202E08A
:10201000440602D0090E446E010E0201A86F44C0AE
:10202000A9F20001B1EC0AF003C023F002C022F0D3
:1020300001C021F000C020F054D0020E0201A86FB0
:1020400045C0A9F227C0ADF226C0ACF225C0ABF264
:1020500024C0AAF20001CFDE455202E0450602D0BC
:10206000090E456E020E0201A86F45C0A9F20001DB
:10207000B1EC0AF003C027F002C026F001C025F041
:1020800000C024F02ED0475202E0470602D00E0EC8
:10209000476E47C0B1F2C9EC0AF003C02BF002C092
:1020A0002AF001C029F000C028F01BD05A500108C6
:1020B00002E25A0602D0280E5A6E0201A86B0001F5
:1020C0002ADD0FD0500E205EC30E215A000E225A78
:1020D000235A07D0500E245EC30E255A000E265AEE
:1020E000275A120018BE14D01990188E4350040DB0
:1020F000F350036A1C0FE96E000E0320EA6EEFCF67
:1021000038F0ECCF39F0ECCF3AF0ECCF3BF005D023
:10211000189E3B6A3A6A396A386A12000201C06B3B
:10212000C16B010EC26FDA6AD96A020EC56FB80EB2
:10213000C46F020EEA6EBC0EE96EC5C2E2FFC4C2F5
:10214000E1FFC2C2C3F2D890E550EE02F350C023C3
:10215000F450C123C32FF7D7C0C2DEFFC1C2C0F203
:10216000C16BD8B0C12BC42BD8B4C52BC22BC25164
:102170000508DFE1000112000201B76BB66BB56B19
:10218000B46BB76BB66BB56BADC2B4F2B7C2BBF292
:10219000B6C2BAF2B5C2B9F2B4C2B8F2BF6BBE6B86
:1021A000BD6B0A0EBC6F0001B9DF0201AE51002405
:1021B000B46F000E0120B56F000E0220B66F000E46
:1021C0000320B76FB7C2BBF2B6C2BAF2B5C2B9F25A
:1021D000B4C2B8F2BF6BBE6BBD6B0A0EBC6F000120
:1021E0009DDF0201AF510024B46F000E0120B56FD6
:1021F000000E0220B66F000E0320B76FB7C2BBF20D
:10220000B6C2BAF2B5C2B9F2B4C2B8F2BF6BBE6B15
:10221000BD6B0A0EBC6F000181DF0201B0510024CA
:10222000B46F000E0120B56F000E0220B66F000ED5
:102230000320B76FB7C2BBF2B6C2BAF2B5C2B9F2E9
:10224000B4C2B8F2BF6BBE6BBD6B0A0EBC6F0001AF
:1022500065DF0201B1510024B46F000E0120B56F9B
:10226000000E0220B66F000E0320B76FB7C2BBF29C
:10227000B6C2BAF2B5C2B9F2B4C2B8F2BF6BBE6BA5
:10228000BD6B0A0EBC6F000149DF0201B251002490
:10229000B46F000E0120B56F000E0220B66F000E65
:1022A0000320B76FB7C2BBF2B6C2BAF2B5C2B9F279
:1022B000B4C2B8F2BF6BBE6BBD6B0A0EBC6F00013F
:1022C0002DDF0201B3510024B46F000E0120B56F61
:1022D000000E0220B66F000E0320B76FB4C200F0EC
:1022E000B5C201F0B6C202F0B7C203F0000112009D
:1022F000E00E0201CF6F0001E7EC07F001C0A7F28A
:102300000201A75303E0A75104080AE2010EA76FD8
:10231000E00EA86FA7C2A9F2000114EC08F00201B8
:10232000A72D01D0189AA751020801E1188AA7C267
:1023300001F000011200000E18BA010E010F040D89
:10234000F350036A1C0FE96E000E0320EA6EEFCF14
:1023500030F0ECCF31F0ECCF32F0ECCF33F0000EB8
:1023600018BA010E010F040DF350036A1C0FE96E39
:10237000000E0320EA6E28C0EFFF29C0ECFF2AC040
:10238000ECFF2BC0ECFF33C02BF032C02AF031C081
:1023900029F030C028F0336A326A316A306A020E9E
:1023A0000201A76F0001A7DC12002EC29EF20201FB
:1023B0002D39006E0F0E001600500F0B9F6F2D5120
:1023C0000F0BA06F2C39006E0F0E001600500F0B74
:1023D000A16F2C510F0BA26F2B39006E0F0E001640
:1023E00000500F0BA36F2B510F0BA46F2A39006EF7
:1023F0000F0E001600500F0BA56F2A510F0BA66F82
:102400009E51010A000120E0030A21E0010A21E0B7
:10241000070A21E0010A22E0030A22E0010A22E081
:102420000F0A26E0010A2AE0030A2BE0010A57E01E
:10243000040A57E0F30AD8B482D0020AD8B487D08D
:10244000010AD8B48CD08CD014DC22DC89D026DCF4
:1024500087D06EDC85D08EDC1BDC82D091DC80D016
:10246000A7DC7ED00201A76B0001EDDC11DC78D087
:102470000201A76B00019BDD0BDC72D033DE08DCB0
:102480006FD0A0C2ADF2A1C2AEF2A2C2AFF2A3C29F
:10249000B0F2A4C2B1F2A5C2B2F2A6C2B3F26CDE2F
:1024A00003C01FF002C01EF001C01DF000C01CF0F0
:1024B0001FDF0150040DF350036A1C0FE96E000E7C
:1024C0000320EA6E1CC0EFFF1DC0ECFF1EC0ECFF36
:1024D0001FC0ECFF1F6A1E6A1D6A1C6A41D02BDFF9
:1024E0003FD0A5C2ADF2A6C2AEF2A3C2AFF2A4C263
:1024F000B0F2A1C2B1F2A2C2B2F29FC2B3F23CDE0C
:1025000003C01FF002C01EF001C01DF000C01CF08F
:10251000EFDE0150040DF350036A1C0FE96E000E4C
:102520000320EA6E1CC0EFFF1DC0ECFF1EC0ECFFD5
:102530001FC0ECFF1F6A1E6A1D6A1C6A11D048EC9E
:102540000EF019B602D0198601D0199609D00201F1
:10255000A869A969000114EC08F0FF0001D0FF0090
:10256000010E016EA9EF22F00201A76BA66BA56B0D
:10257000A46BA86BA96BAA6BAB6BAC6BAD6BAE6BB2
:10258000010EA35DFC0F38E2040F0001E1EF13F030
:1025900023C0A7F222C0A6F221C0A5F220C0A4F257
:1025A00002012AD00201A25309E023C0A7F222C0EF
:1025B000A6F221C0A5F220C0A4F208D027C0A7F23D
:1025C00026C0A6F225C0A5F224C0A4F215D02BC0C7
:1025D000A7F22AC0A6F229C0A5F228C0A4F20201DF
:1025E0000BD02FC0A7F22EC0A6F22DC0A5F22CC092
:1025F000A4F2020101D00201A45307E1A55305E1B1
:10260000A65303E1A753D8B4ADD0A7C2C2F2A6C265
:10261000C1F2A5C2C0F2A4C2BFF2C2C2C6F2C1C218
:10262000C5F2C0C2C4F2BFC2C3F2A86BC6530DE16B
:10263000C5510E0815E2FF0A08E1C451410810E235
:10264000FF0A03E1C3513F080BE2400EC35F420E95
:10265000C45B0F0EC55B000EC65B010EA827E6D754
:10266000A96BC6530DE1C551000815E2FF0A08E148
:10267000C451850810E2FF0A03E1C3519F080BE231
:10268000A00EC35F860EC45B010EC55B000EC65B69
:10269000010EA927E6D7AA6BC6530AE1C55308E184
:1026A000C45126080FE2FF0A03E1C3510F080AE2F2
:1026B000100EC35F270EC45B000EC55BC65B010E28
:1026C000AA27EAD7AB6BC6530AE1C55308E1C45148
:1026D00002080FE2FF0A03E1C351E7080AE2E80E2D
:1026E000C35F030EC45B000EC55BC65B010EAB2768
:1026F000EAD7AC6BC65307E1C55305E1C45303E108
:10270000C351630809E2640EC35F000EC45BC55B7E
:10271000C65B010EAC27EED7AD6BC65307E1C553C0
:1027200005E1C45303E1C351090809E20A0EC35F7E
:10273000000EC45BC55BC65B010EAD27EED7AE6B6A
:10274000C65307E1C55305E1C45303E1C351000873
:1027500009E2010EC35F000EC45BC55BC65B010EE0
:10276000AE27EED7A25316E0300EA825706F300EBC
:10277000A925716F300EAA25726F300EAB25736FCD
:10278000300EAC25746F300EAD25756F300EAE2552
:10279000766F15D0300EA825586F300EA925596FC9
:1027A000300EAA255A6F300EAB255B6F300EAC256C
:1027B0005C6F300EAD255D6F300EAE255E6F000193
:1027C0001200F2CF0DF0F29EE824F76AF736E70F19
:1027D000F66E270EF7220A00F550FA6E0800F55043
:1027E0000DBEF28EF96E9025A425CE25E225A2C25B
:1027F00053F2A3C254F20201A53D01D003D0300E22
:10280000A525556F036AA451530FE96E020E0320EC
:10281000EA6E3B0EEF6E000153EC0DF0120068DD26
:1028200001C0A1F20201A26B01C0A3F200019CDE73
:10283000460E0201A26F410EA36F0D0EA46FA56993
:102840000001D5DF12000201A26B020EA36F00018E
:102850008BDE460E0201A26F420EA36F0D0EA46F17
:10286000A5690001C4DF1200036A0201A151530FE0
:10287000E96E020E0320EA6E2FC2EFFF010EA125C2
:10288000036A530FE96E020E0320EA6E30C2EFFFB7
:10289000020EA125036A530FE96E020E0320EA6EB1
:1028A00031C2EFFF030EA125036A530FE96E020E3A
:1028B0000320EA6E32C2EFFF040EA125036A530F14
:1028C000E96E020E0320EA6E33C2EFFF050EA1256A
:1028D000036A530FE96E020E0320EA6E34C2EFFF63
:1028E000060EA125036A530FE96E020E0320EA6E5D
:1028F00035C2EFFF036AA151530FE96E020E0320A8
:10290000EA6E300EEF5CA66F010EA125036A530F2D
:10291000E96E020E0320EA6E300EEF5CA76F020E26
:10292000A125036A530FE96E020E0320EA6E300EF2
:10293000EF5CA86F030EA125036A530FE96E020E28
:102940000320EA6E300EEF5CA96F040EA125036A26
:10295000530FE96E020E0320EA6E300EEF5CAA6F91
:10296000050EA125036A530FE96E020E0320EA6EDD
:10297000300EEF5CAB6F060EA125036A530FE96EB4
:10298000020E0320EA6E300EEF5CAC6FA6C2ADF211
:10299000A7C2AEF2A8C2AFF2A9C2B0F2AAC2B1F207
:1029A000ABC2B2F2B36F0001BCEC10F003C0A5F2F1
:1029B00002C0A4F201C0A3F200C0A2F20201A5531A
:1029C00009E1A45307E1A351270804E312E1A2514E
:1029D0000F080FE2A5530DE1A4512F081EE2FF0AD4
:1029E00008E1A351D30819E2FF0A03E1A25100084C
:1029F00014E200017DDC0150040DF350036A1C0F4A
:102A0000E96E000E0320EA6EEFCFA2F2ECCFA3F244
:102A1000ECCFA4F2ECCFA5F20201A2C200F0A3C257
:102A200001F0A4C202F0A5C203F000011200050EDD
:102A30000201A16F000118DF03C023F002C022F0E1
:102A400001C021F000C020F0EADED5EF21F0050E34
:102A50000201A16F000108DF03C027F002C026F0C9
:102A600001C025F000C024F0EEDEDBEF21F0020112
:102A7000A26BA151300802E1010EA26FA1513108F1
:102A800002E1020EA26FA151320802E1030EA26F11
:102A9000E00EA86FA2C2A9F2000114EC08F0E3EF67
:102AA00021F026DC0150010A03E0030A06E009D008
:102AB000300E0201556F000104D0310E0201556F36
:102AC0000001460E0201A26F520EA36F030EA46F07
:102AD00055C2A5F200018BDE120002012C51300A12
:102AE000000103E0010A04E005D0010E436E02D0AC
:102AF000020E436EE00E0201A86F43C0A9F200016E
:102B000014EC08F0CEDFE9EF21F078EC11F0015081
:102B1000010A03E0030A06E009D0300E0201556FF6
:102B2000000104D0310E0201556F0001460E020172
:102B3000A26F540EA36F030EA46F55C2A5F200013D
:102B400056DE120002012C51300A000103E0010A96
:102B500004E005D0010E436E02D0020E436EE00E7B
:102B60000201A86F43C0A9F2000114EC08F0CDDF08
:102B7000F3EF21F078EC11F001C0A1F2490E02014F
:102B80006B6F460E6C6F010EA26FA1C2A3F2000123
:102B9000EBDC4750090809E2310E0201856F0A0E8D
:102BA000475C300F866F06D00001300E0201856F42
:102BB0004724866F83A603D0310E876F02D0300E74
:102BC000876F4DC088F2A12D03D0300E896F8B6FB7
:102BD000A151020803E1310E896F8B6F300E8A6FAD
:102BE0000001FDEF21F00201A16BA151250822E3B4
:102BF000036AA1516B0FE96E020E0320EA6EEFCF5C
:102C0000A2F2166AF2BE168EF29EA2C2DDF2000198
:102C1000EFEC06F016BEF28E036A0201A1516B0FB3
:102C2000E96E020E0320EA6EEF503B08D8B402D0E2
:102C3000A12BDBD70001FFEF21F002012C51300A5C
:102C4000000103E0010A03E003D01A9801D01A88BA
:102C5000000E1AB8010E0201A16F310EA26F410ED3
:102C6000A36F030EA46FA1C2A5F20001C0DD000E88
:102C70001AB8010E0201A16FE90EA86FA1C2A9F254
:102C8000000114EC08F012EF22F002012C51300A7E
:102C9000000103E0010A03E003D01B9E01D01B8E5C
:102CA000000E1BBE010E0201A16F310EA26F420E7B
:102CB000A36F030EA46FA1C2A5F2000198DD000E60
:102CC0001BBE010E0201A16FEA0EA86FA1C2A9F2FC
:102CD000000114EC08F016EF22F002012C51300A2A
:102CE000000103E0010A03E003D0199C01D0198C14
:102CF000000E19BC010E0201A16F310EA26F430E2E
:102D0000A36F030EA46FA1C2A5F2000170DD000E37
:102D100019BC010E0201A16FE80EA86FA1C2A9F2B1
:102D2000000114EC08F01AEF22F002012C51300AD5
:102D3000000103E0010A03E003D01A9C01D01A8CC1
:102D4000000E1ABC010E0201A16F310EA26F440EDB
:102D5000A36F030EA46FA1C2A5F2000148DD000E0F
:102D60001ABC010E0201A16FE40EA86FA1C2A9F264
:102D7000000114EC08F01EEF22F0300E02012A6F61
:102D80002B6F2A5DA56F300E2B5DA66F300E2C5D6C
:102D9000A76F300E2D5DA86F300E2E5DA96F300E1F
:102DA0002F5DAA6F300E305DAB6FA5C2ADF2A6C22B
:102DB000AEF2A7C2AFF2A8C2B0F2A9C2B1F2AAC2E3
:102DC000B2F2B36F0001BCEC10F003C0A4F202C079
:102DD000A3F201C0A2F200C0A1F2A1C200F0A2C2FF
:102DE00001F0A3C202F0A4C203F0ECEF1FF0020155
:102DF000B16BB051B15D0CE2000148EC0EF0C80EB1
:102E00000201B56F00013FEC0DF00201B12BF1D7CB
:102E1000000112001AAC0ED0100E48240201CE6F31
:102E2000CF6F000127EC0AF001C002F000C001F0F2
:102E30000BD00AD00F0E0201CF6F000127EC0AF071
:102E400001C002F000C001F012001AAC0FD0100E49
:102E500048240201AC6FB06FB46BB36BABC2B2F27B
:102E6000AAC2B1F200012EEC08F00CD00F0E020144
:102E7000B06FB46BB36BABC2B2F2AAC2B1F20001D5
:102E80002EEC08F012000201B051010A000107E027
:102E9000030A0BE0010A0FE0060A13E016D0010E48
:102EA00001016C6F0F0E746F14D00C0E01016C6F6A
:102EB0000F0E746F0ED0020E01016C6FB6C274F16A
:102EC00008D0B6C274F1010104D00F0E01016C6F7D
:102ED000746F0201B1510F0805E20F0E01016D6F11
:102EE00004D00201B1C26DF10101B5C2C2F2B4C297
:102EF000C1F2B3C2C0F2B2C2BFF2C2C2C6F2C1C214
:102F0000C5F2C0C2C4F2BFC2C3F20201B86BC6535D
:102F10000DE1C5510E0815E2FF0A08E1C451410850
:102F200010E2FF0A03E1C3513F080BE2400EC35F0A
:102F3000420EC45B0F0EC55B000EC65B010EB827C8
:102F4000E6D7B96BC6530DE1C551000815E2FF0A7B
:102F500008E1C451850810E2FF0A03E1C3519F084C
:102F60000BE2A00EC35F860EC45B010EC55B000EB4
:102F7000C65B010EB927E6D7BA6BC6530AE1C55343
:102F800008E1C45126080FE2FF0A03E1C3510F080C
:102F90000AE2100EC35F270EC45B000EC55BC65B62
:102FA000010EBA27EAD7BB6BC6530AE1C55308E145
:102FB000C45102080FE2FF0A03E1C351E7080AE225
:102FC000E80EC35F030EC45B000EC55BC65B010E5B
:102FD000BB27EAD7BC6BC65307E1C55305E1C45311
:102FE00003E1C351630809E2640EC35F000EC45BD2
:102FF000C55BC65B010EBC27EED7BD6BC65307E1B0
:10300000C55305E1C45303E1C351090809E20A0E9F
:10301000C35F000EC45BC55BC65B010EBD27EED768
:10302000BE6BC65307E1C55305E1C45303E1C35169
:10303000000809E2010EC35F000EC45BC55BC65BFE
:10304000010EBE27EED7B7510208D8A057D0B5530E
:103050000DE1B4510F080AE307E1B351420806E35A
:1030600003E1B2513F0802E30F0EB86FB5530DE113
:10307000B45101080AE307E1B351860806E303E10E
:10308000B2519F0802E30F0EB96FB5530BE1B45371
:1030900009E1B351270806E303E1B2510F0802E347
:1030A0000F0EBA6FB5530BE1B45309E1B3510308E6
:1030B00006E303E1B251E70802E30F0EBB6FB5531D
:1030C00009E1B45307E1B35305E1B251630802E3E8
:1030D0000F0EBC6FB55309E1B45307E1B35305E1DB
:1030E000B251090802E30F0EBD6FB25307E1B353AB
:1030F00005E1B45303E1B55301E1BE6BB751010AD9
:1031000000012FE0030A3AE0010A47E0070A53E012
:10311000010A5FE00C0A67E0030AD8B471D0010A23
:10312000D8B47BD0070AD8B487D0010AD8B493D0DA
:10313000030AD8B49FD0010AD8B4ABD01F0AD8B4C0
:10314000B7D0010AD8B4C3D0B8C26EF1B9C26FF11A
:10315000BAC270F1BBC271F1BCC272F1BDC273F1EF
:10316000C4D0B9C26EF1BAC26FF1BBC270F1BCC2B9
:1031700071F1BDC272F1BEC273F1B7D00F0E010181
:103180006E6F010E5B246F6F0F0E706FBDC271F119
:10319000BEC272F1736F0001A8D0BBC26EF1BCC297
:1031A0006FF1BDC270F1BEC271F10F0E0101726FFD
:1031B000736F00019AD00F0E01016E6F6F6FBBC26B
:1031C00070F1BCC271F1BDC272F1BEC273F10001F7
:1031D0008CD00F0E01016E6F6F6B706B716B726B29
:1031E000736F000182D0B8C26EF1B9C26FF1BAC27A
:1031F00070F1BBC271F1BCC272F1BDC273F175D086
:10320000B9C26EF1BAC26FF1BBC270F1BCC271F14A
:10321000BDC272F1BEC273F168D00F0E01016E6FB4
:10322000B9C26FF1BAC270F1BBC271F1BCC272F126
:10323000BDC273F1000159D0B8C26EF10F0E010189
:103240006F6FBAC270F1BBC271F1BCC272F1BDC284
:1032500073F100014AD0B8C26EF1B9C26FF10F0E1E
:103260000101706FBBC271F1BCC272F1BDC273F1DA
:1032700000013BD0B8C26EF1B9C26FF1BAC270F1B1
:103280000F0E0101716FBCC272F1BDC273F100017A
:103290002CD0B8C26EF1B9C26FF1BAC270F1BBC224
:1032A00071F10F0E0101726FBDC273F100011DD0EB
:1032B000B8C26EF1B9C26FF1BAC270F1BBC271F19E
:1032C000BCC272F10F0E0101736F00010ED0B9C2C2
:1032D0006EF1BAC26FF1BBC270F1BCC271F1BDC276
:1032E00072F10F0E0101736F00011200030E020153
:1032F000D16F00016FEC0CF01200016A026A006AE3
:10330000036A0201D15102E1D05118E0100ED26FD0
:10331000D890CE37CF3700360336D151035C02E167
:10332000D051005C07E3D051005ED8A00306D15114
:10333000035ED88001360236D22FEAD70001120090
:10334000020E0201D16F00016FEC0CF0B0EF19F02A
:10335000700E0201D06FCF51D025816E0001F0D7E1
:103360000DEF1CF0700E0201D06FCF51D025816E91
:10337000000117EF1CF00201CE6B83A802D0080EEB
:10338000CE2783AA02D0040ECE2783AC02D0020E31
:10339000CE2783AE02D0010ECE27CEC201F00001AF
:1033A0001200B8C2F4F1B7C2F3F1B6C2F2F1B5C27D
:1033B000F1F10201BC6BBB6BBE6BBD6BB95308E096
:1033C0000101F66BF56BF86BF76BF96BFA6B0201A9
:1033D000BA3D64D0C16BC151090852E3C151030D1C
:1033E000F350040DF350036A780FE96E010E0320C9
:1033F000EA6EEFCF00F0ECCF01F0ECCF02F0ECCFB3
:1034000003F00350B85D3AE30BE10250B75D36E3D9
:1034100007E10150B65D32E303E10050B55D2EE3F4
:10342000C151030DF350010F040DF350036A780FDF
:10343000E96E010E0320EA6EEFCF00F0ECCF01F051
:10344000ECCF02F0ECCF03F0B851035C17E30BE1D3
:10345000B751025C13E307E1B651015C0FE303E1EE
:10346000B551005C0BE3D00EC125CE6FCF6F0001CC
:10347000E7EC07F001C048F0020102D0C12BABD746
:103480000101F951485C08E0FA6B48C081FF000176
:103490002DDF48C0F9F101010FD00201BAC248F096
:1034A0000101F951485C08E0FA6B48C081FF000156
:1034B0001DDF48C0F9F101011BB027D00001AADCD3
:1034C00002C04FF001C04EF04F50260815E2FF0A2F
:1034D00003E14E500F0810E2100E4E5C006E270EF6
:1034E0004F58036E00500201B5270350B623000E5B
:1034F000B723B82309D000014E500201B55F4F50E9
:10350000B65B000EB75BB85B0101B8C2C5F2B7C2CB
:10351000C4F2B6C2C3F2B5C2C2F20201C5530DE194
:10352000C451000817E2FF0A08E1C351850812E2FE
:10353000FF0A03E1C2519F080DE2A00EC25F860E92
:10354000C35B010EC45B000EC55B0A0EBB27000EF9
:10355000BC23E4D7C5530AE1C45308E1C35126088C
:1035600015E2FF0A03E1C2510F0810E2100EC25F1C
:10357000270EC35B000EC45BC55B010EBB27000EAC
:10358000BC23640EBD27000EBE23E4D7C5530AE159
:10359000C45308E1C351020811E2FF0A03E1C2511A
:1035A000E7080CE2E80EC25F030EC35B000EC45BCB
:1035B000C55B0A0EBD27000EBE23E8D7C55307E141
:1035C000C45305E1C35303E1C25163080BE2640E27
:1035D000C25F000EC35BC45BC55B010EBD27000E5E
:1035E000BE23ECD7BF6BC55307E1C45305E1C353FA
:1035F00003E1C251090809E20A0EC25F000EC35B73
:10360000C45BC55B010EBF27EED7C06BC25306E19A
:10361000C35304E1C45302E1C55309E0010EC25F84
:10362000000EC35BC45BC55B010EC027EFD7BE5164
:10363000000809E2FF0A03E1BD51F30804E2F40EB9
:10364000BD5F010EBE5B300EBD27020EBE23C66BF2
:10365000C76BC86BC96BCA6BCB6BCC6BCD6B0101F5
:10366000F5510201BD5D05E10101F6510201BE5DAA
:1036700034E0BEC2C7F2BE31CF6FBD31CE6FCF33A3
:10368000CE33CF33CE33CF33CE330F0ECF17CE5111
:103690000F0BC86FBD510F0BC96F300EC625CE6F13
:1036A000CF6F0001C4EC0CF0200E0201C725CE6FD5
:1036B000CF6F0001C4EC0CF0100E0201C825CE6FD4
:1036C000CF6F0001C4EC0CF0C9C2CFF2C4EC0CF017
:1036D000BEC2F6F1BDC2F5F102010101F7510201CE
:1036E000BB5D06E10101F8510201BC5DD8B48AD08E
:1036F0004850050834E3BCC2CFF2BBC2CEF2D16B56
:10370000050ED06F0001F9DD02C0CFF201C0CEF28C
:103710000C0E0201CE27000ECF23CF31036ECE3127
:10372000026E03320232033202320332023202C02C
:10373000CCF2BCC2CFF2BBC2CEF2D16B050ED06FC1
:103740000001DBDD02C0CFF201C0CEF20C0E02019F
:10375000CE27000ECF23CE510F0BCD6F33D0BCC27E
:10376000CFF2BBC2CEF2D16B050ED06F0001C5DD2A
:1037700002C0CFF201C0CEF2120E0201CE5F000EE7
:10378000CF5BCF31036ECE31026E03320232033291
:1037900002320332023202C0CCF2BCC2CFF2BBC250
:1037A000CEF2D16B050ED06F0001A7DD02C0CFF2C3
:1037B00001C0CEF2120E0201CE5F000ECF5BCE51E1
:1037C0000F0BCD6F300ECA25CE6FCF6F0001CCEC42
:1037D0000CF0200E0201CB25CE6FCF6F0001CCEC98
:1037E0000CF0100E0201CC25CE6FCF6F0001CCEC97
:1037F0000CF0CDC2CFF2CCEC0CF0BCC2F8F1BBC2E5
:10380000F7F10201C0510101FA5D0AE0010E020167
:10381000C025CE6FCF6F00019BD5C0C2FAF1010168
:10382000010E0201BF25CE6FCF6F00019BD5A3DD36
:1038300001C040F040C041F012000201B56B84921B
:103840008494809A848000D000D0000082A402D0AA
:10385000010EB56F82A202D0020EB56F82A002D017
:10386000030EB56F8490848200D000D0000082A443
:1038700002D0040EB56F82A202D0050EB56F82A0F1
:1038800002D0060EB56F8492848400D000D0000070
:1038900082A402D0070EB56F82A202D0080EB56FC7
:1038A00082A002D0090EB56F8494808A00D000D027
:1038B000000082A202D00A0EB56F84948492849094
:1038C000809AB5C201F0000112000201B56B83B20B
:1038D00004D082BA02D00B0EB56F83B204D082BC82
:1038E00002D00C0EB56F83A206D082AA04D082AC9F
:1038F00002D00D0EB56F83A204D082BA02D00E0E94
:10390000B56F83A204D082BC02D00F0EB56FB5C2D2
:1039100001F0000112000201B16BB26BB05102085C
:1039200002E1B36B02D0040EB36F82A40AD182B459
:10393000FED718B007D0000180DF015201E01880E7
:103940000201276B18A08BD0000177DF015216E02F
:1039500074DF01C025F20201273D01D001D0272BE1
:10396000B05102080CE0166AF2BE168EF29EC80E26
:10397000DF6F0001DFEC06F016BEF28E0201275168
:10398000B35D21E2B0530AE12751630802E3010E5F
:10399000B26F2751630802E2020EB26FB02D0AD057
:1039A0002751630802E3010EB26F2751630802E258
:1039B000030EB26FB051020806E125C2B1F2256BC9
:1039C000B1C201F0D9D0B22D22D0000136DF0152B0
:1039D0001FE10201B46BB45109080AE300012DDFB5
:1039E000015203E0020104D000010201B42BF3D71D
:1039F000B45109080CE218A403D0B16B189402D09A
:103A000025C2B1F2256B1890B1C201F0B5D000010A
:103A10000201B25102080DE1255303E01E0E2525D7
:103A2000B16F256B010E276F18841890B1C201F099
:103A3000A3D0B251030813E1255303E01E0E252540
:103A4000B16F0001FADE015205E1010E0201276F9C
:103A5000B16B000118840201B1C201F08DD018B61B
:103A600007D0000132DF015201E018860201286B05
:103A700018A667D0000129DF015213E026DF01C03C
:103A800026F20201283D01D001D0282B166AF2BE91
:103A9000168EF29E24C2DFF20001DFEC06F016BEA5
:103AA000F28E02012851B35D1BE226510D0A00017E
:103AB0000CE0020128511D0802E3010EB26F2851EB
:103AC0001D0802E2020EB26F0BD0020128511D0840
:103AD00002E3010EB26F2851630802E2020EB26FD8
:103AE000B22D14D00001F1DE015211E118A405D06D
:103AF00018940201B16B04D0000126C2B1F2020198
:103B0000266B1896286BB1C201F036D00001020175
:103B1000B251020816E1050E2625B16F0001D5DE6F
:103B2000015205E00201B151120807E100011896A7
:103B30000201B151120801E0B16B1884B1C201F069
:103B40001BD083A015D01BBC12D0000148EC0EF096
:103B500083B0FED7C80E0201B56F00013FEC0DF037
:103B600018A802D0189801D0188803D0020118981C
:103B70000001000E016E0201000112001BAC07D013
:103B8000030E0201B06F0001F7EC16F022D21B8089
:103B90000201A351A41109E100010AEC17F002C0CF
:103BA0004FF001C04EF006D00201A4C24FF0A3C2F4
:103BB0004EF000014F504D080DE2FF0A03E14E5058
:103BC0001F0808E24F6A4E6A0201AB6BAA6B000144
:103BD00025EC17F04350040DF350036A1C0FE96EF7
:103BE000000E0320EA6EEFCF1CF0ECCF1DF0ECCFFF
:103BF0001EF0ECCF1FF04F5026080BE2FF0A03E146
:103C00004E500F0806E2100E4E5E270E4F5A1B92C2
:103C100001D01B82010E0201A56FA791A793A52DCC
:103C20009AD0A7A305D0010E4E5E000E4F5AA7935F
:103C3000A7A105D0010E4E26000E4F22A7914E3CA3
:103C40000AD04F3C08D04F6A010E4E6E1BB202D014
:103C50001B8201D01B924E504F1058E0000E1BB239
:103C6000010E010A00011FE04350040DF350036AE6
:103C70001C0FE96E000E0320EA6EEFCFA8F2ECCF26
:103C8000A9F2ECCFAAF2ECCFABF24E500201A8257C
:103C90001C6E4F50A9211D6E000EAA211E6E000E33
:103CA000AB211F6E1ED04350040DF350036A1C0F4E
:103CB000E96E000E0320EA6EEFCFA8F2ECCFA9F276
:103CC000ECCFAAF2ECCFABF24E500201A85D1C6E15
:103CD0004F50A9591D6E000EAA591E6E000EAB5909
:103CE0001F6E000E1BB2010EFF0A050FA86FB06910
:103CF000B169B56BB46B4FC0B3F24EC0B2F2B669E6
:103D0000B76F000143EC17F016D00201B069B1693A
:103D1000B56BB46BB36B010EB26FB669050EB76FBE
:103D2000000143EC17F048EC0EF0C80E0201B56F2D
:103D300000013FEC0DF01FC0B8F21EC0B7F21DC06D
:103D4000B6F21CC0B5F20201B96BBA690001D1EC40
:103D500019F00201A56BA351A4110BE0080EA86F86
:103D6000FA0EB56F00013FEC0DF00201A82FF8D755
:103D7000E9D0A55337E1000E1BB2010EA86FA8C20F
:103D8000A9F20001BBEC19F001C040F04150405CC9
:103D900004E1000E016E21D01ED00201A9530CE1F6
:103DA00082A805D0010E4E26000E4F2204D0010E2F
:103DB0004E5E000E4F5A0BD082A805D0010E4E5E0B
:103DC000000E4F5A04D0010E4E26000E4F22010E57
:103DD000016E000102D0000E016E015204E0010EDE
:103DE0000201A56F00010201A553D8A4AAD0B06BAF
:103DF000000191DD01C0A6F20201A653D8B4A1D002
:103E0000010EA56F1BB231D0A651020A00010DE0D0
:103E1000010A0FE0050A11E00A0A14E0070A16E099
:103E2000060A18E0120A1BE01ED00201A783000157
:103E30001AD00201A781000116D0030E0201A56F5E
:103E4000000111D00201A78300010DD00201A7815A
:103E5000000109D0020E0201A56F000104D0020E7C
:103E60000201A56F000130D00201A651020A000133
:103E70000DE0010A0FE0050A11E00A0A14E0070A42
:103E800016E0060A18E0120A1BE01ED00201A78104
:103E900000011AD00201A783000116D0030E02010F
:103EA000A56F000111D00201A78100010DD0020110
:103EB000A783000109D0020E0201A56F000104D002
:103EC000020E0201A56F00010201A62D2FD00001F4
:103ED00048EC0EF04350040DF350036A1C0FE96EDA
:103EE000000E0320EA6EEFCFA8F2ECCFA9F2ECCFE0
:103EF000AAF2ECCFABF20201B069B169ABC2B5F284
:103F0000AAC2B4F2A9C2B3F2A8C2B2F2B669B76B40
:103F1000000143EC17F0040E0201A86FFA0EB56F12
:103F200000013FEC0DF00201A82FF8D719A202D032
:103F3000030EA56FA551020803E0A5510308D8B4EC
:103F400001D06DD6A551020819E11BB20DD0100E9B
:103F50004E24A86F270E4F20A96FAB6FA8C2AAF2FC
:103F6000000125EC17F002011BA208D04FC0ABF2F4
:103F70004EC0AAF2000125EC17F00201A55103087A
:103F800026E1AB6BAA6B000125EC17F00201B069CA
:103F9000B169B56BB46BB36B010EB26FB669050E48
:103FA000B76F000143EC17F048EC0EF0030E02016E
:103FB000B06F0001F7EC16F0040E0201A86FFA0EC4
:103FC000B56F00013FEC0DF00201A82FF8D71B9050
:103FD00000011200BDEF16F001C0A2F200C0A1F274
:103FE00001C0A4F200C0A3F2C9DD310E0201A26F2C
:103FF000450EA36F030EA46F020EA56F0001F7EC30
:1040000013F021EF22F00201A16B2C51310A0001C3
:104010000DE0030A0FE0010A11E0070A13E0000EA9
:1040200018BA010E010F0201A16F0FD0010E02019B
:10403000A16F0BD0020E0201A16F07D0030E020187
:10404000A16F03D0040E0201A16F320EA26F410EC8
:10405000A36F030EA46FA1C2A5F20001F7EC13F049
:1040600026EF22F0300E02012C5D0A0DF3CFA1F2F3
:10407000300E2D5DA127A1530DE0A15128080AE3C0
:10408000A1C25AF0E60EA86F5AC0A9F2000114ECC2
:1040900008F00201320EA26F420EA36F030EA46F4E
:1040A0005AC0A5F20001F7EC13F00201A86B000161
:1040B0008BEC0DF02BEF22F0300E02012C5D0FE0A7
:1040C000300E2C5D08080BE3310E2C5D5B6EE70EA5
:1040D000A86F5BC0A9F2000114EC08F00201010E08
:1040E0005B24A16F320EA26F430EA36F030EA46F69
:1040F000A1C2A5F20001F7EC13F00201A86B0001C8
:104100008BEC0DF030EF22F0300E02012C5D0FE051
:10411000300E2C5D08080BE3300E2C5D4C6EEC0E5F
:10412000A86F4CC0A9F2000114EC08F00201320E95
:10413000A26F440EA36F030EA46F4CC0A5F2000142
:10414000F7EC13F035EF22F002012C51300A000198
:1041500003E0010A03E003D01A9201D01A82000E94
:104160001AB2010E0201A16F320EA26F450EA36FAB
:10417000030EA46FA1C2A5F20001F7EC13F0000E2C
:104180001AB2010E0201A16FEB0EA86FA1C2A9F233
:10419000000114EC08F038EF22F0036A0201A45188
:1041A000680FE96E000E0320EA6EEFCF01F0000108
:1041B00012000201A16BA13D01D013D0A1C2A4F253
:1041C0000001EBDF01C0A2F2166AF2BE168EF29E6B
:1041D00001C0DDF2EFEC06F016BEF28E0201A12B5B
:1041E000EAD7166AF2BE168EF29E3B0EDD6F000114
:1041F000EFEC06F016BEF28E3BEF22F09D9A020124
:10420000A16B9EAA14D00001D4EC06F001C0A3F269
:10421000A1C2BFF201C0C0F2ECEC07F0A1C2A4F24F
:10422000BCDF01503B08D8B404D00201A12BE9D770
:1042300000019EAA09D0D4EC06F0200E006E002EDC
:10424000FED700D00000F5D70201A26BA151A25DFC
:1042500029E2A2C2A4F20001A0DF01C0A3F2A2C21F
:10426000A8F201C0A9F214EC08F0200E006E002E96
:10427000FED700D00000A2C2CFF2E7EC07F001C0E9
:10428000A3F2A2C2A4F289DF01500201A35D02E100
:10429000A22B07D0030EB06F0001F7EC16F002015D
:1042A00001D0D4D79D8A000148EC0EF07BEC0BF0D6
:1042B000CDEC0AF0D2EC0CF040EF22F002019E6B44
:1042C0009F6BA06BA0512C084BE3A051040DF35041
:1042D000036AF2CFA1F2F29E0001FAEC02F00201B1
:1042E000A1BFF28E016E2A5D39E1A051040DF35099
:1042F000010F036AF2CFA1F2F29E0001FAEC02F084
:104300000201A1BFF28E016E2B5D28E1A051040DC8
:10431000F350020F036AF2CFA1F2F29E0001FAEC11
:1043200002F00201A1BFF28E036A2A0FE96E020EAB
:104330000320EA6EEF503B0811E1A051040DF35049
:10434000030F036AF2CFA1F2F29E0001FAEC02F031
:104350000201A1BFF28E016E9E6F02D0A02BB2D7D8
:10436000030E9E5DD60FD8B090D02A0F00014AEF01
:1043700022F00201A76B0001D7EC0FF0010E020141
:104380009F6F83D00201A76B000123EC0FF0010E99
:1043900002019F6F7AD00FEC14F0020176D023EC6B
:1043A00014F0020172D017EF15F0010E02019F6F99
:1043B0006CD027EF15F0010E02019F6F66D02CC262
:1043C000A1F237EF15F0010E02019F6F5ED06DEF85
:1043D00015F0020E02019F6F58D051EC15F002014A
:1043E00054D0A2EF15F0020E02019F6F4ED085EC63
:1043F00015F002014AD0BAEF15F0F3EF15F0020103
:1044000044D0020142D02CC24DF002013ED01A9E8F
:1044100002013BD01A8E020138D01A84020135D035
:104420001DEF16F0020131D045EF16F002012DD03C
:104430006DEF16F0020129D095EF16F0020125D09C
:10444000C9D5010E02019F6F20D0DDD5010E0201FA
:104450009F6F1BD007D6010E02019F6F16D02CD67E
:10446000010E02019F6F11D04FD602010ED06CD603
:1044700002010BD09ED6030E02019F6F06D0BED65E
:10448000010E02019F6F01D002019FC201F00001E5
:10449000B0EF22F0F2CF0DF0F29EE824F76AF73683
:1044A000B90FF66E440EF7220A00F550FA6E0800B6
:1044B000F5500DBEF28EF96E7243844396439E43CF
:1044C000A643B243BE43CE43DA43E243EE43F64350
:1044D0008844884488440244064488448844884484
:1044E0008844884488440E441444884488441A44C8
:1044F0002044284430443844404488444A44544486
:104500005E4468446E44884474447E4402019D6B5A
:1045100019B204D09DC201F029D028D01AA414D019
:104520001AB202D01A8203D01AA201D01A921A9497
:10453000000E1AB2010E9E6FEB0EA86F9EC2A9F27A
:10454000000114EC08F002011AB206D00001D5EF08
:1045500011F001C09DF202011AA205D00001AED6F1
:1045600001C09DF2020119929DC201F000011200EA
:1045700002019B91B886110EAF6E040EB06EA60EAE
:10458000AC6E900EAB6E000000009D9A640EB56F8D
:1045900000013FEC0DF0460E0201536F540E546FB4
:1045A000430E556F460E566F470E576F3B0E586FB2
:1045B000000153EC0DF09D8A02019C6B9C51C708D1
:1045C00012E30001A3DF0150030804E102019B8113
:1045D0000AD0000102019C2B010EB56F00013FECD7
:1045E0000DF00201EBD7000E9BB1010E016E000130
:1045F0007CEF34F09D8202019C819D6BEC0ECF6FAD
:104600000001E7EC07F001C09EF202019B53D8A421
:10461000CBD01F6A1E6A1D6A1C6A0001BBEC19F030
:1046200001C040F002019CB137D09F6B090EA06F12
:104630000001BBEC19F001C040F04150405C04E1C6
:10464000000E016E25D024D0010E0101FB2740C0D1
:1046500041F0FB510201A05D18E29F5308E182A8DE
:1046600003D0010E9E2702D0010E9E5F07D082A8C4
:1046700003D0010E9E5F02D0010E9E270101FB6B4D
:10468000010E016E000104D00201000E016E000156
:1046900002019C9101B09C819CB108D0010EB06FC9
:1046A00000018BEC1CF001C09DF202019D5309E05A
:1046B0009D51030801E19E2B9D51020801E19E07D7
:1046C0009C819CA14ED0010E9E5DF80F4AE2080F1E
:1046D00000016BEF24F01F6A1E6A040E1D6EB00EFF
:1046E0001C6E02019C813DD01F6A1E6A090E1D6E60
:1046F000600E1C6E02019C8134D01F6A1E6A120E6D
:104700001D6EC00E1C6E02019C812BD01F6A1E6A9A
:10471000250E1D6E800E1C6E02019C8122D01F6A28
:104720001E6A4B0E1D6E1C6A02019C811AD01F6A04
:104730001E6A960E1D6E1C6A02019C8112D01F6AB1
:104740001E6AE10E1D6E1C6A02019C810AD01F6A5E
:10475000010E1E6EC20E1D6E1C6A02019C8101D0EC
:1047600002019E5303E1010E9E6F05D09E51080881
:1047700002E2080E9E6F9CA112D0B069B1691FC001
:10478000B5F21EC0B4F21DC0B3F21CC0B2F2010EED
:10479000B66FB76F000143EC17F002019C919D5179
:1047A0000408D8B401D03FD79E51010A00010FE0A0
:1047B000030A19E0010A23E0070A2DE0010A37E0A5
:1047C000030A3FE0010A49E00F0A53E05ED0B886D1
:1047D000460EAF6E100EB06EA60EAC6E900EAB6EA7
:1047E000000000005DD0B886220EAF6E080EB06EDD
:1047F000A60EAC6E900EAB6E0000000051D0B886D5
:10480000110EAF6E040EB06EA60EAC6E900EAB6EB7
:104810000000000045D0B886080EAF6E020EB06EE4
:10482000A60EAC6E900EAB6E0000000039D0B896AC
:10483000400EAF6EA60EAC6E900EAB6E0000000088
:104840002FD0B886810EAF6E000EB06EA60EAC6E85
:10485000900EAB6E0000000023D0B886560EAF6EEF
:10486000000EB06EA60EAC6E900EAB6E0000000097
:1048700017D0B8862A0EAF6E000EB06EA60EAC6EC4
:10488000900EAB6E000000000BD0B886110EAF6E1C
:10489000040EB06EA60EAC6E900EAB6E0000000063
:1048A0009EC24CF002019B5314E1EC0EA86F9EC215
:1048B000A9F2000114EC08F0020E0201B06F000131
:1048C000F7EC16F0C80E0201B56F00013FEC0DF0D9
:1048D000020100011200F2CF0DF0F29EE824F76A07
:1048E000F736FB0FF66E480EF7220A00F550FA6E07
:1048F0000800F5500DBEF28EF96ED646E846FA462F
:104900000C471E472E473E474E47BBEC19F001C0EF
:1049100040F04150405C04E1000E016E0BD00AD023
:1049200040C041F082A804D0020E016E03D002D034
:10493000010E016E12001BAC08D0030E0201B06F15
:104940000001F7EC16F051EF2AF043C0AAF282A65C
:1049500004D0040E0201AA2700010201AB6BAC6B6C
:10496000AD6BAE91AE93AE95AE974350010A000188
:1049700003E0030A04E005D044C0A8F202D045C019
:10498000A8F20201AA2D01D003D0AA51020859E1D0
:10499000A851040DF350036AF2CFB0F2F29E000169
:1049A000D7EC02F00900F5CF01F00900F5CF02F0D5
:1049B0000900F5CF03F00201B0BFF28E03C09EF2F2
:1049C00002C09DF201C09CF29B6FA851090807E14B
:1049D000A26BA16BC30EA06F500E9F6F1ED0010E75
:1049E000A825040DF350036AF2CFB0F2F29E000145
:1049F000D7EC02F00900F5CF01F00900F5CF02F085
:104A00000900F5CF03F00201B0BFF28E03C0A2F29D
:104A100002C0A1F201C0A0F29F6F4350040DF350F9
:104A2000036A1C0FE96E000E0320EA6EEFCFA3F2BB
:104A3000ECCFA4F2ECCFA5F2ECCFA6F2010EA76F5B
:104A4000AE85AA510308D8A462D047C0B1F20001D4
:104A5000C9EC0AF003C09EF202C09DF201C09CF2B4
:104A600000C09BF247500E080EE10201B16B00013D
:104A7000C9EC0AF003C0A2F202C0A1F201C0A0F288
:104A800000C09FF210D0010E47240201B06FB16F39
:104A90000001C9EC0AF003C0A2F202C0A1F201C0F9
:104AA000A0F200C09FF202019E51A25D14E30BE14F
:104AB0009D51A15D10E307E19C51A05D0CE303E172
:104AC0009F519B5D08E29EC2A6F29DC2A5F29CC2C8
:104AD000A4F29BC2A3F2A2519E5D14E30BE1A1518B
:104AE0009D5D10E307E1A0519C5D0CE303E19B5148
:104AF0009F5D08E2A2C2A6F2A1C2A5F2A0C2A4F2E2
:104B00009FC2A3F247C0A9F2010EA76FAE85AA51BA
:104B1000040804E0AA510808D8A48ED05AC0A9F20B
:104B20005AC0ADF25BC0ACF2020EA76F1BB47BD0D3
:104B3000B56B5BC0B4F2B76BA40EB66F00015AEC54
:104B40000AF002C0B1F201C0B0F202C003F00201EB
:104B50000150F2CFB2F2F29E02C0F7FF000182ECE8
:104B600003F0006E0900F5CF01F00900F5CF02F067
:104B70000900F5CF03F00201B2BFF28E03C0B5F217
:104B800002C0B4F201C0B3F2B26FB2530DE1B3533D
:104B90000BE1B45309E1B55307E15B50060802E3AA
:104BA0005B2A01D05B6AC4D75A50010802E3010EA8
:104BB0005A6E5A50270802E2280E5A6EB56B5BC037
:104BC000B4F2B76BA40EB66F00015AEC0AF002C043
:104BD000B1F201C0B0F20201B56B5AC0B4F2B76BCA
:104BE000040EB66F00015AEC0AF002C003F0015047
:104BF0000201B025016EB15103220150F2CFB0F293
:104C0000F29E03C0F7FF000182EC03F0006E090082
:104C1000F5CF01F00900F5CF02F00900F5CF03F060
:104C20000201B0BFF28E03C0A6F202C0A5F201C01D
:104C3000A4F200C0A3F2AE85AA51070815E147C04F
:104C4000A9F247C0ADF2010EA76F47C0B1F2000153
:104C5000C9EC0AF003C0A6F202C0A5F201C0A4F29A
:104C600000C0A3F20201AE95AA51050803E0AA51C3
:104C700006084EE1A851040DF350036AF2CFB0F2DA
:104C8000F29E0001D7EC02F00900F5CF01F0090017
:104C9000F5CF02F00900F5CF03F00201B0BFF28EAC
:104CA00003C09EF202C09DF201C09CF29B6FA8510E
:104CB000040DF350036AF2CFB0F2F29E00015FECF4
:104CC00003F00900F5CF01F00900F5CF02F009006B
:104CD000F5CF03F00201B0BFF28E03C0A2F202C012
:104CE000A1F201C0A0F29F6F4350040DF350036A7C
:104CF0001C0FE96E000E0320EA6EEFCFA3F2ECCF9B
:104D0000A4F2ECCFA5F2ECCFA6F2010EA76FAE8510
:104D10009F519B5D12E1A0519C5D0FE1A1519D5DF2
:104D20000CE1A2519E5D09E11898020EB06F0001DE
:104D3000F7EC16F051EF2AF002019E51A25D0DE34F
:104D40000BE19D51A15D09E307E19C51A05D05E3E5
:104D500003E19F519B5D01E21B82A2519E5D0DE329
:104D60000BE1A1519D5D09E307E1A0519C5D05E3C5
:104D700003E19B519F5D01E21B92AE99B0696750C0
:104D8000A65D14E30BE16650A55D10E307E16550F5
:104D9000A45D0CE303E1A351645C08E267C0A6F2E2
:104DA00066C0A5F265C0A4F264C0A3F2A651635C1C
:104DB00014E30BE1A551625C10E307E1A451615CCF
:104DC0000CE303E16050A35D08E263C0A6F262C099
:104DD000A5F261C0A4F260C0A3F2A6C2B8F2A5C257
:104DE000B7F2A4C2B6F2A3C2B5F2B96BB0C2BAF2BE
:104DF0000001D1EC19F00201AA51040A000108E0F7
:104E0000030A0DE00F0A12E000D000D0000014D019
:104E1000320E0201B56F00013FEC0DF00DD0C80E4F
:104E20000201B56F00013FEC0DF006D0320E020119
:104E3000B56F00013FEC0DF083A401D01B8819A8C9
:104E400007D00201AEB902D0AB2BAE8906D000016B
:104E50000201AB3D01D0AB6BAE99AEA504D0AE97CD
:104E600019B8AE8701D0AE87A751010A000103E04F
:104E7000030A30E05AD0000E0201AEB7010E010A5B
:104E8000000103E0010A14E024D043C0B0F20201A3
:104E9000B169A6C2B5F2A5C2B4F2A4C2B3F2A3C26C
:104EA000B2F2A9C2B6F2B76B000143EC17F011D011
:104EB0000201B069B169A6C2B5F2A5C2B4F2A4C23A
:104EC000B3F2A3C2B2F2A9C2B6F2B76B000143ECCF
:104ED00017F02BD0000E0201AEB7010E010A00013F
:104EE00003E0010A12E020D0030E0201B06FB169A5
:104EF000B56BB46BB36BA9C2B2F20F0EB66F020EF4
:104F0000B76F000143EC17F00FD00201B069B1692F
:104F1000B56BB46BB36BA9C2B2F20F0EB66F020ED3
:104F2000B76F000143EC17F000D0010E0201B06F23
:104F300000018BEC1CF001C0AFF21BB875D0020170
:104F4000AA51040A00014AE0030A53E00F0AD8B448
:104F50005AD01BA220D00201A251A65D15E30BE19D
:104F6000A151A55D11E307E1A051A45D0DE303E1AB
:104F7000A3519F5D09E29EC2A6F29DC2A5F29CC20A
:104F8000A4F29BC2A3F206D0020EA327000EA42314
:104F9000A523A62300011BB220D00201A651A25DC9
:104FA00015E30BE1A551A15D11E307E1A451A05D5B
:104FB0000DE303E19F51A35D09E29EC2A6F29DC2EB
:104FC000A5F29CC2A4F29BC2A3F206D0020EA35F7C
:104FD000000EA45BA55BA65B000126D00201A951CF
:104FE000270802E3A92B02D0010EA96FAE810001B0
:104FF0001BD00201A9510D0802E3A92B01D0A96B16
:10500000AE83000111D00201A951270802E3A92BA8
:1050100009D05B50060803E3010E5B2601D05B6AF2
:10502000010EA96FAE8100011BA896D00201AF51FD
:105030000B080CE0AF51030809E0AF51210806E06E
:10504000000163DC0150020835E102014350040A0B
:1050500000010CE0030A14E00F0A1BE00A0E020133
:10506000A327000EA423A523A62323D00201A95120
:10507000270802E3A92B02D0010EA96FAE8119D037
:105080000201A9510D0802E3A92B01D0A96BAE833F
:1050900010D00201A951270802E3A92B0AD05B50C6
:1050A000060803E3010E5B2601D05B6A010EA96FBF
:1050B000AE8100010201AF510C080BE0AF510208B4
:1050C00008E0AF51200805E000011FDC012C35D0BD
:1050D00002014350040A00010CE0030A14E00F0A25
:1050E0001BE00A0E0201A35F000EA45BA55BA65B9A
:1050F00023D00201A951010802E2A90702D0280E1B
:10510000A96FAE8119D00201A95302E0A90702D00C
:105110000E0EA96FAE8310D00201A951010802E260
:10512000A9070AD05B5203E0010E5B5E02D0070EB6
:105130005B6E280EA96FAE8100010201AF5302E140
:1051400083A401D0AB6BAB51030805E283B401D05B
:105150001B98040EAB6F00010201AEA186D01BB4F8
:105160007BD0B56B5BC0B4F2B76BA40EB66F000119
:105170005AEC0AF002C0B1F201C0B0F202C003F072
:1051800002010150F2CFB2F2F29E02C0F7FF00011D
:1051900082EC03F0006E0900F5CF01F00900F5CFB5
:1051A00002F00900F5CF03F00201B2BFF28E03C096
:1051B000B5F202C0B4F201C0B3F2B26FB2530DE166
:1051C000B3530BE1B45309E1B55307E15B50060853
:1051D00002E35B2A01D05B6AC4D7A951010802E34C
:1051E000010EA96FA951270802E2280EA96FB56B1D
:1051F0005BC0B4F2B76BA40EB66F00015AEC0AF0B4
:1052000002C0B1F201C0B0F20201B56BA9C2B4F2A2
:10521000B76B040EB66F00015AEC0AF002C003F03F
:1052200001500201B025016EB15103220150F2CFAD
:10523000B0F2F29E03C0F7FF000182EC03F0006EB3
:105240000900F5CF01F00900F5CF02F00900F5CF14
:1052500003F00201B0BFF28E03C0A6F202C0A5F2B5
:1052600001C0A4F200C0A3F2AE91AEA30FD0A9C2B8
:10527000B1F20001C9EC0AF003C0A6F202C0A5F227
:1052800001C0A4F200C0A3F20201AE9318B80BD083
:10529000000148EC0EF0C80E0201B56F00013FECB2
:1052A0000DF003D002016AD5000183A41CD0435045
:1052B0000408D8B4A9C25AF043500308D8B4A9C20C
:1052C00047F04350040DF350036A1C0FE96E000EC3
:1052D0000320EA6EA3C2EFFFA4C2ECFFA5C2ECFF5D
:1052E000A6C2ECFFA0D043500408D8A48BD0ADC216
:1052F0005AF0ACC25BF01BB47DD00201B56B5BC051
:10530000B4F2B76BA40EB66F00015AEC0AF002C0FB
:10531000B1F201C0B0F202C003F002010150F2CFBD
:10532000B2F2F29E02C0F7FF000182EC03F0006EC1
:105330000900F5CF01F00900F5CF02F00900F5CF23
:1053400003F00201B2BFF28E03C0B5F202C0B4F2A4
:1053500001C0B3F2B26FB2530DE1B3530BE1B453DA
:1053600009E1B55307E15B50060802E35B2A01D06F
:105370005B6AC4D75A50010802E3010E5A6E5A50B4
:10538000270802E2280E5A6EB56B5BC0B4F2B76B09
:10539000A40EB66F00015AEC0AF002C0B1F201C0CF
:1053A000B0F20201B56B5AC0B4F2B76B040EB66F1F
:1053B00000015AEC0AF002C003F001500201B025CE
:1053C000016EB15103220150F2CFB0F2F29E03C040
:1053D000F7FF000182EC03F0006E0900F5CF01F049
:1053E0000900F5CF02F00900F5CF03F00201B0BFCC
:1053F000F28E000103C0A6F202C0A5F201C0A4F221
:1054000000C0A3F2435003080EE1ADC247F047C00D
:10541000B1F2C9EC0AF003C0A6F202C0A5F201C0C5
:10542000A4F200C0A3F20201B0696750A65D14E3C4
:105430000BE16650A55D10E307E16550A45D0CE348
:1054400003E1A351645C08E267C0A6F266C0A5F25E
:1054500065C0A4F264C0A3F2A651635C14E30BE13F
:10546000A551625C10E307E1A451615C0CE303E128
:105470006050A35D08E263C0A6F262C0A5F261C0FD
:10548000A4F260C0A3F2A6C2B8F2A5C2B7F2A4C249
:10549000B6F2A3C2B5F2B96BB0C2BAF20001D1EC58
:1054A00019F0D6EF34F04350030A45E0070A56E0FE
:1054B00019AC21D0199E4350040DF350036A1C0F00
:1054C000E96E000E0320EA6E010EEF24006E000E5E
:1054D000EC20016E000EEC20026E000EEC20036E3C
:1054E000ED52ED52ED5200C0EFFF01C0ECFF02C0E3
:1054F000ECFFEC6E1FD04350040DF350036A1C0FF9
:10550000E96E000E0320EA6E0A0EEF24006E000E14
:10551000EC20016E000EEC20026E000EEC20036EFB
:10552000ED52ED52ED5200C0EFFF01C0ECFF02C0A2
:10553000ECFFEC6E1FD047500D0802E3472A01D064
:10554000476A47C0B1F2C9EC0AF003C02BF002C0B1
:105550002AF001C029F000C028F00CD05A502708CA
:1055600002E35A2A02D0010E5A6E0201A86B000112
:105570008BEC0DF0E8EF32F04350030A45E0070AE8
:1055800056E019AC21D0199E4350040DF350036A24
:105590001C0FE96E000E0320EA6E010EEF5C006E38
:1055A000000EEC58016E000EEC58026E000EEC5826
:1055B000036EED52ED52ED5200C0EFFF01C0ECFF63
:1055C00002C0ECFFEC6E1FD04350040DF350036A91
:1055D0001C0FE96E000E0320EA6E0A0EEF5C006EEF
:1055E000000EEC58016E000EEC58026E000EEC58E6
:1055F000036EED52ED52ED5200C0EFFF01C0ECFF23
:1056000002C0ECFFEC6E1FD0475202E0470602D00A
:105610000E0E476E47C0B1F2C9EC0AF003C02BF082
:1056200002C02AF001C029F000C028F00CD05A5066
:10563000010802E25A0602D0280E5A6E0201A86B37
:1056400000018BEC0DF0ECEF32F04350010A05E065
:10565000030A0AE0060A0FE010D0010E0201A76F4C
:10566000000123EC0FF009D0020E0201A76F000128
:1056700023EC0FF002D022EC0EF0F2EF32F0198E94
:105680004350040DF350036A1C0FE96E000E032013
:10569000EA6E6F0EEF24006E000EEC20016E000E1D
:1056A000EC20026E000EEC20ED52ED52ED5200C0E7
:1056B000EFFF01C0ECFF02C0ECFFEC6EF6EF32F042
:1056C000198E4350040DF350036A1C0FE96E000E4F
:1056D0000320EA6E6F0EEF5C006E000EEC58016E58
:1056E000000EEC58026E000EEC58ED52ED52ED52E9
:1056F00000C0EFFF01C0ECFF02C0ECFFEC6EFAEF60
:1057000032F0198E4350040DF350036A1C0FE96EFA
:10571000000E0320EA6E0A0EEF24006E000EEC204D
:10572000016E000EEC20026E000EEC20ED52ED52E8
:10573000ED5200C0EFFF01C0ECFF02C0ECFFEC6EC9
:10574000FEEF32F0198E4350040DF350036A1C0F24
:10575000E96E000E0320EA6E0A0EEF5C006E000E8A
:10576000EC58016E000EEC58026E000EEC58ED5233
:10577000ED52ED5200C0EFFF01C0ECFF02C0ECFFA4
:10578000EC6E02EF33F019AC02D0199C01D0198CE9
:10579000000E19BC010E02019D6FE80EA86F9DC29C
:1057A000A9F2000114EC08F0020E0201B06F000132
:1057B000F7EC16F0DDEF2BF0E6D782EF31F00201C7
:1057C000A869A969000114EC08F0030E0201B06F8A
:1057D0000001F7EC16F0040E02019D6FFA0EB56F92
:1057E00000013FEC0DF002019D2FF8D70001EDD72D
:1057F000FBEF2BF0E4D786EF31F01BBC61EF2FF00D
:1058000078EC11F00150040DF350036A1C0FE96E9F
:10581000000E0320EA6EEFCF1CF0ECCF1DF0ECCFB2
:105820001EF0ECCF1FF078EC11F001C0A6F201C021
:10583000B0F20201B1691FC0B5F21EC0B4F21DC0C2
:10584000B3F21CC0B2F2B669B76B000143EC17F0BB
:1058500048EC0EF01FC0C2F21EC0C1F21DC0C0F263
:105860001CC0BFF2C2C2C6F2C1C2C5F2C0C2C4F2FD
:10587000BFC2C3F202019D6BC6530DE1C5510E08B4
:1058800015E2FF0A08E1C451410810E2FF0A03E1F2
:10589000C3513F080BE2400EC35F420EC45B0F0EC4
:1058A000C55B000EC65B010E9D27E6D79E6BC653F7
:1058B0000DE1C551000815E2FF0A08E1C451850851
:1058C00010E2FF0A03E1C3519F080BE2A00EC35F81
:1058D000860EC45B010EC55B000EC65B010E9E27E3
:1058E000E6D79F6BC6530AE1C55308E1C4512608A9
:1058F0000FE2FF0A03E1C3510F080AE2100EC35F73
:10590000270EC45B000EC55BC65B010E9F27EAD75E
:10591000A06BC6530AE1C55308E1C45102080FE267
:10592000FF0A03E1C351E7080AE2E80EC35F030E72
:10593000C45B000EC55BC65B010EA027EAD7A16B56
:10594000C65307E1C55305E1C45303E1C3516308DE
:1059500009E2640EC35F000EC45BC55BC65B010E4B
:10596000A127EED7A26BC65307E1C55305E1C45387
:1059700003E1C351090809E20A0EC35F000EC45BCC
:10598000C55BC65B010EA227EED7A36BC65307E12A
:10599000C55305E1C45303E1C351000809E2010EF8
:1059A000C35F000EC45BC55BC65B010EA327EED7C9
:1059B000010EA46FA56B83B204D082AA02D082BC70
:1059C00003D0010EA46FF7D7A451070832E1000EEF
:1059D00019B8010E010A000103E0010A16E027D000
:1059E0000A0E0201A425A66F43C0B0F2B1691FC020
:1059F000B5F21EC0B4F21DC0B3F21CC0B2F2B6695B
:105A0000B76F000143EC17F012D043C0B0F20201AF
:105A1000B1691FC0B5F21EC0B4F21DC0B3F21CC004
:105A2000B2F2B6690A0EB76F000143EC17F031D03D
:105A30000201000E19B8010E010A000103E0010A7B
:105A400016E027D00A0E0201A425A66F43C0B0F2CB
:105A5000B1691FC0B5F21EC0B4F21DC0B3F21CC0C4
:105A6000B2F2B669B76F000143EC17F012D043C031
:105A7000B0F20201B1691FC0B5F21EC0B4F21DC080
:105A8000B3F21CC0B2F2B669090EB76F000143EC65
:105A900017F0010E0201B06F00018BEC1CF001C089
:105AA000A5F20201A55301E01998A551060803E0EB
:105AB000A5510D0807E1A451060802E3A42B02D06A
:105AC000010EA46FA55103080AE0A5510B0807E0D9
:105AD000A551210804E0A5511008D8A4A8D0010EB2
