:100000001B308A009E2B0000FF00030E8301A1001D
:100010000A08A0008A010408A2007708A300780853
:10002000A4007908A5007A08A600831383128C30F7
:100030008400801E1D288C1A3A288C308400001CF5
:1000400023280C183D288C308400801C29288C180B
:100050004028220884002308F7002408F800250817
:10006000F9002608FA0020088A00210E8300FF0EFE
:100070007F0E09008A110A120B2A8A110A126E29B0
:100080008A110A12C7280A108A100A1182075034EE
:10009000C334003400342034BF34023400343034EC
:1000A0005734053400346034AE340A3400345034EC
:1000B00069340F340034C0345C34153400344034B7
:1000C00077341B34003420340B34203400340034B3
:1000D0009F34243400348034B9342A340034C0349A
:1000E000C6342D3400340A108A100A118207F03405
:1000F00049340234003440340D3403340034303495
:1001000057340534003480341A34063400346034F3
:10011000AE340A340034B03471340B34003440341B
:1001200042340F3400349034053410340034C03479
:100130005C34153400341034203416340034403428
:1001400077341B34003490343A341C340034203477
:100150000B34203400347034CE3420340034003476
:100160009F3424340034F034E834263400348034AE
:10017000B9342A340034C034C6342D340034003449
:1001800000340034003400340034003400344818A3
:10019000D5280F308316BD00BE00BF00C000C100CF
:1001A000C200C300C400C5008312071D7B14071DD5
:1001B000E028F6080319E0287B1CE0287B10F603F2
:1001C000F608031D4C29B9307C078400831300080E
:1001D0000F39F800781C091178180915B9307C0717
:1001E000840083130310000C0F39F800781C891069
:1001F00078188914B9307C0784008313000CF70049
:10020000F70C3F30F70577080F39F800781C091014
:1002100078180914B9307C0784008313000CF700A8
:10022000F70CF70C1F30F70577080F39F800781C2A
:100230008512781885160719051683160317AB0162
:100240002B08273C031C3429AB0A26292729000048
:1002500083120313071931298316031734298312D4
:10026000031383160317202983120313091189101E
:100270000910851283160317AB01831203130512AD
:100280007C080C3C031C46290130FC0707194B294C
:10029000FC010130F600502909118910091085125E
:1002A0008C108C108A110A122928831603172B0828
:1002B000013A8312031303196529033A03196829C4
:1002C000013A03196B2985016D290A3085006D29D2
:1002D0000E3085006D29063085000800600F7129F9
:1002E0007329E00A7429E001E01D7C29CB1A7B29DF
:1002F000CB160130E1078829CB1ACB126108043CE8
:1003000003188829CA1F8629CA138729CA17E10139
:10031000601D9629481B9029871D90294817C817EA
:10032000481F9629871996294813C813600803396E
:100330000319D129881949174C1A4917491FD1297E
:100340004B1CC4294C1EAC29023083160317AB008A
:10035000831203135521C429003048190130003A93
:100360000319B629013A0319BD29C42983160317B5
:10037000AB01831203135521C429013083160317DF
:10038000AB008312031355214B18CD29033083167C
:100390000317AB008312031355214C1AD129881D72
:1003A00049134A1DE129E01DE029CA19E0296D0F12
:1003B000DA29DD290130ED07DE294A11CA15E129C4
:1003C000CA114A1CF129E01DF029CA18F0296C0F46
:1003D000EA29ED290130EC07EE294A10CA14F12967
:1003E000CA10081CFD29CB1BFD29CB17CB1DFB29EF
:1003F0004B12CB11FD294B16CB150818012ACB1B2C
:10040000CB138E01F0308F0060308E000C100C107A
:100410008A110A1229288C1E0B2A1808A7001A080C
:10042000F800A71C152A181218167808F300A03037
:100430006E078400831373088000EE0A6E08183C70
:10044000031CEE016E08053C031D282AEE01CB14A7
:100450008C128C128A110A12292883160317160887
:10046000F73E0318822A093E83120313862A850168
:10047000000085013B2A83160317822A85010000AC
:1004800008308500432A83160317822A850100005D
:10049000043085004B2A83160317822A8501000049
:1004A0000C308500532A83160317822A8501000029
:1004B000023085004230F700F70B5C2A00008316FB
:1004C0000317822A850100000A308500672A8316F7
:1004D0000317822A85010000063085006F2A8316E3
:1004E0000317822A850100000E308500772A8316C3
:1004F0000317822A86177C2A861383160317822AFB
:100500008316031783120313850108000A108A1447
:100510000A118207372A3E2A462A4E2A562A622A7A
:100520006A2A722A7A2A831603171408831203137D
:1005300086000130831603179600831203132D22C1
:10054000080083160317140883120313860008306B
:10055000831603179600831203132D220800031736
:100560005D08FA01603EDF007A08E0000318E00A47
:100570005F088316940083120313932203175D0C04
:10058000E0005C0CDF00E00CDF0CE00CDF0CE00CAA
:10059000DF0C0F30E0055F080F39F700FA0177082C
:1005A000503EDF007A08E0000318E00A5F08831677
:1005B000940083120313932203175C080F39F7008A
:1005C000FA017708403EDF007A08E0000318E00AED
:1005D0005F08831694008312031393220030603E59
:1005E0000317DF008316940083120313A12203175D
:1005F0005E0EF7000F30F70577080F39503EDF0029
:100600008316940083120313A12203175E080F3987
:10061000403EDF008316940083120313A1220800DA
:1006200069308400831700080319232B0630F80073
:10063000F701F70B192BF80B182B7B30F700F70B92
:100640001F2B800B162B08001F100130831685000E
:1006500000308600FF308700EF0088000910891005
:100660000911B530831290000030F800063892006E
:1006700077308316920083128E01F0308F00603045
:100680008E0083160C148C148C1683120C108C1094
:10069000C0308B04C801C901CA01CB01CC01CD0116
:1006A0008501860187018801890185120910891059
:1006B00009110317DD01DC01DE010313AF22C8308D
:1006C0000317E900031310238A150A164D2C83160D
:1006D0000317190883128D0083168C130C148312D0
:1006E0000C08F8000313080003175C088316990030
:1006F000831203136723780808000B08F7008B1395
:1007000083160317180883128D00831619088312A5
:100710008C0083168C130C1555308D00AA308D007B
:100720008C148C18912B0C117708831203138B04F3
:100730000800031762088D0083168C130C148312B3
:100740000C08E400630864020319B12B62088316E5
:1007500098008312630883169900831203137D2384
:1007600003170313080083160317930192019101E5
:10077000900183126B0D83169400940DFC30940548
:1007800095011508033C031CE62B013097009030BF
:10079000960015081607F8001708FA000318FA0A59
:1007A000780896007A0897001508140798009900B1
:1007B0008312031367238316031716088400831319
:1007C0001718831778088000950AC12B1008831228
:1007D0006C02031DFD2B8316110883126D02031D8D
:1007E000FD2B8316120883126E02031DFD2B831648
:1007F000130883126F020319242C83169501150820
:10080000033C031C232C15081407960001309800A4
:100810006C30970015081707F8001808FA0003183D
:10082000FA0A7808840083137A188317000897005F
:100830001608980017089900831203137D23831666
:100840000317950AFF2B83120313080003176B0D80
:10085000EC00EC0DFC30EC05831693019201910144
:1008600090018312ED016D08033C031C5E2C0130E6
:10087000831695009030940083126D088316140738
:10088000F8001508FA000318FA0A780894007A08A4
:10089000950083126D086C078316960099008312E9
:1008A0000313672383160317140884008313151892
:1008B0008317780880008312ED0A332C8316100802
:1008C000F7001108F8001208F9001308FA00831263
:1008D000031308000317680B752C1A306907EA0028
:1008E000EB0003132624822C03176808023C031D27
:1008F000812C25306907EA00EB0003132624822CA3
:1009000003170313080003176408EB0003132624DE
:1009100008000F300317E200E3016308073C031CE3
:10092000DB2C00300313481901300317E400630D7A
:10093000F700F70DFC30F7057708013EC63E84004E
:10094000831300086402031DD92C00300313C81957
:1009500001300317E400630DF700F70DFC30F705D5
:100960007708023EC63E8400831300086402031D1C
:10097000D92C00300313481A01300317E400630D2B
:10098000F700F70DFC30F7057708033EC63E8400FC
:10099000831300086402031DD92C630DF700F70DC3
:1009A000FC30F7057708C63E840083130008E20098
:1009B000DB2CE30A8D2C6208F80003130800FF30DB
:1009C0000317DC0003137423780BE72CDD2D0317CA
:1009D000DC015C0FEC2CF42C5C08E200E301031357
:1009E00099230317DC0AE92CDC015C080E3C031C8C
:1009F000072D5C08EB00EF010A30EE00AE30ED0091
:100A00006030EC000313B3230317DC0AF52C0F301E
:100A1000DC005C08193C031C182D5C08EB00EF019E
:100A2000EE01ED01EC010313B3230317DC0A092DDA
:100A30001A30DC005C08243C031C562D1A305C0282
:100A4000F700F70DF70DFC30F7057708DD000330F0
:100A5000DD075D0803134320FA000317DD035D087B
:100A600003134320F9000317DD035D08031343203C
:100A7000F80003175D0303134320F7007A080317F8
:100A8000E0007908DF007808DE007708DD005C0808
:100A9000EB006008EF005F08EE005E08ED005D0807
:100AA000EC000313B3230317DC0A1A2D2530DC00F6
:100AB0005C082F3C031C942D25305C02F700F70DD9
:100AC000F70DFC30F7057708DD000330DD075D0822
:100AD00003134320FA000317DD035D0803134320CB
:100AE000F9000317DD035D0803134320F800031723
:100AF0005D0303134320F7007A080317E000790829
:100B0000DF007808DE007708DD005C08EB00600895
:100B1000EF005F08EE005E08ED005D08EC000313D7
:100B2000B3230317DC0A582DE130E2000330E30061
:100B300003139923E2300317E2000330E3000313A9
:100B40009923E3300317E2000330E30003139923F2
:100B5000E0300317E2000130E30003139923FE3075
:100B60000317E200E30103139923E5300317E200C2
:100B7000E30103139923EA300317E2000130E30095
:100B800003139923FA300317E2000130E300031343
:100B90009923FC300317E200E30103139923FF308C
:100BA0000317E2000130E30003139923EC3003172D
:100BB000E2000130E30003139923E1300317DC0066
:100BC000031374237808D500E2300317DC00031305
:100BD00074237808D600E3300317DC000313742372
:100BE0007808D700E0300317DC000313742378087B
:100BF000D800FE300317DC00031374237808DA00F2
:100C0000E5300317DC00031374237808DB00EA30B7
:100C10000317DC00031374237808DD00FA30031790
:100C2000DC0003137423481078184814FC300317B1
:100C3000DC00031374237808EF00EC300317DC00AA
:100C4000031374237808F20001307202FC3E03188B
:100C50004E2E043EA42E403083169900A2309800F8
:100C60009030831298004E2E403083169900A630A3
:100C700098009030831298004E2E153083169900FC
:100C8000A63098009030831298004E2E0A308316BA
:100C90009900A63098009030831298008516502E47
:100CA000512E0000071C562EC812572EC81685124A
:100CB000CC1401300317E800031355080317E900AB
:100CC00003136A247A08AF007908AE007808AD00F3
:100CD0007708AC0002300317E80003135608031727
:100CE000E90003136A247A08B3007908B20078088F
:100CF000B1007708B0005B080317E40003138324F6
:100D00007A08B7007908B6007808B5007708B4000B
:100D100089247808DE000130DF00E001E101E20112
:100D2000E3010230E400E5010130E800E901EB01F4
:100D30004A13EC01ED01EE01F301F4014B13F00154
:100D4000F1018A150A16522C0A108A140A15820714
:100D50002B2E342E3D2E462E0317E1010313081EC1
:100D6000B52E08300317E1070313881EBB2E04308D
:100D70000317E1070313081FC12E02300317E10711
:100D80000313881FC72E01300317E107031303174E
:100D90006108F80003130800AC267808E60066082E
:100DA000E70008000430831603179600831203132C
:100DB0002D22080003176108E7006708013A0313B2
:100DC0000319E92E033A0319F12E013A0319F92EFA
:100DD000042F5E080317E8000130E9000F30EA0035
:100DE000092F5E080317E8000C30E9000F30EA0015
:100DF000092F5E080317E8000230E90003135B08BF
:100E00000317EA00092F03130F300317E800E90066
:100E1000EA00690883160313BD00831203176808EC
:100E200083160313BE00831203176A088316031385
:100E3000C500831203176508EA006408E900630827
:100E4000E8006208E7006608EB006A08831696006F
:100E5000831269088316950083126808831694002C
:100E60008312670883169300013098006C30970056
:100E700001309A006D30990001309C006E309B006B
:100E800001309E006F309D000130A00090309F0027
:100E90000130A2009130A1000130A4009230A300E3
:100EA000A5018A158312031300208A1103176B080A
:100EB000013A031303197C2F03176C0883160313DD
:100EC000BF00831203176D0883160313C00083123B
:100ED00003176E0883160313C100831203176F08EC
:100EE00083160313C200031710080313C30003176C
:100EF00011080313C400992F03176D0883160313F9
:100F0000BF00831203176E0883160313C0008312F9
:100F100003176F0883160313C10003171008031388
:100F2000C200031711080313C300031712080313A9
:100F3000C40083120800033083160317960083123F
:100F400003132D220800F801F901F701FA018316B5
:100F500003171608031DAF2F15080319C92F1030EA
:100F600097000310930D940DF70DFA0D16087A02F1
:100F7000031DBC2F15087702031CC52F1508F702A7
:100F8000031CFA031608FA020314F80DF90D970B67
:100F9000B12F83120313080003176608EB006A08D9
:100FA000EF006908EE006808ED006708EC00031325
:100FB000B32308005B080D3C031CE02FDB0AE12F84
:100FC000DB015B080317E400031383247A08B700EE
:100FD0007908B6007808B5007708B4000800033037
:100FE0000317E702031CFE2F6730840083170008F5
:100FF0000319FE2FFC2FFC2F800BFB2F031308007F
:1010000083160317A508031DD9281808FA00170826
:10101000840083131818831780019608031D27285E
:1010200015080F3C031C2728031D20281408423CE8
:10103000031C2728031D202813083F3C031C2728D6
:10104000170884008313181883170F3080001A08BC
:10105000FA001908840083137A1883178001960810
:10106000031D49281508013C031C4928031D42287B
:101070001408863C031C4928031D422813089F3C82
:10108000031C49281908840083131A1883170F308A
:1010900080001C08FA001B08840083137A18831749
:1010A00080019608031D68289508031D6828140808
:1010B000273C031C6828031D612813080F3C031CF0
:1010C00068281B08840083131C1883170F308000C6
:1010D0001E08FA001D08840083137A188317800104
:1010E0009608031D87289508031D87281408033CCC
:1010F000031C8728031D80281308E73C031C87284E
:101100001D08840083131E1883170F3080002008E9
:10111000FA001F08840083137A1883178001960849
:10112000031DA3289508031DA3289408031DA328C5
:101130001308633C031CA3281F0884008313201892
:1011400083170F3080002208FA00210884008313DF
:101150007A18831780019608031DBF289508031D80
:10116000BF289408031DBF281308093C031CBF288F
:10117000210884008313221883170F30800024086D
:10118000FA002308840083137A18831780019308D8
:10119000031DD9289408031DD9289508031DD928B3
:1011A0009608031DD9282308840083132418831765
:1011B00080019608031DEE2815080E3C0318072928
:1011C000FF3A031DEE281408413C03180729FF3A93
:1011D000031DEE2813083F3C0318072940309302F3
:1011E0004230031C433094020F30031C1030950230
:1011F0000030031C013096021808FA00170884001A
:1012000083137A188317013000078000D9289608C5
:10121000031D1C291508003C03183529FF3A031D3E
:101220001C291408853C03183529FF3A031D1C2985
:1012300013089F3C03183529A03093028630031C05
:10124000873094020130031C023095020030031CE9
:10125000013096021A08FA001908840083137A18DC
:10126000831701300007800007299608031D4629CF
:101270009508031D46291408263C03185F29FF3AE8
:10128000031D462913080F3C03185F2910309302F1
:101290002730031C283094020030031C01309502D3
:1012A0000030031C013096021C08FA001B08840061
:1012B00083137A18831701300007800035299608B8
:1012C000031D70299508031D70291408023C03189A
:1012D0008929FF3A031D70291308E73C031889295F
:1012E000E83093020330031C043094020030031CE6
:1012F000013095020030031C013096021E08FA00EE
:101300001D08840083137A188317013000078000BA
:101310005F299608031D96299508031D96299408B0
:10132000031D96291308633C0318AF296430930208
:101330000030031C013094020030031C0130950280
:101340000030031C013096022008FA001F088400B8
:1013500083137A18831701300007800089299608C3
:10136000031DBC299508031DBC299408031DBC2935
:101370001308093C0318D5290A3093020030031CD6
:10138000013094020030031C013095020030031C30
:10139000013096022208FA002108840083137A188B
:1013A0008317013000078000AF299608031DE2294A
:1013B0009508031DE2299408031DE2291308003C47
:1013C0000318FB29013093020030031C0130940202
:1013D0000030031C013095020030031C01309602DE
:1013E0002408FA002308840083137A188317013035
:1013F00000078000D529A508031DFE2983120313C9
:101400000800BF08031D162A3E082F3C03181C2A9B
:10141000FF3A031D162A3D08D33C03181C2AFF3A45
:10142000031D162A3C08003C03181C2ABF01BE01FC
:101430002730BD001030BC00BF08031D322ABE0893
:10144000031D322A3D08273C031C322A031D2C2A87
:101450003C080F3C031C322ABF013030BE00D430A0
:10146000BD00BC013F080317E60003133E08031745
:10147000E50003133D080317E40003133C080317BA
:10148000E300E801E701EA01E901E1080319522A52
:1014900083160313E901E801EB01EA01EC01ED0118
:1014A00083120317620F502BE608031D6B2A650891
:1014B000983C031C6B2A031D672A6408963C031C96
:1014C0006B2A031D672A63087E3C031C6B2A0930C4
:1014D0000313DC000317E608031D822A6508263C77
:1014E000031C822A031D7E2A6408253C031C822AD1
:1014F000031D7E2A63089F3C031C822A08300313C5
:10150000DC000317E608031D992A6508203C031C2C
:10151000992A031D952A6408CE3C031C992A031DB1
:10152000952A63086F3C031C992A07300313DC00DB
:101530000317E608031DB02A65081C3C031CB02AEB
:10154000031DAC2A64083A3C031CB02A031DAC2AD4
:1015500063088F3C031CB02A06300313DC0003171A
:10156000E608031DC72A6508163C031CC72A031D8D
:10157000C32A6408203C031CC72A031DC32A63082E
:101580000F3C031CC72A05300313DC000317E608D1
:10159000031DDE2A6508103C031CDE2A031DDA2A1F
:1015A0006408053C031CDE2A031DDA2A63088F3C0D
:1015B000031CDE2A04300313DC000317E608031DB6
:1015C000F52A65080B3C031CF52A031DF12A640863
:1015D000713C031CF52A031DF12A6308AF3C031C70
:1015E000F52A03300313DC000317E608031D0C2B58
:1015F0006508063C031C0C2B031D082B64081A3CD1
:10160000031C0C2B031D082B63087F3C031C0C2BB5
:1016100002300313DC000317E608031D232B6508C3
:10162000033C031C232B031D1F2B6408D03C031C0D
:10163000232B031D1F2B63088F3C031C232B01301E
:101640000313DC000317E608031D3A2B6508023C70
:10165000031C3A2B031D362B6408493C031C3A2B10
:10166000031D362B6308EF3C031C3A2B0130031398
:10167000DC000317831603136C0883125C02031942
:101680004E2B49108316ED0183125C0886008A11E7
:101690009B278A155C088316EC008312662B0317C0
:1016A00062080313DC0083166C0883125C020319C2
:1016B000662B49108316ED0183125C0886008A119F
:1016C0009B278A155C088316EC008312CE01CF019C
:1016D000D001D101D201D301D4010317E608031DC3
:1016E000832B65080E3C03189A2BFF3A031D832BAE
:1016F0006408413C03189A2BFF3A031D832B6308AF
:101700003F3C03189A2B4030E3024230031C433025
:10171000E4020F30031C1030E5020030031C0130DE
:10172000E6026430E7070318E80A01300313CE0726
:101730006D2B0317E608031DAF2B6508003C03184B
:10174000C62BFF3A031DAF2B6408853C0318C62B3C
:10175000FF3A031DAF2B63089F3C0318C62BA03034
:10176000E3028630031C8730E4020130031C0230A0
:10177000E5020030031C0130E6020A30E7070318D7
:10178000E80A01300313CF0703179A2BE608031D5D
:10179000D72BE508031DD72B6408263C0318F22B32
:1017A000FF3A031DD72B63080F3C0318F22B1030B0
:1017B000E3022730031C2830E4020030031C013010
:1017C000E5020030031C0130E6020130E707031890
:1017D000E80A6430E9070318EA0A01300313D00766
:1017E0000317C62BE608031D032CE508031D032C75
:1017F0006408023C03181A2CFF3A031D032C6308EB
:10180000E73C03181A2CE830E3020330031C0430D1
:10181000E4020030031C0130E5020030031C0130FB
:10182000E6020A30E9070318EA0A01300313D10778
:101830000317F22BE608031D272CE508031D272CB0
:10184000E408031D272C6308633C03183E2C643016
:10185000E3020030031C0130E4020030031C0130BD
:10186000E5020030031C0130E6020130E9070318ED
:10187000EA0A01300313D20703171A2CE608031DE6
:101880004B2CE508031D4B2CE408031D4B2C63086F
:10189000093C03185E2C0A30E3020030031C0130BF
:1018A000E4020030031C0130E5020030031C01306B
:1018B000E60201300313D30703173E2CE308031D90
:1018C0006A2CE408031D6A2CE508031D6A2CE6084F
:1018D00003197D2C0130E3020030031C0130E402C7
:1018E0000030031C0130E5020030031C0130E60229
:1018F00001300313D40703175E2C6A08003C031859
:101900008E2CFF3A031D882C6908F33C03188E2C9B
:10191000F430E9020130031C0230EA023030E907FA
:10192000023003180330EA07EB01EC01ED01EE0190
:10193000EF0183169001910192010313680883124D
:1019400003176902031DAC2C831603136908831265
:1019500003176A020319FA2C6A08EC006A0C831652
:1019600094008312690C83169300940C930C940CCE
:10197000930C940C930C0F30940513080F398312B9
:10198000ED0069080F39EE0030306B0783169300C5
:1019900094008A118312031393228A1520300317AF
:1019A0006C078316930094008A1183120313932209
:1019B0008A15103003176D078316930094008A115F
:1019C0008312031393228A1503176E08831694005B
:1019D0008A118312031393228A1503176A08831648
:1019E0000313E90083120317690883160313E80041
:1019F00083120317831603136A08831203176702FF
:101A0000031D0A2D831603136B0883120317680244
:101A10000319D32D03135C08053C031C552D031734
:101A20006808831694008312670883169300960152
:101A3000053095008A1183120313A3278A157908AC
:101A4000831603179400780893000C30930703184B
:101A5000940A140CFA00130CF900FA0CF90CFA0CA5
:101A6000F90CFA0CF90C79089100831268088316B6
:101A70009400831267088316930096010530950041
:101A80008A1183120313A3278A1579088316031773
:101A90009400780893000C3093070318940A1308F5
:101AA0000F3992009C2D83120313031768088316C5
:101AB0009400831267088316930096010530950001
:101AC0008A1183120313A3278A1579088316031733
:101AD000940078089300123093020030031C013008
:101AE0009402140CFA00130CF900FA0CF90CFA0C1D
:101AF000F90CFA0CF90C7908910083126808831626
:101B000094008312670883169300960105309500B0
:101B10008A1183120313A3278A15790883160317E2
:101B2000940078089300123093020030031C0130B7
:101B3000940213080F399200303083126F07831616
:101B4000930094008A1183120313A1228A15203076
:101B5000831603171007930094008A11831203134E
:101B6000A1228A15103083160317110793009400E1
:101B70008A1183120313A1228A15831603171208F0
:101B800094008A1183120313A1228A15031768088F
:101B900083160313EB0083120317670883160313DE
:101BA000EA00831203170313540883166D02031906
:101BB000F42D013083125407831603179300130882
:101BC00094007030950014081507831203138600E3
:101BD00002308316031796008A11831203132D22F5
:101BE0008A1554088316ED000130831253078316BB
:101BF000031793001308940070309500140815071C
:101C000083120313860008000317E1010313091967
:101C1000652E8918652E0918652E851A652E89107E
:101C2000091185120914142E152E0000071D1C2EF3
:101C300001300317E1000313871C222E0230031723
:101C4000E1000313071C282E03300317E1000313E0
:101C5000091089142B2E2C2E0000071D332E043062
:101C60000317E1000313871C392E05300317E10029
:101C70000313071C3F2E06300317E10003138910DE
:101C80000915422E432E0000071D4A2E0730031768
:101C9000E1000313871C502E08300317E1000313E3
:101CA000071C562E09300317E1000313091185168E
:101CB000592E5A2E0000871C612E0A300317E100AE
:101CC0000313091189100910851203176108F80020
:101CD000031308000317660B862E1A306707E80007
:101CE000EB0003132F080317EF0003132E0803174D
:101CF000EE0003132D080317ED0003132C08031740
:101D0000EC008A110313B3238A1503176608023CFB
:101D1000031DA32E25306707E800EB0003133308EB
:101D20000317EF00031332080317EE000313310803
:101D30000317ED00031330080317EC008A11031397
:101D4000B3238A150317031308000317E50163087B
:101D5000013A03130319B02E033A0319B52EB92E15
:101D600055080317E5000313B92E56080317E500BD
:101D7000031303176308E6006508E70003136A26E8
:101D80000317E408031DCC2EE5080319C92EE5034B
:101D9000CB2E0930E500D32E6508083C031CD22E5B
:101DA000E50AD32EE501630DF700F70DFC30F705CA
:101DB0007708283EF800FA010318FA0A7808E600C6
:101DC0007A08E7006308E8006508E9008A11031350
:101DD0006A248A150317660884008313671883171B
:101DE00077088000840A78088000840A79088000D7
:101DF000840A7A0880006308013A03130319042F48
:101E0000033A0319092F0D2F031765080313D50093
:101E10000D2F031765080313D60008000317E20807
:101E2000031D252F031358080317E2000313580B53
:101E30001A2F1E2F5808023C031D262F481B222F45
:101E4000C81F262F04300317E20703130317E20805
:101E50000319372F6208023C031C372F031358085D
:101E60000317E3000130E4000313A5260317E2087B
:101E70000319432F6208033C031D432F8A110313E8
:101E8000DA278A150317E20803197A2F6208043C3F
:101E900003187A2F0313580DF700F70DFC30F705E0
:101EA0007708283E8400831350300007F700840A27
:101EB0000008F800C3300318C430F807840A00088B
:101EC000F900003003180130F907840A0008FA000D
:101ED000003003180130FA07FD30840777088000CE
:101EE000840A78088000840A79088000840A7A08C5
:101EF0008000031703130800DB080319812FDB039D
:101F0000832F0E30DB005B080317E4008A110313F4
:101F100083248A157A08B7007908B6007808B500D6
:101F20007708B40008000317E208031DAA2F031363
:101F300058080317E2000313580B9F2FA32F5808CC
:101F4000023C031DAB2F481BA72FC81FAB2F04302B
:101F50000317E20703130317E2080319BB2F6208F4
:101F6000023C031CBB2F031358080317E300E401D2
:101F70000313A5260317E2080319C52F6208033CC3
:101F8000031DC52F03137C270317E2080319FC2F39
:101F90006208043C0318FC2F0313580DF700F70DDB
:101FA000FC30F7057708283E840083135030000288
:101FB000F700840A0008F800C330031CC430F8029C
:101FC000840A0008F9000030031C0130F902840A79
:101FD0000008FA000030031C0130FA02FD308407CB
:101FE00077088000840A78088000840A79088000D5
:0C1FF000840A7A0880000317031308001D
:10200000C81919284812C815580DF700F70DFC30EB
:10201000F7057708283E840083130008C000840A6F
:102020000008C100840A0008C200840A0008C30036
:102030001E28C811C301C201C101C0010800031755
:10204000E8016608680203186628043083169600C3
:102050000A12831203132D220A1603176708013A86
:10206000031303193A28033A03194128013A0319C3
:102070004828502801308316BD000F30C500831258
:1020800050280C308316BD000F30C5008312502835
:1020900002308316BD0083125B088316C5008312CD
:1020A00064300317E9000A12031310230A160F30D5
:1020B0008316C500BD00643083120317E9000A12BD
:1020C000031310230A160317E80A21280313080034
:1020D0000317E208031D7428013003135A0703177E
:1020E000E3000330E40078280130E3000230E4002C
:1020F000630DF700F70DFC30F7057708283E8400E4
:10210000831300080313A800840A0008A900840AA6
:102110000008AA00840A0008AB000317630DF7004B
:10212000F70DFC30F7057708283EF800FA01031890
:10213000FA0A7808E5007A08E600640DF700F70D62
:10214000FC30F7057708283E840083130008F70069
:10215000840A0008F800840A0008F900840A0008CC
:10216000FA00EA007908E9007808E8007708E70053
:102170006508840083136618831767088000840A43
:1021800068088000840A69088000840A6A08800060
:10219000640DF700F70DFC30F7057708283E840042
:1021A0008313031328088000840A29088000840A06
:1021B0002A088000840A2B088000AB01AA01A9012B
:1021C000A8010317E208031DFE2803135B08031789
:1021D000E600031337080317EA0003133608031752
:1021E000E900031335080317E80003133408031745
:1021F000E7000A120313CC270A1603170130031352
:102200005A070317E5000130E6006508E7000313ED
:102210001F2001300317E6000330E70003131F20DF
:10222000080083166E0883120317E9000A120313CD
:1022300010230A160317E3016208630203184129F9
:1022400010306307840083170008E4006408E50089
:1022500003130C1E2929031765080313990083161D
:10226000981C3029023083120317E600CF30E700B4
:102270000A120313EF270A160317E60B3629E30A9F
:102280001C29031308000317E10183160313240814
:10229000F0007008013A831203198829033A0319E0
:1022A0009629013A0319C729073A0319F629013A71
:1022B0000319042A033A0319142A013A0319452A77
:1022C0000F3A0319532A013A0319612A033A0319F1
:1022D000702A013A0319842B063A03198D2B013A0F
:1022E0000319982B023A0319A82B013A0319B52BAD
:1022F0001E3A0319BF2B013A0319C52BED3A0319F6
:10230000E02B033A0319062C013A0319112C132C64
:1023100083162308013A8312031990294812912940
:10232000481603300317E1000313132C0330D800C1
:10233000580DF700F70DFC30F7057708283EF80038
:10234000FA010318FA0A78080317E2007A08E30092
:1023500083160313230883120317E4000A120313DE
:1023600083240A16031762088400831363188317F3
:1023700077088000840A78088000840A7908800041
:10238000840A7A0880000230E1000313132C013024
:102390005A07D800580DF700F70DFC30F7057708FD
:1023A000283E8400831300080317E200840A000813
:1023B000E300840A0008E400840A0008E5008316AC
:1023C0000313230883120317E6006508EA00640874
:1023D000E9006308E8006208E7000A120313CC274B
:1023E0000A1602300317E1000313132C8316230887
:1023F000013A83120319FE294811FF2948150330B9
:102400000317E1000313132C83162308013A8312E8
:1024100003190D2A0130D8000F2A0230D8000230EB
:102420000317E1000313132C01305A07F700F70DCF
:10243000F70DFC30F7057708283EF800FA0103187D
:10244000FA0A78080317E2007A08E30083160313F8
:10245000230883120317E4000A12031383240A16C5
:1024600003176208840083136318831777088000BA
:10247000840A78088000840A79088000840A7A082F
:1024800080000230E1000313132C71080317E200EF
:102490000A128A1503130E270A168A11023003172F
:1024A000E1000313132C71080317E2000A128A15C6
:1024B000031393270A168A1102300317E10003134E
:1024C000132C002083162308013A831203196A2A69
:1024D000C8116B2AC81503300317E1000313132C2E
:1024E0008316200883120317E200831603132108C2
:1024F00083120317E30083160313220883120317C2
:10250000E40083160313230883120317E50065080C
:102510000F39E600640EF7000F30F70577080F3922
:10252000E70064080F39E800630EF7000F30F70585
:1025300077080F39E90063080F39EA00620EF700E7
:102540000F30F70577080F39EB0062080F39EC0000
:102550006608ED006708EE006808EF00690883165A
:10256000900083126A088316910083126B08831609
:10257000920083126C0883169300970196019501CF
:10258000940193080319D52A0130940700300318E9
:10259000013095070030031801309607003003180A
:1025A0000130970701309302C12A92080319E92AE2
:1025B0000A309407003003180130950700300318E3
:1025C000013096070030031801309707013092025E
:1025D000D52A91080319FD2A6430940700300318A6
:1025E00001309507003003180130960700300318BA
:1025F0000130970701309102E92A90080319112B45
:10260000E8309407033003180430950700300318AE
:10261000013096070030031801309707013090020F
:10262000FD2A8312EF080319282B10308316940714
:10263000273003182830950700300318013096071B
:10264000003003180130970701308312EF02122B7C
:10265000EE0803193E2BA03083169407863003182A
:1026600087309507013003180230960700300318B1
:102670000130970701308312EE02282BED08031971
:10268000542B40308316940742300318433095078B
:102690000F300318103096070030031801309707E9
:1026A00001308312ED023E2B83161408F700150843
:1026B000F8001608F9001708FA007A0883120313C5
:1026C000BF007908BE007808BD007708BC00580D2F
:1026D000F700F70DFC30F7057708283E84008313D8
:1026E0003C088000840A3D088000840A3E0880007F
:1026F000840A3F088000BF01BE01BD01BC0101305A
:102700000317E1000313132C0317E20103136820DE
:1027100002300317E1000313132C83162308013A38
:1027200083120319962B0530F100972BF101132C1E
:10273000831623088312EF00FC300317E200031313
:102740006F080317E3000A12031399230A16132CC8
:10275000B701B601B50183166E088312B4004B3081
:102760000317E20003131121132C83162308013AE7
:1027700083120319BD2B4C12BE2B4C16132C4C1A72
:10278000C32B4C16C42B4C12132C83162308013A6E
:1027900083120319D12B4B300317E20003131121CD
:1027A000DF2B081DD82B033003179000DB2B0313FE
:1027B0000F30031790000130E20003131121132C96
:1027C00083162308023A83120319EF2B013A0319E7
:1027D000F22B073A0319F52B0130F200F72B0230E8
:1027E000F200F72B0330F200F72B0430F200EC304C
:1027F0000317E2007208E3000A12031399230A1672
:102800000A12D2260A168A010028132CFF30031759
:10281000E200E3000A12031399230A168A01002832
:10282000132C8A01002803176108033C031D212C87
:102830000A12031389240A167808DE0002300317EF
:10284000E1000313CB1003176108F800031308001D
:102850000317E801E901EA01EB01EC01ED01EE01EA
:10286000EF015F088316960083125E0883169500B9
:1028700083125D088316940083125C08831693000C
:10288000013098006930970001309A006A30990051
:1028900001309C006B309B0001309E006C309D002D
:1028A0000130A0006D309F000130A2006E30A10009
:1028B0000130A4006F30A3000130A5000A128A1570
:1028C0008312031300200A168A110317600884007C
:1028D0008313611883176E0EF700F030F705770841
:1028E0006F078000620884008313631883176C0EDF
:1028F000F700F030F70577086D0780006408840062
:102900008313651883176A0EF700F030F705770810
:102910006B07800066088400831367188317680EAE
:10292000F700F030F7057708690780000313080007
:102930002F080317DF0003132E080317DE0003130D
:102940002D080317DD0003132C080317DC000130EA
:10295000E1001A30E0000130E3001B30E2000130FA
:10296000E5001C30E4000130E7001D30E6000313F1
:10297000282433080317DF00031332080317DE008F
:10298000031331080317DD00031330080317DC00BD
:102990000130E1001F30E0000130E3002030E200B0
:1029A0000130E5002130E4000130E7002230E6008C
:1029B00003132824481DDE2C4D14DF2C4D10481E17
:1029C000E32CCD14E42CCD10C81DE82C4D15E92CBA
:1029D0004D115808013A0319F42C033A0319F72C46
:1029E000013A0319FA2CFE2CCD114D12FE2CCD15F7
:1029F0004D12FE2CCD115A18CD154D16491F022D22
:102A0000CD16032DCD12C81A072D4D17082D4D13C5
:102A1000CD134D08F80078080317900091010313B7
:102A2000CB1D152D0317910A03135C0803179300A0
:102A300003135B08031794000313530EF700F030E1
:102A4000F70577085407031795000313510EF70095
:102A5000F030F705770852070317960003134F0E5F
:102A6000F700F030F70577085007031797000313B6
:102A70004E080317980003136F08031799000313F8
:102A80006F0803179E0003136F080317A3000313B7
:102A90008A150A16D62D0317E10103138818562D3F
:102AA000871A562D0B300317E100031388185E2D8B
:102AB000071B5E2D0C300317E1000313881C682DE3
:102AC000871E682D071F682D0D300317E1000313C3
:102AD000881C702D871A702D0E300317E100031328
:102AE000881C782D071B782D0F300317E100031386
:102AF00003176108F800031308000317DD01DE0166
:102B0000DF010313071DB52E0719842D4A1B912DD4
:102B10000A128A1504260A168A11F808031D4A1794
:102B2000EA014A1F172E0A128A1504260A168A116C
:102B3000F8080319B12D0A128A1504260A168A11FB
:102B40007808FE006A0FA52DA62DEA0A03175C0877
:102B5000023C0319B02DA630F700F70BAD2D000095
:102B600003136A0803175F020318C92DDC08031D4D
:102B7000C92D03136A08313C031CC22D0130031711
:102B8000DE0003136A08313C0318CA2D0230031714
:102B9000DE00031303175E0B012E0A128A150313BE
:102BA00004260A168A11F808031D022E0317E001F5
:102BB0006008093C031CEB2D0A128A150313042636
:102BC0000A168A11F8080319E82D0317EB2D0313D1
:102BD0000317E00AD82D6008093C0318012E0313DF
:102BE0004A1EF72D0317DD0103134A12FB2D7E0841
:102BF0000317DD000313FE014A1303175D08F800F5
:102C0000B82E031303175E08023C031D162EFE08A0
:102C100003190D2E1E307E07DD00FE010313EA01AD
:102C20004A164A1303175D08F800B82E0313CA1A90
:102C3000202E4B25F808031DCA168316E7018312C0
:102C4000CA1EB52E4B25F8080319362E4B257808D9
:102C50008316E600670F2D2E2E2EE70A7D088312BD
:102C60000317E7000A120313EF270A1683166708F3
:102C7000831203175F020318712E8316031366086D
:102C80000D3A831203195A2E831667081D3C031C44
:102C90004F2E013083120317DE00831603136708DB
:102CA0001D3C0318592E023083120317DE008316D1
:102CB00003136F2E831667081D3C031C652E01301D
:102CC00083120317DE00831603136708633C03189F
:102CD0006F2E023083120317DE0083160313831254
:102CE00003175E0B902E03134B25F808031D912E3E
:102CF0004A1E7F2E4A120317DD01842E031383160A
:102D0000660883120317DD0083160313E60183129E
:102D1000CA128316E701831203175D08F800B82E64
:102D2000031303175E08023C031DB42E05308316FF
:102D30000313660783120317DD0003134B25F808FE
:102D40000319A82E03175D08123C031DAE2E0313B2
:102D5000CA1203175D08123C031DDD0103134A1656
:102D600003175D08F800B82E03130030F8000317AE
:102D700003138A150A16092EE1300317E200031324
:102D800055080317E3000A12031399230A16E230C9
:102D90000317E200031356080317E3000A12031394
:102DA00099230A16E5300317E20003135B080317A3
:102DB000E3000A12031399230A1601300317E600F1
:102DC000031355080317E7000A128A1503136A262E
:102DD0000A168A1102300317E60003135608031778
:102DE000E7000A128A1503136A260A168A11CC15FF
:102DF00008000317DF015E085F0203180D2F0A1297
:102E00000313D2260A16C8300317E9000A12031367
:0E2E100010230A160317DF0AFB2E0313080017
:103000000317DD0101305C02DC3E0318612B243E16
:103010000313762B0A128A11D2260A168A158A11F0
:1030200000208A1503300317DD00612B0A128A1174
:10303000D2260A168A150317E2010A1203139327F0
:103040000A1602300317DD00612B0A128A11D226FC
:103050000A168A150317E2010A1203130E270A162D
:1030600002300317DD00612B5808043C031D4F2874
:1030700001305A07F700F70DF70DFC30F705770818
:10308000283E8400831338088000840A39088000B1
:10309000840A3A088000840A3B0880007D280130B9
:1030A0005A07F700F70DF70DFC30F7057708283EB3
:1030B000F800FA010318FA0A78080317DE007A0804
:1030C000DF0003135B080317E4000A128A110313DD
:1030D00083240A168A1503175E08840083135F1879
:1030E000831777088000840A78088000840A7908AA
:1030F0008000840A7A088000031301305A070317FE
:10310000DE000230E6005E08E7008A1103131F208C
:103110008A1502300317DD00612B0A128A11D226AC
:103120000A168A158A11BC268A15580B9A2802306D
:10313000D800A0285808023C031DA0280130D80060
:10314000E0300317E200031358080317E3000A12E4
:103150008A11031399230A168A1502300317DD001A
:10316000612B0A128A11D2260A168A154819BA2822
:103170004815BB28481103300317DD00612B580D9B
:10318000F700F70DFC30F7057708283E840083131D
:1031900000080317DE00840A0008DF00840A000824
:1031A000E000840A0008E10003135B080317E6004F
:1031B0006108EA006008E9005F08E8005E08E700CF
:1031C0000A128A110313CC270A168A150230031734
:1031D000E6000330E7008A1103131F208A1502302E
:1031E0000317DD00612B0A128A11D2260A168A15EE
:1031F0005808033C031D002901305A07D800022952
:103200000330D8005B080317E4000A128A11031385
:1032100083240A168A157A08B7007908B600780858
:10322000B5007708B400E0300317E2000313580834
:103230000317E3000A128A11031399230A168A1549
:1032400002300317DD00612B0A128A11D2260A16FA
:103250008A155808043C03193329481A3229C81121
:1032600048163329481203300317DD00612B03177A
:10327000E2018A11031368208A1502300317DD006A
:10328000612B5808023C031C80294B1F4C2901303C
:103290000317DE004F2903130A300317DE00031360
:1032A000580DF700F70DFC30F7057708283E84002D
:1032B000831303175E080007F700840A0008F8006C
:1032C000003003180130F807840A0008F9000030C4
:1032D00003180130F907840A0008FA0000300318C7
:1032E0000130FA07FD30840777088000840A7808E7
:1032F0008000840A79088000840A7A088000031319
:103300005808033C031D89290A128A11DA270A1674
:103310008A1501300317DD00612B5808023C031C9D
:10332000CC294B1F982901300317DE009B2903137A
:103330000A300317DE000313580DF700F70DFC30B9
:10334000F7057708283E8400831303175E08000200
:10335000F700840A0008F8000030031C0130F8026E
:10336000840A0008F9000030031C0130F902840AC5
:103370000008FA000030031C0130FA02FD30840717
:1033800077088000840A78088000840A7908800021
:10339000840A7A08800003135808033C031DD329CC
:1033A0000A127C270A1601300317DD00612B0A126E
:1033B0008A11D2260A168A155808013A0319E429F7
:1033C000033A0319EC29F32901300317E2000A122A
:1033D00003130E270A16F32902300317E2000A121C
:1033E00003130E270A1602300317DD00612B580D58
:1033F000F700F70DFC30F7057708283E84008313AB
:103400000A300007F700840A0008F80000300318AB
:103410000130F807840A0008F90000300318013071
:10342000F907840A0008FA00003003180130FA078F
:10343000FD30840777088000840A78088000840AB9
:1034400079088000840A7A08800002300317DD00C2
:10345000612B580DF700F70DFC30F7057708283E73
:10346000840083130A300002F700840A0008F80081
:103470000030031C0130F802840A0008F900003013
:10348000031C0130F902840A0008FA000030031C12
:103490000130FA02FD30840777088000840A78083A
:1034A0008000840A79088000840A7A08800002304B
:1034B0000317DD00612B580DF700F70DFC30F70501
:1034C0007708283E8400831302300007F700840A3F
:1034D0000008F800003003180130F807840A0008DB
:1034E000F900003003180130F907840A0008FA00D7
:1034F000003003180130FA07FD3084077708800098
:10350000840A78088000840A79088000840A7A088E
:10351000800002300317DD00612B580DF700F70D16
:10352000FC30F7057708283E840083130230000240
:10353000F700840A0008F8000030031C0130F8028C
:10354000840A0008F9000030031C0130F902840AE3
:103550000008FA000030031C0130FA02FD30840735
:1035600077088000840A78088000840A790880003F
:10357000840A7A08800002300317DD00612B580DA1
:10358000F700F70DFC30F7057708283E8400831319
:103590000A300007F700840A0008F800003003181A
:1035A0000130F807840A0008F900003003180130E0
:1035B000F907840A0008FA00003003180130FA07FE
:1035C000FD30840777088000840A78088000840A28
:1035D00079088000840A7A08800002300317DD0031
:1035E000612B580DF700F70DFC30F7057708283EE2
:1035F000840083130A300002F700840A0008F800F0
:103600000030031C0130F802840A0008F900003081
:10361000031C0130F902840A0008FA000030031C80
:103620000130FA02FD30840777088000840A7808A8
:103630008000840A79088000840A7A0880000230B9
:103640000317DD00612BFF300317E200E3000A12CD
:103650008A11031399230A168A1503300317DE0013
:103660008A110313F9268A1504300317DE00FA3095
:10367000E9000A128A11031310230A168A15031788
:10368000DE0B372B03132D2B02300317DD00612BCC
:103690004B1F502B0230E4004B130130E500552B3B
:1036A0000130E4004B170230E50065080317DE0027
:1036B0008A110313F9268A1502300317DD00612BE6
:1036C00003175D08033C031D702B0A128A110313B4
:1036D00089240A168A157808DE0002300317DD00F7
:1036E0005D08F80003138A150A16142E0A148A14AA
:1036F0000A1182070A281628252834288D28B1287F
:10370000BF28F3282429372941298D29D729F729CA
:10371000292A5B2A8D2A602BBF2AF12A602B602B75
:10372000602B602B602B602B602B602B602B602B41
:10373000602B602B602B602B232B482B03081F3939
:103740008300A701403083169900A2309800903082
:1037500083129800F5010130F6007B10FC01143053
:10376000FD00FE018316E601E701EE01FF30EF00E8
:103770001F149F141F159F1183130A30B900BA013B
:103780000F30BB00BC00BD00BE00BF00C000C100C8
:10379000C200C300C400C500C600C701C801C901FA
:1037A0000E30CA00CB010130CC00CD000C30CE0071
:1037B000CF01D0010130D1000430D2000130D3005C
:1037C000D400D5000330D6000130D700D800D9018D
:1037D0000230DA00DB010130DC00DD01DE00DF0059
:1037E000E001E101E201E300E401E500E801E901B3
:1037F000EA01EB01EC01ED01831203179001910145
:103800009201930194019501960197019801990104
:103810009A019B019C019D019E019F01A001A101B4
:10382000A201A301A401A501A601A701A801A90164
:10383000AA01AB01AC01AD01AE01AF01B001B10114
:10384000B201B301B401B501B601B701B801B901C4
:10385000BA01BB01BC01BD01BE01BF01C001C10174
:10386000C201C301C401C501C601C701C801C90124
:10387000CA01CB01CC01CD01CE01CF01D001D101D4
:10388000D201D301D401D501D601D701D801D90184
:10389000DA010A128A110313242B0A168A150A1256
:1038A0008A11DF2C0A168A1505300317DD00DC307B
:1038B000DC001E30DE000A128A110313AF220A1642
:1038C0008A158516632C642C000085120A128A1151
:1038D000CC260A168A15580DF700F70DFC30F705AF
:1038E0007708283E840083130008BC00840A00087F
:1038F000BD00840A0008BE00840A0008BF00DF087B
:10390000031D962C580DF700F70DFC30F7057708CE
:10391000283E840083130008BC00840A0008BD0010
:10392000840A0008BE00840A0008BF00DF08031DE7
:10393000D12DCB1DD12D580DF700F70DFC30F7051B
:103940007708283E840083130008BC00840A00081E
:10395000BD00840A0008BE00840A0008BF000317E7
:103960005C10DD01DE01DF0103135B080317E000DB
:103970000A128A110313D2260A168A15CA1FD02CDE
:1039800003175D0FC42CC92C5C18C82CDD0A5C140D
:10399000CA2CDD01031358080317DF00DC2C0313C6
:1039A0005808023C031CD82C0317DF01DB2C03133F
:1039B00058080317DF005C105F08E10003133F089D
:1039C0000317E50003133E080317E40003133D0843
:1039D0000317E30003133C080317E200E6010A1291
:1039E0008A110313DA260A168A150317E101FF303C
:1039F000E2000A12031301220A165808023C031CB3
:103A0000052D022D032D00000E2D64300317E90053
:103A10000A128A11031310230A168A1507190E2D8C
:103A2000081D1E2D4B191E2D0A1204260A16F80811
:103A3000031D1E2D4B150317DD0103134B19502DCC
:103A40005808033C031D3E2D5B080D3C031C2B2D29
:103A50000130DB072C2DDB015B080317E4000A12A1
:103A60008A11031383240A168A157A08BF0079087D
:103A7000BE007808BD007708BC004C2D0230BC07A2
:103A8000003003180130BD07003003180130BE07B5
:103A9000003003180130BF070317DD01692D031340
:103AA000081D552D0317DD0103130A1204260A16FB
:103AB000F8080319602D03300317DD0003134B11C1
:103AC00003175D08023C0318692D0313081D4B11F1
:103AD00003170313CB1C8C2D8A1143218A157808F8
:103AE0000317DE00DE0803198B2D0313580DF700B2
:103AF000F70DFC30F7057708283E84008313000893
:103B0000BC00840A0008BD00840A0008BE00840AC4
:103B10000008BF0003170313CB199D2D0A128A1149
:103B2000D2260A168A15C8300317E9000A128A112C
:103B3000031310230A168A159E2DBE2C081DB52DC1
:103B4000580DF700F70DFC30F7057708283E840084
:103B500083133C088000840A3D088000840A3E08E4
:103B60008000840A3F088000B92D03176008031302
:103B7000DB00580DF700F70DFC30F7057708283EFD
:103B8000840083130008BC00840A0008BD00840A76
:103B90000008BE00840A0008BF000530EC000230B7
:103BA000DF00DF08031DFE2D8A11982C8A15ED0811
:103BB000031DFE2D6C08043C0318FE2DCB1CFE2DAE
:103BC0008A1143218A157808DF00DF080319FE2DCA
:103BD000580DF700F70DFC30F7057708283E8400F4
:103BE00083130008BC00840A0008BD00840A000892
:103BF000BE00840A0008BF000530EC00DF08031D8A
:103C00002F2EEC0803192F2E0317DC018A11031342
:103C10007D2D8A157808E900E9080319162E690830
:103C20000317DC00031300287808DF00DF080319FE
:103C30002F2E580DF700F70DFC30F7057708283EBA
:103C4000840083130008BC00840A0008BD00840AB5
:103C50000008BE00840A0008BF000130EC00DF0845
:103C6000031D742E64080317DC000A128A11031363
:103C7000AC260A168A157808E600481D422E003048
:103C8000F8006F2E67086602031D4A2E0030F80008
:103C90006F2E6F2E071E5D2E03175C080313BC07E3
:103CA000003003180130BD07003003180130BE0793
:103CB000003003180130BF076D2E03175C08031393
:103CC000BC020030031C0130BD020030031C013077
:103CD000BE020030031C0130BF020130F80078083A
:103CE000DF00DF08031DEC015F0B7C2E4B1F7B2EDA
:103CF0000130E3007C2EE301DF08031D812EC91E85
:103D00006C2FC81A292F0508F5000317DB015B0883
:103D1000093C031C252F03134B10063085000310AC
:103D200003175B0DF700F70DF70DFC30F70577086B
:103D3000DC000330DC075C080A128A1103137320CD
:103D40000A168A15FA000317DC035C080A128A11A6
:103D5000031373200A168A15F9000317DC035C08A5
:103D60000A128A11031373200A168A15F800031722
:103D70005C030A128A11031373200A168A15F700CE
:103D80007A083F02031C222F031DD62E79083E021B
:103D9000031C222F031DD62E78083D02031C222F60
:103DA000031DD62E77083C02031C222F0310031795
:103DB0005B0D013EF700F70DF70DFC30F7057708B6
:103DC000DC000330DC075C080A128A11031373203D
:103DD0000A168A15FA000317DC035C080A128A1116
:103DE000031373200A168A15F9000317DC035C0815
:103DF0000A128A11031373200A168A15F800031792
:103E00005C030A128A11031373200A168A15F7003D
:103E10003F087A02031C222F031D1E2F3E08790241
:103E2000031C222F031D1E2F3D087802031C222F86
:103E3000031D1E2F3C087702031C222F4B1403176F
:103E4000252F03130317DB0A872E7508031385003C
:103E50002A2F4B1458080317E10003133F080317D8
:103E6000E50003133E080317E40003133D0803179E
:103E7000E30003133C080317E2000313630803176E
:103E8000E6000A128A110313DA260A168A150317A6
:103E9000E101FF30E2000A12031301220A16580D55
:103EA000F700F70DFC30F7057708283E84008313F0
:103EB0003C088000840A3D088000840A3E08800097
:103EC000840A3F088000DF01C9120A128A11CC2639
:103ED0000A168A154A14CC115808023C031CE32F19
:103EE000C81D962F491F882FC91B882FC9173F0847
:103EF000C7003E08C6003D08C5003C08C400430892
:103F0000BF004208BE004108BD004008BC00C91601
:103F1000491B962FC91F962FC9134708BF00460893
:103F2000BE004508BD004408BC00C916481EE32F6A
:103F3000E208031DA72F5808E200580BA12F0230FA
:103F4000D9005808023C031DA72F0130D900491F92
:103F5000C32FC91BC32FC9175908D800580DF70024
:103F6000F70DFC30F7057708283E8400831300081E
:103F7000BC00840A0008BD00840A0008BE00840A50
:103F80000008BF00C916491BDF2FC91FDF2FC91347
:103F90006208D800580DF700F70DFC30F7057708D8
:103FA000283E840083130008BC00840A0008BD007A
:103FB000840A0008BE00840A0008BF00C916491B15
:103FC000E32FC91FE2014A1CED2F6C08143C0318B3
:103FD000ED2F630BED2FE301C9164A1CF82F6C0877
:103FE000323C0318F82FCC19F82F8A11BC268A15F9
:083FF000C91A7C2E7F2C63002E
:02400E00723FFF
:00000001FF
;PIC16F877
;CRC=4CE9  CREATED="02-Mar-26 11:50"
