:04000000F9EF01F023
:0800080084EF02F0000000008B
:1000100000000000000000008CEF02F01000030E52
:100020007E5E09E3EA6A7E0EE96EEF5004E001D0DD
:1000300000D0EF2EFDD728EF00F09EA8FED77C5011
:10004000AD6EACA2FED7020E7D6ECF0E7E6EE7D7F0
:100050007D2EFBD712009EAAFED7ABCF06F0AECF07
:1000600001F006A202D0AB98AB881200EA6A4A0EF1
:10007000E96EEF500DE0060E016E006A002EFED70D
:10008000012EFBD77B0E006E002EFED7EF2EF3D78E
:100090001200826B836B835101082BE381C003F054
:1000A00080C0E9FF81C0EAFFEF50400810E28251B2
:1000B000100DF3CF84F081C003F080C0E9FF81C050
:1000C000EAFFEF508425BF0F0A0F826F0CD08251D8
:1000D000100DF3CF84F080C0E9FF81C0EAFFEF503C
:1000E0008425D00F826F8351832B802BD8B4812B32
:1000F000D2D782C001F01200F250036EF29EA68E9B
:10010000A6840F01550EA76EAA0EA76EA682000048
:100110000350F21200011200D08CA69CF6501F0B67
:10012000006EE00EF6160A007CC001F0006608D0F2
:10013000F650010F3F0B04E1A6880900DDDF0A003D
:10014000006607D0EECFF5FF015204E00F00010674
:1001500003D000060B000C001F0EF6141F0AE6E188
:10016000CBDF0166E3D7F86AE8EF01F04A92506A04
:100170004F6A4AB236D1086A036A0850090FE96E1D
:10018000000E0320EA6EEACF7FF0E9CF7EF063DF56
:100190007FC0EAFF7EC0E9FF01C0EFFF0850082AD8
:1001A000036A090FE96E000E0320EA6EEF500D0896
:1001B00003E008504008E0E2130E7C6E3EDF4A8008
:1001C00009503A08D8A404D1816B0A0E806F61DF10
:1001D00001C05BF0816B0C0E806F5BDF01C07CF0B7
:1001E000816B0E0E806F55DF7CC04EF001C04DF06C
:1001F000816B100E806F4DDF01C04CF04FC053F08B
:1002000050C054F04DC051F04EC052F04B6A010E38
:100210005A6E030E085C5A5C14E2036A5A50090FC6
:10022000016E000E032201C07CF003C07DF003C00C
:1002300081F001C080F02DDF01504B26020E5A26BE
:10024000E8D7FF0ED8804B54010F4B6E030E085CAD
:10025000036A090F016E000E032201C07CF003C087
:100260007DF003C081F001C080F013DF01504B5CD2
:1002700002E04A90ADD04C2C02D04A82A9D04C501A
:10028000040811E1816B120E806F03DF01C07CF066
:10029000816B140E806FFDDE01C07DF07CC050F0DC
:1002A00001C04FF095D04C52D8A492D0545206E1E0
:1002B000535204E152500408D8B08AD05452D8A402
:1002C00087D05352D8A484D052507F08D8A080D071
:1002D000090E5A6E596A030E085C5A5C23E25950A3
:1002E000592A036A5C0F016E000E032201C07CF0E4
:1002F00003C07DF0036A5A50090F016E000E0322FD
:1003000001C07EF003C07FF003C081F001C080F027
:10031000C0DE7DC0EAFF7CC0E9FF01C0EFFF020E36
:100320005A26D9D75550515C09E15650525C06E126
:100330005750535C03E15850545C32E055503F0B2A
:10034000006E016A026A036A400ED8800056000EF1
:10035000015602560356555000265650012257505A
:100360000222585003220350545C1AE30BE102505E
:10037000535C16E307E10150525C12E303E1515074
:10038000005C0EE251503F0B7C6E7D6A7E6A7F6A94
:100390007C5206E17D5204E17E5202E17F5200E090
:1003A0005B505124556E000E5220566E000E5320A5
:1003B000576E000E5420586E53C0F8FF52C0F7FF1E
:1003C00051C0F6FFEA6A5C0EE96E5BC07CF0A4D611
:1003D0004AA003D0060E7C6E30DE110E7C6E2DDE40
:1003E000C8D6040E7C6E29DEF7EF01F0BFD666EFAB
:1003F00002F0F86AD09E066AB886110EAF6E040E3F
:10040000B06EA60EAC6E900EAB6E00000000C15038
:10041000C00B0F09C16E070EB46EC290010E926E32
:10042000000E936EFF0E946E956E96909692969433
:100430009696806A0790079283A045D007B043D074
:1004400007B041D082A60CD0B8862A0EAF6E000E3F
:10045000B06EA60EAC6E900EAB6E000000000BD01E
:10046000B886110EAF6E040EB06EA60EAC6E900E76
:10047000AB6E0000000007B204D0330E7C6EDDDDF1
:1004800003D0340E7C6ED9DD9EAA1CD0E4DD01C001
:1004900049F04950410801E10780495042080EE106
:1004A00007B202D0078201D00792020E806E140EAE
:1004B0004A6EDCDD806A0A0E4A6ED8DD9EAA02D042
:1004C000CADDFCD7BDD707A018D090D707A214D09B
:1004D000F250006EF29EA968A868A69CA69EA6840B
:1004E0000F01550EA76EAA0EA76EA682A6B2FED762
:0E04F000A6940050F2120001FF0002D8030093
:04050000FFD712000F
:020000040030CA
:0E00000000C2161E008781000FC00FE00F40E7
:00000001FF
;PIC18F4520
;CRC=C317  CREATED="18-Nov-25 22:15"
