:020000040000FA
:10000000F9EF01F0FFFFFFFF84EF02F000000000B6
:1000100000000000000000008CEF02F01000030E52
:100020007E5E09E3EA6A7E0EE96EEF5004E001D0DD
:1000300000D0EF2EFDD728EF00F09EA8FED77C5011
:10004000AD6EACA2FED7020E7D6ECF0E7E6EE7D7F0
:100050007D2EFBD712009EAAFED7ABCF06F0AECF07
:1000600001F006A202D0AB98AB881200EA6A4A0EF1
:10007000E96EEF500DE0060E016E006A002EFED70D
:10008000012EFBD77B0E006E002EFED7EF2EF3D78E
:100090001200826B836B835101082BE381C003F054
:1000A00080C0E9FF81C0EAFFEF50400810E28251B2
:1000B000100DF3CF84F081C003F080C0E9FF81C050
:1000C000EAFFEF508425BF0F0A0F826F0CD08251D8
:1000D000100DF3CF84F080C0E9FF81C0EAFFEF503C
:1000E0008425D00F826F8351832B802BD8B4812B32
:1000F000D2D782C001F01200F250036EF29EA68E9B
:10010000A6840F01550EA76EAA0EA76EA682000048
:100110000350F21200011200D08CA69CF6501F0B67
:10012000006EE00EF6160A007CC001F0006608D0F2
:10013000F650010F3F0B04E1A6880900DDDF0A003D
:10014000006607D0EECFF5FF015204E00F00010674
:1001500003D000060B000C001F0EF6141F0AE6E188
:10016000CBDF0166E3D7F86AE8EF01F04A92506A04
:100170004F6A4AB236D1086A036A0850090FE96E1D
:10018000000E0320EA6EEACF7FF0E9CF7EF063DF56
:100190007FC0EAFF7EC0E9FF01C0EFFF0850082AD8
:1001A000036A090FE96E000E0320EA6EEF500D0896
:1001B00003E008504008E0E2130E7C6E3EDF4A8008
:1001C00009503A08D8A404D1816B0A0E806F61DF10
:1001D00001C05BF0816B0C0E806F5BDF01C07CF0B7
:1001E000816B0E0E806F55DF7CC04EF001C04DF06C
:1001F000816B100E806F4DDF01C04CF04FC053F08B
:1002000050C054F04DC051F04EC052F04B6A010E38
:100210005A6E030E085C5A5C14E2036A5A50090FC6
:10022000016E000E032201C07CF003C07DF003C00C
:1002300081F001C080F02DDF01504B26020E5A26BE
:10024000E8D7FF0ED8804B54010F4B6E030E085CAD
:10025000036A090F016E000E032201C07CF003C087
:100260007DF003C081F001C080F013DF01504B5CD2
:1002700002E04A90ADD04C2C02D04A82A9D04C501A
:10028000040811E1816B120E806F03DF01C07CF066
:10029000816B140E806FFDDE01C07DF07CC050F0DC
:1002A00001C04FF095D04C52D8A492D0545206E1E0
:1002B000535204E152500408D8B08AD05452D8A402
:1002C00087D05352D8A484D052507F08D8A080D071
:1002D000090E5A6E596A030E085C5A5C23E25950A3
:1002E000592A036A5C0F016E000E032201C07CF0E4
:1002F00003C07DF0036A5A50090F016E000E0322FD
:1003000001C07EF003C07FF003C081F001C080F027
:10031000C0DE7DC0EAFF7CC0E9FF01C0EFFF020E36
:100320005A26D9D75550515C09E15650525C06E126
:100330005750535C03E15850545C32E055503F0B2A
:10034000006E016A026A036A400ED8800056000EF1
:10035000015602560356555000265650012257505A
:100360000222585003220350545C1AE30BE102505E
:10037000535C16E307E10150525C12E303E1515074
:10038000005C0EE251503F0B7C6E7D6A7E6A7F6A94
:100390007C5206E17D5204E17E5202E17F5200E090
:1003A0005B505124556E000E5220566E000E5320A5
:1003B000576E000E5420586E53C0F8FF52C0F7FF1E
:1003C00051C0F6FFEA6A5C0EE96E5BC07CF0A4D611
:1003D0004AA003D0060E7C6E30DE110E7C6E2DDE40
:1003E000C8D6040E7C6E29DEF7EF01F0BFD666EFAB
:1003F00002F0F86AD09E066AB886110EAF6E040E3F
:10040000B06EA60EAC6E900EAB6E00000000C15038
:10041000C00B0F09C16E070EB46EC290010E926E32
:10042000000E936EFF0E946E956E96909692969433
:100430009696806A0790079283A045D007B043D074
:1004400007B041D082A60CD0B8862A0EAF6E000E3F
:10045000B06EA60EAC6E900EAB6E000000000BD01E
:10046000B886110EAF6E040EB06EA60EAC6E900E76
:10047000AB6E0000000007B204D0330E7C6EDDDDF1
:1004800003D0340E7C6ED9DD9EAA1CD0E4DD01C001
:1004900049F04950410801E10780495042080EE106
:1004A00007B202D0078201D00792020E806E140EAE
:1004B0004A6EDCDD806A0A0E4A6ED8DD9EAA02D042
:1004C000CADDFCD7BDD707A018D090D707A214D09B
:1004D000F250006EF29EA968A868A69CA69EA6840B
:1004E0000F01550EA76EAA0EA76EA682A6B2FED762
:1004F000A6940050F2120001FF0002D80300FFFF93
:10050000D8EF39F0FFFFFFFF046ED8CF05F0E0CF42
:1005100006F00001E9CF0CF0EACF07F0E1CF08F0D8
:10052000E2CF09F0D9CF0AF0DACF0BF0F3CF12F017
:10053000F4CF13F0FACF14F000C00EF001C00FF0AA
:1005400002C010F003C011F09DA0AAEF02F09EB00F
:1005500031EF08F09DA2B0EF02F09EB203EF07F07A
:100560009DAAB6EF02F09EBA21EF07F00EC000F090
:100570000FC001F010C002F011C003F00CC0E9FF81
:1005800007C0EAFF078E08C0E1FF09C0E2FF0AC00A
:10059000D9FF0BC0DAFF12C0F3FF13C0F4FF14C081
:1005A000FAFF045006C0E0FF05C0D8FF1000F2CFEC
:1005B0000DF0F29EF76AC80FF66E050EF7220900DD
:1005C000F5500DBEF28E120050C3000020BF020095
:1005D0003057050060AE0A0050690F00C05C15007E
:1005E00040771B00200B2000009F240080B92A00C8
:1005F000C0C62D00F2CF0DF0F29E0C0FF66E060E67
:10060000F7220900F5500DBEF28E12004944020196
:1006100041490302444E020355500204464102057B
:100620004642020646410D0746420D08464E030962
:100630004652030A4652020B4654030C4654020D1E
:100640004946020E4945030F4C4B02104C4B031117
:100650004D4305124D4403134D5206144D571715C3
:1006600052430216524402175255021852540319AB
:100670005258021A5458021B5343031C5350031D73
:100680005941031E5941021F594203205942022178
:100690005943032259430223594403245944022550
:1006A0005945032659450227594607285947032922
:1006B0005947022A5948042B5948022C5949032DFD
:1006C000594A032E594A022F594B0330594B0231D4
:1006D000594C0332594C0233594D0334594D0235AC
:1006E000594E0336594E0237594F0338594F023984
:1006F0005950023A5951023B5952023C5953023D5A
:100700005954023E5955023F595602405957024129
:100710005958024259590243595A03443146024535
:100720003330024633310247F2CF0DF0F29EF76AC2
:10073000420FF66E070EF7220900F5500DBEF28E3D
:10074000120000710200400D030060CC050080FC27
:100750000A0060900F0078E5150060C51B00E8BA3C
:100760002000A0252600C0C62D00C0C62D00F2CF57
:100770000DF0F29E860FF66E070EF7220900F55077
:100780000DBEF28E120001000000DC152700C41916
:100790002700AC1D27007C252700642927004C2D4D
:1007A00027003431270004392700EC3C2700D440CF
:1007B0002700BC4427008C4C2700745027005C5451
:1007C00027004458270014602700FC632700E467D3
:1007D0002700CC6B27009C732700847727006C7B55
:1007E0002700547F27003C832700248727000C8B99
:1007F0002700F48E2700DC922700C4962700AC9ACD
:100800002700949E27007CA2270064A627004CAAFC
:10081000270034AE27001CB2270004B62700ECB92D
:100820002700D4BD2700BCC1270001000000A4C5DB
:1008300027008CC9270074CD270044D527002CD968
:10084000270014DD2700FCE02700CCE82700B4ECEB
:1008500027009CF0270084F4270054FC27003C006C
:100860002800240428000C082800DC0F2800C413EA
:100870002800AC172800941B2800642328004C276C
:100880002800342B28001C2F280004332800EC36C5
:100890002800D43A2800BC3E2800A44228008C46F8
:1008A0002800744A28005C4E2800445228002C5628
:1008B0002800145A2800FC5D2800E4612800CC655B
:1008C0002800B46928009C6D28008471280001006C
:1008D00000006C752800547928003C7D28000C85A8
:1008E0002800F4882800DC8C2800C4902800949804
:1008F00028007C9C280064A028004CA428001CAC84
:10090000280004B02800ECB32800D4B72800A4BF06
:1009100028008CC3280074C728005CCB28002CD387
:10092000280014D72800FCDA2800B4E62800E4DE0A
:100930002800CCE228009CEA280084EE28006CF213
:10094000280054F628003CFA280024FE28000C0257
:100950002900F4052900DC092900C40D2900AC1187
:100960002900941529007C192900641D29004C21B7
:10097000290001000000342529001C292900042D2C
:100980002900D4342900BC382900A43C29008C401B
:1009900029005C482900444C29002C50290014549B
:1009A0002900E45B2900CC5F2900B46329009C671F
:1009B00029006C6F2900547329003C772900247B9F
:1009C0002900F4822900DC862900C48A29007C964B
:1009D0002900AC8E290094922900649A29004C9E2B
:1009E000290034A229001CA6290004AA2900ECAD84
:1009F0002900D4B12900BCB52900A4B929008CBDB7
:100A0000290074C129005CC5290044C929002CCDE6
:100A1000290014D1290001000000FCD42900E4D8E9
:100A20002900CCDC29009CE4290084E829006CEC36
:100A3000290054F0290024F829000CFC2900F4FFB7
:100A40002900DC032A00AC0B2A00940F2A007C1337
:100A50002A0064172A00341F2A001C232A000427B6
:100A60002A00EC2A2A00BC322A00A4362A008C3A3A
:100A70002A0044462A00743E2A005C422A002C4A7E
:100A80002A00144E2A00FC512A00E4552A00CC59B1
:100A90002A00B45D2A009C612A0084652A006C69E2
:100AA0002A00546D2A003C712A0024752A000C7912
:100AB0002A00F47C2A00DC802A0001000000C484A3
:100AC0002A00AC882A00948C2A0064942A004C984E
:100AD0002A00349C2A001CA02A00ECA72A00D4ABD0
:100AE0002A00BCAF2A00A4B32A0074BB2A005CBF52
:100AF0002A0044C32A002CC72A00FCCE2A00E4D2D4
:100B00002A00CCD62A00B4DA2A0084E22A006CE655
:100B10002A0054EA2A000CF62A003CEE2A0024F2AD
:100B20002A00F4F92A00DCFD2A00C4012B00AC05E0
:100B30002B0094092B007C0D2B0064112B004C150D
:100B40002B0034192B001C1D2B0004212B00EC243E
:100B50002B00D4282B00BC2C2B00A4302B00010030
:100B600000008C342B0074382B005C3C2B002C4490
:100B70002B0014482B00FC4B2B00E44F2B00B457E8
:100B80002B009C5B2B00845F2B006C632B003C6B69
:100B90002B00246F2B000C732B00F4762B00C47EEB
:100BA0002B00AC822B0094862B007C8A2B004C926D
:100BB0002B0034962B001C9A2B00D4A52B00049EEE
:100BC0002B00ECA12B00BCA92B00A4AD2B008CB1F9
:100BD0002B0074B52B005CB92B0044BD2B002CC13D
:100BE0002B0014C52B00FCC82B00E4CC2B00CCD070
:100BF0002B00B4D42B009CD82B0084DC2B006CE0A1
:100C00002B0001000000BD1D2A00A5212A008D2512
:100C10002A0075292A005D2D2A0045312A002D352C
:100C20002A0015392A00FD3C2A00E5402A00CD445F
:100C30002A00B5482A009D4C2A0085502A006D5490
:100C40002A0055582A003D5C2A0025602A000D64C0
:100C50002A00F5672A00DD6B2A00C56F2A00AD73F4
:100C60002A0095772A007D7B2A00657F2A004D8324
:100C70002A0035872A001D8B2A00058F2A00ED9255
:100C80002A00D5962A00BD9A2A00A59E2A008DA288
:100C90002A0075A62A005DAA2A0045AE2A002DB2B8
:100CA0002A0015B62A00F2CF0DF0F29EF76AC00FA7
:100CB000F66E0C0EF7220900F5500DBEF28E1200F2
:100CC000F0490200400D030030570500801A06006D
:100CD00060AE0A00B0710B0040420F00900510009A
:100CE000C05C15001020160040771B00903A1C00D5
:100CF000200B200070CE2000009F2400F0E826008A
:100D000080B92A00C0C62D000000000000000000CD
:100D100082B403D00101A381000182A40DD001019E
:100D2000A253D8A402D0000107D0A3B102D0000181
:100D300003D0A391A20700010101A2535DE1036A60
:100D4000A451950FE96E010E0320EA6EEF500F0BD0
:100D5000E8A08494E8B08484036AA451950FE96EF6
:100D6000010E0320EA6ED890EF300F0BE8A08492BA
:100D7000E8B08482036AA451950FE96E010E032046
:100D8000EA6EEF30006E00323F0E001600500F0B7F
:100D9000E8A08490E8B08480036AA451950FE96EBE
:100DA000010E0320EA6EEF30006E003200321F0E9B
:100DB000001600500F0BE8A0809AE8B0808A82A449
:100DC00001D080880201F26BF251270807E3F22B71
:100DD00000D000D0000082A401D0F6D7F26B80983A
:100DE0000101A4510C0802E3010EA42782B403D030
:100DF000A46B010EA26F04D0849484928490809A94
:100E0000000112EF07F018B60CD00F0E0101996F18
:100E10009A6F9B6F9C6F9D6F9E6F9F6FA06FA16F6E
:100E2000000176D79E929E92B6EF02F09EAAFED760
:100E3000ABCF17F0AECF01F017A202D0AB98AB88C2
:100E400012009EAA12D0F2DF01C042F0036A5C5089
:100E5000430FE96E000E0320EA6E42C0EFFF5C50C4
:100E6000180802E35C2A01D05C6A1CB606D0425026
:100E70003B0803E15C6A1A8E19821CB602D019B2D3
:100E800005D05C50050802E15C6A1A8E9E9AB6EFA6
:100E900002F00201F251010A000106E0030A07E034
:100EA000010A09E0806A09D00A0E806E06D00E0E93
:100EB000806E1D8802D0060E806E12006AA602D0D7
:100EC0001B8201D01B926AA40CD01CB804D082A64D
:100ED00002D01C8819881CA804D082B602D01C98A5
:100EE00019981AA614D0000E1DBE010E000A03E0C8
:100EF000010A07E009D06AA603D0010E40261D8E24
:100F000003D06AA601D01D9E403C01D01A961DA8B0
:100F100025D0000E1DBA010E000A03E0010A07E009
:100F200009D06AA603D0010E75261D8A03D06AA6D1
:100F300001D01D9A753C01D0756A763C01D0766A65
:100F40007550060802E2762A756A745207E07450FA
:100F5000765C04E31D98756A766A1B9A1DA426D0F8
:100F60001DA024D0000E1DB2010E000A03E0010AEC
:100F700007E00BD06AA603D0010E41261D8205D0E2
:100F80006AA603D0010E41261D92413C01D01D945A
:100F900041500A080AE29EAA04D048DF9EBAFED752
:100FA00002D0416A1D945C6A1A9E02D01D94416A67
:100FB0006A50030B54E01DAC25D01BAA0AD0020EC8
:100FC0000201F26F000165DF83B602D083A6FED76F
:100FD0001B801BBA17D0000E18BA010E000A03E0DE
:100FE000010A07E00CD00201F26B000152DF1B90F6
:100FF00006D0010E0201F26F00014BDF1B9083A6A9
:1010000001D01B801DBC2BD083A608D01BBA06D0F4
:10101000030E0201F26F00013CDF1B801BAA06D009
:10102000030E0201F26F000134DF1B801BBA17D0E0
:10103000000E18BA010E000A03E0010A07E00CD006
:101040000201F26B000125DF1B9006D0010E0201A8
:10105000F26F00011EDF1B9083A601D01B8038EFCA
:1010600008F06A3C01D002D06A2A01D06A6A26D709
:101070006350010A03E0030A03E004D06D6A02D062
:10108000010E6D6E9E0ECF6E580ECE6E9E909E908F
:10109000B6EF02F0806A00D00201E851F80F30E2AA
:1010A000080F000184EF08F0806A00D0020128D008
:1010B000080E806E00D0020123D0040E806E00D096
:1010C00002011ED00C0E806E00D0020119D0020E5B
:1010D000806E420E006E002EFED70000020110D07E
:1010E0000A0E806E00D002010BD0060E806E00D07A
:1010F000020106D00E0E806E00D0020101D0020166
:10110000806A00D000011200F2CF0DF0F29EE824B8
:10111000F76AF7362D0FF66E110EF7220A00F5501A
:10112000FA6E0800F5500DBEF28EF96EA810B010E0
:10113000BA10C410CE10E010EA10F410E6C281FF1D
:10114000010E0201E86F0001A5DF1200E6C281FF77
:10115000818E00D0819E12008A51036A600F0201C5
:10116000B26F000E0320B36FB2C2E6F20001E6DFF9
:101170008A310201B36F000189310201B26FB333CA
:10118000B233B333B233B333B2330F0EB317B251FA
:101190000F0B006E036A0050500FB26F000E032059
:1011A000B36FB2C2E6F20001C9DF89510F0B006EC6
:1011B000036A0050400F0201B26F000E0320B36FAC
:1011C000B2C2E6F20001BADF8C51036A600F02017D
:1011D000B26F000E0320B36FB2C2E6F20001B6DFB9
:1011E0008C310201B36F00018B310201B26FB33356
:1011F000B233B333B233B333B2330F0EB317B2518A
:101200000F0B006E036A0050500FB26F000E0320E8
:10121000B36FB2C2E6F2000199DF8B510F0B006E83
:10122000036A0050400F0201B26F000E0320B36F3B
:10123000B2C2E6F200018ADF1200C290010E926E85
:10124000000E936EFF0E946E956E96909692969405
:1012500096968A6B896B8C6B8B6B7EDF186A196A2A
:101260001A6A1B6A1C6A1D6A1E6A806A816A826A1F
:10127000836A846A809A849084928494B50ECD6E39
:10128000000E0609CA6E770ECB6E9E0ECF6E580EFC
:10129000CE6E9D809D829D8A9E909E92C00EF2127F
:1012A000A6EF3AF0F2CFF1F2F29EF0C2A9FFA69CAF
:1012B000A69EA680A8500201F1BFF28E016E000129
:1012C0001200E6C2F0F2EEDF01501200036A0201E2
:1012D000E751950FE96E000E0320EA6EE8C2EFFFBA
:1012E00000011200F250006EF29EE5C2A9FFE6C2B4
:1012F000A8FFA69CA69EA6840F01550EA76EAA0E57
:10130000A76EA682A6B2FED7A6940050F212E5C23E
:10131000E7F2E6C2E8F20001D9DF1200F2CFD4F220
:10132000F29ED1C2A9FFA69CA69EA680A85002014B
:10133000D4BFF28ED36FD251D35DD8B407D0D1C20F
:10134000E5F2D2C2E6F20001CDDF02010001120097
:101350000201E06BDF6BDE6BDD6BD851040DF3CF68
:10136000E1F2E26BE25103081CE3020EE46FDD0ED2
:10137000E36FE251E325016E000EE421036E01C02C
:10138000E3F2E46FE251E125E56FF06F00018ADFDF
:10139000E4C2EAFFE3C2E9FF01C0EFFF0201E22B72
:1013A000E1D7DD51D95D0AE1DE51DA5D07E1DF51B8
:1013B000DB5D04E1E051DC5DD8B41FD0E26BE251AB
:1013C00003081BE3E251E125E36F020EE56FD90E3E
:1013D000E46FE251E425016E000EE521036E01C0C9
:1013E000E9FFEA6EEFCFE4F2E3C2E5F2E4C2E6F22F
:1013F000000178DF0201E22BE2D7000112000201B6
:10140000CB6BCB3D01D008D0CBC2D1F2D26B000167
:1014100085DF0201CB2BF5D7CB6BCB510E080EE34A
:10142000CBC2D8F2DC6B0A0EDB6FAE0EDA6F600E49
:10143000D96F00018DDF0201CB2BEFD70F0ECB6FE1
:10144000CB5119080BE3CBC2D8F2DC6BDB6BDA6B48
:10145000D96B00017DDF0201CB2BF2D71A0ECB6FC7
:10146000CB5124082DE31A0ECB5D040DF350036A13
:10147000F2CFCCF2F29E0001D7EC02F0006E090030
:10148000F5CF01F00900F5CF02F00900F5CF03F028
:101490000201CCBFF28E03C0CFF202C0CEF201C077
:1014A000CDF2CC6FCBC2D8F203C0DCF202C0DBF2CB
:1014B00001C0DAF2D96F00014BDF0201CB2BD0D78C
:1014C000250ECB6FCB512F082DE3250ECB5D040DE0
:1014D000F350036AF2CFCCF2F29E0001D7EC02F097
:1014E000006E0900F5CF01F00900F5CF02F0090008
:1014F000F5CF03F00201CCBFF28E03C0CFF202C0E1
:10150000CEF201C0CDF2CC6FCBC2D8F203C0DCF278
:1015100002C0DBF201C0DAF2D96F000119DF02016B
:10152000CB2BD0D7300ED86FDC6BDB6B050EDA6FB0
:10153000DC0ED96F00010CDF310E0201D86FDC6BBD
:10154000DB6BDA6B1E0ED96F000102DF320E020177
:10155000D86FDC6BDB6B270EDA6F100ED96F0001D2
:10156000F7DE330E0201D86FDC6B300EDB6FD40E6A
:10157000DA6FD96B0001ECDED00E0201D16F010EE3
:10158000D26F0001CBDED10E0201D16F010ED26FFE
:101590000001C4DED20E0201D16F020ED26F000133
:1015A000BDDED30E0201D16F030ED26F0001B6DE95
:1015B000D40E0201D16F040ED26F0001AFDED50E42
:1015C0000201D16F050ED26F0001A8DED60E020116
:1015D000D16F060ED26F0001A1DED70E0201D16FCE
:1015E000070ED26F00019ADED80E0201D16F080EED
:1015F000D26F000193DED90E0201D16F090ED26FB6
:1016000000018CDEE10E0201D16F030ED26F0001EA
:1016100085DEE20E0201D16F030ED26F00017EDE85
:10162000E30E0201D16F030ED26F000177DEE00EF0
:101630000201D16F010ED26F000170DEEC0E0201CB
:10164000D16F030ED26F000169DEE80E0201D16F87
:10165000D26B000163DEE90E0201D16FD26B000193
:101660005DDEEA0E0201D16F010ED26F000156DE7F
:10167000F90E0201D16FD26B000150DEE40E0201BF
:10168000D16FD26B00014ADEFA0E0201D16F010E5A
:10169000D26F000143DEFB0E0201D16F030ED26F49
:1016A00000013CDEED0E0201D16F010ED26F000190
:1016B00035DEEE0E0201D16F020ED26F00012EDE7A
:1016C000EF0E0201D16F030ED26F000127DEF00E84
:1016D0000201D16F040ED26F000120DEF10E020173
:1016E000D16F050ED26F000119DEF20E0201D16F2B
:1016F000060ED26F000112DEF30E0201D16F070E4B
:10170000D26F00010BDEF40E0201D16F080ED26F12
:10171000000104DEF50E0201D16F090ED26F000147
:10172000FDDDF60E0201D16F0A0ED26F0001F6DD6B
:10173000F70E0201D16F0B0ED26F0001EFDDF80E34
:101740000201D16FD26B0001E9DDE60E0201D16F1B
:10175000130ED26F0001E2DDE70E0201D16F030E1E
:10176000D26F0001DBDD0201D169010ED26F0001F1
:10177000D5DD1CEF0DF00201E651040DF3CFE7F2C9
:10178000EC6BEB6BEA6BE96BE86BE85103081CE36D
:10179000020EEE6FE90EED6FE851ED25016E000EC1
:1017A000EE21036E01C0EDF2EE6FE851E725EF6F19
:1017B000F06F000177DDEEC2EAFFEDC2E9FF01C084
:1017C000EFFF0201E82BE1D7E9C200F0EAC201F025
:1017D000EBC202F0ECC203F0000112000201D6518C
:1017E000D803F3CF01F0F4CF00F0D903F350002673
:1017F000D751D803F3500020026E000112000201FD
:10180000CB6BCC6BCC51070837E3D76BCCC2D6F28D
:10181000D96BA40ED86F0001E1DF02C0CEF201C087
:10182000CDF202C003F002010150F2CFCFF2F29EDE
:1018300002C0F7FF0001B7EC03F0006E0900F5CF1E
:1018400001F00900F5CF02F00900F5CF03F0020125
:10185000CFBFF28E03C0D2F202C0D1F201C0D0F2EB
:10186000CF6FCF5307E1D05305E1D15303E1D253FA
:1018700001E1CB2BCC2BC6D7CB51080802E1198450
:1018800001D019940001C6EF0DF00201D32D08D04C
:101890001A0ED425D56FE66F00016DDF0DD0020161
:1018A000D351020808E1250ED425D56FE66F00015B
:1018B00062DF02D0020100011200D1C2E6F25BDF5A
:1018C0001200010E0201D36F65C0D4F20001DDDF0A
:1018D00003C026F002C025F001C024F000C023F0B0
:1018E000020E0201D36F66C0D4F20001CEDF03C046
:1018F0002AF002C029F001C028F000C027F068C01B
:10190000D1F2DBDF03C02EF002C02DF001C02CF0BD
:1019100000C02BF019B47ED00201D76B88C0D6F27C
:10192000D96BA40ED86F000159DF02C0D3F201C0F9
:10193000D2F202C003F002010150F2CFD4F2F29EC3
:1019400002C0F7FF0001B7EC03F0006E0900F5CF0D
:1019500001F00900F5CF02F00900F5CF03F0020114
:10196000D4BFF28E03C0D7F202C0D6F201C0D5F2C6
:10197000D46FD4530FE1D5530DE1D6530BE1D753B8
:1019800009E100018851060802E3882B01D0886B29
:10199000C3D7020100018751010802E3010E876FDE
:1019A0008751270802E2280E876F0201D76B88C093
:1019B000D6F2D96BA40ED86F000110DF02C0D3F2AB
:1019C00001C0D2F20201D76B87C0D6F2D96B040EE8
:1019D000D86F000103DF02C003F001500201D225DD
:1019E000016ED35103220150F2CFD2F2F29E03C016
:1019F000F7FF0001B7EC03F0006E0900F5CF01F02E
:101A00000900F5CF02F00900F5CF03F00201D2BFC3
:101A1000F28E000103C032F002C031F001C030F09C
:101A200000C02FF027EF0EF00201E669000149DC4B
:101A3000012C01D001D0E3D40F0E626EE00E020142
:101A4000E66F00013EDC01C063F0E10E0201E66FCB
:101A5000000137DC01C065F0E20E0201E66F000113
:101A600030DC01C066F0E30E0201E66F000129DC04
:101A700001C067F0E50E0201E66F000122DC01C043
:101A800068F0ED0E0201E66F00011BDC01C06EF094
:101A9000EE0E0201E66F000114DC01C06FF0EA0EE9
:101AA0000201E66F00010DDC189401B01884F90EF4
:101AB0000201E66F000105DC199001B01980FA0EF1
:101AC0000201E66F000161EC09F0189601B018867A
:101AD000FB0E0201E66F000161EC09F001C071F03C
:101AE000712C02D0198E1A907150020802E1199ED1
:101AF0001A807150030802E1198E1A80E40E020167
:101B0000E66F000161EC09F0189801B01888300EFA
:101B10000201E66F00012FDE01C08AF000C089F0EB
:101B2000310E0201E66F000126DE01C08CF000C01C
:101B30008BF0320E0201E66F00011DDE03C090F053
:101B400002C08FF001C08EF000C08DF0330E020194
:101B5000E66F000110DE03C094F002C093F001C0F4
:101B600092F000C091F0E80E0201E66F000161EC16
:101B700009F01B9401B01B84E90E0201E66F00011D
:101B800061EC09F0189201B0188239D6E60E020114
:101B9000E66F000161EC09F001C087F0E70E020179
:101BA000E66F000161EC09F001C088F0EF0E020160
:101BB000E66F000161EC09F001C07DF0F00E02015A
:101BC000E66F000161EC09F001C07EF0F10E020148
:101BD000E66F000161EC09F001C07FF0F20E020136
:101BE000E66F000161EC09F001C080F0F30E020124
:101BF000E66F000161EC09F001C081F0F40E020112
:101C0000E66F000161EC09F001C082F0F50E0201FF
:101C1000E66F000161EC09F001C083F0F60E0201ED
:101C2000E66F000161EC09F001C084F0F70E0201DB
:101C3000E66F000161EC09F001C085F0F80E0201C9
:101C4000E66F000161EC09F001C086F03AD6189AFF
:101C5000189C189E0F0E626E5E6A5D6A646A199225
:101C6000808A00D000D0000082A002D0199601D056
:101C70001986809A1200020EEA6ED60EE96EEF50B7
:101C80000DE0060E016E006A002EFED7012EFBD776
:101C90007B0E006E002EFED7EF2EF3D7120002014E
:101CA000D56B84B448D084B246D084B044D080BAD6
:101CB00042D084928494809A848000D000D0000026
:101CC00082A402D0010ED56F82A202D0020ED56F7F
:101CD00082A002D0030ED56F8490848200D000D001
:101CE000000082A402D0040ED56F82A202D0050E9D
:101CF000D56F82A002D0060ED56F8492848400D066
:101D000000D0000082A402D0070ED56F82A202D0BC
:101D1000080ED56F82A002D0090ED56F8494808AF8
:101D200000D000D0000082A202D00A0ED56F8494A9
:101D300084928490809AD5C201F0000112000201C1
:101D4000E56B83A802D0080EE52783AA02D0040E13
:101D5000E52783AC02D0020EE52783AE02D0010E48
:101D6000E527E5C201F000011200040E0201E86F50
:101D700000014AEC08F012000201D16BD051D15D94
:101D80000AE20001F2DFC80E0201D66F000173DF24
:101D90000201D12BF3D7000112001B980201D4518C
:101DA000010A000107E0030A0BE0010A0FE0060A3E
:101DB00013E016D0010E0101996F0F0EA16F14D020
:101DC0000C0E0101996F0F0EA16F0ED0020E0101D2
:101DD000996FDAC2A1F108D0DAC2A1F1010104D0F1
:101DE0000F0E0101996FA16F0201D5510F0805E295
:101DF0000F0E01019A6F04D00201D5C29AF10101C0
:101E0000D9C2E6F2D8C2E5F2D7C2E4F2D6C2E3F212
:101E10000201DC6BE6530DE1E5510E0815E2FF0A05
:101E200008E1E451410810E2FF0A03E1E3513F08F1
:101E30000BE2400EE35F420EE45B0F0EE55B000E2B
:101E4000E65B010EDC27E6D7DD6BE6530DE1E551DD
:101E5000000815E2FF0A08E1E451850810E2FF0AD4
:101E600003E1E3519F080BE2A00EE35F860EE45B03
:101E7000010EE55B000EE65B010EDD27E6D7DE6BAB
:101E8000E6530AE1E55308E1E45126080FE2FF0AB0
:101E900003E1E3510F080AE2100EE35F270EE45B53
:101EA000000EE55BE65B010EDE27EAD7DF6BE6534B
:101EB0000AE1E55308E1E45102080FE2FF0A03E1F9
:101EC000E351E7080AE2E80EE35F030EE45B000E6D
:101ED000E55BE65B010EDF27EAD7E06BE65307E13F
:101EE000E55305E1E45303E1E351630809E2640EBD
:101EF000E35F000EE45BE55BE65B010EE027EED7F7
:101F0000E16BE65307E1E55305E1E45303E1E351F7
:101F1000090809E20A0EE35F000EE45BE55BE65B9D
:101F2000010EE127EED7E26BE65307E1E55305E149
:101F3000E45303E1E351000809E2010EE35F000E00
:101F4000E45BE55BE65B010EE227EED7DB510208BE
:101F5000D8A057D0D9530DE1D8510F080AE307E1B3
:101F6000D751420806E303E1D6513F0802E30F0EC2
:101F7000DC6FD9530DE1D85101080AE307E1D751CD
:101F8000860806E303E1D6519F0802E30F0EDD6FDA
:101F9000D9530BE1D85309E1D751270806E303E1F0
:101FA000D6510F0802E30F0EDE6FD9530BE1D85361
:101FB00009E1D751030806E303E1D651E70802E33C
:101FC0000F0EDF6FD95309E1D85307E1D75305E16D
:101FD000D651630802E30F0EE06FD95309E1D853DD
:101FE00007E1D75305E1D651090802E30F0EE16F6F
:101FF000D65307E1D75305E1D85303E1D95301E1A3
:10200000E26BDB51010A00012FE0030A3AE0010A0A
:1020100049E0070A55E0010A61E00C0A69E0030A99
:10202000D8B473D0010AD8B47DD0070AD8B489D007
:10203000010AD8B495D0030AD8B4A1D0010AD8B403
:10204000ADD01F0AD8B4B9D0010AD8B4C5D0DCC20B
:102050009BF1DDC29CF1DEC29DF1DFC29EF1E0C2C8
:102060009FF1E1C2A0F1C6D0DDC29BF1DEC29CF1BE
:10207000DFC29DF1E0C29EF1E1C29FF1E2C2A0F198
:10208000B9D00F0E01019B6F010E000188250101DF
:102090009C6F0F0E9D6FE1C29EF1E2C29FF1A06F97
:1020A0000001A8D0DFC29BF1E0C29CF1E1C29DF12A
:1020B000E2C29EF10F0E01019F6FA06F00019AD046
:1020C0000F0E01019B6F9C6FDFC29DF1E0C29EF17C
:1020D000E1C29FF1E2C2A0F100018CD00F0E01011C
:1020E0009B6F9C6B9D6B9E6B9F6BA06F000182D062
:1020F000DCC29BF1DDC29CF1DEC29DF1DFC29EF12C
:10210000E0C29FF1E1C2A0F175D0DDC29BF1DEC259
:102110009CF1DFC29DF1E0C29EF1E1C29FF1E2C2FB
:10212000A0F168D00F0E01019B6FDDC29CF1DEC2F1
:102130009DF1DFC29EF1E0C29FF1E1C2A0F100017A
:1021400059D0DCC29BF10F0E01019C6FDEC29DF1E4
:10215000DFC29EF1E0C29FF1E1C2A0F100014AD0CE
:10216000DCC29BF1DDC29CF10F0E01019D6FDFC24D
:102170009EF1E0C29FF1E1C2A0F100013BD0DCC2C0
:102180009BF1DDC29CF1DEC29DF10F0E01019E6F3D
:10219000E0C29FF1E1C2A0F100012CD0DCC29BF1B2
:1021A000DDC29CF1DEC29DF1DFC29EF10F0E010186
:1021B0009F6FE1C2A0F100011DD0DCC29BF1DDC226
:1021C0009CF1DEC29DF1DFC29EF1E0C29FF10F0ED5
:1021D0000101A06F00010ED0DDC29BF1DEC29CF1B7
:1021E000DFC29DF1E0C29EF1E1C29FF10F0E01013D
:1021F000A06F000112000201D56B83B204D082BA35
:1022000002D00B0ED56F83B204D082BC02D00C0E6C
:10221000D56F83A206D082AA04D082AC02D00D0E64
:10222000D56F83A204D082BA02D00E0ED56F83A2DE
:1022300004D082BC02D00F0ED56FD5C201F00001D0
:102240001200030E0201D75F0AE3020EEA6ED70EF8
:10225000E96EEF5004E001D000D0EF2EFDD7000171
:1022600012000201D16BD26BD051020802E1D36B94
:1022700002D0040ED36F82A4FED082B4FED71AB46B
:1022800007D000010CDD015201E01A8402014B6B02
:102290001AA486D0000103DD015211E000DD01C067
:1022A00049F202014B3D01D001D04B2BD051020825
:1022B00005E0A60E006E002EFED700000001020110
:1022C0004B51D35D21E2D0530AE14B51310802E377
:1022D000010ED26F4B51310802E2020ED26FD02DA7
:1022E0000AD04B51310802E3010ED26F4B51310835
:1022F00002E2030ED26FD051020806E149C2D1F2C8
:10230000496BD1C201F0CDD0D22D22D00001C7DC63
:1023100001521FE10201D46BD45109080AE3000104
:10232000BEDC015203E0020104D000010201D42B03
:10233000F3D7D45109080CE21AA803D0D16B1A982C
:1023400002D049C2D1F2496B1A94D1C201F0A9D08E
:1023500000010201D25102080DE1495303E01E0EB3
:102360004925D16F496B010E4B6F1A881A94D1C25F
:1023700001F097D0D251030813E1495303E01E0E38
:102380004925D16F00018BDC015205E1010E0201EC
:102390004B6FD16B00011A880201D1C201F081D0CC
:1023A0001ABA07D0000127DF015201E01A8A0201A0
:1023B0004C6B1AAA60D000011EDF01520CE01BDF3B
:1023C00001C04AF202014C3D01D001D04C2B48C261
:1023D000D7F2000136DF02014C51D35D1BE24A51B6
:1023E0000D0A00010CE002014C511D0802E3010E30
:1023F000D26F4C511D0802E2020ED26F0BD00201C7
:102400004C511D0802E3010ED26F4C51630802E2E9
:10241000020ED26FD22D14D00001EDDE015211E177
:102420001AA805D01A980201D16B04D000014AC243
:10243000D1F202014A6B1A9A4C6BD1C201F031D031
:1024400000010201D251020816E1050E4A25D16FA2
:102450000001D1DE015205E00201D151120807E16D
:1024600000011A9A0201D151120801E0D16B1A88B9
:10247000D1C201F016D083A012D083B0FED70001E4
:1024800074DCC80E0201D66F00013BEC0EF01AACF2
:1024900003D01A921A9C02D01A821A8C0201000EE2
:1024A000016E000112000201B381B383B46B849208
:1024B000EC0EE66F000161EC09F001C070F0020162
:1024C000B253D8A49AD000013ADC01C060F00201F6
:1024D000B3A10CD0B451040803E0B451080806E1DC
:1024E000030ED06F000148DC89D00201B3A130D0C7
:1024F000010E705C040DF350036A900FE96E020E3A
:102500000320EA6EEFCFB5F2ECCFB6F2ECCFB7F224
:10251000ECCFB8F2D469D569B8C2D9F2B7C2D8F253
:10252000B6C2D7F2B5C2D6F2010EDA6FDB6F000188
:1025300034DC0201B3A30BD0040EB56FFA0ED66FD4
:1025400000013BEC0EF00201B52FF8D7B393B39125
:10255000B3B135D0B56B090EB66F00019FEC0EF02C
:1025600001C060F06150605C04E1000E016E23D098
:1025700022D0010E0201252760C061F02551B65D11
:1025800017E2B55308E182A803D0010E702602D0ED
:10259000010E705E07D082A803D0010E705E02D0DB
:1025A000010E7026256B010E016E000104D00201A0
:1025B000000E016E00010201B39101B0B381B3B10D
:1025C00006D0D06B00014DDE01C0B4F20201B4535D
:1025D00009E0B451030801E1702AB451020801E195
:1025E0007006B381705203E1010E706E05D0705019
:1025F000080802E2080E706E6BD70001010E705CD5
:10260000F80F60E2080F6FEF13F0B886460EAF6E5A
:10261000100EB06EA60EAC6E900EAB6E00000000F9
:1026200051D0B886220EAF6E080EB06EA60EAC6EFC
:10263000900EAB6E0000000045D0B886110EAF6E54
:10264000040EB06EA60EAC6E900EAB6E00000000D5
:1026500039D0B886080EAF6E020EB06EA60EAC6E04
:10266000900EAB6E000000002DD0B896400EAF6EFD
:10267000A60EAC6E900EAB6E0000000023D0B886A4
:10268000810EAF6E000EB06EA60EAC6E900EAB6EED
:102690000000000017D0B886560EAF6E000EB06E68
:1026A000A60EAC6E900EAB6E000000000BD0B8868C
:1026B0002A0EAF6E000EB06EA60EAC6E900EAB6E14
:1026C000000000000201B25308E1EC0ED16F70C0AF
:1026D000D2F200018EEC09F0020100011200F2CFEB
:1026E0000DF0F29EE824F76AF736030FF66E270E18
:1026F000F7220A00F550FA6E0800F5500DBEF28E72
:10270000F96E0A2622263A2652266A267E26962622
:10271000AE26036A0201D551950FE96E000E032023
:10272000EA6EEFCF01F0000112009EA8FED7020171
:10273000D551AD6EACA2FED7020ED66FCF0ED76FBD
:1027400000017FDD0201D62FF9D70001120002013E
:10275000D46BD43D01D036D0D25309E1036AD451B1
:10276000650FE96E020E0320EA6EEFCFD3F2D22D91
:1027700009D0036AD4514D0FE96E020E0320EA6EB0
:10278000EFCFD3F2D251020807E1D4C2D5F2000153
:10279000C0DF01C0D3F20201D3C2D5F20001C5DF10
:1027A0000201D22D09D0036AD4514D0FE96E020EF9
:1027B0000320EA6E300EEF6ED3513B08D8B402D03E
:1027C000D42BC7D7D251020805E13B0ED56F0001CB
:1027D000ACDF020100011200E60E0201D16F87C0DA
:1027E000D2F200018EEC09F0E70E0201D16F88C031
:1027F000D2F200018EEC09F012000201D15310E078
:10280000E60EE66F000161EC09F001C087F0E70E0B
:102810000201E66F000161EC09F001C088F00201DD
:1028200019B47FD0D76B88C0D6F2D96BA40ED86FFD
:102830000001EEEC0BF002C0D3F201C0D2F202C0F4
:1028400003F002010150F2CFD4F2F29E02C0F7FF72
:102850000001B7EC03F0006E0900F5CF01F00900AC
:10286000F5CF02F00900F5CF03F00201D4BFF28EDC
:1028700003C0D7F202C0D6F201C0D5F2D46FD45350
:102880000FE1D5530DE1D6530BE1D75309E1000118
:102890008851060802E3882B01D0886B0201C2D759
:1028A00000018751010802E3010E876F8751270855
:1028B00002E2280E876F0201D76B88C0D6F2D96B6F
:1028C000A40ED86F0001EEEC0BF002C0D3F201C0F1
:1028D000D2F20201D76B87C0D6F2D96B040ED86F43
:1028E0000001EEEC0BF002C003F001500201D22512
:1028F000016ED35103220150F2CFD2F2F29E03C0F7
:10290000F7FF0001B7EC03F0006E0900F5CF01F00E
:102910000900F5CF02F00900F5CF03F00201D2BFA4
:10292000F28E03C032F002C031F001C030F000C0BE
:102930002FF0000112006350040813E14DDF8851AD
:10294000060802E3882B01D0886BE70E0201D16FE5
:1029500088C0D2F200018EEC09F00201D16B0001B7
:102960004CDF12006350040802E1E5DF09D0635038
:10297000040806E018BE03D0189C188E01D0189EDB
:1029800012006350030804E1010E6D24636E02D04F
:10299000030E636E68C0D1F25DEC0CF003C02EF044
:1029A00002C02DF001C02CF000C02BF0E00E02019F
:1029B000D16F63C0D2F200018EEC09F01200D3C2D5
:1029C000D8F2D7C2DCF2D6C2DBF2D5C2DAF2D4C278
:1029D000D9F2A8EC09F046EF15F00201D56BD351FE
:1029E000D55D36E2040EE86F00014AEC08F0020102
:1029F000D451010A000105E0030A0AE0010A0FE0D0
:102A000014D0010E0101996F0F0EA16F00010DD0BE
:102A10000C0E0101996F0F0EA16F000106D0020E7E
:102A20000101996F68C0A1F10001640E0201D66F27
:102A300000013BEC0EF00F0E0101A16F996F640EC7
:102A40000201D66F00013BEC0EF00201D52BC7D777
:102A5000000112006350040DF350036A1F0FE96E6A
:102A6000000E0320EA6EEFCFCFF2ECCFD0F2ECCF26
:102A7000D1F2ECCFD2F268C0D3F2D2C2D7F2D1C237
:102A8000D6F2D0C2D5F2CFC2D4F299D7020E02014B
:102A9000D36F030ED46F0001A0DF120018BA02D06A
:102AA000188A01D0189A12000201D12D10D01A0EE6
:102AB000D225D36FD86F26C0DCF225C0DBF224C04C
:102AC000DAF223C0D9F20001A8EC09F00201D151D9
:102AD000020810E1250ED225D36FD86F2AC0DCF290
:102AE00029C0DBF228C0DAF227C0D9F20001A8EC35
:102AF00009F0020100011200E10E0201D16F65C070
:102B0000D2F200018EEC09F0E20E0201D16F66C034
:102B1000D2F200018EEC09F0E50E0201D16F68C01F
:102B2000D2F200018EEC09F0E60E0201D16F87C0EF
:102B3000D2F200018EEC09F0010E0201D16F65C0E6
:102B4000D2F20001B1DF020E0201D16F66C0D2F2F3
:102B50000001AADF1200D0DF632C03D0020E636EE7
:102B600005D06350020802E1010E636EE00E02011F
:102B7000D16F63C0D2F200018EEC09F012006350F5
:102B8000040813E1010E6D24040DF350036A1F0FB6
:102B9000E96E000E0320EA6E2FC0EFFF30C0ECFF9D
:102BA00031C0ECFF32C0ECFF1ED0010E6D24040DCD
:102BB000F350036A1F0F016E000E032201C0CFF213
:102BC00003C0D0F268C0D1F200015DEC0CF0D0C2BD
:102BD000EAFFCFC2E9FF00C0EFFF01C0ECFF02C077
:102BE000ECFF03C0ECFF010E6D240201CF6F020E5B
:102BF000D36FCFC2D4F20001F0DE12000201CF5336
:102C00000EE163C0CFF2632C01D003D06350020801
:102C100006E11CB802D019A802D0040ECF27CF536A
:102C200042E0CF5102083FE3CF2D02D065C0D0F281
:102C3000CF510208D8B466C0D0F2CFC2D1F2D0C210
:102C4000D2F2000131DF0201D051080802E3D02B9B
:102C500001D0D06BCF51040DF350036A1F0F016EEA
:102C6000000E032201C0D1F203C0D2F2CFC2D3F2D0
:102C7000D0C2D4F2000145EC0CF0D2C2EAFFD1C2BE
:102C8000E9FF00C0EFFF01C0ECFF02C0ECFF03C092
:102C9000ECFF0201CF2D02D0D0C265F0CF51020867
:102CA000D8B4D0C266F0CF5317E0CF51030814E177
:102CB00068500D0802E3682A01D0686A68C0D1F242
:102CC00000015DEC0CF003C02EF002C02DF001C03D
:102CD0002CF000C02BF00201CF5311E0CF510408BB
:102CE0000EE100018751270802E3872B02D0010E75
:102CF000876F72DD0201D16B00017FDD0201CF53CE
:102D000022E0CF5104081FE2010E6D24040DF350A0
:102D1000036A1F0FE96E000E0320EA6E500EEF24C7
:102D2000006EC30EEC20016E000EEC20026E000E51
:102D3000EC20ED52ED52ED5200C0EFFF01C0ECFF70
:102D400002C0ECFFEC6E000112000201CF530EE155
:102D500063C0CFF2632C01D003D06350020806E1B8
:102D60001CB802D019A802D0040ECF27CF5342E0DE
:102D7000CF5102083FE3CF2D02D065C0D0F2CF5132
:102D80000208D8B466C0D0F2CFC2D1F2D0C2D2F21B
:102D900000018ADE0201D05302E0D00702D0090E02
:102DA000D06FCF51040DF350036A1F0F016E000E58
:102DB000032201C0D1F203C0D2F2CFC2D3F2D0C2FB
:102DC000D4F2000145EC0CF0D2C2EAFFD1C2E9FF17
:102DD00000C0EFFF01C0ECFF02C0ECFF03C0ECFF3E
:102DE0000201CF2D02D0D0C265F0CF510208D8B475
:102DF000D0C266F0CF5317E0CF51030814E16852F8
:102E000002E0680602D00E0E686E68C0D1F20001C2
:102E10005DEC0CF003C02EF002C02DF001C02CF0D0
:102E200000C02BF00201CF5310E0CF5104080DE198
:102E300000018751010802E2870702D0280E876F40
:102E40000201D16B0001D9DC0201CF5322E0CF5146
:102E500004081FE2010E6D24040DF350036A1F0FD6
:102E6000E96E000E0320EA6E500EEF5C006EC30E9A
:102E7000EC58016E000EEC58026E000EEC58ED524C
:102E8000ED52ED5200C0EFFF01C0ECFF02C0ECFFBD
:102E9000EC6E0001120018BC14D0189E188C635000
:102EA000040DF350036A1F0FE96E000E0320EA6E53
:102EB000EFCF33F0ECCF34F0ECCF35F0ECCF36F091
:102EC00005D0189C366A356A346A336A12000201EA
:102ED000DD6BDC6BDB6BDA6BD95309E0010EDA27B3
:102EE000000EDB23DC23DD23010ED95FF5D7D85399
:102EF00009E00A0EDA27000EDB23DC23DD23010EB6
:102F0000D85FF5D7D75309E0640EDA27000EDB232C
:102F1000DC23DD23010ED75FF5D7D6530AE0E80E98
:102F2000DA27030EDB23000EDC23DD23010ED65F40
:102F3000F4D7D5530AE0100EDA27270EDB23000E54
:102F4000DC23DD23010ED55FF4D7D4530BE0A00EB4
:102F5000DA27860EDB23010EDC23000EDD23010EB3
:102F6000D45FF3D7D3530BE0400EDA27420EDB23B6
:102F70000F0EDC23000EDD23010ED35FF3D7DAC280
:102F800000F0DBC201F0DCC202F0DDC203F00001A0
:102F900012000201CF5306E1010E6D24D06F030E23
:102FA000D16F04D0010ED06F020ED16FD051040D3D
:102FB000F350036A1F0FE96E000E0320EA6EEFCF95
:102FC0001FF0ECCF20F0ECCF21F0ECCF22F0D0516D
:102FD000040DF350036A1F0F016E000E032201C09F
:102FE000D2F203C0D3F2D151040DF350036A1F0F84
:102FF000E96E000E0320EA6EEFCF00F0ECCF01F097
:10300000ECCF02F0ECCF03F0D3C2EAFFD2C2E9FF6B
:1030100000C0EFFF01C0ECFF02C0ECFF03C0ECFFFB
:10302000D151040DF350036A1F0FE96E000E032007
:10303000EA6E1FC0EFFF20C0ECFF21C0ECFF22C0F2
:10304000ECFF226A216A206A1F6A010E6D24D26F8A
:10305000010ED36FD2C2D4F20001BFDC010E020117
:10306000D36F030ED46F0001B8DC120019A642D052
:1030700019B440D0FD0E0201E66F000161EC09F0C9
:1030800001C0CFF20201CF5303E0CF51030803E2A6
:10309000010E6D24CF6F6350040A000101E00ED0D1
:1030A000ECEC13F0CFC263F0189CE00E0201D16F7C
:1030B00063C0D2F200018EEC09F01BD063C0CFF2E6
:1030C000FD0E0201D16FCFC2D2F200018EEC09F0E9
:1030D000040E636E189CE00E0201D16F63C0D2F241
:1030E00000018EEC09F0010E0201D16F0001FDEC30
:1030F00013F006D0030E0201D06F0001BCEC0EF0FD
:1031000012000201C56B47C0C6F24638006E0F0EB2
:10311000001600500F0BC76F46500F0BC86F453895
:10312000006E0F0E001600500F0BC96F45500F0BAD
:10313000CA6F4438006E0F0E001600500F0BCB6F95
:1031400044500F0BCC6F4338006E0F0E001600502A
:103150000F0BCD6F43500F0BCE6FC651010A00010C
:1031600025E0030A2CE0010A31E0070A35E0010AF4
:103170003BE0030A3FE0010A43E00F0A4CE0010A8A
:1031800055E0030A5BE0010AD8B489D0040AD8B438
:103190008FD0F30AD8B4BDD0010AD8B4C5D0030A81
:1031A000D8B4CBD0010AD8B4D0D0D0D0B2EC14F07F
:1031B000B5EC0EF0030E0201C56F0001C7D0C1ECE3
:1031C00014F0020E0201C56F0001C0D043DC020EF4
:1031D0000201C56F0001BAD061DCB5EC0EF0030E40
:1031E0000201C56F0001B2D0B6DC020E0201C56F4C
:1031F0000001ACD0C4DC020E0201C56F0001A6D0F4
:103200000201CF6B0001FADCB5EC0EF0020E0201F8
:10321000C56F00019BD00201CF6B000196DDB5ECBC
:103220000EF0020E0201C56F000190D034DEB5EC45
:103230000EF0030E0201C56F000188D0C8C2D3F2A0
:10324000C9C2D4F2CAC2D5F2CBC2D6F2CCC2D7F22E
:10325000CDC2D8F2CEC2D9F23ADE03C03EF002C0EF
:103260003DF001C03CF000C03BF06350040DF35052
:10327000036A1F0FE96E000E0320EA6E3BC0EFFFEA
:103280003CC0ECFF3DC0ECFF3EC0ECFF3E6A3D6A37
:103290003C6A3B6A010E0201C56F000157D0020172
:1032A000CF6B000176DE020E0201C56F00014ED029
:1032B000CDC2D3F2CEC2D4F2CBC2D5F2CCC2D6F2BA
:1032C000C9C2D7F2CAC2D8F2C7C2D9F200DE03C05F
:1032D0003EF002C03DF001C03CF000C03BF0635046
:1032E000040DF350036A1F0FE96E000E0320EA6E0F
:1032F0003BC0EFFF3CC0ECFF3DC0ECFF3EC0ECFF2D
:103300003E6A3D6A3C6A3B6A010E0201C56F0001DC
:103310001DD0B5EC0EF00201C56B19B602D01986AE
:1033200001D01996000112D0020E0201C56F19A634
:1033300002D000019BDE000109D00201D169D269EF
:1033400000018EEC09F0FF0001D0FF000201C5C2B0
:1033500001F00001A2EF2AF019A012D08BC24DF2A9
:103360008CC24EF28DC24FF28EC250F28FC251F219
:103370003B0E0201526F010ED26F0001A7EC13F059
:1033800078EF28F00201D86BD96BDA6BDB6BDC6B62
:10339000DD6BDE6BD5C2E6F2D4C2E5F2D3C2E4F255
:1033A000D2C2E3F2D86BE6530DE1E5510E0815E207
:1033B000FF0A08E1E451410810E2FF0A03E1E3518A
:1033C0003F080BE2400EE35F420EE45B0F0EE55B4D
:1033D000000EE65B010ED827E6D7D96BE6530DE168
:1033E000E551000815E2FF0A08E1E451850810E202
:1033F000FF0A03E1E3519F080BE2A00EE35F860E94
:10340000E45B010EE55B000EE65B010ED927E6D713
:10341000DA6BE6530AE1E55308E1E45126080FE2CE
:10342000FF0A03E1E3510F080AE2100EE35F270EE3
:10343000E45B000EE55BE65B010EDA27EAD7DB6BA7
:10344000E6530AE1E55308E1E45102080FE2FF0AFE
:1034500003E1E351E7080AE2E80EE35F030EE45BF1
:10346000000EE55BE65B010EDB27EAD7DC6BE6537B
:1034700007E1E55305E1E45303E1E351630809E2A1
:10348000640EE35F000EE45BE55BE65B010EDC27A8
:10349000EED7DD6BE65307E1E55305E1E45303E1C5
:1034A000E351090809E20A0EE35F000EE45BE55B05
:1034B000E65B010EDD27EED7DE6BE65307E1E55351
:1034C00005E1E45303E1E351000809E2010EE35F83
:1034D000000EE45BE55BE65B010EDE27EED7D7531B
:1034E0004CE1036AD6514D0FE96E020E0320EA6EDD
:1034F000300ED825EF6E010ED625036A4D0FE96E0A
:10350000020E0320EA6E300ED925EF6E020ED6258C
:10351000036A4D0FE96E020E0320EA6E300EDA25C3
:10352000EF6E030ED625036A4D0FE96E020E0320DF
:10353000EA6E300EDB25EF6E040ED625036A4D0FC2
:10354000E96E020E0320EA6E300EDC25EF6E050EEA
:10355000D625036A4D0FE96E020E0320EA6E300E87
:10356000DD25EF6E060ED625036A4D0FE96E020EBD
:103570000320EA6E300EDE25EF6ED72D4CD0036AA5
:10358000D651650FE96E020E0320EA6E300ED82583
:10359000EF6E010ED625036A650FE96E020E032059
:1035A000EA6E300ED925EF6E020ED625036A650F3E
:1035B000E96E020E0320EA6E300EDA25EF6E030E7E
:1035C000D625036A650FE96E020E0320EA6E300EFF
:1035D000DB25EF6E040ED625036A650FE96E020E39
:1035E0000320EA6E300EDC25EF6E050ED625036A49
:1035F000650FE96E020E0320EA6E300EDD25EF6ED8
:10360000060ED625036A650FE96E020E0320EA6EE8
:10361000300EDE25EF6ED75102082BE1036AD6513A
:10362000650FE96E020E0320EA6E300EDB25EF6EA9
:10363000010ED625036A650FE96E020E0320EA6EBD
:10364000300EDC25EF6E020ED625036A650FE96E9B
:10365000020E0320EA6E300EDD25EF6E030ED62536
:10366000036A650FE96E020E0320EA6E300EDE2556
:10367000EF6E00011200D0C2D5F2CFC2D4F2CEC29A
:10368000D3F2CDC2D2F2050E0201D66FD76B000184
:1036900079DE12006350020A1BE06350040DF35000
:1036A000036A1F0FE96E000E0320EA6EEFCFC9F226
:1036B000ECCFCAF2ECCFCBF2ECCFCCF2CCC2D0F252
:1036C000CBC2CFF2CAC2CEF2C9C2CDF2D4DF09D08A
:1036D00026C0D0F225C0CFF224C0CEF223C0CDF256
:1036E000CADF460E02014D6F410E4E6F3B0E5A6F00
:1036F000010ED26F0001A7EC13F012006350010A13
:103700001BE06350040DF350036A1F0FE96E000EB7
:103710000320EA6EEFCFC9F2ECCFCAF2ECCFCBF2C6
:10372000ECCFCCF2CCC2D0F2CBC2CFF2CAC2CEF236
:10373000C9C2CDF2A0DF09D02AC0D0F229C0CFF291
:1037400028C0CEF227C0CDF296DF460E02014D6FA3
:10375000420E4E6F3B0E5A6F010ED26F0001A7EC66
:1037600013F01200036A0201CB514D0FE96E020EF5
:103770000320EA6E48C0EFFF010ECB25036A4D0F10
:10378000E96E020E0320EA6E49C0EFFF020ECB2560
:10379000036A4D0FE96E020E0320EA6E4AC0EFFF86
:1037A000030ECB25036A4D0FE96E020E0320EA6E6D
:1037B0004BC0EFFF040ECB25036A4D0FE96E020EDE
:1037C0000320EA6E4CC0EFFF050ECB25036A4D0FB8
:1037D000E96E020E0320EA6E4DC0EFFF060ECB2508
:1037E000036A4D0FE96E020E0320EA6E4EC0EFFF32
:1037F000036ACB514D0FE96E020E0320EA6E300EC4
:10380000EF5CCC6F010ECB25036A4D0FE96E020E03
:103810000320EA6E300EEF5CCD6F020ECB25036AFB
:103820004D0FE96E020E0320EA6E300EEF5CCE6F94
:10383000030ECB25036A4D0FE96E020E0320EA6EDC
:10384000300EEF5CCF6F040ECB25036A4D0FE96E8F
:10385000020E0320EA6E300EEF5CD06F050ECB2512
:10386000036A4D0FE96E020E0320EA6E300EEF5C24
:10387000D16F060ECB25036A4D0FE96E020E0320B1
:10388000EA6E300EEF5CD26FCCC2D3F2CDC2D4F26E
:10389000CEC2D5F2CFC2D6F2D0C2D7F2D1C2D8F2C0
:1038A000D96F000167EC17F003C03EF002C03DF095
:1038B00001C03CF000C03BF03E5209E13D5207E13F
:1038C0003C50270804E312E13B500F080FE23E5240
:1038D0000DE13D502F081BE2FF0A08E13C50D308E0
:1038E00016E2FF0A03E13B50000811E26350040DA9
:1038F000F350036A1F0FE96E000E0320EA6EEFCF4C
:103900003BF0ECCF3CF0ECCF3DF0ECCF3EF03BC0D9
:1039100000F03CC001F03DC002F03EC003F01200D8
:103920006350020A1EE06350040DF350036A1F0F38
:10393000016E000E032201C0C9F2020103C0CAF2E7
:10394000050ECB6F00010EDFCAC2EAFFC9C2E9FF54
:1039500000C0EFFF01C0ECFF02C0ECFF03C0ECFFB2
:103960000DD0050E0201CB6F0001FCDE03C026F076
:1039700002C025F001C024F000C023F08BDE9AEFD6
:1039800028F06350010A1EE06350040DF350036AEF
:103990001F0F016E000E032201C0C9F2020103C015
:1039A000CAF2050ECB6F0001DDDECAC2EAFFC9C252
:1039B000E9FF00C0EFFF01C0ECFF02C0ECFF03C055
:1039C000ECFF0DD0050E0201CB6F0001CBDE03C072
:1039D0002AF002C029F001C028F000C027F08EDED6
:1039E000A0EF28F04550300A0CE0010A0DE0030A70
:1039F0000EE0010A0FE0070A10E0010E6D24636E6D
:103A000015D0010E636E12D0020E636E0FD0030E3E
:103A1000636E0CD0040E636E09D06350040804E199
:103A200064C063F0646A02D0040E636EE00E0201AB
:103A3000D16F63C0D2F200018EEC09F0A6EF28F03E
:103A4000D1C2D5F2D0C2D4F2CFC2D3F2CEC2D2F21A
:103A5000020E0201D66FD76B000194DCCCC24DF28E
:103A6000CDC24EF23B0E0201566F010ED26F000125
:103A7000A7EC13F012006350010A03E0030A06E00A
:103A800009D0300E02014F6F000104D0310E020147
:103A90004F6F0001460E0201CC6F520ECD6FD16BFD
:103AA000D06BCF6B4FC2CEF20001CADF120045507F
:103AB000300A03E0010A04E005D0010E636E02D073
:103AC000020E636EE00E0201D16F63C0D2F20001FC
:103AD0008EEC09F0D0DFACEF28F06350010A03E070
:103AE000030A06E009D0300E02014F6F000104D036
:103AF000310E02014F6F0001460E0201CC6F540ED1
:103B0000CD6FD16BD06BCF6B4FC2CEF2000198DF7F
:103B100012004550300A03E0010A04E005D0010E0E
:103B2000636E02D0020E636EE00E0201D16F63C0BD
:103B3000D2F200018EEC09F0D0DFB7EF28F0D0C24E
:103B4000D5F2CFC2D4F2CEC2D3F2CDC2D2F2050E9C
:103B50000201D66F010ED76F000114DC1B88120022
:103B6000490E0201656F460E666F6350020A00013E
:103B70001BE06350040DF350036A1F0FE96E000E43
:103B80000320EA6EEFCFC9F2ECCFCAF2ECCFCBF252
:103B9000ECCFCCF2CCC2D0F2CBC2CFF2CAC2CEF2C2
:103BA000C9C2CDF2CCDF09D026C0D0F225C0CFF2F9
:103BB00024C0CEF223C0CDF2C2DF78C07CF077C043
:103BC0007BF07B507C1005E1300E0201776F14D042
:103BD00000017C5026080DE2FF0A03E17B5010082B
:103BE00008E2100E7B5E270E7C5A2B0E0201776FC7
:103BF00003D02D0E0201776FD56BD46B7CC0D3F24E
:103C00007BC0D2F2130ED66F020ED76F0001C2EC4A
:103C100019F06850090809E2310E02017F6F0A0E9F
:103C2000685C300F806F06D00001300E02017F6F9C
:103C30006824806F000E1BB0010E000A000103E033
:103C4000010A06E009D0300E0201816F000104D0A4
:103C5000310E0201816F000173C082F26350010ACC
:103C600005E0030A09E0010A0DE011D0300E02015F
:103C7000836F856F00010BD0310E0201836F856F5A
:103C8000000105D0320E0201836F856F0001000E26
:103C90001ABC010E000A03E0010A06E009D0300E4A
:103CA0000201846F000104D0310E0201846F000113
:103CB000000E18BE010E000A03E0010A06E009D05A
:103CC000300E0201856F000104D0310E0201856FB4
:103CD0000001C2EF28F04550300A03E0010A03E07A
:103CE00003D0199001D01980000E19B0010E020105
:103CF000C96F490ECC6F450ECD6FD16BD06BCF6BBA
:103D0000C9C2CEF200019CDE000E19B0010E020104
:103D1000C96FF90ED16FC9C2D2F200018EEC09F061
:103D2000B5EC0EF0CCEF28F00201C9531BE1455071
:103D3000300A000105E0010A05E0030A05E011D0A0
:103D4000189A0FD0188A0DD018AA04D0B5EC0EF02E
:103D5000189A07D0020E0201D06F0001BCEC0EF0E1
:103D6000188A0201000E18BA010ECA6F4C0ECC6FF1
:103D70004B0ECD6FD16BD06BCF6BCAC2CEF20001B0
:103D80005FDE1200E5EF28F00201C9530DE1455056
:103D9000300A000103E0010A04E005D01C861992F4
:103DA00002D01C9619820201000E19B2010ECA6FD0
:103DB000590ECC6F410ECD6FD16BD06BCF6BCAC299
:103DC000CEF200013DDE12000201C95327E1455049
:103DD000300A000105E0010A05E0030A05E011D000
:103DE00018920FD018820DD018A204D0B5EC0EF0A6
:103DF000189207D0020E0201D06F0001BCEC0EF049
:103E00001882000E18B2010E0201CA6FE90ED16FBE
:103E1000CAC2D2F200018EEC09F00201000E18B203
:103E2000010ECA6F590ECC6F420ECD6FD16BD06BA5
:103E3000CF6BCAC2CEF2000103DE12000201C953E9
:103E400027E14550300A000105E0010A05E0030AB8
:103E500005E011D018940FD018840DD018A404D008
:103E6000B5EC0EF0189407D0020E0201D06F0001DD
:103E7000BCEC0EF01884000E18B4010E0201CA6FDB
:103E8000EA0ED16FCAC2D2F200018EEC09F0020133
:103E9000000E18B4010ECA6F590ECC6F430ECD6FD1
:103EA000D16BD06BCF6BCAC2CEF20001C9DD12005C
:103EB0000201C95327E14550300A000105E0010A1B
:103EC00005E0030A05E011D01B940FD01B840DD030
:103ED0001BA404D0B5EC0EF01B9407D0020E020117
:103EE000D06F0001BCEC0EF01B84000E1BB4010E61
:103EF0000201CA6FE80ED16FCAC2D2F200018EEC85
:103F000009F00201000E1BB4010ECA6F590ECC6FEE
:103F1000440ECD6FD16BD06BCF6BCAC2CEF2000115
:103F20008FDD12000201C95327E14550300A00011C
:103F300005E0010A05E0030A05E011D018980FD04A
:103F400018880DD018A804D0B5EC0EF0189807D03A
:103F5000020E0201D06F0001BCEC0EF01888000EBA
:103F600018B8010E0201CA6FE40ED16FCAC2D2F2B4
:103F700000018EEC09F00201000E18B8010ECA6FA4
:103F8000590ECC6F450ECD6FD16BD06BCF6BCAC2C3
:103F9000CEF2000155DD12000201E56B18A805D034
:103FA0000F0E6924010FE56F02D00F0EE56FE5C219
:103FB000E6F20001BBEC0BF001C002F000C001F022
:103FC00001D01C8C12000201D46B18A805D00F0E72
:103FD0006924010FD46F02D00F0ED46FD4C2D8F26F
:103FE000DC6BDB6BD3C2DAF2D2C2D9F20001A8ECEF
:103FF00009F01200030E0201E86F00014AEC08F01C
:104000001200016A026A006A036A0201E85102E1D1
:10401000E75118E0100EE96FD890E537E637003623
:104020000336E851035C02E1E751005C07E3E75126
:10403000005ED8A00306E851035ED8800136023640
:10404000E92FEAD700011200020E0201E86F000119
:104050004AEC08F034EF20F0700E0201E76FE651F1
:10406000E725816E0001F0D781EF22F0700E02018A
:10407000E76FE651E725816E00018AEF22F0020129
:10408000D76BD66BD96BD86BD45306E0206B1F6B04
:10409000226B216B236B246BD53D63D0DC6BDC5131
:1040A000090852E3DC51030DF350040DF350036A89
:1040B000A50FE96E010E0320EA6EEFCF00F0ECCF02
:1040C00001F0ECCF02F0ECCF03F00350D35D3AE304
:1040D0000BE10250D25D36E307E10150D15D32E3DE
:1040E00003E10050D05D2EE3DC51030DF350010FCE
:1040F000040DF350036AA50FE96E010E0320EA6E6A
:10410000EFCF00F0ECCF01F0ECCF02F0ECCF03F0FA
:10411000D351035C17E30BE1D251025C13E307E1D7
:10412000D151015C0FE303E1D051005C0BE3D00EF1
:10413000DC25E56FE66F000161EC09F001C069F074
:10414000020102D0DC2BABD72351695C09E01C9C37
:10415000246B69C081FF00014DDF69C023F20201B9
:104160000ED0D5C269F02351695C09E01C9C246B18
:1041700069C081FF00013EDF69C023F202011BBC60
:104180004BD019BE05D01AB003D0786A776A44D0F4
:10419000000102DF02C07AF001C079F019AE09D047
:1041A0001CAE05D07AC078F079C077F002D0786A7A
:1041B000776A1AA009D01CAE03D0786A776A04D057
:1041C0007AC078F079C077F019AE06D01AA004D082
:1041D0007AC078F079C077F07850260815E2FF0AA7
:1041E00003E177500F0810E2100E775C006E270E87
:1041F0007858036E00500201D0270350D123000EDF
:10420000D223D32309D0000177500201D05F785028
:10421000D15B000ED25BD35BD3530DE1D2510008CA
:1042200017E2FF0A08E1D151850812E2FF0A03E113
:10423000D0519F080DE2A00ED05F860ED15B010E1B
:10424000D25B000ED35B0A0ED627000ED723E4D72D
:10425000D3530AE1D25308E1D151260815E2FF0AEF
:1042600003E1D0510F0810E2100ED05F270ED15B92
:10427000000ED25BD35B010ED627000ED723640E4F
:10428000D827000ED923E4D7D3530AE1D25308E14B
:10429000D151020811E2FF0A03E1D051E7080CE214
:1042A000E80ED05F030ED15B000ED25BD35B0A0E2B
:1042B000D827000ED923E8D7D35307E1D25305E11D
:1042C000D15303E1D05163080BE2640ED05F000EBE
:1042D000D15BD25BD35B010ED827000ED923ECD77C
:1042E000DA6BD35307E1D25305E1D15303E1D05147
:1042F000090809E20A0ED05F000ED15BD25BD35BE6
:10430000010EDA27EED7DB6BD05306E1D15304E17F
:10431000D25302E1D35309E0010ED05F000ED15B0E
:10432000D25BD35B010EDB27EFD7D951000809E23E
:10433000FF0A03E1D851F30804E2F40ED85F010E3E
:10434000D95B300ED827020ED923DD6BDE6BDF6B15
:10435000E06BE16BE26BE36BE46B1F51D85D03E153
:104360002051D95D34E0D9C2DEF2D931E66FD831BF
:10437000E56FE633E533E633E533E633E5330F0E39
:10438000E617E5510F0BDF6FD8510F0BE06F300EC2
:10439000DD25E56FE66F00019EEC08F0200E0201BE
:1043A000DE25E56FE66F00019EEC08F0100E0201BD
:1043B000DF25E56FE66F00019EEC08F0E0C2E6F253
:1043C0009EEC08F0D9C220F2D8C21FF2020121519E
:1043D000D65D04E12251D75DD8B48AD06950050872
:1043E00034E3D7C2E6F2D6C2E5F2E86B050EE76F1A
:1043F000000107DE02C0E6F201C0E5F20C0E020188
:10440000E527000EE623E631036EE531026E033246
:104410000232033202320332023202C0E3F2D7C266
:10442000E6F2D6C2E5F2E86B050EE76F0001E9DDC2
:1044300002C0E6F201C0E5F20C0E0201E527000E13
:10444000E623E5510F0BE46F33D0D7C2E6F2D6C2B4
:10445000E5F2E86B050EE76F0001D3DD02C0E6F27E
:1044600001C0E5F2120E0201E55F000EE65BE631E7
:10447000036EE531026E033202320332023203323E
:10448000023202C0E3F2D7C2E6F2D6C2E5F2E86B2E
:10449000050EE76F0001B5DD02C0E6F201C0E5F2EE
:1044A000120E0201E55F000EE65BE5510F0BE46FB3
:1044B000300EE125E56FE66F0001A6EC08F0200E56
:1044C0000201E225E56FE66F0001A6EC08F0100E90
:1044D0000201E325E56FE66F0001A6EC08F0E4C2F7
:1044E000E6F2A6EC08F0D7C222F2D6C221F202010F
:1044F000DB51245D09E0010EDB25E56FE66F00016D
:10450000ABD5DBC224F20201010EDA25E56FE66FBE
:104510000001ACD59FEC0EF001C060F060C061F00E
:1045200012001B8C19BE0CD01AB00AD0FB0E02016F
:10453000D16F030ED26F00018EEC09F0198E1A8034
:104540000201CB51CC1108E1000126DD02C078F058
:1045500001C077F006D00201CCC278F0CBC277F070
:10456000000178504D080CE2FF0A03E177501F0864
:1045700007E2786A776A0201D36BD26B000123DD10
:104580006350040DF350036A1F0FE96E000E032001
:10459000EA6EEFCF3BF0ECCF3CF0ECCF3DF0ECCF50
:1045A0003EF0785026080BE2FF0A03E177500F082F
:1045B00006E2100E775E270E785A1B9E01D01B8EE6
:1045C000010E0201CD6FCF91CF93CD2DA8D0CFA3F7
:1045D00005D0010E775E000E785ACF93CFA105D09B
:1045E000010E7726000E7822CF91773C0AD0783CD6
:1045F00008D0786A010E776E1BBE02D01B8E01D0E8
:104600001B9E7750781066E0785027085CE303E142
:1046100077500F0858E3000E1BBE010E010A00017F
:104620001FE06350040DF350036A1F0FE96E000E84
:104630000320EA6EEFCFD0F2ECCFD1F2ECCFD2F282
:10464000ECCFD3F277500201D0253B6E7850D121C8
:104650003C6E000ED2213D6E000ED3213E6E1ED068
:104660006350040DF350036A1F0FE96E000E032020
:10467000EA6EEFCFD0F2ECCFD1F2ECCFD2F2ECCFAA
:10468000D3F277500201D05D3B6E7850D1593C6E29
:10469000000ED2593D6E000ED3593E6E000E1BBE69
:1046A000010EFF0A050FD06FD469D569D96BD86B9D
:1046B00078C0D7F277C0D6F2DA69DB6F0001CDECB3
:1046C0000EF006D00201270E786E0F0E776E0001F5
:1046D00016D00201D469D569D96BD86BD76B010E9E
:1046E000D66FDA69050EDB6F0001CDEC0EF0B5EC8C
:1046F0000EF0C80E0201D66F00013BEC0EF03EC07A
:10470000D3F23DC0D2F23CC0D1F23BC0D0F2010E98
:104710000201D46FD5690001B2DC0201CD6BCB512F
:10472000CC110CE0040ED06FFA0ED66F00013BECFA
:104730000EF00201D02FF8D7020ECD6FCD5337E126
:10474000000E1BBE010ED06FD0C2D1F200019FEC53
:104750000EF001C060F06150605C04E1000E016E7B
:1047600021D01ED00201D1530CE182A805D0010E48
:104770007726000E782204D0010E775E000E785A5C
:104780000BD082A805D0010E775E000E785A04D0B7
:10479000010E7726000E7822010E016E000102D074
:1047A000000E016E015204E0010E0201CD6F000106
:1047B0000201CD53D8A4A0D0D06B000131EC11F090
:1047C00001C0CEF20201CE53D8B496D0010ECD6F07
:1047D0001BBE31D0CE51020A00010DE0010A0FE0EC
:1047E000050A11E00A0A14E0070A16E0060A18E0B2
:1047F000120A1BE01ED00201CF8300011AD0020171
:10480000CF81000116D0030E0201CD6F000111D03F
:104810000201CF8300010DD00201CF81000109D038
:10482000020E0201CD6F000104D0020E0201CD6F15
:10483000000130D00201CE51020A00010DE0010A50
:104840000FE0050A11E00A0A14E0070A16E0060A5A
:1048500018E0120A1BE01ED00201CF8100011AD01D
:104860000201CF83000116D0030E0201CD6F0001BB
:1048700011D00201CF8100010DD00201CF830001D0
:1048800009D0020E0201CD6F000104D0020E020118
:10489000CD6F00010201CE2D2FD00001B5EC0EF03E
:1048A0006350040DF350036A1F0FE96E000E0320DE
:1048B000EA6EEFCFD0F2ECCFD1F2ECCFD2F2ECCF68
:1048C000D3F20201D469D569D3C2D9F2D2C2D8F2E7
:1048D000D1C2D7F2D0C2D6F2DA69DB6B0001CDECDF
:1048E0000EF0040E0201D06FFA0ED66F00013BEC01
:1048F0000EF00201D02FF8D7CD51020803E0CD51C0
:104900000308D8B401D061D6CD51020829E11BBEFD
:104910000DD0100E7724D06F270E7820D16FD36F73
:10492000D0C2D2F20001E3EC1FF002011BAE08D0AE
:1049300078C0D3F277C0D2F20001E3EC1FF002019D
:10494000020ED06F0001BCEC0EF0040E0201D06F1D
:10495000FA0ED66F00013BEC0EF00201D02FF8D713
:10496000CD51030826E1D36BD26B0001E3EC1FF0BD
:104970000201D469D569D96BD86BD76B010ED66F9C
:10498000DA69050EDB6F0001CDEC0EF0B5EC0EF030
:10499000030E0201D06F0001BCEC0EF0040E020108
:1049A000D06FFA0ED66F00013BEC0EF00201D02F53
:1049B000F8D71B9C00011200300E436E446E435C1E
:1049C0000201CB6F300E445CCC6F300E455CCD6F76
:1049D000300E465CCE6F300E475CCF6F300E485CB9
:1049E000D06F300E495CD16FCBC2D3F2CCC2D4F2BF
:1049F000CDC2D5F2CEC2D6F2CFC2D7F2D0C2D8F253
:104A0000D96F000167EC17F001C0CAF200C0C9F20B
:104A1000CAC2CCF2C9C2CBF284DD590E0201CC6FFE
:104A2000460ECD6FD16BD06BCAC2CFF2C9C2CEF2E7
:104A3000000120EC1DF04DEF29F00F0E0201CA6FAE
:104A4000CB6BCB51070841E3000E18BA010ECC6FB7
:104A5000CB51040DF350010F036A280FE96E020ECB
:104A60000320EA6EEF50CC5D2EE1000E18BC010E63
:104A7000CC6FCB51040DF350020F036A280FE96E7F
:104A8000020E0320EA6EEF50CC5D1DE1000E18BE51
:104A9000010ECC6FCB51040DF350030F036A280FA6
:104AA000E96E020E0320EA6EEF50CC5D0CE1CB51B3
:104AB000040DF350036A280FE96E020E0320EA6E1C
:104AC000EFCFCAF202D0CB2BBCD7CAC201F0000193
:104AD00012000201C95330E1645208E163C064F07E
:104AE0006450040803E1010E6D24646E4550310AE0
:104AF00000010CE0030A0DE0010A0EE0070A0FE0D6
:104B0000010A10E0010E6D24636E15D0010E636E74
:104B100012D0020E636E0FD0030E636E0CD0040E23
:104B2000636E09D06350040804E164C063F0646AF2
:104B300002D0040E636E0201189C189E00017DDFF6
:104B400001C062F0590E0201CC6F470ECD6FD16BE0
:104B5000D06BCF6B63C0CEF2000120EC1DF01200D1
:104B60000201C95329E146503B0807E1030ED06F0B
:104B70000001BCEC0EF02CD00201300E455C0A0D99
:104B8000F3CFCAF2300E465CCA27CA5315E0CA51A9
:104B9000280812E3CAC287F0CA6B040E636EE60EE1
:104BA000D16F87C0D2F200018EEC09F00201D16B07
:104BB0000001FDEC13F00201590ECC6F480ECD6FD1
:104BC000D16BD06BCF6B87C0CEF2000120EC1DF013
:104BD00012004550300A03E0010A08E00DD0885366
:104BE00002E0880702D0070E886F06D088510608B9
:104BF00002E3882B01D0886B040E636EE70E02017E
:104C0000D16F88C0D2F200018EEC09F00201D16BA5
:104C10000001FDEC13F074EF29F00201C9531BE110
:104C2000300E455C18E0300E455C080814E3310E88
:104C3000455C0001886F040E636EE70E0201D16FC0
:104C400088C0D2F200018EEC09F00201D16B0001A4
:104C5000FDEC13F00201010E000188250201CA6F6C
:104C6000590ECC6F4A0ECD6FD16BD06BCF6BCAC2D1
:104C7000CEF2000120EC1DF012000201C95312E136
:104C8000300E455C0FE0300E455C08080BE3300E3B
:104C9000455C706EEC0ED16F70C0D2F200018EECEC
:104CA00009F00201590ECC6F4B0ECD6FD16BD06B5A
:104CB000CF6B70C0CEF2000120EC1DF0120002019B
:104CC000C95327E14550300A000105E0010A05E01B
:104CD000030A05E011D018960FD018860DD018A63B
:104CE00004D0B5EC0EF0189607D0020E0201D06F7A
:104CF0000001BCEC0EF01886000E18B6010E020181
:104D0000CA6FFA0ED16FCAC2D2F200018EEC09F05E
:104D10000201000E18B6010ECA6F590ECC6F4C0E70
:104D2000CD6FD16BD06BCF6BCAC2CEF2000120EC3D
:104D30001DF012000201CA6BC9532FE14550300A21
:104D4000000105E0010A0AE0030A0FE025D01A92EB
:104D50001A9C040E0201CA6F00011ED01A821A8C1E
:104D6000050E0201CA6F000117D01AAC09D0B5ECCC
:104D70000EF01A921A9C040E0201CA6F0CD00001A8
:104D8000020E0201D06F0001BCEC0EF01A821A8CE8
:104D9000050E0201CA6F00010201000E1AB2010ED7
:104DA000CB6F590ECC6F4D0ECD6FD16BD06BCF6BDF
:104DB000CBC2CEF2000120EC1DF00201CAC201F00C
:104DC000000112000201CA6BC9532AE14550300AA2
:104DD000000105E0010A09E0030A0DE020D019985E
:104DE000060E0201CA6F00011AD01988070E0201CF
:104DF000CA6F000114D019A807D0B5EC0EF01998AD
:104E0000060E0201CA6F0AD0020E0201D06F000125
:104E1000BCEC0EF01988070E0201CA6F00010201F6
:104E2000000E19B8010ECB6F590ECC6F4E0ECD6F20
:104E3000D16BD06BCF6BCBC2CEF2000120EC1DF05A
:104E40000201CAC201F0000112000201C95332E19D
:104E5000300E455CFC0F14E2040F000167EF27F0F1
:104E6000716A02010DD0010E716E020109D0020EAD
:104E7000716E020105D0030E716E020101D00201B4
:104E8000715202E1199E1A90712C02D0198E1A905B
:104E90007150020802E1199E1A807150030802E164
:104EA000198E1A80FB0ED16F71C0D2F200018EEC08
:104EB00009F00201590ECC6F4F0ECD6FD16BD06B44
:104EC000CF6B71C0CEF2000120EC1DF01200F2CFCA
:104ED0000DF0F29EE824F76AF736F30FF66E4E0EE9
:104EE000F7220A00F550FA6E0800F5500DBEF28E5A
:104EF000F96E604E664E6E4E764E4550300A03E0B7
:104F0000010A07E00CD00201CF6B0001C9EC17F0D9
:104F100006D0010E0201CF6F0001C9EC17F02EEF91
:104F20002AF0020E0201D26F0001A7EC13F033EF5A
:104F30002AF09D9A0201C96B9EAA15D0000116ECB9
:104F400007F001C0CBF2C9C2E7F201C0E8F266EC9B
:104F500009F0C9C2D5F289EC13F001503B08D8B46E
:104F600004D00201C92BE8D700010201CA6BC95164
:104F7000CA5D25E2CAC2D5F2000189EC13F001C076
:104F8000CBF2CAC2D1F201C0D2F28EEC09F0200EEF
:104F9000006E002EFED700D00000CAC2E6F261EC1F
:104FA00009F001C0CBF2CAC2D5F289EC13F001506E
:104FB0000201CB5D02E1CA2B01D001D0D8D79D8A76
:104FC0000001B5EC0EF014EC0DF038EF2AF0020100
:104FD000C56BC66BC86BC76BC853D8A47ED0C7510E
:104FE0006308D8A07AD0C735C96FC835CA6FC9372A
:104FF000CA37FC0EC917CAC203F0C951F2CFCBF2AF
:10500000F29ECAC2F7FF0001FAEC02F00201CBBF28
:10501000F28E016E435C5DE1C735CB6FC835CC6F56
:10502000CB37CC37FC0ECB17010ECB27000ECC2391
:10503000CCC203F0CB51F2CFCDF2F29ECCC2F7FF3F
:105040000001FAEC02F00201CDBFF28E016E445C69
:1050500040E1C735CD6FC835CE6FCD37CE37FC0EAA
:10506000CD17020ECD27000ECE23CEC203F0CD51B8
:10507000F2CFCFF2F29ECEC2F7FF0001FAEC02F0BF
:105080000201CFBFF28E036A430FE96E000E0320C8
:10509000EA6EEF503B081DE1C735C96FC835CA6FCE
:1050A000C937CA37FC0EC917030EC927000ECA2319
:1050B000CAC203F0C951F2CFCBF2F29ECAC2F7FFC7
:1050C0000001FAEC02F00201CBBFF28E016EC56F57
:1050D00004D0C72BD8B4C82B7FD7010EC55DB90F3C
:1050E000D8B0CBD1470F000142EF2AF0ACEF19F056
:1050F000020E0201C66FC1D10201CF6B0001A5EC07
:1051000016F0020E0201C66FB8D10201CF6B00018A
:10511000FEEC15F0020E0201C66FAFD14AEC1BF097
:105120000201C66BAAD17EEC1BF00201C66BA5D1B1
:1051300090EF1CF0010E0201C66F9FD1C1EF1CF071
:10514000010E0201C66F99D1F2EF1CF0020E0201AE
:10515000C66F93D157EF1DF0010E0201C66F8DD1BE
:105160003BEC1DF00201C66B88D189EF1DF0010EEA
:105170000201C66F82D16DEC1DF00201C66B7DD1BC
:10518000B0EF1DF00201D26B0001A7EC13F0020199
:10519000C66B73D16BEF1EF0020E0201C66F6DD1AC
:1051A000010E0201C96F000194EC1EF0030E020112
:1051B000C66F63D10201C96B000194EC1EF0030EAF
:1051C0000201C66F5AD1C2EF1EF0020E0201C66F75
:1051D00054D145C073F00201C66B4FD11B9A020136
:1051E000C66B4BD11B8A0201C66B47D10201C96B4A
:1051F0000001C4EC1EF00201C66B3FD1010E02019A
:10520000C96F0001C4EC1EF00201C66B36D1020169
:10521000C96B0001E4EC1EF00201C66B2ED1010E39
:105220000201C96F0001E4EC1EF00201C66B25D13A
:105230000201C96B00011EEC1FF00201C66B1DD1FB
:10524000010E0201C96F00011EEC1FF00201C66BC6
:1052500014D10201C96B000158EC1FF00201C66BAA
:105260000CD1010E0201C96F000158EC1FF00201C0
:10527000C66B03D10201C96B000192EC1FF0020161
:10528000C66BFBD0010E0201C96F000192EC1FF04A
:105290000201C66BF2D0DCEF24F0020E0201C66FF1
:1052A000ECD00201C96B000114DC020E0201C66FD2
:1052B000E4D0010E0201C96F00010BDC020E0201F5
:1052C000C66FDBD00201C96B00014ADC020E02018D
:1052D000C66FD3D0010E0201C96F000141DC020E7E
:1052E0000201C66FCAD075D4020E0201C66FC5D0C6
:1052F0000201C96B000191DC020E0201C66FBDD034
:105300000201C96B000189DC020E0201C66FB5D033
:105310000201C96B0001B1DC0201C66BAED0010E07
:105320000201C96F0001A9DC0201C66BA6D002010F
:10533000C96B0001C4DC020E0201C66F9ED0010ED3
:105340000201C96F0001BBDC0201C66B96D00201ED
:10535000C96B0001EFDC01C0C6F202018ED0010E64
:105360000201C96F0001E6DC0201C66B86D00201B2
:10537000C96B000127DD01C0C6F202017ED0010E1B
:105380000201C96F00011EDD0201C66B76D0020169
:10539000C96B00015ADD020E0201C66F6ED0010E0C
:1053A0000201C96F000151DD0201C66B66D0B5EC88
:1053B0000EF0B2EC14F0030E0201C66F5ED0B5EC35
:1053C0000EF0C1EC14F0020E0201C66F56D02AECAA
:1053D00015F0020E0201C66F50D0B5EC0EF04EEC87
:1053E00015F0030E0201C66F48D0B5EC0EF0ABEC21
:1053F00015F0020E0201C66F40D0B5EC0EF019B6E2
:1054000002D0198601D019960201C66B36D0BFECC6
:1054100015F0020E0201C66F30D0B5EC0EF002019D
:10542000CF6B0001FEEC15F0020E0201C66F25D015
:10543000B5EC0EF00201CF6B0001A5EC16F0020EE8
:105440000201C66F1AD0B5EC0EF04BEC17F0030E4C
:105450000201C66F12D0B5EC0EF04FD5020E02015C
:10546000C66F0BD05ED5040E0201C66F06D061D5A3
:10547000040E0201C66F01D00201C6C201F0000194
:10548000ACEF2AF0F2CF0DF0F29EE824F76AF7367F
:10549000A90FF66E540EF7220A00F550FA6E0800B6
:1054A000F5500DBEF28EF96EEC507854F8500A515A
:1054B0001C51265130513C514851545160516A5150
:1054C000765180519451A051B451C651D251785463
:1054D00078547854785478547854DC51E4517854A2
:1054E0007854EC51FC510E521E52305240525252DE
:1054F0006252745284529652A252B252C452D45240
:10550000E652F052005310531E532E533E534E5347
:105510005E536E537E538E539E53AE53BE53CE5343
:10552000DA53EA53FA530E541A543054465456542C
:10553000785464546E540201C46B19B209D000014E
:1055400081EF18F001C0C4F20201C45301E01C96BF
:1055500019A205D000013BD501C0C4F202011A9E78
:105560001D94C451030806E100011DEC25F001C0A3
:1055700062F00201C4C201F0000112000201B26B2C
:10558000B886110EAF6E040EB06EA60EAC6E900E05
:10559000AB6E00000000640ED66F00013BEC0EF015
:1055A000460E02014D6F540E4E6F430E4F6F460E66
:1055B000506F470E516F3B0E526F010ED26F0001BC
:1055C000A7EC13F00201B36BB351630813E31AAEF7
:1055D00005D00001B0DF01C0B2F20201020ED66FA9
:1055E00000013BEC0EF00201B2510408D8B402D025
:1055F000B32BEAD7B251040803E1010E016E02D0C9
:10560000000E016E0001DBEF3AF00201CC6BCC51D1
:10561000090850E3CC51040DF350036AF2CFCDF2E8
:10562000F29E0001D7EC02F0006E0900F5CF01F008
:105630000900F5CF02F00900F5CF03F00201CDBF5C
:10564000F28E0350CB5D34E30BE10250CA5D30E3D0
:1056500007E10150C95D2CE303E10050C85D28E378
:10566000010ECC25040DF350036AF2CFCDF2F29E69
:105670000001D7EC02F0006E0900F5CF01F009003F
:10568000F5CF02F00900F5CF03F00201CDBFF28E95
:10569000CB51035C0DE30BE1CA51025C09E307E166
:1056A000C951015C05E303E10050C85DD8A002D0F8
:1056B000CC2BADD7CCC201F00001A4EF2BF09FECB6
:1056C0000EF001C060F06150605C04E1000E016EFC
:1056D0000BD00AD060C061F082A804D0020E016E27
:1056E00003D002D0010E016E120063C0BEF21CB8DE
:1056F00002D019A804D0040E0201BE270001020145
:10570000BF6BC06BC16BC291C293C295C29783B08D
:10571000FED76350040DF350036A1F0FE96E000EAD
:105720000320EA6EEFCFC4F2ECCFC5F2ECCFC6F2A5
:10573000ECCFC7F2C7C2CBF2C6C2CAF2C5C2C9F229
:10574000C4C2C8F2000161D701C0BCF20201BE2D83
:1057500001D003D0BE51020859E1BC51040DF350F1
:10576000036AF2CFC4F2F29E0001D7EC02F0090006
:10577000F5CF01F00900F5CF02F00900F5CF03F0F5
:105780000201C4BFF28E03C0B5F202C0B4F201C080
:10579000B3F2B26FBC51090807E1B96BB86BC30E25
:1057A000B76F500EB66F1ED0010EBC25040DF3501E
:1057B000036AF2CFC4F2F29E0001D7EC02F00900B6
:1057C000F5CF01F00900F5CF02F00900F5CF03F0A5
:1057D0000201C4BFF28E03C0B9F202C0B8F201C028
:1057E000B7F2B66F6350040DF350036A1F0FE96EF2
:1057F000000E0320EA6EEFCF3BF0ECCF3CF0ECCF95
:105800003DF0ECCF3EF0010EBA6FC285BE510308E9
:10581000D8A462D068C0D1F200015DEC0CF003C0E6
:10582000B5F202C0B4F201C0B3F200C0B2F26850E7
:105830000E080EE10201D16B00015DEC0CF003C01B
:10584000B9F202C0B8F201C0B7F200C0B6F210D08F
:10585000010E68240201C46FD16F00015DEC0CF0F1
:1058600003C0B9F202C0B8F201C0B7F200C0B6F28C
:105870000201B551B95D14E30BE1B451B85D10E319
:1058800007E1B351B75D0CE303E1B651B25D08E245
:10589000B5C23EF0B4C23DF0B3C23CF0B2C23BF080
:1058A000B951B55D14E30BE1B851B45D10E307E104
:1058B000B751B35D0CE303E1B251B65D08E2B9C282
:1058C0003EF0B8C23DF0B7C23CF0B6C23BF068C093
:1058D000BDF2010EBA6FC285BE51040804E0BE518C
:1058E0000808D8A492D087C0BDF287C0C1F288C092
:1058F000C0F2020EBA6F19B47FD0D76B88C0D6F24F
:10590000D96BA40ED86F0001EEEC0BF002C0D3F2FD
:1059100001C0D2F202C003F002010150F2CFD4F272
:10592000F29E02C0F7FF0001B7EC03F0006E090021
:10593000F5CF01F00900F5CF02F00900F5CF03F033
:105940000201D4BFF28E03C0D7F202C0D6F201C06A
:10595000D5F2D46FD4530FE1D5530DE1D6530BE1FB
:10596000D75309E100018851060802E3882B01D0D2
:10597000886B0201C2D700018751010802E3010EC2
:10598000876F8751270802E2280E876F0201D76BC5
:1059900088C0D6F2D96BA40ED86F0001EEEC0BF0E4
:1059A00002C0D3F201C0D2F20201D76B87C0D6F297
:1059B000D96B040ED86F0001EEEC0BF002C003F0BF
:1059C00001500201D225016ED35103220150F2CFC2
:1059D000D2F2F29E03C0F7FF0001B7EC03F0006EB5
:1059E0000900F5CF01F00900F5CF02F00900F5CF6D
:1059F00003F00201D2BFF28E03C03EF002C03DF0C0
:105A000001C03CF000C03BF0C285BE51070815E163
:105A100068C0BDF268C0C1F2010EBA6F68C0D1F2B1
:105A200000015DEC0CF003C03EF002C03DF001C08F
:105A30003CF000C03BF00201C295BE51050803E0F6
:105A4000BE5106084EE1BC51040DF350036AF2CF7B
:105A5000C4F2F29E0001D7EC02F00900F5CF01F08C
:105A60000900F5CF02F00900F5CF03F00201C4BF31
:105A7000F28E03C0B5F202C0B4F201C0B3F2B26F4D
:105A8000BC51040DF350036AF2CFC4F2F29E000140
:105A900094EC03F00900F5CF01F00900F5CF02F016
:105AA0000900F5CF03F00201C4BFF28E03C0B9F2C2
:105AB00002C0B8F201C0B7F2B66F6350040DF350E4
:105AC000036A1F0FE96E000E0320EA6EEFCF3BF072
:105AD000ECCF3CF0ECCF3DF0ECCF3EF0010EBA6FD6
